{
	"contracts/zombieWeapons.sol": {
		"ZombieWeapons": {
			"abi": [
				{
					"anonymous": false,
					"inputs": [
						{
							"indexed": true,
							"internalType": "address",
							"name": "previousOwner",
							"type": "address"
						},
						{
							"indexed": true,
							"internalType": "address",
							"name": "newOwner",
							"type": "address"
						}
					],
					"name": "OwnershipTransferred",
					"type": "event"
				},
				{
					"anonymous": false,
					"inputs": [
						{
							"indexed": false,
							"internalType": "address",
							"name": "playerId",
							"type": "address"
						},
						{
							"indexed": false,
							"internalType": "string",
							"name": "name",
							"type": "string"
						},
						{
							"indexed": false,
							"internalType": "uint256",
							"name": "weaponProperties",
							"type": "uint256"
						}
					],
					"name": "WeaponFound",
					"type": "event"
				},
				{
					"inputs": [],
					"name": "isOwner",
					"outputs": [
						{
							"internalType": "bool",
							"name": "",
							"type": "bool"
						}
					],
					"stateMutability": "view",
					"type": "function"
				},
				{
					"inputs": [],
					"name": "owner",
					"outputs": [
						{
							"internalType": "address",
							"name": "",
							"type": "address"
						}
					],
					"stateMutability": "view",
					"type": "function"
				},
				{
					"inputs": [],
					"name": "renounceOwnership",
					"outputs": [],
					"stateMutability": "nonpayable",
					"type": "function"
				},
				{
					"inputs": [
						{
							"internalType": "address",
							"name": "newOwner",
							"type": "address"
						}
					],
					"name": "transferOwnership",
					"outputs": [],
					"stateMutability": "nonpayable",
					"type": "function"
				},
				{
					"inputs": [
						{
							"internalType": "uint256",
							"name": "",
							"type": "uint256"
						}
					],
					"name": "weapons",
					"outputs": [
						{
							"internalType": "string",
							"name": "name",
							"type": "string"
						},
						{
							"internalType": "uint8",
							"name": "range",
							"type": "uint8"
						},
						{
							"internalType": "uint8",
							"name": "damage",
							"type": "uint8"
						},
						{
							"internalType": "uint8",
							"name": "durability",
							"type": "uint8"
						}
					],
					"stateMutability": "view",
					"type": "function"
				}
			],
			"devdoc": {
				"kind": "dev",
				"methods": {
					"isOwner()": {
						"returns": {
							"_0": "true if `msg.sender` is the owner of the contract."
						}
					},
					"owner()": {
						"returns": {
							"_0": "the address of the owner."
						}
					},
					"renounceOwnership()": {
						"details": "Allows the current owner to relinquish control of the contract."
					},
					"transferOwnership(address)": {
						"details": "Allows the current owner to transfer control of the contract to a newOwner.",
						"params": {
							"newOwner": "The address to transfer ownership to."
						}
					}
				},
				"version": 1
			},
			"evm": {
				"assembly": "    /* \"contracts/zombieWeapons.sol\":92:1393  contract ZombieWeapons is LookAround{... */\n  mstore(0x40, 0x80)\n    /* \"contracts/zombieWeapons.sol\":531:532  0 */\n  0x00\n    /* \"contracts/zombieWeapons.sol\":514:532  uint RandNonce = 0 */\n  0x05\n  sstore\n    /* \"contracts/zombieWeapons.sol\":92:1393  contract ZombieWeapons is LookAround{... */\n  callvalue\n  dup1\n  iszero\n  tag_1\n  jumpi\n  0x00\n  dup1\n  revert\ntag_1:\n  pop\n    /* \"contracts/ownable.sol\":556:566  msg.sender */\n  caller\n    /* \"contracts/ownable.sol\":547:553  _owner */\n  0x00\n  dup1\n    /* \"contracts/ownable.sol\":547:566  _owner = msg.sender */\n  0x0100\n  exp\n  dup2\n  sload\n  dup2\n  0xffffffffffffffffffffffffffffffffffffffff\n  mul\n  not\n  and\n  swap1\n  dup4\n  0xffffffffffffffffffffffffffffffffffffffff\n  and\n  mul\n  or\n  swap1\n  sstore\n  pop\n    /* \"contracts/ownable.sol\":611:617  _owner */\n  0x00\n  dup1\n  sload\n  swap1\n  0x0100\n  exp\n  swap1\n  div\n  0xffffffffffffffffffffffffffffffffffffffff\n  and\n    /* \"contracts/ownable.sol\":578:618  OwnershipTransferred(address(0), _owner) */\n  0xffffffffffffffffffffffffffffffffffffffff\n  and\n    /* \"contracts/ownable.sol\":607:608  0 */\n  0x00\n    /* \"contracts/ownable.sol\":578:618  OwnershipTransferred(address(0), _owner) */\n  0xffffffffffffffffffffffffffffffffffffffff\n  and\n  0x8be0079c531659141344cd1fd0a4f28419497f9722a3daafe3b4186f6b6457e0\n  mload(0x40)\n  mload(0x40)\n  dup1\n  swap2\n  sub\n  swap1\n  log3\n    /* \"contracts/zombieWeapons.sol\":92:1393  contract ZombieWeapons is LookAround{... */\n  dataSize(sub_0)\n  dup1\n  dataOffset(sub_0)\n  0x00\n  codecopy\n  0x00\n  return\nstop\n\nsub_0: assembly {\n        /* \"contracts/zombieWeapons.sol\":92:1393  contract ZombieWeapons is LookAround{... */\n      mstore(0x40, 0x80)\n      callvalue\n      dup1\n      iszero\n      tag_1\n      jumpi\n      0x00\n      dup1\n      revert\n    tag_1:\n      pop\n      jumpi(tag_2, lt(calldatasize, 0x04))\n      shr(0xe0, calldataload(0x00))\n      dup1\n      0x555e73c8\n      eq\n      tag_3\n      jumpi\n      dup1\n      0x715018a6\n      eq\n      tag_4\n      jumpi\n      dup1\n      0x8da5cb5b\n      eq\n      tag_5\n      jumpi\n      dup1\n      0x8f32d59b\n      eq\n      tag_6\n      jumpi\n      dup1\n      0xf2fde38b\n      eq\n      tag_7\n      jumpi\n    tag_2:\n      0x00\n      dup1\n      revert\n        /* \"contracts/zombieWeapons.sol\":362:385  Weapon[] public weapons */\n    tag_3:\n      tag_8\n      0x04\n      dup1\n      calldatasize\n      sub\n      dup2\n      add\n      swap1\n      tag_9\n      swap2\n      swap1\n      tag_10\n      jump\t// in\n    tag_9:\n      tag_11\n      jump\t// in\n    tag_8:\n      mload(0x40)\n      tag_12\n      swap5\n      swap4\n      swap3\n      swap2\n      swap1\n      tag_13\n      jump\t// in\n    tag_12:\n      mload(0x40)\n      dup1\n      swap2\n      sub\n      swap1\n      return\n        /* \"contracts/ownable.sol\":1332:1462  function renounceOwnership() public onlyOwner {... */\n    tag_4:\n      tag_14\n      tag_15\n      jump\t// in\n    tag_14:\n      stop\n        /* \"contracts/ownable.sol\":682:754  function owner() public view returns(address) {... */\n    tag_5:\n      tag_16\n      tag_17\n      jump\t// in\n    tag_16:\n      mload(0x40)\n      tag_18\n      swap2\n      swap1\n      tag_19\n      jump\t// in\n    tag_18:\n      mload(0x40)\n      dup1\n      swap2\n      sub\n      swap1\n      return\n        /* \"contracts/ownable.sol\":980:1065  function isOwner() public view returns(bool) {... */\n    tag_6:\n      tag_20\n      tag_21\n      jump\t// in\n    tag_20:\n      mload(0x40)\n      tag_22\n      swap2\n      swap1\n      tag_23\n      jump\t// in\n    tag_22:\n      mload(0x40)\n      dup1\n      swap2\n      sub\n      swap1\n      return\n        /* \"contracts/ownable.sol\":1626:1729  function transferOwnership(address newOwner) public onlyOwner {... */\n    tag_7:\n      tag_24\n      0x04\n      dup1\n      calldatasize\n      sub\n      dup2\n      add\n      swap1\n      tag_25\n      swap2\n      swap1\n      tag_26\n      jump\t// in\n    tag_25:\n      tag_27\n      jump\t// in\n    tag_24:\n      stop\n        /* \"contracts/zombieWeapons.sol\":362:385  Weapon[] public weapons */\n    tag_11:\n      0x03\n      dup2\n      dup2\n      sload\n      dup2\n      lt\n      tag_28\n      jumpi\n      0x00\n      dup1\n      revert\n    tag_28:\n      swap1\n      0x00\n      mstore\n      keccak256(0x00, 0x20)\n      swap1\n      0x02\n      mul\n      add\n      0x00\n      swap2\n      pop\n      swap1\n      pop\n      dup1\n      0x00\n      add\n      dup1\n      sload\n      tag_30\n      swap1\n      tag_31\n      jump\t// in\n    tag_30:\n      dup1\n      0x1f\n      add\n      0x20\n      dup1\n      swap2\n      div\n      mul\n      0x20\n      add\n      mload(0x40)\n      swap1\n      dup2\n      add\n      0x40\n      mstore\n      dup1\n      swap3\n      swap2\n      swap1\n      dup2\n      dup2\n      mstore\n      0x20\n      add\n      dup3\n      dup1\n      sload\n      tag_32\n      swap1\n      tag_31\n      jump\t// in\n    tag_32:\n      dup1\n      iszero\n      tag_33\n      jumpi\n      dup1\n      0x1f\n      lt\n      tag_34\n      jumpi\n      0x0100\n      dup1\n      dup4\n      sload\n      div\n      mul\n      dup4\n      mstore\n      swap2\n      0x20\n      add\n      swap2\n      jump(tag_33)\n    tag_34:\n      dup3\n      add\n      swap2\n      swap1\n      0x00\n      mstore\n      keccak256(0x00, 0x20)\n      swap1\n    tag_35:\n      dup2\n      sload\n      dup2\n      mstore\n      swap1\n      0x01\n      add\n      swap1\n      0x20\n      add\n      dup1\n      dup4\n      gt\n      tag_35\n      jumpi\n      dup3\n      swap1\n      sub\n      0x1f\n      and\n      dup3\n      add\n      swap2\n    tag_33:\n      pop\n      pop\n      pop\n      pop\n      pop\n      swap1\n      dup1\n      0x01\n      add\n      0x00\n      swap1\n      sload\n      swap1\n      0x0100\n      exp\n      swap1\n      div\n      0xff\n      and\n      swap1\n      dup1\n      0x01\n      add\n      0x01\n      swap1\n      sload\n      swap1\n      0x0100\n      exp\n      swap1\n      div\n      0xff\n      and\n      swap1\n      dup1\n      0x01\n      add\n      0x02\n      swap1\n      sload\n      swap1\n      0x0100\n      exp\n      swap1\n      div\n      0xff\n      and\n      swap1\n      pop\n      dup5\n      jump\t// out\n        /* \"contracts/ownable.sol\":1332:1462  function renounceOwnership() public onlyOwner {... */\n    tag_15:\n        /* \"contracts/ownable.sol\":873:882  isOwner() */\n      tag_37\n        /* \"contracts/ownable.sol\":873:880  isOwner */\n      tag_21\n        /* \"contracts/ownable.sol\":873:882  isOwner() */\n      jump\t// in\n    tag_37:\n        /* \"contracts/ownable.sol\":865:883  require(isOwner()) */\n      tag_38\n      jumpi\n      0x00\n      dup1\n      revert\n    tag_38:\n        /* \"contracts/ownable.sol\":1427:1428  0 */\n      0x00\n        /* \"contracts/ownable.sol\":1390:1430  OwnershipTransferred(_owner, address(0)) */\n      0xffffffffffffffffffffffffffffffffffffffff\n      and\n        /* \"contracts/ownable.sol\":1411:1417  _owner */\n      0x00\n      dup1\n      sload\n      swap1\n      0x0100\n      exp\n      swap1\n      div\n      0xffffffffffffffffffffffffffffffffffffffff\n      and\n        /* \"contracts/ownable.sol\":1390:1430  OwnershipTransferred(_owner, address(0)) */\n      0xffffffffffffffffffffffffffffffffffffffff\n      and\n      0x8be0079c531659141344cd1fd0a4f28419497f9722a3daafe3b4186f6b6457e0\n      mload(0x40)\n      mload(0x40)\n      dup1\n      swap2\n      sub\n      swap1\n      log3\n        /* \"contracts/ownable.sol\":1454:1455  0 */\n      0x00\n        /* \"contracts/ownable.sol\":1437:1443  _owner */\n      dup1\n      0x00\n        /* \"contracts/ownable.sol\":1437:1456  _owner = address(0) */\n      0x0100\n      exp\n      dup2\n      sload\n      dup2\n      0xffffffffffffffffffffffffffffffffffffffff\n      mul\n      not\n      and\n      swap1\n      dup4\n      0xffffffffffffffffffffffffffffffffffffffff\n      and\n      mul\n      or\n      swap1\n      sstore\n      pop\n        /* \"contracts/ownable.sol\":1332:1462  function renounceOwnership() public onlyOwner {... */\n      jump\t// out\n        /* \"contracts/ownable.sol\":682:754  function owner() public view returns(address) {... */\n    tag_17:\n        /* \"contracts/ownable.sol\":719:726  address */\n      0x00\n        /* \"contracts/ownable.sol\":742:748  _owner */\n      dup1\n      0x00\n      swap1\n      sload\n      swap1\n      0x0100\n      exp\n      swap1\n      div\n      0xffffffffffffffffffffffffffffffffffffffff\n      and\n        /* \"contracts/ownable.sol\":735:748  return _owner */\n      swap1\n      pop\n        /* \"contracts/ownable.sol\":682:754  function owner() public view returns(address) {... */\n      swap1\n      jump\t// out\n        /* \"contracts/ownable.sol\":980:1065  function isOwner() public view returns(bool) {... */\n    tag_21:\n        /* \"contracts/ownable.sol\":1019:1023  bool */\n      0x00\n        /* \"contracts/ownable.sol\":1053:1059  _owner */\n      dup1\n      0x00\n      swap1\n      sload\n      swap1\n      0x0100\n      exp\n      swap1\n      div\n      0xffffffffffffffffffffffffffffffffffffffff\n      and\n        /* \"contracts/ownable.sol\":1039:1059  msg.sender == _owner */\n      0xffffffffffffffffffffffffffffffffffffffff\n      and\n        /* \"contracts/ownable.sol\":1039:1049  msg.sender */\n      caller\n        /* \"contracts/ownable.sol\":1039:1059  msg.sender == _owner */\n      0xffffffffffffffffffffffffffffffffffffffff\n      and\n      eq\n        /* \"contracts/ownable.sol\":1032:1059  return msg.sender == _owner */\n      swap1\n      pop\n        /* \"contracts/ownable.sol\":980:1065  function isOwner() public view returns(bool) {... */\n      swap1\n      jump\t// out\n        /* \"contracts/ownable.sol\":1626:1729  function transferOwnership(address newOwner) public onlyOwner {... */\n    tag_27:\n        /* \"contracts/ownable.sol\":873:882  isOwner() */\n      tag_43\n        /* \"contracts/ownable.sol\":873:880  isOwner */\n      tag_21\n        /* \"contracts/ownable.sol\":873:882  isOwner() */\n      jump\t// in\n    tag_43:\n        /* \"contracts/ownable.sol\":865:883  require(isOwner()) */\n      tag_44\n      jumpi\n      0x00\n      dup1\n      revert\n    tag_44:\n        /* \"contracts/ownable.sol\":1695:1723  _transferOwnership(newOwner) */\n      tag_46\n        /* \"contracts/ownable.sol\":1714:1722  newOwner */\n      dup2\n        /* \"contracts/ownable.sol\":1695:1713  _transferOwnership */\n      tag_47\n        /* \"contracts/ownable.sol\":1695:1723  _transferOwnership(newOwner) */\n      jump\t// in\n    tag_46:\n        /* \"contracts/ownable.sol\":1626:1729  function transferOwnership(address newOwner) public onlyOwner {... */\n      pop\n      jump\t// out\n        /* \"contracts/ownable.sol\":1866:2039  function _transferOwnership(address newOwner) internal {... */\n    tag_47:\n        /* \"contracts/ownable.sol\":1956:1957  0 */\n      0x00\n        /* \"contracts/ownable.sol\":1936:1958  newOwner != address(0) */\n      0xffffffffffffffffffffffffffffffffffffffff\n      and\n        /* \"contracts/ownable.sol\":1936:1944  newOwner */\n      dup2\n        /* \"contracts/ownable.sol\":1936:1958  newOwner != address(0) */\n      0xffffffffffffffffffffffffffffffffffffffff\n      and\n      sub\n        /* \"contracts/ownable.sol\":1928:1959  require(newOwner != address(0)) */\n      tag_49\n      jumpi\n      0x00\n      dup1\n      revert\n    tag_49:\n        /* \"contracts/ownable.sol\":2000:2008  newOwner */\n      dup1\n        /* \"contracts/ownable.sol\":1971:2009  OwnershipTransferred(_owner, newOwner) */\n      0xffffffffffffffffffffffffffffffffffffffff\n      and\n        /* \"contracts/ownable.sol\":1992:1998  _owner */\n      0x00\n      dup1\n      sload\n      swap1\n      0x0100\n      exp\n      swap1\n      div\n      0xffffffffffffffffffffffffffffffffffffffff\n      and\n        /* \"contracts/ownable.sol\":1971:2009  OwnershipTransferred(_owner, newOwner) */\n      0xffffffffffffffffffffffffffffffffffffffff\n      and\n      0x8be0079c531659141344cd1fd0a4f28419497f9722a3daafe3b4186f6b6457e0\n      mload(0x40)\n      mload(0x40)\n      dup1\n      swap2\n      sub\n      swap1\n      log3\n        /* \"contracts/ownable.sol\":2025:2033  newOwner */\n      dup1\n        /* \"contracts/ownable.sol\":2016:2022  _owner */\n      0x00\n      dup1\n        /* \"contracts/ownable.sol\":2016:2033  _owner = newOwner */\n      0x0100\n      exp\n      dup2\n      sload\n      dup2\n      0xffffffffffffffffffffffffffffffffffffffff\n      mul\n      not\n      and\n      swap1\n      dup4\n      0xffffffffffffffffffffffffffffffffffffffff\n      and\n      mul\n      or\n      swap1\n      sstore\n      pop\n        /* \"contracts/ownable.sol\":1866:2039  function _transferOwnership(address newOwner) internal {... */\n      pop\n      jump\t// out\n        /* \"#utility.yul\":88:205   */\n    tag_51:\n        /* \"#utility.yul\":197:198   */\n      0x00\n        /* \"#utility.yul\":194:195   */\n      dup1\n        /* \"#utility.yul\":187:199   */\n      revert\n        /* \"#utility.yul\":334:411   */\n    tag_53:\n        /* \"#utility.yul\":371:378   */\n      0x00\n        /* \"#utility.yul\":400:405   */\n      dup2\n        /* \"#utility.yul\":389:405   */\n      swap1\n      pop\n        /* \"#utility.yul\":334:411   */\n      swap2\n      swap1\n      pop\n      jump\t// out\n        /* \"#utility.yul\":417:539   */\n    tag_54:\n        /* \"#utility.yul\":490:514   */\n      tag_77\n        /* \"#utility.yul\":508:513   */\n      dup2\n        /* \"#utility.yul\":490:514   */\n      tag_53\n      jump\t// in\n    tag_77:\n        /* \"#utility.yul\":483:488   */\n      dup2\n        /* \"#utility.yul\":480:515   */\n      eq\n        /* \"#utility.yul\":470:533   */\n      tag_78\n      jumpi\n        /* \"#utility.yul\":529:530   */\n      0x00\n        /* \"#utility.yul\":526:527   */\n      dup1\n        /* \"#utility.yul\":519:531   */\n      revert\n        /* \"#utility.yul\":470:533   */\n    tag_78:\n        /* \"#utility.yul\":417:539   */\n      pop\n      jump\t// out\n        /* \"#utility.yul\":545:684   */\n    tag_55:\n        /* \"#utility.yul\":591:596   */\n      0x00\n        /* \"#utility.yul\":629:635   */\n      dup2\n        /* \"#utility.yul\":616:636   */\n      calldataload\n        /* \"#utility.yul\":607:636   */\n      swap1\n      pop\n        /* \"#utility.yul\":645:678   */\n      tag_80\n        /* \"#utility.yul\":672:677   */\n      dup2\n        /* \"#utility.yul\":645:678   */\n      tag_54\n      jump\t// in\n    tag_80:\n        /* \"#utility.yul\":545:684   */\n      swap3\n      swap2\n      pop\n      pop\n      jump\t// out\n        /* \"#utility.yul\":690:1019   */\n    tag_10:\n        /* \"#utility.yul\":749:755   */\n      0x00\n        /* \"#utility.yul\":798:800   */\n      0x20\n        /* \"#utility.yul\":786:795   */\n      dup3\n        /* \"#utility.yul\":777:784   */\n      dup5\n        /* \"#utility.yul\":773:796   */\n      sub\n        /* \"#utility.yul\":769:801   */\n      slt\n        /* \"#utility.yul\":766:885   */\n      iszero\n      tag_82\n      jumpi\n        /* \"#utility.yul\":804:883   */\n      tag_83\n      tag_51\n      jump\t// in\n    tag_83:\n        /* \"#utility.yul\":766:885   */\n    tag_82:\n        /* \"#utility.yul\":924:925   */\n      0x00\n        /* \"#utility.yul\":949:1002   */\n      tag_84\n        /* \"#utility.yul\":994:1001   */\n      dup5\n        /* \"#utility.yul\":985:991   */\n      dup3\n        /* \"#utility.yul\":974:983   */\n      dup6\n        /* \"#utility.yul\":970:992   */\n      add\n        /* \"#utility.yul\":949:1002   */\n      tag_55\n      jump\t// in\n    tag_84:\n        /* \"#utility.yul\":939:1002   */\n      swap2\n      pop\n        /* \"#utility.yul\":895:1012   */\n      pop\n        /* \"#utility.yul\":690:1019   */\n      swap3\n      swap2\n      pop\n      pop\n      jump\t// out\n        /* \"#utility.yul\":1025:1124   */\n    tag_56:\n        /* \"#utility.yul\":1077:1083   */\n      0x00\n        /* \"#utility.yul\":1111:1116   */\n      dup2\n        /* \"#utility.yul\":1105:1117   */\n      mload\n        /* \"#utility.yul\":1095:1117   */\n      swap1\n      pop\n        /* \"#utility.yul\":1025:1124   */\n      swap2\n      swap1\n      pop\n      jump\t// out\n        /* \"#utility.yul\":1130:1299   */\n    tag_57:\n        /* \"#utility.yul\":1214:1225   */\n      0x00\n        /* \"#utility.yul\":1248:1254   */\n      dup3\n        /* \"#utility.yul\":1243:1246   */\n      dup3\n        /* \"#utility.yul\":1236:1255   */\n      mstore\n        /* \"#utility.yul\":1288:1292   */\n      0x20\n        /* \"#utility.yul\":1283:1286   */\n      dup3\n        /* \"#utility.yul\":1279:1293   */\n      add\n        /* \"#utility.yul\":1264:1293   */\n      swap1\n      pop\n        /* \"#utility.yul\":1130:1299   */\n      swap3\n      swap2\n      pop\n      pop\n      jump\t// out\n        /* \"#utility.yul\":1305:1444   */\n    tag_58:\n        /* \"#utility.yul\":1394:1400   */\n      dup3\n        /* \"#utility.yul\":1389:1392   */\n      dup2\n        /* \"#utility.yul\":1384:1387   */\n      dup4\n        /* \"#utility.yul\":1378:1401   */\n      mcopy\n        /* \"#utility.yul\":1435:1436   */\n      0x00\n        /* \"#utility.yul\":1426:1432   */\n      dup4\n        /* \"#utility.yul\":1421:1424   */\n      dup4\n        /* \"#utility.yul\":1417:1433   */\n      add\n        /* \"#utility.yul\":1410:1437   */\n      mstore\n        /* \"#utility.yul\":1305:1444   */\n      pop\n      pop\n      pop\n      jump\t// out\n        /* \"#utility.yul\":1450:1552   */\n    tag_59:\n        /* \"#utility.yul\":1491:1497   */\n      0x00\n        /* \"#utility.yul\":1542:1544   */\n      0x1f\n        /* \"#utility.yul\":1538:1545   */\n      not\n        /* \"#utility.yul\":1533:1535   */\n      0x1f\n        /* \"#utility.yul\":1526:1531   */\n      dup4\n        /* \"#utility.yul\":1522:1536   */\n      add\n        /* \"#utility.yul\":1518:1546   */\n      and\n        /* \"#utility.yul\":1508:1546   */\n      swap1\n      pop\n        /* \"#utility.yul\":1450:1552   */\n      swap2\n      swap1\n      pop\n      jump\t// out\n        /* \"#utility.yul\":1558:1935   */\n    tag_60:\n        /* \"#utility.yul\":1646:1649   */\n      0x00\n        /* \"#utility.yul\":1674:1713   */\n      tag_90\n        /* \"#utility.yul\":1707:1712   */\n      dup3\n        /* \"#utility.yul\":1674:1713   */\n      tag_56\n      jump\t// in\n    tag_90:\n        /* \"#utility.yul\":1729:1800   */\n      tag_91\n        /* \"#utility.yul\":1793:1799   */\n      dup2\n        /* \"#utility.yul\":1788:1791   */\n      dup6\n        /* \"#utility.yul\":1729:1800   */\n      tag_57\n      jump\t// in\n    tag_91:\n        /* \"#utility.yul\":1722:1800   */\n      swap4\n      pop\n        /* \"#utility.yul\":1809:1874   */\n      tag_92\n        /* \"#utility.yul\":1867:1873   */\n      dup2\n        /* \"#utility.yul\":1862:1865   */\n      dup6\n        /* \"#utility.yul\":1855:1859   */\n      0x20\n        /* \"#utility.yul\":1848:1853   */\n      dup7\n        /* \"#utility.yul\":1844:1860   */\n      add\n        /* \"#utility.yul\":1809:1874   */\n      tag_58\n      jump\t// in\n    tag_92:\n        /* \"#utility.yul\":1899:1928   */\n      tag_93\n        /* \"#utility.yul\":1921:1927   */\n      dup2\n        /* \"#utility.yul\":1899:1928   */\n      tag_59\n      jump\t// in\n    tag_93:\n        /* \"#utility.yul\":1894:1897   */\n      dup5\n        /* \"#utility.yul\":1890:1929   */\n      add\n        /* \"#utility.yul\":1883:1929   */\n      swap2\n      pop\n        /* \"#utility.yul\":1650:1935   */\n      pop\n        /* \"#utility.yul\":1558:1935   */\n      swap3\n      swap2\n      pop\n      pop\n      jump\t// out\n        /* \"#utility.yul\":1941:2027   */\n    tag_61:\n        /* \"#utility.yul\":1976:1983   */\n      0x00\n        /* \"#utility.yul\":2016:2020   */\n      0xff\n        /* \"#utility.yul\":2009:2014   */\n      dup3\n        /* \"#utility.yul\":2005:2021   */\n      and\n        /* \"#utility.yul\":1994:2021   */\n      swap1\n      pop\n        /* \"#utility.yul\":1941:2027   */\n      swap2\n      swap1\n      pop\n      jump\t// out\n        /* \"#utility.yul\":2033:2145   */\n    tag_62:\n        /* \"#utility.yul\":2116:2138   */\n      tag_96\n        /* \"#utility.yul\":2132:2137   */\n      dup2\n        /* \"#utility.yul\":2116:2138   */\n      tag_61\n      jump\t// in\n    tag_96:\n        /* \"#utility.yul\":2111:2114   */\n      dup3\n        /* \"#utility.yul\":2104:2139   */\n      mstore\n        /* \"#utility.yul\":2033:2145   */\n      pop\n      pop\n      jump\t// out\n        /* \"#utility.yul\":2151:2771   */\n    tag_13:\n        /* \"#utility.yul\":2336:2340   */\n      0x00\n        /* \"#utility.yul\":2374:2377   */\n      0x80\n        /* \"#utility.yul\":2363:2372   */\n      dup3\n        /* \"#utility.yul\":2359:2378   */\n      add\n        /* \"#utility.yul\":2351:2378   */\n      swap1\n      pop\n        /* \"#utility.yul\":2424:2433   */\n      dup2\n        /* \"#utility.yul\":2418:2422   */\n      dup2\n        /* \"#utility.yul\":2414:2434   */\n      sub\n        /* \"#utility.yul\":2410:2411   */\n      0x00\n        /* \"#utility.yul\":2399:2408   */\n      dup4\n        /* \"#utility.yul\":2395:2412   */\n      add\n        /* \"#utility.yul\":2388:2435   */\n      mstore\n        /* \"#utility.yul\":2452:2530   */\n      tag_98\n        /* \"#utility.yul\":2525:2529   */\n      dup2\n        /* \"#utility.yul\":2516:2522   */\n      dup8\n        /* \"#utility.yul\":2452:2530   */\n      tag_60\n      jump\t// in\n    tag_98:\n        /* \"#utility.yul\":2444:2530   */\n      swap1\n      pop\n        /* \"#utility.yul\":2540:2608   */\n      tag_99\n        /* \"#utility.yul\":2604:2606   */\n      0x20\n        /* \"#utility.yul\":2593:2602   */\n      dup4\n        /* \"#utility.yul\":2589:2607   */\n      add\n        /* \"#utility.yul\":2580:2586   */\n      dup7\n        /* \"#utility.yul\":2540:2608   */\n      tag_62\n      jump\t// in\n    tag_99:\n        /* \"#utility.yul\":2618:2686   */\n      tag_100\n        /* \"#utility.yul\":2682:2684   */\n      0x40\n        /* \"#utility.yul\":2671:2680   */\n      dup4\n        /* \"#utility.yul\":2667:2685   */\n      add\n        /* \"#utility.yul\":2658:2664   */\n      dup6\n        /* \"#utility.yul\":2618:2686   */\n      tag_62\n      jump\t// in\n    tag_100:\n        /* \"#utility.yul\":2696:2764   */\n      tag_101\n        /* \"#utility.yul\":2760:2762   */\n      0x60\n        /* \"#utility.yul\":2749:2758   */\n      dup4\n        /* \"#utility.yul\":2745:2763   */\n      add\n        /* \"#utility.yul\":2736:2742   */\n      dup5\n        /* \"#utility.yul\":2696:2764   */\n      tag_62\n      jump\t// in\n    tag_101:\n        /* \"#utility.yul\":2151:2771   */\n      swap6\n      swap5\n      pop\n      pop\n      pop\n      pop\n      pop\n      jump\t// out\n        /* \"#utility.yul\":2777:2903   */\n    tag_63:\n        /* \"#utility.yul\":2814:2821   */\n      0x00\n        /* \"#utility.yul\":2854:2896   */\n      0xffffffffffffffffffffffffffffffffffffffff\n        /* \"#utility.yul\":2847:2852   */\n      dup3\n        /* \"#utility.yul\":2843:2897   */\n      and\n        /* \"#utility.yul\":2832:2897   */\n      swap1\n      pop\n        /* \"#utility.yul\":2777:2903   */\n      swap2\n      swap1\n      pop\n      jump\t// out\n        /* \"#utility.yul\":2909:3005   */\n    tag_64:\n        /* \"#utility.yul\":2946:2953   */\n      0x00\n        /* \"#utility.yul\":2975:2999   */\n      tag_104\n        /* \"#utility.yul\":2993:2998   */\n      dup3\n        /* \"#utility.yul\":2975:2999   */\n      tag_63\n      jump\t// in\n    tag_104:\n        /* \"#utility.yul\":2964:2999   */\n      swap1\n      pop\n        /* \"#utility.yul\":2909:3005   */\n      swap2\n      swap1\n      pop\n      jump\t// out\n        /* \"#utility.yul\":3011:3129   */\n    tag_65:\n        /* \"#utility.yul\":3098:3122   */\n      tag_106\n        /* \"#utility.yul\":3116:3121   */\n      dup2\n        /* \"#utility.yul\":3098:3122   */\n      tag_64\n      jump\t// in\n    tag_106:\n        /* \"#utility.yul\":3093:3096   */\n      dup3\n        /* \"#utility.yul\":3086:3123   */\n      mstore\n        /* \"#utility.yul\":3011:3129   */\n      pop\n      pop\n      jump\t// out\n        /* \"#utility.yul\":3135:3357   */\n    tag_19:\n        /* \"#utility.yul\":3228:3232   */\n      0x00\n        /* \"#utility.yul\":3266:3268   */\n      0x20\n        /* \"#utility.yul\":3255:3264   */\n      dup3\n        /* \"#utility.yul\":3251:3269   */\n      add\n        /* \"#utility.yul\":3243:3269   */\n      swap1\n      pop\n        /* \"#utility.yul\":3279:3350   */\n      tag_108\n        /* \"#utility.yul\":3347:3348   */\n      0x00\n        /* \"#utility.yul\":3336:3345   */\n      dup4\n        /* \"#utility.yul\":3332:3349   */\n      add\n        /* \"#utility.yul\":3323:3329   */\n      dup5\n        /* \"#utility.yul\":3279:3350   */\n      tag_65\n      jump\t// in\n    tag_108:\n        /* \"#utility.yul\":3135:3357   */\n      swap3\n      swap2\n      pop\n      pop\n      jump\t// out\n        /* \"#utility.yul\":3363:3453   */\n    tag_66:\n        /* \"#utility.yul\":3397:3404   */\n      0x00\n        /* \"#utility.yul\":3440:3445   */\n      dup2\n        /* \"#utility.yul\":3433:3446   */\n      iszero\n        /* \"#utility.yul\":3426:3447   */\n      iszero\n        /* \"#utility.yul\":3415:3447   */\n      swap1\n      pop\n        /* \"#utility.yul\":3363:3453   */\n      swap2\n      swap1\n      pop\n      jump\t// out\n        /* \"#utility.yul\":3459:3568   */\n    tag_67:\n        /* \"#utility.yul\":3540:3561   */\n      tag_111\n        /* \"#utility.yul\":3555:3560   */\n      dup2\n        /* \"#utility.yul\":3540:3561   */\n      tag_66\n      jump\t// in\n    tag_111:\n        /* \"#utility.yul\":3535:3538   */\n      dup3\n        /* \"#utility.yul\":3528:3562   */\n      mstore\n        /* \"#utility.yul\":3459:3568   */\n      pop\n      pop\n      jump\t// out\n        /* \"#utility.yul\":3574:3784   */\n    tag_23:\n        /* \"#utility.yul\":3661:3665   */\n      0x00\n        /* \"#utility.yul\":3699:3701   */\n      0x20\n        /* \"#utility.yul\":3688:3697   */\n      dup3\n        /* \"#utility.yul\":3684:3702   */\n      add\n        /* \"#utility.yul\":3676:3702   */\n      swap1\n      pop\n        /* \"#utility.yul\":3712:3777   */\n      tag_113\n        /* \"#utility.yul\":3774:3775   */\n      0x00\n        /* \"#utility.yul\":3763:3772   */\n      dup4\n        /* \"#utility.yul\":3759:3776   */\n      add\n        /* \"#utility.yul\":3750:3756   */\n      dup5\n        /* \"#utility.yul\":3712:3777   */\n      tag_67\n      jump\t// in\n    tag_113:\n        /* \"#utility.yul\":3574:3784   */\n      swap3\n      swap2\n      pop\n      pop\n      jump\t// out\n        /* \"#utility.yul\":3790:3912   */\n    tag_68:\n        /* \"#utility.yul\":3863:3887   */\n      tag_115\n        /* \"#utility.yul\":3881:3886   */\n      dup2\n        /* \"#utility.yul\":3863:3887   */\n      tag_64\n      jump\t// in\n    tag_115:\n        /* \"#utility.yul\":3856:3861   */\n      dup2\n        /* \"#utility.yul\":3853:3888   */\n      eq\n        /* \"#utility.yul\":3843:3906   */\n      tag_116\n      jumpi\n        /* \"#utility.yul\":3902:3903   */\n      0x00\n        /* \"#utility.yul\":3899:3900   */\n      dup1\n        /* \"#utility.yul\":3892:3904   */\n      revert\n        /* \"#utility.yul\":3843:3906   */\n    tag_116:\n        /* \"#utility.yul\":3790:3912   */\n      pop\n      jump\t// out\n        /* \"#utility.yul\":3918:4057   */\n    tag_69:\n        /* \"#utility.yul\":3964:3969   */\n      0x00\n        /* \"#utility.yul\":4002:4008   */\n      dup2\n        /* \"#utility.yul\":3989:4009   */\n      calldataload\n        /* \"#utility.yul\":3980:4009   */\n      swap1\n      pop\n        /* \"#utility.yul\":4018:4051   */\n      tag_118\n        /* \"#utility.yul\":4045:4050   */\n      dup2\n        /* \"#utility.yul\":4018:4051   */\n      tag_68\n      jump\t// in\n    tag_118:\n        /* \"#utility.yul\":3918:4057   */\n      swap3\n      swap2\n      pop\n      pop\n      jump\t// out\n        /* \"#utility.yul\":4063:4392   */\n    tag_26:\n        /* \"#utility.yul\":4122:4128   */\n      0x00\n        /* \"#utility.yul\":4171:4173   */\n      0x20\n        /* \"#utility.yul\":4159:4168   */\n      dup3\n        /* \"#utility.yul\":4150:4157   */\n      dup5\n        /* \"#utility.yul\":4146:4169   */\n      sub\n        /* \"#utility.yul\":4142:4174   */\n      slt\n        /* \"#utility.yul\":4139:4258   */\n      iszero\n      tag_120\n      jumpi\n        /* \"#utility.yul\":4177:4256   */\n      tag_121\n      tag_51\n      jump\t// in\n    tag_121:\n        /* \"#utility.yul\":4139:4258   */\n    tag_120:\n        /* \"#utility.yul\":4297:4298   */\n      0x00\n        /* \"#utility.yul\":4322:4375   */\n      tag_122\n        /* \"#utility.yul\":4367:4374   */\n      dup5\n        /* \"#utility.yul\":4358:4364   */\n      dup3\n        /* \"#utility.yul\":4347:4356   */\n      dup6\n        /* \"#utility.yul\":4343:4365   */\n      add\n        /* \"#utility.yul\":4322:4375   */\n      tag_69\n      jump\t// in\n    tag_122:\n        /* \"#utility.yul\":4312:4375   */\n      swap2\n      pop\n        /* \"#utility.yul\":4268:4385   */\n      pop\n        /* \"#utility.yul\":4063:4392   */\n      swap3\n      swap2\n      pop\n      pop\n      jump\t// out\n        /* \"#utility.yul\":4398:4578   */\n    tag_70:\n        /* \"#utility.yul\":4446:4523   */\n      0x4e487b7100000000000000000000000000000000000000000000000000000000\n        /* \"#utility.yul\":4443:4444   */\n      0x00\n        /* \"#utility.yul\":4436:4524   */\n      mstore\n        /* \"#utility.yul\":4543:4547   */\n      0x22\n        /* \"#utility.yul\":4540:4541   */\n      0x04\n        /* \"#utility.yul\":4533:4548   */\n      mstore\n        /* \"#utility.yul\":4567:4571   */\n      0x24\n        /* \"#utility.yul\":4564:4565   */\n      0x00\n        /* \"#utility.yul\":4557:4572   */\n      revert\n        /* \"#utility.yul\":4584:4904   */\n    tag_31:\n        /* \"#utility.yul\":4628:4634   */\n      0x00\n        /* \"#utility.yul\":4665:4666   */\n      0x02\n        /* \"#utility.yul\":4659:4663   */\n      dup3\n        /* \"#utility.yul\":4655:4667   */\n      div\n        /* \"#utility.yul\":4645:4667   */\n      swap1\n      pop\n        /* \"#utility.yul\":4712:4713   */\n      0x01\n        /* \"#utility.yul\":4706:4710   */\n      dup3\n        /* \"#utility.yul\":4702:4714   */\n      and\n        /* \"#utility.yul\":4733:4751   */\n      dup1\n        /* \"#utility.yul\":4723:4804   */\n      tag_125\n      jumpi\n        /* \"#utility.yul\":4789:4793   */\n      0x7f\n        /* \"#utility.yul\":4781:4787   */\n      dup3\n        /* \"#utility.yul\":4777:4794   */\n      and\n        /* \"#utility.yul\":4767:4794   */\n      swap2\n      pop\n        /* \"#utility.yul\":4723:4804   */\n    tag_125:\n        /* \"#utility.yul\":4851:4853   */\n      0x20\n        /* \"#utility.yul\":4843:4849   */\n      dup3\n        /* \"#utility.yul\":4840:4854   */\n      lt\n        /* \"#utility.yul\":4820:4838   */\n      dup2\n        /* \"#utility.yul\":4817:4855   */\n      sub\n        /* \"#utility.yul\":4814:4898   */\n      tag_126\n      jumpi\n        /* \"#utility.yul\":4870:4888   */\n      tag_127\n      tag_70\n      jump\t// in\n    tag_127:\n        /* \"#utility.yul\":4814:4898   */\n    tag_126:\n        /* \"#utility.yul\":4635:4904   */\n      pop\n        /* \"#utility.yul\":4584:4904   */\n      swap2\n      swap1\n      pop\n      jump\t// out\n\n    auxdata: 0xa2646970667358221220f1ac09738a67f0de4be48bb1af1e42211543ece14e734362919c7356196f295e64736f6c634300081a0033\n}\n",
				"bytecode": {
					"linkReferences": {},
					"object": "60806040525f6005553480156012575f80fd5b50335f806101000a81548173ffffffffffffffffffffffffffffffffffffffff021916908373ffffffffffffffffffffffffffffffffffffffff1602179055505f8054906101000a900473ffffffffffffffffffffffffffffffffffffffff1673ffffffffffffffffffffffffffffffffffffffff165f73ffffffffffffffffffffffffffffffffffffffff167f8be0079c531659141344cd1fd0a4f28419497f9722a3daafe3b4186f6b6457e060405160405180910390a36106d3806100d85f395ff3fe608060405234801561000f575f80fd5b5060043610610055575f3560e01c8063555e73c814610059578063715018a61461008c5780638da5cb5b146100965780638f32d59b146100b4578063f2fde38b146100d2575b5f80fd5b610073600480360381019061006e9190610460565b6100ee565b6040516100839493929190610516565b60405180910390f35b6100946101d5565b005b61009e61029f565b6040516100ab919061059f565b60405180910390f35b6100bc6102c6565b6040516100c991906105d2565b60405180910390f35b6100ec60048036038101906100e79190610615565b61031b565b005b600381815481106100fd575f80fd5b905f5260205f2090600202015f91509050805f01805461011c9061066d565b80601f01602080910402602001604051908101604052809291908181526020018280546101489061066d565b80156101935780601f1061016a57610100808354040283529160200191610193565b820191905f5260205f20905b81548152906001019060200180831161017657829003601f168201915b505050505090806001015f9054906101000a900460ff16908060010160019054906101000a900460ff16908060010160029054906101000a900460ff16905084565b6101dd6102c6565b6101e5575f80fd5b5f73ffffffffffffffffffffffffffffffffffffffff165f8054906101000a900473ffffffffffffffffffffffffffffffffffffffff1673ffffffffffffffffffffffffffffffffffffffff167f8be0079c531659141344cd1fd0a4f28419497f9722a3daafe3b4186f6b6457e060405160405180910390a35f805f6101000a81548173ffffffffffffffffffffffffffffffffffffffff021916908373ffffffffffffffffffffffffffffffffffffffff160217905550565b5f805f9054906101000a900473ffffffffffffffffffffffffffffffffffffffff16905090565b5f805f9054906101000a900473ffffffffffffffffffffffffffffffffffffffff1673ffffffffffffffffffffffffffffffffffffffff163373ffffffffffffffffffffffffffffffffffffffff1614905090565b6103236102c6565b61032b575f80fd5b61033481610337565b50565b5f73ffffffffffffffffffffffffffffffffffffffff168173ffffffffffffffffffffffffffffffffffffffff160361036e575f80fd5b8073ffffffffffffffffffffffffffffffffffffffff165f8054906101000a900473ffffffffffffffffffffffffffffffffffffffff1673ffffffffffffffffffffffffffffffffffffffff167f8be0079c531659141344cd1fd0a4f28419497f9722a3daafe3b4186f6b6457e060405160405180910390a3805f806101000a81548173ffffffffffffffffffffffffffffffffffffffff021916908373ffffffffffffffffffffffffffffffffffffffff16021790555050565b5f80fd5b5f819050919050565b61043f8161042d565b8114610449575f80fd5b50565b5f8135905061045a81610436565b92915050565b5f6020828403121561047557610474610429565b5b5f6104828482850161044c565b91505092915050565b5f81519050919050565b5f82825260208201905092915050565b8281835e5f83830152505050565b5f601f19601f8301169050919050565b5f6104cd8261048b565b6104d78185610495565b93506104e78185602086016104a5565b6104f0816104b3565b840191505092915050565b5f60ff82169050919050565b610510816104fb565b82525050565b5f6080820190508181035f83015261052e81876104c3565b905061053d6020830186610507565b61054a6040830185610507565b6105576060830184610507565b95945050505050565b5f73ffffffffffffffffffffffffffffffffffffffff82169050919050565b5f61058982610560565b9050919050565b6105998161057f565b82525050565b5f6020820190506105b25f830184610590565b92915050565b5f8115159050919050565b6105cc816105b8565b82525050565b5f6020820190506105e55f8301846105c3565b92915050565b6105f48161057f565b81146105fe575f80fd5b50565b5f8135905061060f816105eb565b92915050565b5f6020828403121561062a57610629610429565b5b5f61063784828501610601565b91505092915050565b7f4e487b71000000000000000000000000000000000000000000000000000000005f52602260045260245ffd5b5f600282049050600182168061068457607f821691505b60208210810361069757610696610640565b5b5091905056fea2646970667358221220f1ac09738a67f0de4be48bb1af1e42211543ece14e734362919c7356196f295e64736f6c634300081a0033",
					"opcodes": "PUSH1 0x80 PUSH1 0x40 MSTORE PUSH0 PUSH1 0x5 SSTORE CALLVALUE DUP1 ISZERO PUSH1 0x12 JUMPI PUSH0 DUP1 REVERT JUMPDEST POP CALLER PUSH0 DUP1 PUSH2 0x100 EXP DUP2 SLOAD DUP2 PUSH20 0xFFFFFFFFFFFFFFFFFFFFFFFFFFFFFFFFFFFFFFFF MUL NOT AND SWAP1 DUP4 PUSH20 0xFFFFFFFFFFFFFFFFFFFFFFFFFFFFFFFFFFFFFFFF AND MUL OR SWAP1 SSTORE POP PUSH0 DUP1 SLOAD SWAP1 PUSH2 0x100 EXP SWAP1 DIV PUSH20 0xFFFFFFFFFFFFFFFFFFFFFFFFFFFFFFFFFFFFFFFF AND PUSH20 0xFFFFFFFFFFFFFFFFFFFFFFFFFFFFFFFFFFFFFFFF AND PUSH0 PUSH20 0xFFFFFFFFFFFFFFFFFFFFFFFFFFFFFFFFFFFFFFFF AND PUSH32 0x8BE0079C531659141344CD1FD0A4F28419497F9722A3DAAFE3B4186F6B6457E0 PUSH1 0x40 MLOAD PUSH1 0x40 MLOAD DUP1 SWAP2 SUB SWAP1 LOG3 PUSH2 0x6D3 DUP1 PUSH2 0xD8 PUSH0 CODECOPY PUSH0 RETURN INVALID PUSH1 0x80 PUSH1 0x40 MSTORE CALLVALUE DUP1 ISZERO PUSH2 0xF JUMPI PUSH0 DUP1 REVERT JUMPDEST POP PUSH1 0x4 CALLDATASIZE LT PUSH2 0x55 JUMPI PUSH0 CALLDATALOAD PUSH1 0xE0 SHR DUP1 PUSH4 0x555E73C8 EQ PUSH2 0x59 JUMPI DUP1 PUSH4 0x715018A6 EQ PUSH2 0x8C JUMPI DUP1 PUSH4 0x8DA5CB5B EQ PUSH2 0x96 JUMPI DUP1 PUSH4 0x8F32D59B EQ PUSH2 0xB4 JUMPI DUP1 PUSH4 0xF2FDE38B EQ PUSH2 0xD2 JUMPI JUMPDEST PUSH0 DUP1 REVERT JUMPDEST PUSH2 0x73 PUSH1 0x4 DUP1 CALLDATASIZE SUB DUP2 ADD SWAP1 PUSH2 0x6E SWAP2 SWAP1 PUSH2 0x460 JUMP JUMPDEST PUSH2 0xEE JUMP JUMPDEST PUSH1 0x40 MLOAD PUSH2 0x83 SWAP5 SWAP4 SWAP3 SWAP2 SWAP1 PUSH2 0x516 JUMP JUMPDEST PUSH1 0x40 MLOAD DUP1 SWAP2 SUB SWAP1 RETURN JUMPDEST PUSH2 0x94 PUSH2 0x1D5 JUMP JUMPDEST STOP JUMPDEST PUSH2 0x9E PUSH2 0x29F JUMP JUMPDEST PUSH1 0x40 MLOAD PUSH2 0xAB SWAP2 SWAP1 PUSH2 0x59F JUMP JUMPDEST PUSH1 0x40 MLOAD DUP1 SWAP2 SUB SWAP1 RETURN JUMPDEST PUSH2 0xBC PUSH2 0x2C6 JUMP JUMPDEST PUSH1 0x40 MLOAD PUSH2 0xC9 SWAP2 SWAP1 PUSH2 0x5D2 JUMP JUMPDEST PUSH1 0x40 MLOAD DUP1 SWAP2 SUB SWAP1 RETURN JUMPDEST PUSH2 0xEC PUSH1 0x4 DUP1 CALLDATASIZE SUB DUP2 ADD SWAP1 PUSH2 0xE7 SWAP2 SWAP1 PUSH2 0x615 JUMP JUMPDEST PUSH2 0x31B JUMP JUMPDEST STOP JUMPDEST PUSH1 0x3 DUP2 DUP2 SLOAD DUP2 LT PUSH2 0xFD JUMPI PUSH0 DUP1 REVERT JUMPDEST SWAP1 PUSH0 MSTORE PUSH1 0x20 PUSH0 KECCAK256 SWAP1 PUSH1 0x2 MUL ADD PUSH0 SWAP2 POP SWAP1 POP DUP1 PUSH0 ADD DUP1 SLOAD PUSH2 0x11C SWAP1 PUSH2 0x66D JUMP JUMPDEST DUP1 PUSH1 0x1F ADD PUSH1 0x20 DUP1 SWAP2 DIV MUL PUSH1 0x20 ADD PUSH1 0x40 MLOAD SWAP1 DUP2 ADD PUSH1 0x40 MSTORE DUP1 SWAP3 SWAP2 SWAP1 DUP2 DUP2 MSTORE PUSH1 0x20 ADD DUP3 DUP1 SLOAD PUSH2 0x148 SWAP1 PUSH2 0x66D JUMP JUMPDEST DUP1 ISZERO PUSH2 0x193 JUMPI DUP1 PUSH1 0x1F LT PUSH2 0x16A JUMPI PUSH2 0x100 DUP1 DUP4 SLOAD DIV MUL DUP4 MSTORE SWAP2 PUSH1 0x20 ADD SWAP2 PUSH2 0x193 JUMP JUMPDEST DUP3 ADD SWAP2 SWAP1 PUSH0 MSTORE PUSH1 0x20 PUSH0 KECCAK256 SWAP1 JUMPDEST DUP2 SLOAD DUP2 MSTORE SWAP1 PUSH1 0x1 ADD SWAP1 PUSH1 0x20 ADD DUP1 DUP4 GT PUSH2 0x176 JUMPI DUP3 SWAP1 SUB PUSH1 0x1F AND DUP3 ADD SWAP2 JUMPDEST POP POP POP POP POP SWAP1 DUP1 PUSH1 0x1 ADD PUSH0 SWAP1 SLOAD SWAP1 PUSH2 0x100 EXP SWAP1 DIV PUSH1 0xFF AND SWAP1 DUP1 PUSH1 0x1 ADD PUSH1 0x1 SWAP1 SLOAD SWAP1 PUSH2 0x100 EXP SWAP1 DIV PUSH1 0xFF AND SWAP1 DUP1 PUSH1 0x1 ADD PUSH1 0x2 SWAP1 SLOAD SWAP1 PUSH2 0x100 EXP SWAP1 DIV PUSH1 0xFF AND SWAP1 POP DUP5 JUMP JUMPDEST PUSH2 0x1DD PUSH2 0x2C6 JUMP JUMPDEST PUSH2 0x1E5 JUMPI PUSH0 DUP1 REVERT JUMPDEST PUSH0 PUSH20 0xFFFFFFFFFFFFFFFFFFFFFFFFFFFFFFFFFFFFFFFF AND PUSH0 DUP1 SLOAD SWAP1 PUSH2 0x100 EXP SWAP1 DIV PUSH20 0xFFFFFFFFFFFFFFFFFFFFFFFFFFFFFFFFFFFFFFFF AND PUSH20 0xFFFFFFFFFFFFFFFFFFFFFFFFFFFFFFFFFFFFFFFF AND PUSH32 0x8BE0079C531659141344CD1FD0A4F28419497F9722A3DAAFE3B4186F6B6457E0 PUSH1 0x40 MLOAD PUSH1 0x40 MLOAD DUP1 SWAP2 SUB SWAP1 LOG3 PUSH0 DUP1 PUSH0 PUSH2 0x100 EXP DUP2 SLOAD DUP2 PUSH20 0xFFFFFFFFFFFFFFFFFFFFFFFFFFFFFFFFFFFFFFFF MUL NOT AND SWAP1 DUP4 PUSH20 0xFFFFFFFFFFFFFFFFFFFFFFFFFFFFFFFFFFFFFFFF AND MUL OR SWAP1 SSTORE POP JUMP JUMPDEST PUSH0 DUP1 PUSH0 SWAP1 SLOAD SWAP1 PUSH2 0x100 EXP SWAP1 DIV PUSH20 0xFFFFFFFFFFFFFFFFFFFFFFFFFFFFFFFFFFFFFFFF AND SWAP1 POP SWAP1 JUMP JUMPDEST PUSH0 DUP1 PUSH0 SWAP1 SLOAD SWAP1 PUSH2 0x100 EXP SWAP1 DIV PUSH20 0xFFFFFFFFFFFFFFFFFFFFFFFFFFFFFFFFFFFFFFFF AND PUSH20 0xFFFFFFFFFFFFFFFFFFFFFFFFFFFFFFFFFFFFFFFF AND CALLER PUSH20 0xFFFFFFFFFFFFFFFFFFFFFFFFFFFFFFFFFFFFFFFF AND EQ SWAP1 POP SWAP1 JUMP JUMPDEST PUSH2 0x323 PUSH2 0x2C6 JUMP JUMPDEST PUSH2 0x32B JUMPI PUSH0 DUP1 REVERT JUMPDEST PUSH2 0x334 DUP2 PUSH2 0x337 JUMP JUMPDEST POP JUMP JUMPDEST PUSH0 PUSH20 0xFFFFFFFFFFFFFFFFFFFFFFFFFFFFFFFFFFFFFFFF AND DUP2 PUSH20 0xFFFFFFFFFFFFFFFFFFFFFFFFFFFFFFFFFFFFFFFF AND SUB PUSH2 0x36E JUMPI PUSH0 DUP1 REVERT JUMPDEST DUP1 PUSH20 0xFFFFFFFFFFFFFFFFFFFFFFFFFFFFFFFFFFFFFFFF AND PUSH0 DUP1 SLOAD SWAP1 PUSH2 0x100 EXP SWAP1 DIV PUSH20 0xFFFFFFFFFFFFFFFFFFFFFFFFFFFFFFFFFFFFFFFF AND PUSH20 0xFFFFFFFFFFFFFFFFFFFFFFFFFFFFFFFFFFFFFFFF AND PUSH32 0x8BE0079C531659141344CD1FD0A4F28419497F9722A3DAAFE3B4186F6B6457E0 PUSH1 0x40 MLOAD PUSH1 0x40 MLOAD DUP1 SWAP2 SUB SWAP1 LOG3 DUP1 PUSH0 DUP1 PUSH2 0x100 EXP DUP2 SLOAD DUP2 PUSH20 0xFFFFFFFFFFFFFFFFFFFFFFFFFFFFFFFFFFFFFFFF MUL NOT AND SWAP1 DUP4 PUSH20 0xFFFFFFFFFFFFFFFFFFFFFFFFFFFFFFFFFFFFFFFF AND MUL OR SWAP1 SSTORE POP POP JUMP JUMPDEST PUSH0 DUP1 REVERT JUMPDEST PUSH0 DUP2 SWAP1 POP SWAP2 SWAP1 POP JUMP JUMPDEST PUSH2 0x43F DUP2 PUSH2 0x42D JUMP JUMPDEST DUP2 EQ PUSH2 0x449 JUMPI PUSH0 DUP1 REVERT JUMPDEST POP JUMP JUMPDEST PUSH0 DUP2 CALLDATALOAD SWAP1 POP PUSH2 0x45A DUP2 PUSH2 0x436 JUMP JUMPDEST SWAP3 SWAP2 POP POP JUMP JUMPDEST PUSH0 PUSH1 0x20 DUP3 DUP5 SUB SLT ISZERO PUSH2 0x475 JUMPI PUSH2 0x474 PUSH2 0x429 JUMP JUMPDEST JUMPDEST PUSH0 PUSH2 0x482 DUP5 DUP3 DUP6 ADD PUSH2 0x44C JUMP JUMPDEST SWAP2 POP POP SWAP3 SWAP2 POP POP JUMP JUMPDEST PUSH0 DUP2 MLOAD SWAP1 POP SWAP2 SWAP1 POP JUMP JUMPDEST PUSH0 DUP3 DUP3 MSTORE PUSH1 0x20 DUP3 ADD SWAP1 POP SWAP3 SWAP2 POP POP JUMP JUMPDEST DUP3 DUP2 DUP4 MCOPY PUSH0 DUP4 DUP4 ADD MSTORE POP POP POP JUMP JUMPDEST PUSH0 PUSH1 0x1F NOT PUSH1 0x1F DUP4 ADD AND SWAP1 POP SWAP2 SWAP1 POP JUMP JUMPDEST PUSH0 PUSH2 0x4CD DUP3 PUSH2 0x48B JUMP JUMPDEST PUSH2 0x4D7 DUP2 DUP6 PUSH2 0x495 JUMP JUMPDEST SWAP4 POP PUSH2 0x4E7 DUP2 DUP6 PUSH1 0x20 DUP7 ADD PUSH2 0x4A5 JUMP JUMPDEST PUSH2 0x4F0 DUP2 PUSH2 0x4B3 JUMP JUMPDEST DUP5 ADD SWAP2 POP POP SWAP3 SWAP2 POP POP JUMP JUMPDEST PUSH0 PUSH1 0xFF DUP3 AND SWAP1 POP SWAP2 SWAP1 POP JUMP JUMPDEST PUSH2 0x510 DUP2 PUSH2 0x4FB JUMP JUMPDEST DUP3 MSTORE POP POP JUMP JUMPDEST PUSH0 PUSH1 0x80 DUP3 ADD SWAP1 POP DUP2 DUP2 SUB PUSH0 DUP4 ADD MSTORE PUSH2 0x52E DUP2 DUP8 PUSH2 0x4C3 JUMP JUMPDEST SWAP1 POP PUSH2 0x53D PUSH1 0x20 DUP4 ADD DUP7 PUSH2 0x507 JUMP JUMPDEST PUSH2 0x54A PUSH1 0x40 DUP4 ADD DUP6 PUSH2 0x507 JUMP JUMPDEST PUSH2 0x557 PUSH1 0x60 DUP4 ADD DUP5 PUSH2 0x507 JUMP JUMPDEST SWAP6 SWAP5 POP POP POP POP POP JUMP JUMPDEST PUSH0 PUSH20 0xFFFFFFFFFFFFFFFFFFFFFFFFFFFFFFFFFFFFFFFF DUP3 AND SWAP1 POP SWAP2 SWAP1 POP JUMP JUMPDEST PUSH0 PUSH2 0x589 DUP3 PUSH2 0x560 JUMP JUMPDEST SWAP1 POP SWAP2 SWAP1 POP JUMP JUMPDEST PUSH2 0x599 DUP2 PUSH2 0x57F JUMP JUMPDEST DUP3 MSTORE POP POP JUMP JUMPDEST PUSH0 PUSH1 0x20 DUP3 ADD SWAP1 POP PUSH2 0x5B2 PUSH0 DUP4 ADD DUP5 PUSH2 0x590 JUMP JUMPDEST SWAP3 SWAP2 POP POP JUMP JUMPDEST PUSH0 DUP2 ISZERO ISZERO SWAP1 POP SWAP2 SWAP1 POP JUMP JUMPDEST PUSH2 0x5CC DUP2 PUSH2 0x5B8 JUMP JUMPDEST DUP3 MSTORE POP POP JUMP JUMPDEST PUSH0 PUSH1 0x20 DUP3 ADD SWAP1 POP PUSH2 0x5E5 PUSH0 DUP4 ADD DUP5 PUSH2 0x5C3 JUMP JUMPDEST SWAP3 SWAP2 POP POP JUMP JUMPDEST PUSH2 0x5F4 DUP2 PUSH2 0x57F JUMP JUMPDEST DUP2 EQ PUSH2 0x5FE JUMPI PUSH0 DUP1 REVERT JUMPDEST POP JUMP JUMPDEST PUSH0 DUP2 CALLDATALOAD SWAP1 POP PUSH2 0x60F DUP2 PUSH2 0x5EB JUMP JUMPDEST SWAP3 SWAP2 POP POP JUMP JUMPDEST PUSH0 PUSH1 0x20 DUP3 DUP5 SUB SLT ISZERO PUSH2 0x62A JUMPI PUSH2 0x629 PUSH2 0x429 JUMP JUMPDEST JUMPDEST PUSH0 PUSH2 0x637 DUP5 DUP3 DUP6 ADD PUSH2 0x601 JUMP JUMPDEST SWAP2 POP POP SWAP3 SWAP2 POP POP JUMP JUMPDEST PUSH32 0x4E487B7100000000000000000000000000000000000000000000000000000000 PUSH0 MSTORE PUSH1 0x22 PUSH1 0x4 MSTORE PUSH1 0x24 PUSH0 REVERT JUMPDEST PUSH0 PUSH1 0x2 DUP3 DIV SWAP1 POP PUSH1 0x1 DUP3 AND DUP1 PUSH2 0x684 JUMPI PUSH1 0x7F DUP3 AND SWAP2 POP JUMPDEST PUSH1 0x20 DUP3 LT DUP2 SUB PUSH2 0x697 JUMPI PUSH2 0x696 PUSH2 0x640 JUMP JUMPDEST JUMPDEST POP SWAP2 SWAP1 POP JUMP INVALID LOG2 PUSH5 0x6970667358 0x22 SLT KECCAK256 CALL 0xAC MULMOD PUSH20 0x8A67F0DE4BE48BB1AF1E42211543ECE14E734362 SWAP2 SWAP13 PUSH20 0x56196F295E64736F6C634300081A003300000000 "
				},
				"gasEstimates": {
					"creation": {
						"codeDepositCost": "349400",
						"executionCost": "33330",
						"totalCost": "382730"
					},
					"external": {
						"isOwner()": "2534",
						"owner()": "2537",
						"renounceOwnership()": "30287",
						"transferOwnership(address)": "30724",
						"weapons(uint256)": "infinite"
					},
					"internal": {
						"_obtainWeapon(address,string memory)": "infinite",
						"_weapongenerator(string memory)": "infinite"
					}
				},
				"methodIdentifiers": {
					"isOwner()": "8f32d59b",
					"owner()": "8da5cb5b",
					"renounceOwnership()": "715018a6",
					"transferOwnership(address)": "f2fde38b",
					"weapons(uint256)": "555e73c8"
				}
			},
			"storageLayout": {
				"storage": [
					{
						"astId": 82,
						"contract": "contracts/zombieWeapons.sol:ZombieWeapons",
						"label": "_owner",
						"offset": 0,
						"slot": "0",
						"type": "t_address"
					},
					{
						"astId": 705,
						"contract": "contracts/zombieWeapons.sol:ZombieWeapons",
						"label": "WeaponToOwner",
						"offset": 0,
						"slot": "1",
						"type": "t_mapping(t_uint256,t_address)"
					},
					{
						"astId": 709,
						"contract": "contracts/zombieWeapons.sol:ZombieWeapons",
						"label": "OwnerWeaponCount",
						"offset": 0,
						"slot": "2",
						"type": "t_mapping(t_address,t_uint256)"
					},
					{
						"astId": 713,
						"contract": "contracts/zombieWeapons.sol:ZombieWeapons",
						"label": "weapons",
						"offset": 0,
						"slot": "3",
						"type": "t_array(t_struct(Weapon)701_storage)dyn_storage"
					},
					{
						"astId": 718,
						"contract": "contracts/zombieWeapons.sol:ZombieWeapons",
						"label": "WeaponId",
						"offset": 0,
						"slot": "4",
						"type": "t_mapping(t_uint256,t_struct(Weapon)701_storage)"
					},
					{
						"astId": 729,
						"contract": "contracts/zombieWeapons.sol:ZombieWeapons",
						"label": "RandNonce",
						"offset": 0,
						"slot": "5",
						"type": "t_uint256"
					}
				],
				"types": {
					"t_address": {
						"encoding": "inplace",
						"label": "address",
						"numberOfBytes": "20"
					},
					"t_array(t_struct(Weapon)701_storage)dyn_storage": {
						"base": "t_struct(Weapon)701_storage",
						"encoding": "dynamic_array",
						"label": "struct ZombieWeapons.Weapon[]",
						"numberOfBytes": "32"
					},
					"t_mapping(t_address,t_uint256)": {
						"encoding": "mapping",
						"key": "t_address",
						"label": "mapping(address => uint256)",
						"numberOfBytes": "32",
						"value": "t_uint256"
					},
					"t_mapping(t_uint256,t_address)": {
						"encoding": "mapping",
						"key": "t_uint256",
						"label": "mapping(uint256 => address)",
						"numberOfBytes": "32",
						"value": "t_address"
					},
					"t_mapping(t_uint256,t_struct(Weapon)701_storage)": {
						"encoding": "mapping",
						"key": "t_uint256",
						"label": "mapping(uint256 => struct ZombieWeapons.Weapon)",
						"numberOfBytes": "32",
						"value": "t_struct(Weapon)701_storage"
					},
					"t_string_storage": {
						"encoding": "bytes",
						"label": "string",
						"numberOfBytes": "32"
					},
					"t_struct(Weapon)701_storage": {
						"encoding": "inplace",
						"label": "struct ZombieWeapons.Weapon",
						"members": [
							{
								"astId": 694,
								"contract": "contracts/zombieWeapons.sol:ZombieWeapons",
								"label": "name",
								"offset": 0,
								"slot": "0",
								"type": "t_string_storage"
							},
							{
								"astId": 696,
								"contract": "contracts/zombieWeapons.sol:ZombieWeapons",
								"label": "range",
								"offset": 0,
								"slot": "1",
								"type": "t_uint8"
							},
							{
								"astId": 698,
								"contract": "contracts/zombieWeapons.sol:ZombieWeapons",
								"label": "damage",
								"offset": 1,
								"slot": "1",
								"type": "t_uint8"
							},
							{
								"astId": 700,
								"contract": "contracts/zombieWeapons.sol:ZombieWeapons",
								"label": "durability",
								"offset": 2,
								"slot": "1",
								"type": "t_uint8"
							}
						],
						"numberOfBytes": "64"
					},
					"t_uint256": {
						"encoding": "inplace",
						"label": "uint256",
						"numberOfBytes": "32"
					},
					"t_uint8": {
						"encoding": "inplace",
						"label": "uint8",
						"numberOfBytes": "1"
					}
				}
			},
			"userdoc": {
				"kind": "user",
				"methods": {
					"renounceOwnership()": {
						"notice": "Renouncing to ownership will leave the contract without an owner. It will not be possible to call the functions with the `onlyOwner` modifier anymore."
					}
				},
				"version": 1
			}
		}
	}
}