{
	"contracts/zombie1.sol": {
		"ZombieSurvive": {
			"abi": [
				{
					"anonymous": false,
					"inputs": [
						{
							"indexed": true,
							"internalType": "address",
							"name": "previousOwner",
							"type": "address"
						},
						{
							"indexed": true,
							"internalType": "address",
							"name": "newOwner",
							"type": "address"
						}
					],
					"name": "OwnershipTransferred",
					"type": "event"
				},
				{
					"anonymous": false,
					"inputs": [
						{
							"indexed": false,
							"internalType": "uint256",
							"name": "id",
							"type": "uint256"
						},
						{
							"indexed": false,
							"internalType": "string",
							"name": "name",
							"type": "string"
						},
						{
							"indexed": false,
							"internalType": "string",
							"name": "classType",
							"type": "string"
						}
					],
					"name": "PlayerCreated",
					"type": "event"
				},
				{
					"anonymous": false,
					"inputs": [
						{
							"components": [
								{
									"internalType": "string",
									"name": "name",
									"type": "string"
								},
								{
									"internalType": "uint8",
									"name": "hunger",
									"type": "uint8"
								},
								{
									"internalType": "uint8",
									"name": "water",
									"type": "uint8"
								},
								{
									"internalType": "uint32",
									"name": "level",
									"type": "uint32"
								},
								{
									"internalType": "bool",
									"name": "alive",
									"type": "bool"
								},
								{
									"internalType": "bool",
									"name": "busy",
									"type": "bool"
								},
								{
									"components": [
										{
											"internalType": "uint32",
											"name": "energy",
											"type": "uint32"
										},
										{
											"internalType": "uint32",
											"name": "weight",
											"type": "uint32"
										},
										{
											"internalType": "uint32",
											"name": "damage",
											"type": "uint32"
										},
										{
											"internalType": "uint8",
											"name": "health",
											"type": "uint8"
										}
									],
									"internalType": "struct ZombieSurvive.Class",
									"name": "class",
									"type": "tuple"
								},
								{
									"components": [
										{
											"internalType": "string",
											"name": "name",
											"type": "string"
										},
										{
											"internalType": "uint8",
											"name": "range",
											"type": "uint8"
										},
										{
											"internalType": "uint8",
											"name": "damage",
											"type": "uint8"
										},
										{
											"internalType": "uint8",
											"name": "durability",
											"type": "uint8"
										}
									],
									"internalType": "struct ZombieWeapons.Weapon",
									"name": "weapon",
									"type": "tuple"
								}
							],
							"indexed": false,
							"internalType": "struct ZombieSurvive.Player[]",
							"name": "players",
							"type": "tuple[]"
						}
					],
					"name": "Players",
					"type": "event"
				},
				{
					"anonymous": false,
					"inputs": [
						{
							"indexed": false,
							"internalType": "string",
							"name": "result",
							"type": "string"
						},
						{
							"indexed": false,
							"internalType": "uint256",
							"name": "enemy",
							"type": "uint256"
						},
						{
							"indexed": false,
							"internalType": "uint256",
							"name": "player",
							"type": "uint256"
						}
					],
					"name": "Victory",
					"type": "event"
				},
				{
					"anonymous": false,
					"inputs": [
						{
							"indexed": false,
							"internalType": "address",
							"name": "playerId",
							"type": "address"
						},
						{
							"indexed": false,
							"internalType": "string",
							"name": "name",
							"type": "string"
						},
						{
							"indexed": false,
							"internalType": "uint256",
							"name": "weaponProperties",
							"type": "uint256"
						}
					],
					"name": "WeaponFound",
					"type": "event"
				},
				{
					"inputs": [],
					"name": "TakeALook",
					"outputs": [],
					"stateMutability": "nonpayable",
					"type": "function"
				},
				{
					"inputs": [
						{
							"internalType": "uint256",
							"name": "id",
							"type": "uint256"
						}
					],
					"name": "changeWeapon",
					"outputs": [],
					"stateMutability": "nonpayable",
					"type": "function"
				},
				{
					"inputs": [
						{
							"internalType": "string",
							"name": "_name",
							"type": "string"
						},
						{
							"internalType": "string",
							"name": "_class",
							"type": "string"
						}
					],
					"name": "createPlayer",
					"outputs": [],
					"stateMutability": "nonpayable",
					"type": "function"
				},
				{
					"inputs": [
						{
							"internalType": "string",
							"name": "_name",
							"type": "string"
						}
					],
					"name": "findWeapon",
					"outputs": [],
					"stateMutability": "nonpayable",
					"type": "function"
				},
				{
					"inputs": [
						{
							"internalType": "address",
							"name": "_owner",
							"type": "address"
						}
					],
					"name": "getWeaponsByOwner",
					"outputs": [
						{
							"internalType": "uint256[]",
							"name": "",
							"type": "uint256[]"
						}
					],
					"stateMutability": "view",
					"type": "function"
				},
				{
					"inputs": [],
					"name": "isOwner",
					"outputs": [
						{
							"internalType": "bool",
							"name": "",
							"type": "bool"
						}
					],
					"stateMutability": "view",
					"type": "function"
				},
				{
					"inputs": [],
					"name": "owner",
					"outputs": [
						{
							"internalType": "address",
							"name": "",
							"type": "address"
						}
					],
					"stateMutability": "view",
					"type": "function"
				},
				{
					"inputs": [
						{
							"internalType": "uint256",
							"name": "",
							"type": "uint256"
						}
					],
					"name": "players",
					"outputs": [
						{
							"internalType": "string",
							"name": "name",
							"type": "string"
						},
						{
							"internalType": "uint8",
							"name": "hunger",
							"type": "uint8"
						},
						{
							"internalType": "uint8",
							"name": "water",
							"type": "uint8"
						},
						{
							"internalType": "uint32",
							"name": "level",
							"type": "uint32"
						},
						{
							"internalType": "bool",
							"name": "alive",
							"type": "bool"
						},
						{
							"internalType": "bool",
							"name": "busy",
							"type": "bool"
						},
						{
							"components": [
								{
									"internalType": "uint32",
									"name": "energy",
									"type": "uint32"
								},
								{
									"internalType": "uint32",
									"name": "weight",
									"type": "uint32"
								},
								{
									"internalType": "uint32",
									"name": "damage",
									"type": "uint32"
								},
								{
									"internalType": "uint8",
									"name": "health",
									"type": "uint8"
								}
							],
							"internalType": "struct ZombieSurvive.Class",
							"name": "class",
							"type": "tuple"
						},
						{
							"components": [
								{
									"internalType": "string",
									"name": "name",
									"type": "string"
								},
								{
									"internalType": "uint8",
									"name": "range",
									"type": "uint8"
								},
								{
									"internalType": "uint8",
									"name": "damage",
									"type": "uint8"
								},
								{
									"internalType": "uint8",
									"name": "durability",
									"type": "uint8"
								}
							],
							"internalType": "struct ZombieWeapons.Weapon",
							"name": "weapon",
							"type": "tuple"
						}
					],
					"stateMutability": "view",
					"type": "function"
				},
				{
					"inputs": [],
					"name": "renounceOwnership",
					"outputs": [],
					"stateMutability": "nonpayable",
					"type": "function"
				},
				{
					"inputs": [
						{
							"internalType": "address",
							"name": "newOwner",
							"type": "address"
						}
					],
					"name": "transferOwnership",
					"outputs": [],
					"stateMutability": "nonpayable",
					"type": "function"
				},
				{
					"inputs": [
						{
							"internalType": "uint256",
							"name": "",
							"type": "uint256"
						}
					],
					"name": "weapons",
					"outputs": [
						{
							"internalType": "string",
							"name": "name",
							"type": "string"
						},
						{
							"internalType": "uint8",
							"name": "range",
							"type": "uint8"
						},
						{
							"internalType": "uint8",
							"name": "damage",
							"type": "uint8"
						},
						{
							"internalType": "uint8",
							"name": "durability",
							"type": "uint8"
						}
					],
					"stateMutability": "view",
					"type": "function"
				}
			],
			"devdoc": {
				"kind": "dev",
				"methods": {
					"isOwner()": {
						"returns": {
							"_0": "true if `msg.sender` is the owner of the contract."
						}
					},
					"owner()": {
						"returns": {
							"_0": "the address of the owner."
						}
					},
					"renounceOwnership()": {
						"details": "Allows the current owner to relinquish control of the contract."
					},
					"transferOwnership(address)": {
						"details": "Allows the current owner to transfer control of the contract to a newOwner.",
						"params": {
							"newOwner": "The address to transfer ownership to."
						}
					}
				},
				"version": 1
			},
			"evm": {
				"assembly": "    /* \"contracts/zombie1.sol\":93:3522  contract ZombieSurvive is ZombieWeapons {... */\n  mstore(0x40, 0x80)\n    /* \"contracts/zombieWeapons.sol\":531:532  0 */\n  0x00\n    /* \"contracts/zombieWeapons.sol\":514:532  uint RandNonce = 0 */\n  0x05\n  sstore\n    /* \"contracts/zombie1.sol\":93:3522  contract ZombieSurvive is ZombieWeapons {... */\n  callvalue\n  dup1\n  iszero\n  tag_1\n  jumpi\n  0x00\n  dup1\n  revert\ntag_1:\n  pop\n    /* \"contracts/ownable.sol\":556:566  msg.sender */\n  caller\n    /* \"contracts/ownable.sol\":547:553  _owner */\n  0x00\n  dup1\n    /* \"contracts/ownable.sol\":547:566  _owner = msg.sender */\n  0x0100\n  exp\n  dup2\n  sload\n  dup2\n  0xffffffffffffffffffffffffffffffffffffffff\n  mul\n  not\n  and\n  swap1\n  dup4\n  0xffffffffffffffffffffffffffffffffffffffff\n  and\n  mul\n  or\n  swap1\n  sstore\n  pop\n    /* \"contracts/ownable.sol\":611:617  _owner */\n  0x00\n  dup1\n  sload\n  swap1\n  0x0100\n  exp\n  swap1\n  div\n  0xffffffffffffffffffffffffffffffffffffffff\n  and\n    /* \"contracts/ownable.sol\":578:618  OwnershipTransferred(address(0), _owner) */\n  0xffffffffffffffffffffffffffffffffffffffff\n  and\n    /* \"contracts/ownable.sol\":607:608  0 */\n  0x00\n    /* \"contracts/ownable.sol\":578:618  OwnershipTransferred(address(0), _owner) */\n  0xffffffffffffffffffffffffffffffffffffffff\n  and\n  0x8be0079c531659141344cd1fd0a4f28419497f9722a3daafe3b4186f6b6457e0\n  mload(0x40)\n  mload(0x40)\n  dup1\n  swap2\n  sub\n  swap1\n  log3\n    /* \"contracts/zombie1.sol\":93:3522  contract ZombieSurvive is ZombieWeapons {... */\n  dataSize(sub_0)\n  dup1\n  dataOffset(sub_0)\n  0x00\n  codecopy\n  0x00\n  return\nstop\n\nsub_0: assembly {\n        /* \"contracts/zombie1.sol\":93:3522  contract ZombieSurvive is ZombieWeapons {... */\n      mstore(0x40, 0x80)\n      callvalue\n      dup1\n      iszero\n      tag_1\n      jumpi\n      0x00\n      dup1\n      revert\n    tag_1:\n      pop\n      jumpi(tag_2, lt(calldatasize, 0x04))\n      shr(0xe0, calldataload(0x00))\n      dup1\n      0x8da5cb5b\n      gt\n      tag_14\n      jumpi\n      dup1\n      0x8da5cb5b\n      eq\n      tag_8\n      jumpi\n      dup1\n      0x8f32d59b\n      eq\n      tag_9\n      jumpi\n      dup1\n      0x933ebf39\n      eq\n      tag_10\n      jumpi\n      dup1\n      0x970f7d73\n      eq\n      tag_11\n      jumpi\n      dup1\n      0xf2fde38b\n      eq\n      tag_12\n      jumpi\n      dup1\n      0xf71d96cb\n      eq\n      tag_13\n      jumpi\n      jump(tag_2)\n    tag_14:\n      dup1\n      0x3ef1ee50\n      eq\n      tag_3\n      jumpi\n      dup1\n      0x555e73c8\n      eq\n      tag_4\n      jumpi\n      dup1\n      0x5da39b9c\n      eq\n      tag_5\n      jumpi\n      dup1\n      0x715018a6\n      eq\n      tag_6\n      jumpi\n      dup1\n      0x84577807\n      eq\n      tag_7\n      jumpi\n    tag_2:\n      0x00\n      dup1\n      revert\n        /* \"contracts/zombie1.sol\":2035:2388  function getWeaponsByOwner(address _owner) external view returns(uint[] memory) {... */\n    tag_3:\n      tag_15\n      0x04\n      dup1\n      calldatasize\n      sub\n      dup2\n      add\n      swap1\n      tag_16\n      swap2\n      swap1\n      tag_17\n      jump\t// in\n    tag_16:\n      tag_18\n      jump\t// in\n    tag_15:\n      mload(0x40)\n      tag_19\n      swap2\n      swap1\n      tag_20\n      jump\t// in\n    tag_19:\n      mload(0x40)\n      dup1\n      swap2\n      sub\n      swap1\n      return\n        /* \"contracts/zombieWeapons.sol\":362:385  Weapon[] public weapons */\n    tag_4:\n      tag_21\n      0x04\n      dup1\n      calldatasize\n      sub\n      dup2\n      add\n      swap1\n      tag_22\n      swap2\n      swap1\n      tag_23\n      jump\t// in\n    tag_22:\n      tag_24\n      jump\t// in\n    tag_21:\n      mload(0x40)\n      tag_25\n      swap5\n      swap4\n      swap3\n      swap2\n      swap1\n      tag_26\n      jump\t// in\n    tag_25:\n      mload(0x40)\n      dup1\n      swap2\n      sub\n      swap1\n      return\n        /* \"contracts/zombie1.sol\":2571:3515  function TakeALook() external{... */\n    tag_5:\n      tag_27\n      tag_28\n      jump\t// in\n    tag_27:\n      stop\n        /* \"contracts/ownable.sol\":1332:1462  function renounceOwnership() public onlyOwner {... */\n    tag_6:\n      tag_29\n      tag_30\n      jump\t// in\n    tag_29:\n      stop\n        /* \"contracts/zombie1.sol\":2396:2559  function changeWeapon(uint id) external {... */\n    tag_7:\n      tag_31\n      0x04\n      dup1\n      calldatasize\n      sub\n      dup2\n      add\n      swap1\n      tag_32\n      swap2\n      swap1\n      tag_23\n      jump\t// in\n    tag_32:\n      tag_33\n      jump\t// in\n    tag_31:\n      stop\n        /* \"contracts/ownable.sol\":682:754  function owner() public view returns(address) {... */\n    tag_8:\n      tag_34\n      tag_35\n      jump\t// in\n    tag_34:\n      mload(0x40)\n      tag_36\n      swap2\n      swap1\n      tag_37\n      jump\t// in\n    tag_36:\n      mload(0x40)\n      dup1\n      swap2\n      sub\n      swap1\n      return\n        /* \"contracts/ownable.sol\":980:1065  function isOwner() public view returns(bool) {... */\n    tag_9:\n      tag_38\n      tag_39\n      jump\t// in\n    tag_38:\n      mload(0x40)\n      tag_40\n      swap2\n      swap1\n      tag_41\n      jump\t// in\n    tag_40:\n      mload(0x40)\n      dup1\n      swap2\n      sub\n      swap1\n      return\n        /* \"contracts/zombie1.sol\":809:1712  function createPlayer(string memory _name, string memory _class) external {... */\n    tag_10:\n      tag_42\n      0x04\n      dup1\n      calldatasize\n      sub\n      dup2\n      add\n      swap1\n      tag_43\n      swap2\n      swap1\n      tag_44\n      jump\t// in\n    tag_43:\n      tag_45\n      jump\t// in\n    tag_42:\n      stop\n        /* \"contracts/zombie1.sol\":1720:2027  function findWeapon(string memory _name) external{... */\n    tag_11:\n      tag_46\n      0x04\n      dup1\n      calldatasize\n      sub\n      dup2\n      add\n      swap1\n      tag_47\n      swap2\n      swap1\n      tag_48\n      jump\t// in\n    tag_47:\n      tag_49\n      jump\t// in\n    tag_46:\n      stop\n        /* \"contracts/ownable.sol\":1626:1729  function transferOwnership(address newOwner) public onlyOwner {... */\n    tag_12:\n      tag_50\n      0x04\n      dup1\n      calldatasize\n      sub\n      dup2\n      add\n      swap1\n      tag_51\n      swap2\n      swap1\n      tag_17\n      jump\t// in\n    tag_51:\n      tag_52\n      jump\t// in\n    tag_50:\n      stop\n        /* \"contracts/zombie1.sol\":779:802  Player[] public players */\n    tag_13:\n      tag_53\n      0x04\n      dup1\n      calldatasize\n      sub\n      dup2\n      add\n      swap1\n      tag_54\n      swap2\n      swap1\n      tag_23\n      jump\t// in\n    tag_54:\n      tag_55\n      jump\t// in\n    tag_53:\n      mload(0x40)\n      tag_56\n      swap9\n      swap8\n      swap7\n      swap6\n      swap5\n      swap4\n      swap3\n      swap2\n      swap1\n      tag_57\n      jump\t// in\n    tag_56:\n      mload(0x40)\n      dup1\n      swap2\n      sub\n      swap1\n      return\n        /* \"contracts/zombie1.sol\":2035:2388  function getWeaponsByOwner(address _owner) external view returns(uint[] memory) {... */\n    tag_18:\n        /* \"contracts/zombie1.sol\":2100:2113  uint[] memory */\n      0x60\n        /* \"contracts/zombie1.sol\":2122:2142  uint[] memory result */\n      0x00\n        /* \"contracts/zombie1.sol\":2156:2172  OwnerWeaponCount */\n      0x02\n        /* \"contracts/zombie1.sol\":2156:2180  OwnerWeaponCount[_owner] */\n      0x00\n        /* \"contracts/zombie1.sol\":2173:2179  _owner */\n      dup5\n        /* \"contracts/zombie1.sol\":2156:2180  OwnerWeaponCount[_owner] */\n      0xffffffffffffffffffffffffffffffffffffffff\n      and\n      0xffffffffffffffffffffffffffffffffffffffff\n      and\n      dup2\n      mstore\n      0x20\n      add\n      swap1\n      dup2\n      mstore\n      0x20\n      add\n      0x00\n      keccak256\n      sload\n        /* \"contracts/zombie1.sol\":2145:2181  new uint[](OwnerWeaponCount[_owner]) */\n      0xffffffffffffffff\n      dup2\n      gt\n      iszero\n      tag_59\n      jumpi\n      tag_60\n      tag_61\n      jump\t// in\n    tag_60:\n    tag_59:\n      mload(0x40)\n      swap1\n      dup1\n      dup3\n      mstore\n      dup1\n      0x20\n      mul\n      0x20\n      add\n      dup3\n      add\n      0x40\n      mstore\n      dup1\n      iszero\n      tag_62\n      jumpi\n      dup2\n      0x20\n      add\n      0x20\n      dup3\n      mul\n      dup1\n      calldatasize\n      dup4\n      calldatacopy\n      dup1\n      dup3\n      add\n      swap2\n      pop\n      pop\n      swap1\n      pop\n    tag_62:\n      pop\n        /* \"contracts/zombie1.sol\":2122:2181  uint[] memory result = new uint[](OwnerWeaponCount[_owner]) */\n      swap1\n      pop\n        /* \"contracts/zombie1.sol\":2188:2200  uint counter */\n      0x00\n        /* \"contracts/zombie1.sol\":2216:2222  uint i */\n      dup1\n        /* \"contracts/zombie1.sol\":2211:2361  for (uint i = 0; i < weapons.length; i++) {... */\n    tag_63:\n        /* \"contracts/zombie1.sol\":2232:2239  weapons */\n      0x03\n        /* \"contracts/zombie1.sol\":2232:2246  weapons.length */\n      dup1\n      sload\n      swap1\n      pop\n        /* \"contracts/zombie1.sol\":2228:2229  i */\n      dup2\n        /* \"contracts/zombie1.sol\":2228:2246  i < weapons.length */\n      lt\n        /* \"contracts/zombie1.sol\":2211:2361  for (uint i = 0; i < weapons.length; i++) {... */\n      iszero\n      tag_64\n      jumpi\n        /* \"contracts/zombie1.sol\":2286:2292  _owner */\n      dup5\n        /* \"contracts/zombie1.sol\":2266:2292  WeaponToOwner[i] == _owner */\n      0xffffffffffffffffffffffffffffffffffffffff\n      and\n        /* \"contracts/zombie1.sol\":2266:2279  WeaponToOwner */\n      0x01\n        /* \"contracts/zombie1.sol\":2266:2282  WeaponToOwner[i] */\n      0x00\n        /* \"contracts/zombie1.sol\":2280:2281  i */\n      dup4\n        /* \"contracts/zombie1.sol\":2266:2282  WeaponToOwner[i] */\n      dup2\n      mstore\n      0x20\n      add\n      swap1\n      dup2\n      mstore\n      0x20\n      add\n      0x00\n      keccak256\n      0x00\n      swap1\n      sload\n      swap1\n      0x0100\n      exp\n      swap1\n      div\n      0xffffffffffffffffffffffffffffffffffffffff\n      and\n        /* \"contracts/zombie1.sol\":2266:2292  WeaponToOwner[i] == _owner */\n      0xffffffffffffffffffffffffffffffffffffffff\n      and\n      sub\n        /* \"contracts/zombie1.sol\":2262:2354  if (WeaponToOwner[i] == _owner) {... */\n      tag_66\n      jumpi\n        /* \"contracts/zombie1.sol\":2323:2324  i */\n      dup1\n        /* \"contracts/zombie1.sol\":2305:2311  result */\n      dup4\n        /* \"contracts/zombie1.sol\":2312:2319  counter */\n      dup4\n        /* \"contracts/zombie1.sol\":2305:2320  result[counter] */\n      dup2\n      mload\n      dup2\n      lt\n      tag_67\n      jumpi\n      tag_68\n      tag_69\n      jump\t// in\n    tag_68:\n    tag_67:\n      0x20\n      mul\n      0x20\n      add\n      add\n        /* \"contracts/zombie1.sol\":2305:2324  result[counter] = i */\n      dup2\n      dup2\n      mstore\n      pop\n      pop\n        /* \"contracts/zombie1.sol\":2335:2344  counter++ */\n      dup2\n      dup1\n      tag_70\n      swap1\n      tag_71\n      jump\t// in\n    tag_70:\n      swap3\n      pop\n      pop\n        /* \"contracts/zombie1.sol\":2262:2354  if (WeaponToOwner[i] == _owner) {... */\n    tag_66:\n        /* \"contracts/zombie1.sol\":2248:2251  i++ */\n      dup1\n      dup1\n      0x01\n      add\n      swap2\n      pop\n      pop\n        /* \"contracts/zombie1.sol\":2211:2361  for (uint i = 0; i < weapons.length; i++) {... */\n      jump(tag_63)\n    tag_64:\n      pop\n        /* \"contracts/zombie1.sol\":2374:2380  result */\n      dup2\n        /* \"contracts/zombie1.sol\":2367:2380  return result */\n      swap3\n      pop\n      pop\n      pop\n        /* \"contracts/zombie1.sol\":2035:2388  function getWeaponsByOwner(address _owner) external view returns(uint[] memory) {... */\n      swap2\n      swap1\n      pop\n      jump\t// out\n        /* \"contracts/zombieWeapons.sol\":362:385  Weapon[] public weapons */\n    tag_24:\n      0x03\n      dup2\n      dup2\n      sload\n      dup2\n      lt\n      tag_72\n      jumpi\n      0x00\n      dup1\n      revert\n    tag_72:\n      swap1\n      0x00\n      mstore\n      keccak256(0x00, 0x20)\n      swap1\n      0x02\n      mul\n      add\n      0x00\n      swap2\n      pop\n      swap1\n      pop\n      dup1\n      0x00\n      add\n      dup1\n      sload\n      tag_74\n      swap1\n      tag_75\n      jump\t// in\n    tag_74:\n      dup1\n      0x1f\n      add\n      0x20\n      dup1\n      swap2\n      div\n      mul\n      0x20\n      add\n      mload(0x40)\n      swap1\n      dup2\n      add\n      0x40\n      mstore\n      dup1\n      swap3\n      swap2\n      swap1\n      dup2\n      dup2\n      mstore\n      0x20\n      add\n      dup3\n      dup1\n      sload\n      tag_76\n      swap1\n      tag_75\n      jump\t// in\n    tag_76:\n      dup1\n      iszero\n      tag_77\n      jumpi\n      dup1\n      0x1f\n      lt\n      tag_78\n      jumpi\n      0x0100\n      dup1\n      dup4\n      sload\n      div\n      mul\n      dup4\n      mstore\n      swap2\n      0x20\n      add\n      swap2\n      jump(tag_77)\n    tag_78:\n      dup3\n      add\n      swap2\n      swap1\n      0x00\n      mstore\n      keccak256(0x00, 0x20)\n      swap1\n    tag_79:\n      dup2\n      sload\n      dup2\n      mstore\n      swap1\n      0x01\n      add\n      swap1\n      0x20\n      add\n      dup1\n      dup4\n      gt\n      tag_79\n      jumpi\n      dup3\n      swap1\n      sub\n      0x1f\n      and\n      dup3\n      add\n      swap2\n    tag_77:\n      pop\n      pop\n      pop\n      pop\n      pop\n      swap1\n      dup1\n      0x01\n      add\n      0x00\n      swap1\n      sload\n      swap1\n      0x0100\n      exp\n      swap1\n      div\n      0xff\n      and\n      swap1\n      dup1\n      0x01\n      add\n      0x01\n      swap1\n      sload\n      swap1\n      0x0100\n      exp\n      swap1\n      div\n      0xff\n      and\n      swap1\n      dup1\n      0x01\n      add\n      0x02\n      swap1\n      sload\n      swap1\n      0x0100\n      exp\n      swap1\n      div\n      0xff\n      and\n      swap1\n      pop\n      dup5\n      jump\t// out\n        /* \"contracts/zombie1.sol\":2571:3515  function TakeALook() external{... */\n    tag_28:\n        /* \"contracts/zombie1.sol\":2621:2634  uint playerId */\n      0x00\n        /* \"contracts/zombie1.sol\":2637:2646  OwnerToId */\n      0x07\n        /* \"contracts/zombie1.sol\":2637:2658  OwnerToId[msg.sender] */\n      0x00\n        /* \"contracts/zombie1.sol\":2647:2657  msg.sender */\n      caller\n        /* \"contracts/zombie1.sol\":2637:2658  OwnerToId[msg.sender] */\n      0xffffffffffffffffffffffffffffffffffffffff\n      and\n      0xffffffffffffffffffffffffffffffffffffffff\n      and\n      dup2\n      mstore\n      0x20\n      add\n      swap1\n      dup2\n      mstore\n      0x20\n      add\n      0x00\n      keccak256\n      sload\n        /* \"contracts/zombie1.sol\":2621:2658  uint playerId = OwnerToId[msg.sender] */\n      swap1\n      pop\n        /* \"contracts/zombie1.sol\":2669:2680  uint result */\n      0x00\n        /* \"contracts/zombie1.sol\":2683:2701  _getRoll(playerId) */\n      tag_81\n        /* \"contracts/zombie1.sol\":2692:2700  playerId */\n      dup3\n        /* \"contracts/zombie1.sol\":2683:2691  _getRoll */\n      tag_82\n        /* \"contracts/zombie1.sol\":2683:2701  _getRoll(playerId) */\n      jump\t// in\n    tag_81:\n        /* \"contracts/zombie1.sol\":2669:2701  uint result = _getRoll(playerId) */\n      swap1\n      pop\n        /* \"contracts/zombie1.sol\":2725:2726  1 */\n      0x01\n        /* \"contracts/zombie1.sol\":2715:2721  result */\n      dup2\n        /* \"contracts/zombie1.sol\":2715:2726  result == 1 */\n      sub\n        /* \"contracts/zombie1.sol\":2712:3508  if(result == 1) {... */\n      tag_83\n      jumpi\n        /* \"contracts/zombie1.sol\":2768:2772  true */\n      0x01\n        /* \"contracts/zombie1.sol\":2743:2750  players */\n      0x09\n        /* \"contracts/zombie1.sol\":2751:2759  playerId */\n      dup4\n        /* \"contracts/zombie1.sol\":2743:2760  players[playerId] */\n      dup2\n      sload\n      dup2\n      lt\n      tag_84\n      jumpi\n      tag_85\n      tag_69\n      jump\t// in\n    tag_85:\n    tag_84:\n      swap1\n      0x00\n      mstore\n      keccak256(0x00, 0x20)\n      swap1\n      0x05\n      mul\n      add\n        /* \"contracts/zombie1.sol\":2743:2765  players[playerId].busy */\n      0x01\n      add\n      0x07\n        /* \"contracts/zombie1.sol\":2743:2772  players[playerId].busy = true */\n      0x0100\n      exp\n      dup2\n      sload\n      dup2\n      0xff\n      mul\n      not\n      and\n      swap1\n      dup4\n      iszero\n      iszero\n      mul\n      or\n      swap1\n      sstore\n      pop\n        /* \"contracts/zombie1.sol\":2787:2807  Player memory player */\n      0x00\n        /* \"contracts/zombie1.sol\":2810:2817  players */\n      0x09\n        /* \"contracts/zombie1.sol\":2818:2826  playerId */\n      dup4\n        /* \"contracts/zombie1.sol\":2810:2827  players[playerId] */\n      dup2\n      sload\n      dup2\n      lt\n      tag_87\n      jumpi\n      tag_88\n      tag_69\n      jump\t// in\n    tag_88:\n    tag_87:\n      swap1\n      0x00\n      mstore\n      keccak256(0x00, 0x20)\n      swap1\n      0x05\n      mul\n      add\n        /* \"contracts/zombie1.sol\":2787:2827  Player memory player = players[playerId] */\n      mload(0x40)\n      dup1\n      0x0100\n      add\n      0x40\n      mstore\n      swap1\n      dup2\n      0x00\n      dup3\n      add\n      dup1\n      sload\n      tag_90\n      swap1\n      tag_75\n      jump\t// in\n    tag_90:\n      dup1\n      0x1f\n      add\n      0x20\n      dup1\n      swap2\n      div\n      mul\n      0x20\n      add\n      mload(0x40)\n      swap1\n      dup2\n      add\n      0x40\n      mstore\n      dup1\n      swap3\n      swap2\n      swap1\n      dup2\n      dup2\n      mstore\n      0x20\n      add\n      dup3\n      dup1\n      sload\n      tag_91\n      swap1\n      tag_75\n      jump\t// in\n    tag_91:\n      dup1\n      iszero\n      tag_92\n      jumpi\n      dup1\n      0x1f\n      lt\n      tag_93\n      jumpi\n      0x0100\n      dup1\n      dup4\n      sload\n      div\n      mul\n      dup4\n      mstore\n      swap2\n      0x20\n      add\n      swap2\n      jump(tag_92)\n    tag_93:\n      dup3\n      add\n      swap2\n      swap1\n      0x00\n      mstore\n      keccak256(0x00, 0x20)\n      swap1\n    tag_94:\n      dup2\n      sload\n      dup2\n      mstore\n      swap1\n      0x01\n      add\n      swap1\n      0x20\n      add\n      dup1\n      dup4\n      gt\n      tag_94\n      jumpi\n      dup3\n      swap1\n      sub\n      0x1f\n      and\n      dup3\n      add\n      swap2\n    tag_92:\n      pop\n      pop\n      pop\n      pop\n      pop\n      dup2\n      mstore\n      0x20\n      add\n      0x01\n      dup3\n      add\n      0x00\n      swap1\n      sload\n      swap1\n      0x0100\n      exp\n      swap1\n      div\n      0xff\n      and\n      0xff\n      and\n      0xff\n      and\n      dup2\n      mstore\n      0x20\n      add\n      0x01\n      dup3\n      add\n      0x01\n      swap1\n      sload\n      swap1\n      0x0100\n      exp\n      swap1\n      div\n      0xff\n      and\n      0xff\n      and\n      0xff\n      and\n      dup2\n      mstore\n      0x20\n      add\n      0x01\n      dup3\n      add\n      0x02\n      swap1\n      sload\n      swap1\n      0x0100\n      exp\n      swap1\n      div\n      0xffffffff\n      and\n      0xffffffff\n      and\n      0xffffffff\n      and\n      dup2\n      mstore\n      0x20\n      add\n      0x01\n      dup3\n      add\n      0x06\n      swap1\n      sload\n      swap1\n      0x0100\n      exp\n      swap1\n      div\n      0xff\n      and\n      iszero\n      iszero\n      iszero\n      iszero\n      dup2\n      mstore\n      0x20\n      add\n      0x01\n      dup3\n      add\n      0x07\n      swap1\n      sload\n      swap1\n      0x0100\n      exp\n      swap1\n      div\n      0xff\n      and\n      iszero\n      iszero\n      iszero\n      iszero\n      dup2\n      mstore\n      0x20\n      add\n      0x02\n      dup3\n      add\n      mload(0x40)\n      dup1\n      0x80\n      add\n      0x40\n      mstore\n      swap1\n      dup2\n      0x00\n      dup3\n      add\n      0x00\n      swap1\n      sload\n      swap1\n      0x0100\n      exp\n      swap1\n      div\n      0xffffffff\n      and\n      0xffffffff\n      and\n      0xffffffff\n      and\n      dup2\n      mstore\n      0x20\n      add\n      0x00\n      dup3\n      add\n      0x04\n      swap1\n      sload\n      swap1\n      0x0100\n      exp\n      swap1\n      div\n      0xffffffff\n      and\n      0xffffffff\n      and\n      0xffffffff\n      and\n      dup2\n      mstore\n      0x20\n      add\n      0x00\n      dup3\n      add\n      0x08\n      swap1\n      sload\n      swap1\n      0x0100\n      exp\n      swap1\n      div\n      0xffffffff\n      and\n      0xffffffff\n      and\n      0xffffffff\n      and\n      dup2\n      mstore\n      0x20\n      add\n      0x00\n      dup3\n      add\n      0x0c\n      swap1\n      sload\n      swap1\n      0x0100\n      exp\n      swap1\n      div\n      0xff\n      and\n      0xff\n      and\n      0xff\n      and\n      dup2\n      mstore\n      pop\n      pop\n      dup2\n      mstore\n      0x20\n      add\n      0x03\n      dup3\n      add\n      mload(0x40)\n      dup1\n      0x80\n      add\n      0x40\n      mstore\n      swap1\n      dup2\n      0x00\n      dup3\n      add\n      dup1\n      sload\n      tag_95\n      swap1\n      tag_75\n      jump\t// in\n    tag_95:\n      dup1\n      0x1f\n      add\n      0x20\n      dup1\n      swap2\n      div\n      mul\n      0x20\n      add\n      mload(0x40)\n      swap1\n      dup2\n      add\n      0x40\n      mstore\n      dup1\n      swap3\n      swap2\n      swap1\n      dup2\n      dup2\n      mstore\n      0x20\n      add\n      dup3\n      dup1\n      sload\n      tag_96\n      swap1\n      tag_75\n      jump\t// in\n    tag_96:\n      dup1\n      iszero\n      tag_97\n      jumpi\n      dup1\n      0x1f\n      lt\n      tag_98\n      jumpi\n      0x0100\n      dup1\n      dup4\n      sload\n      div\n      mul\n      dup4\n      mstore\n      swap2\n      0x20\n      add\n      swap2\n      jump(tag_97)\n    tag_98:\n      dup3\n      add\n      swap2\n      swap1\n      0x00\n      mstore\n      keccak256(0x00, 0x20)\n      swap1\n    tag_99:\n      dup2\n      sload\n      dup2\n      mstore\n      swap1\n      0x01\n      add\n      swap1\n      0x20\n      add\n      dup1\n      dup4\n      gt\n      tag_99\n      jumpi\n      dup3\n      swap1\n      sub\n      0x1f\n      and\n      dup3\n      add\n      swap2\n    tag_97:\n      pop\n      pop\n      pop\n      pop\n      pop\n      dup2\n      mstore\n      0x20\n      add\n      0x01\n      dup3\n      add\n      0x00\n      swap1\n      sload\n      swap1\n      0x0100\n      exp\n      swap1\n      div\n      0xff\n      and\n      0xff\n      and\n      0xff\n      and\n      dup2\n      mstore\n      0x20\n      add\n      0x01\n      dup3\n      add\n      0x01\n      swap1\n      sload\n      swap1\n      0x0100\n      exp\n      swap1\n      div\n      0xff\n      and\n      0xff\n      and\n      0xff\n      and\n      dup2\n      mstore\n      0x20\n      add\n      0x01\n      dup3\n      add\n      0x02\n      swap1\n      sload\n      swap1\n      0x0100\n      exp\n      swap1\n      div\n      0xff\n      and\n      0xff\n      and\n      0xff\n      and\n      dup2\n      mstore\n      pop\n      pop\n      dup2\n      mstore\n      pop\n      pop\n      swap1\n      pop\n        /* \"contracts/zombie1.sol\":2842:2861  Zombie memory enemy */\n      0x00\n        /* \"contracts/zombie1.sol\":2864:2884  _zombieGen(playerId) */\n      tag_100\n        /* \"contracts/zombie1.sol\":2875:2883  playerId */\n      dup5\n        /* \"contracts/zombie1.sol\":2864:2874  _zombieGen */\n      tag_101\n        /* \"contracts/zombie1.sol\":2864:2884  _zombieGen(playerId) */\n      jump\t// in\n    tag_100:\n        /* \"contracts/zombie1.sol\":2842:2884  Zombie memory enemy = _zombieGen(playerId) */\n      swap1\n      pop\n        /* \"contracts/zombie1.sol\":2942:2948  player */\n      dup2\n        /* \"contracts/zombie1.sol\":2942:2955  player.weapon */\n      0xe0\n      add\n      mload\n        /* \"contracts/zombie1.sol\":2942:2962  player.weapon.damage */\n      0x40\n      add\n      mload\n        /* \"contracts/zombie1.sol\":2920:2962  player.class.damage + player.weapon.damage */\n      0xff\n      and\n        /* \"contracts/zombie1.sol\":2920:2926  player */\n      dup3\n        /* \"contracts/zombie1.sol\":2920:2932  player.class */\n      0xc0\n      add\n      mload\n        /* \"contracts/zombie1.sol\":2920:2939  player.class.damage */\n      0x40\n      add\n      mload\n        /* \"contracts/zombie1.sol\":2920:2962  player.class.damage + player.weapon.damage */\n      tag_102\n      swap2\n      swap1\n      tag_103\n      jump\t// in\n    tag_102:\n        /* \"contracts/zombie1.sol\":2903:2963  enemy.health <= (player.class.damage + player.weapon.damage) */\n      0xffffffff\n      and\n        /* \"contracts/zombie1.sol\":2903:2908  enemy */\n      dup2\n        /* \"contracts/zombie1.sol\":2903:2915  enemy.health */\n      0x40\n      add\n      mload\n        /* \"contracts/zombie1.sol\":2903:2963  enemy.health <= (player.class.damage + player.weapon.damage) */\n      gt\n        /* \"contracts/zombie1.sol\":2899:3360  if (enemy.health <= (player.class.damage + player.weapon.damage)) {... */\n      tag_104\n      jumpi\n        /* \"contracts/zombie1.sol\":2989:3069  Victory(\"Victory!!!\", (player.class.damage + player.weapon.damage),enemy.health) */\n      0x91c6d69eac266a1ed233f0d4544d38438777858029c23cbd6a4a6578bd71d0d3\n        /* \"contracts/zombie1.sol\":3034:3040  player */\n      dup3\n        /* \"contracts/zombie1.sol\":3034:3047  player.weapon */\n      0xe0\n      add\n      mload\n        /* \"contracts/zombie1.sol\":3034:3054  player.weapon.damage */\n      0x40\n      add\n      mload\n        /* \"contracts/zombie1.sol\":3012:3054  player.class.damage + player.weapon.damage */\n      0xff\n      and\n        /* \"contracts/zombie1.sol\":3012:3018  player */\n      dup4\n        /* \"contracts/zombie1.sol\":3012:3024  player.class */\n      0xc0\n      add\n      mload\n        /* \"contracts/zombie1.sol\":3012:3031  player.class.damage */\n      0x40\n      add\n      mload\n        /* \"contracts/zombie1.sol\":3012:3054  player.class.damage + player.weapon.damage */\n      tag_105\n      swap2\n      swap1\n      tag_103\n      jump\t// in\n    tag_105:\n        /* \"contracts/zombie1.sol\":3056:3061  enemy */\n      dup3\n        /* \"contracts/zombie1.sol\":3056:3068  enemy.health */\n      0x40\n      add\n      mload\n        /* \"contracts/zombie1.sol\":2989:3069  Victory(\"Victory!!!\", (player.class.damage + player.weapon.damage),enemy.health) */\n      mload(0x40)\n      tag_106\n      swap3\n      swap2\n      swap1\n      tag_107\n      jump\t// in\n    tag_106:\n      mload(0x40)\n      dup1\n      swap2\n      sub\n      swap1\n      log1\n        /* \"contracts/zombie1.sol\":3088:3095  players */\n      0x09\n        /* \"contracts/zombie1.sol\":3096:3104  playerId */\n      dup5\n        /* \"contracts/zombie1.sol\":3088:3105  players[playerId] */\n      dup2\n      sload\n      dup2\n      lt\n      tag_108\n      jumpi\n      tag_109\n      tag_69\n      jump\t// in\n    tag_109:\n    tag_108:\n      swap1\n      0x00\n      mstore\n      keccak256(0x00, 0x20)\n      swap1\n      0x05\n      mul\n      add\n        /* \"contracts/zombie1.sol\":3088:3111  players[playerId].level */\n      0x01\n      add\n      0x02\n        /* \"contracts/zombie1.sol\":3088:3113  players[playerId].level++ */\n      dup2\n      dup2\n      swap1\n      sload\n      swap1\n      0x0100\n      exp\n      swap1\n      div\n      0xffffffff\n      and\n      dup1\n      swap3\n      swap2\n      swap1\n      tag_111\n      swap1\n      tag_112\n      jump\t// in\n    tag_111:\n      swap2\n      swap1\n      0x0100\n      exp\n      dup2\n      sload\n      dup2\n      0xffffffff\n      mul\n      not\n      and\n      swap1\n      dup4\n      0xffffffff\n      and\n      mul\n      or\n      swap1\n      sstore\n      pop\n      pop\n        /* \"contracts/zombie1.sol\":2899:3360  if (enemy.health <= (player.class.damage + player.weapon.damage)) {... */\n      jump(tag_113)\n    tag_104:\n        /* \"contracts/zombie1.sol\":3169:3244  Victory(\"Lose!\", (player.class.damage + player.weapon.damage),enemy.health) */\n      0x91c6d69eac266a1ed233f0d4544d38438777858029c23cbd6a4a6578bd71d0d3\n        /* \"contracts/zombie1.sol\":3209:3215  player */\n      dup3\n        /* \"contracts/zombie1.sol\":3209:3222  player.weapon */\n      0xe0\n      add\n      mload\n        /* \"contracts/zombie1.sol\":3209:3229  player.weapon.damage */\n      0x40\n      add\n      mload\n        /* \"contracts/zombie1.sol\":3187:3229  player.class.damage + player.weapon.damage */\n      0xff\n      and\n        /* \"contracts/zombie1.sol\":3187:3193  player */\n      dup4\n        /* \"contracts/zombie1.sol\":3187:3199  player.class */\n      0xc0\n      add\n      mload\n        /* \"contracts/zombie1.sol\":3187:3206  player.class.damage */\n      0x40\n      add\n      mload\n        /* \"contracts/zombie1.sol\":3187:3229  player.class.damage + player.weapon.damage */\n      tag_114\n      swap2\n      swap1\n      tag_103\n      jump\t// in\n    tag_114:\n        /* \"contracts/zombie1.sol\":3231:3236  enemy */\n      dup3\n        /* \"contracts/zombie1.sol\":3231:3243  enemy.health */\n      0x40\n      add\n      mload\n        /* \"contracts/zombie1.sol\":3169:3244  Victory(\"Lose!\", (player.class.damage + player.weapon.damage),enemy.health) */\n      mload(0x40)\n      tag_115\n      swap3\n      swap2\n      swap1\n      tag_116\n      jump\t// in\n    tag_115:\n      mload(0x40)\n      dup1\n      swap2\n      sub\n      swap1\n      log1\n        /* \"contracts/zombie1.sol\":3289:3294  false */\n      0x00\n        /* \"contracts/zombie1.sol\":3263:3270  players */\n      0x09\n        /* \"contracts/zombie1.sol\":3271:3279  playerId */\n      dup6\n        /* \"contracts/zombie1.sol\":3263:3280  players[playerId] */\n      dup2\n      sload\n      dup2\n      lt\n      tag_117\n      jumpi\n      tag_118\n      tag_69\n      jump\t// in\n    tag_118:\n    tag_117:\n      swap1\n      0x00\n      mstore\n      keccak256(0x00, 0x20)\n      swap1\n      0x05\n      mul\n      add\n        /* \"contracts/zombie1.sol\":3263:3286  players[playerId].alive */\n      0x01\n      add\n      0x06\n        /* \"contracts/zombie1.sol\":3263:3294  players[playerId].alive = false */\n      0x0100\n      exp\n      dup2\n      sload\n      dup2\n      0xff\n      mul\n      not\n      and\n      swap1\n      dup4\n      iszero\n      iszero\n      mul\n      or\n      swap1\n      sstore\n      pop\n        /* \"contracts/zombie1.sol\":3313:3326  uint timestap */\n      0x00\n        /* \"contracts/zombie1.sol\":3329:3344  block.timestamp */\n      timestamp\n        /* \"contracts/zombie1.sol\":3313:3344  uint timestap = block.timestamp */\n      swap1\n      pop\n        /* \"contracts/zombie1.sol\":3145:3360  {... */\n      pop\n        /* \"contracts/zombie1.sol\":2899:3360  if (enemy.health <= (player.class.damage + player.weapon.damage)) {... */\n    tag_113:\n        /* \"contracts/zombie1.sol\":2728:3405  {... */\n      pop\n      pop\n        /* \"contracts/zombie1.sol\":2712:3508  if(result == 1) {... */\n      jump(tag_120)\n    tag_83:\n        /* \"contracts/zombie1.sol\":3433:3496  Victory(\"Nothing was found\", 0, players[playerId].class.damage) */\n      0x91c6d69eac266a1ed233f0d4544d38438777858029c23cbd6a4a6578bd71d0d3\n        /* \"contracts/zombie1.sol\":3462:3463  0 */\n      0x00\n        /* \"contracts/zombie1.sol\":3465:3472  players */\n      0x09\n        /* \"contracts/zombie1.sol\":3473:3481  playerId */\n      dup5\n        /* \"contracts/zombie1.sol\":3465:3482  players[playerId] */\n      dup2\n      sload\n      dup2\n      lt\n      tag_121\n      jumpi\n      tag_122\n      tag_69\n      jump\t// in\n    tag_122:\n    tag_121:\n      swap1\n      0x00\n      mstore\n      keccak256(0x00, 0x20)\n      swap1\n      0x05\n      mul\n      add\n        /* \"contracts/zombie1.sol\":3465:3488  players[playerId].class */\n      0x02\n      add\n        /* \"contracts/zombie1.sol\":3465:3495  players[playerId].class.damage */\n      0x00\n      add\n      0x08\n      swap1\n      sload\n      swap1\n      0x0100\n      exp\n      swap1\n      div\n      0xffffffff\n      and\n        /* \"contracts/zombie1.sol\":3433:3496  Victory(\"Nothing was found\", 0, players[playerId].class.damage) */\n      mload(0x40)\n      tag_124\n      swap3\n      swap2\n      swap1\n      tag_125\n      jump\t// in\n    tag_124:\n      mload(0x40)\n      dup1\n      swap2\n      sub\n      swap1\n      log1\n        /* \"contracts/zombie1.sol\":2712:3508  if(result == 1) {... */\n    tag_120:\n        /* \"contracts/zombie1.sol\":2600:3515  {... */\n      pop\n      pop\n        /* \"contracts/zombie1.sol\":2571:3515  function TakeALook() external{... */\n      jump\t// out\n        /* \"contracts/ownable.sol\":1332:1462  function renounceOwnership() public onlyOwner {... */\n    tag_30:\n        /* \"contracts/ownable.sol\":873:882  isOwner() */\n      tag_127\n        /* \"contracts/ownable.sol\":873:880  isOwner */\n      tag_39\n        /* \"contracts/ownable.sol\":873:882  isOwner() */\n      jump\t// in\n    tag_127:\n        /* \"contracts/ownable.sol\":865:883  require(isOwner()) */\n      tag_128\n      jumpi\n      0x00\n      dup1\n      revert\n    tag_128:\n        /* \"contracts/ownable.sol\":1427:1428  0 */\n      0x00\n        /* \"contracts/ownable.sol\":1390:1430  OwnershipTransferred(_owner, address(0)) */\n      0xffffffffffffffffffffffffffffffffffffffff\n      and\n        /* \"contracts/ownable.sol\":1411:1417  _owner */\n      0x00\n      dup1\n      sload\n      swap1\n      0x0100\n      exp\n      swap1\n      div\n      0xffffffffffffffffffffffffffffffffffffffff\n      and\n        /* \"contracts/ownable.sol\":1390:1430  OwnershipTransferred(_owner, address(0)) */\n      0xffffffffffffffffffffffffffffffffffffffff\n      and\n      0x8be0079c531659141344cd1fd0a4f28419497f9722a3daafe3b4186f6b6457e0\n      mload(0x40)\n      mload(0x40)\n      dup1\n      swap2\n      sub\n      swap1\n      log3\n        /* \"contracts/ownable.sol\":1454:1455  0 */\n      0x00\n        /* \"contracts/ownable.sol\":1437:1443  _owner */\n      dup1\n      0x00\n        /* \"contracts/ownable.sol\":1437:1456  _owner = address(0) */\n      0x0100\n      exp\n      dup2\n      sload\n      dup2\n      0xffffffffffffffffffffffffffffffffffffffff\n      mul\n      not\n      and\n      swap1\n      dup4\n      0xffffffffffffffffffffffffffffffffffffffff\n      and\n      mul\n      or\n      swap1\n      sstore\n      pop\n        /* \"contracts/ownable.sol\":1332:1462  function renounceOwnership() public onlyOwner {... */\n      jump\t// out\n        /* \"contracts/zombie1.sol\":2396:2559  function changeWeapon(uint id) external {... */\n    tag_33:\n        /* \"contracts/zombie1.sol\":2469:2482  WeaponToOwner */\n      0x01\n        /* \"contracts/zombie1.sol\":2469:2486  WeaponToOwner[id] */\n      0x00\n        /* \"contracts/zombie1.sol\":2483:2485  id */\n      dup3\n        /* \"contracts/zombie1.sol\":2469:2486  WeaponToOwner[id] */\n      dup2\n      mstore\n      0x20\n      add\n      swap1\n      dup2\n      mstore\n      0x20\n      add\n      0x00\n      keccak256\n      0x00\n      swap1\n      sload\n      swap1\n      0x0100\n      exp\n      swap1\n      div\n      0xffffffffffffffffffffffffffffffffffffffff\n      and\n        /* \"contracts/zombie1.sol\":2455:2486  msg.sender == WeaponToOwner[id] */\n      0xffffffffffffffffffffffffffffffffffffffff\n      and\n        /* \"contracts/zombie1.sol\":2455:2465  msg.sender */\n      caller\n        /* \"contracts/zombie1.sol\":2455:2486  msg.sender == WeaponToOwner[id] */\n      0xffffffffffffffffffffffffffffffffffffffff\n      and\n      eq\n        /* \"contracts/zombie1.sol\":2447:2487  require(msg.sender == WeaponToOwner[id]) */\n      tag_131\n      jumpi\n      0x00\n      dup1\n      revert\n    tag_131:\n        /* \"contracts/zombie1.sol\":2540:2547  weapons */\n      0x03\n        /* \"contracts/zombie1.sol\":2548:2550  id */\n      dup2\n        /* \"contracts/zombie1.sol\":2540:2551  weapons[id] */\n      dup2\n      sload\n      dup2\n      lt\n      tag_132\n      jumpi\n      tag_133\n      tag_69\n      jump\t// in\n    tag_133:\n    tag_132:\n      swap1\n      0x00\n      mstore\n      keccak256(0x00, 0x20)\n      swap1\n      0x02\n      mul\n      add\n        /* \"contracts/zombie1.sol\":2500:2507  players */\n      0x09\n        /* \"contracts/zombie1.sol\":2508:2517  OwnerToId */\n      0x07\n        /* \"contracts/zombie1.sol\":2508:2529  OwnerToId[msg.sender] */\n      0x00\n        /* \"contracts/zombie1.sol\":2518:2528  msg.sender */\n      caller\n        /* \"contracts/zombie1.sol\":2508:2529  OwnerToId[msg.sender] */\n      0xffffffffffffffffffffffffffffffffffffffff\n      and\n      0xffffffffffffffffffffffffffffffffffffffff\n      and\n      dup2\n      mstore\n      0x20\n      add\n      swap1\n      dup2\n      mstore\n      0x20\n      add\n      0x00\n      keccak256\n      sload\n        /* \"contracts/zombie1.sol\":2500:2530  players[OwnerToId[msg.sender]] */\n      dup2\n      sload\n      dup2\n      lt\n      tag_135\n      jumpi\n      tag_136\n      tag_69\n      jump\t// in\n    tag_136:\n    tag_135:\n      swap1\n      0x00\n      mstore\n      keccak256(0x00, 0x20)\n      swap1\n      0x05\n      mul\n      add\n        /* \"contracts/zombie1.sol\":2500:2537  players[OwnerToId[msg.sender]].weapon */\n      0x03\n      add\n        /* \"contracts/zombie1.sol\":2500:2551  players[OwnerToId[msg.sender]].weapon = weapons[id] */\n      0x00\n      dup3\n      add\n      dup2\n      0x00\n      add\n      swap1\n      dup2\n      tag_138\n      swap2\n      swap1\n      tag_139\n      jump\t// in\n    tag_138:\n      pop\n      0x01\n      dup3\n      add\n      0x00\n      swap1\n      sload\n      swap1\n      0x0100\n      exp\n      swap1\n      div\n      0xff\n      and\n      dup2\n      0x01\n      add\n      exp(0x0100, 0x00)\n      dup2\n      sload\n      dup2\n      0xff\n      mul\n      not\n      and\n      swap1\n      dup4\n      0xff\n      and\n      mul\n      or\n      swap1\n      sstore\n      pop\n      0x01\n      dup3\n      add\n      0x01\n      swap1\n      sload\n      swap1\n      0x0100\n      exp\n      swap1\n      div\n      0xff\n      and\n      dup2\n      0x01\n      add\n      exp(0x0100, 0x01)\n      dup2\n      sload\n      dup2\n      0xff\n      mul\n      not\n      and\n      swap1\n      dup4\n      0xff\n      and\n      mul\n      or\n      swap1\n      sstore\n      pop\n      0x01\n      dup3\n      add\n      0x02\n      swap1\n      sload\n      swap1\n      0x0100\n      exp\n      swap1\n      div\n      0xff\n      and\n      dup2\n      0x01\n      add\n      exp(0x0100, 0x02)\n      dup2\n      sload\n      dup2\n      0xff\n      mul\n      not\n      and\n      swap1\n      dup4\n      0xff\n      and\n      mul\n      or\n      swap1\n      sstore\n      pop\n      swap1\n      pop\n      pop\n        /* \"contracts/zombie1.sol\":2396:2559  function changeWeapon(uint id) external {... */\n      pop\n      jump\t// out\n        /* \"contracts/ownable.sol\":682:754  function owner() public view returns(address) {... */\n    tag_35:\n        /* \"contracts/ownable.sol\":719:726  address */\n      0x00\n        /* \"contracts/ownable.sol\":742:748  _owner */\n      dup1\n      0x00\n      swap1\n      sload\n      swap1\n      0x0100\n      exp\n      swap1\n      div\n      0xffffffffffffffffffffffffffffffffffffffff\n      and\n        /* \"contracts/ownable.sol\":735:748  return _owner */\n      swap1\n      pop\n        /* \"contracts/ownable.sol\":682:754  function owner() public view returns(address) {... */\n      swap1\n      jump\t// out\n        /* \"contracts/ownable.sol\":980:1065  function isOwner() public view returns(bool) {... */\n    tag_39:\n        /* \"contracts/ownable.sol\":1019:1023  bool */\n      0x00\n        /* \"contracts/ownable.sol\":1053:1059  _owner */\n      dup1\n      0x00\n      swap1\n      sload\n      swap1\n      0x0100\n      exp\n      swap1\n      div\n      0xffffffffffffffffffffffffffffffffffffffff\n      and\n        /* \"contracts/ownable.sol\":1039:1059  msg.sender == _owner */\n      0xffffffffffffffffffffffffffffffffffffffff\n      and\n        /* \"contracts/ownable.sol\":1039:1049  msg.sender */\n      caller\n        /* \"contracts/ownable.sol\":1039:1059  msg.sender == _owner */\n      0xffffffffffffffffffffffffffffffffffffffff\n      and\n      eq\n        /* \"contracts/ownable.sol\":1032:1059  return msg.sender == _owner */\n      swap1\n      pop\n        /* \"contracts/ownable.sol\":980:1065  function isOwner() public view returns(bool) {... */\n      swap1\n      jump\t// out\n        /* \"contracts/zombie1.sol\":809:1712  function createPlayer(string memory _name, string memory _class) external {... */\n    tag_45:\n        /* \"contracts/zombie1.sol\":949:974  abi.encodePacked(\"melee\") */\n      add(0x20, mload(0x40))\n      tag_143\n      swap1\n      tag_144\n      jump\t// in\n    tag_143:\n      mload(0x40)\n      0x20\n      dup2\n      dup4\n      sub\n      sub\n      dup2\n      mstore\n      swap1\n      0x40\n      mstore\n        /* \"contracts/zombie1.sol\":939:975  keccak256(abi.encodePacked(\"melee\")) */\n      dup1\n      mload\n      swap1\n      0x20\n      add\n      keccak256\n        /* \"contracts/zombie1.sol\":927:933  _class */\n      dup2\n        /* \"contracts/zombie1.sol\":910:934  abi.encodePacked(_class) */\n      add(0x20, mload(0x40))\n      tag_145\n      swap2\n      swap1\n      tag_146\n      jump\t// in\n    tag_145:\n      mload(0x40)\n      0x20\n      dup2\n      dup4\n      sub\n      sub\n      dup2\n      mstore\n      swap1\n      0x40\n      mstore\n        /* \"contracts/zombie1.sol\":900:935  keccak256(abi.encodePacked(_class)) */\n      dup1\n      mload\n      swap1\n      0x20\n      add\n      keccak256\n        /* \"contracts/zombie1.sol\":900:975  keccak256(abi.encodePacked(_class)) == keccak256(abi.encodePacked(\"melee\")) */\n      sub\n        /* \"contracts/zombie1.sol\":896:1673  if (keccak256(abi.encodePacked(_class)) == keccak256(abi.encodePacked(\"melee\"))) {... */\n      tag_147\n      jumpi\n        /* \"contracts/zombie1.sol\":992:999  players */\n      0x09\n        /* \"contracts/zombie1.sol\":1005:1087  Player(_name,100,100,1,true,false,Class(100,100,100,100), Weapon('fist',10,10,10)) */\n      mload(0x40)\n      dup1\n      0x0100\n      add\n      0x40\n      mstore\n      dup1\n        /* \"contracts/zombie1.sol\":1012:1017  _name */\n      dup5\n        /* \"contracts/zombie1.sol\":1005:1087  Player(_name,100,100,1,true,false,Class(100,100,100,100), Weapon('fist',10,10,10)) */\n      dup2\n      mstore\n      0x20\n      add\n        /* \"contracts/zombie1.sol\":1018:1021  100 */\n      0x64\n        /* \"contracts/zombie1.sol\":1005:1087  Player(_name,100,100,1,true,false,Class(100,100,100,100), Weapon('fist',10,10,10)) */\n      0xff\n      and\n      dup2\n      mstore\n      0x20\n      add\n        /* \"contracts/zombie1.sol\":1022:1025  100 */\n      0x64\n        /* \"contracts/zombie1.sol\":1005:1087  Player(_name,100,100,1,true,false,Class(100,100,100,100), Weapon('fist',10,10,10)) */\n      0xff\n      and\n      dup2\n      mstore\n      0x20\n      add\n        /* \"contracts/zombie1.sol\":1026:1027  1 */\n      0x01\n        /* \"contracts/zombie1.sol\":1005:1087  Player(_name,100,100,1,true,false,Class(100,100,100,100), Weapon('fist',10,10,10)) */\n      0xffffffff\n      and\n      dup2\n      mstore\n      0x20\n      add\n        /* \"contracts/zombie1.sol\":1028:1032  true */\n      0x01\n        /* \"contracts/zombie1.sol\":1005:1087  Player(_name,100,100,1,true,false,Class(100,100,100,100), Weapon('fist',10,10,10)) */\n      iszero\n      iszero\n      dup2\n      mstore\n      0x20\n      add\n        /* \"contracts/zombie1.sol\":1033:1038  false */\n      0x00\n        /* \"contracts/zombie1.sol\":1005:1087  Player(_name,100,100,1,true,false,Class(100,100,100,100), Weapon('fist',10,10,10)) */\n      iszero\n      iszero\n      dup2\n      mstore\n      0x20\n      add\n        /* \"contracts/zombie1.sol\":1039:1061  Class(100,100,100,100) */\n      mload(0x40)\n      dup1\n      0x80\n      add\n      0x40\n      mstore\n      dup1\n        /* \"contracts/zombie1.sol\":1045:1048  100 */\n      0x64\n        /* \"contracts/zombie1.sol\":1039:1061  Class(100,100,100,100) */\n      0xffffffff\n      and\n      dup2\n      mstore\n      0x20\n      add\n        /* \"contracts/zombie1.sol\":1049:1052  100 */\n      0x64\n        /* \"contracts/zombie1.sol\":1039:1061  Class(100,100,100,100) */\n      0xffffffff\n      and\n      dup2\n      mstore\n      0x20\n      add\n        /* \"contracts/zombie1.sol\":1053:1056  100 */\n      0x64\n        /* \"contracts/zombie1.sol\":1039:1061  Class(100,100,100,100) */\n      0xffffffff\n      and\n      dup2\n      mstore\n      0x20\n      add\n        /* \"contracts/zombie1.sol\":1057:1060  100 */\n      0x64\n        /* \"contracts/zombie1.sol\":1039:1061  Class(100,100,100,100) */\n      0xff\n      and\n      dup2\n      mstore\n      pop\n        /* \"contracts/zombie1.sol\":1005:1087  Player(_name,100,100,1,true,false,Class(100,100,100,100), Weapon('fist',10,10,10)) */\n      dup2\n      mstore\n      0x20\n      add\n        /* \"contracts/zombie1.sol\":1063:1086  Weapon('fist',10,10,10) */\n      mload(0x40)\n      dup1\n      0x80\n      add\n      0x40\n      mstore\n      dup1\n      mload(0x40)\n      dup1\n      0x40\n      add\n      0x40\n      mstore\n      dup1\n      0x04\n      dup2\n      mstore\n      0x20\n      add\n      0x6669737400000000000000000000000000000000000000000000000000000000\n      dup2\n      mstore\n      pop\n      dup2\n      mstore\n      0x20\n      add\n        /* \"contracts/zombie1.sol\":1077:1079  10 */\n      0x0a\n        /* \"contracts/zombie1.sol\":1063:1086  Weapon('fist',10,10,10) */\n      0xff\n      and\n      dup2\n      mstore\n      0x20\n      add\n        /* \"contracts/zombie1.sol\":1080:1082  10 */\n      0x0a\n        /* \"contracts/zombie1.sol\":1063:1086  Weapon('fist',10,10,10) */\n      0xff\n      and\n      dup2\n      mstore\n      0x20\n      add\n        /* \"contracts/zombie1.sol\":1083:1085  10 */\n      0x0a\n        /* \"contracts/zombie1.sol\":1063:1086  Weapon('fist',10,10,10) */\n      0xff\n      and\n      dup2\n      mstore\n      pop\n        /* \"contracts/zombie1.sol\":1005:1087  Player(_name,100,100,1,true,false,Class(100,100,100,100), Weapon('fist',10,10,10)) */\n      dup2\n      mstore\n      pop\n        /* \"contracts/zombie1.sol\":992:1088  players.push(Player(_name,100,100,1,true,false,Class(100,100,100,100), Weapon('fist',10,10,10))) */\n      swap1\n      dup1\n      0x01\n      dup2\n      sload\n      add\n      dup1\n      dup3\n      sstore\n      dup1\n      swap2\n      pop\n      pop\n      0x01\n      swap1\n      sub\n      swap1\n      0x00\n      mstore\n      keccak256(0x00, 0x20)\n      swap1\n      0x05\n      mul\n      add\n      0x00\n      swap1\n      swap2\n      swap1\n      swap2\n      swap1\n      swap2\n      pop\n      0x00\n      dup3\n      add\n      mload\n      dup2\n      0x00\n      add\n      swap1\n      dup2\n      tag_149\n      swap2\n      swap1\n      tag_150\n      jump\t// in\n    tag_149:\n      pop\n      0x20\n      dup3\n      add\n      mload\n      dup2\n      0x01\n      add\n      exp(0x0100, 0x00)\n      dup2\n      sload\n      dup2\n      0xff\n      mul\n      not\n      and\n      swap1\n      dup4\n      0xff\n      and\n      mul\n      or\n      swap1\n      sstore\n      pop\n      0x40\n      dup3\n      add\n      mload\n      dup2\n      0x01\n      add\n      exp(0x0100, 0x01)\n      dup2\n      sload\n      dup2\n      0xff\n      mul\n      not\n      and\n      swap1\n      dup4\n      0xff\n      and\n      mul\n      or\n      swap1\n      sstore\n      pop\n      0x60\n      dup3\n      add\n      mload\n      dup2\n      0x01\n      add\n      exp(0x0100, 0x02)\n      dup2\n      sload\n      dup2\n      0xffffffff\n      mul\n      not\n      and\n      swap1\n      dup4\n      0xffffffff\n      and\n      mul\n      or\n      swap1\n      sstore\n      pop\n      0x80\n      dup3\n      add\n      mload\n      dup2\n      0x01\n      add\n      exp(0x0100, 0x06)\n      dup2\n      sload\n      dup2\n      0xff\n      mul\n      not\n      and\n      swap1\n      dup4\n      iszero\n      iszero\n      mul\n      or\n      swap1\n      sstore\n      pop\n      0xa0\n      dup3\n      add\n      mload\n      dup2\n      0x01\n      add\n      exp(0x0100, 0x07)\n      dup2\n      sload\n      dup2\n      0xff\n      mul\n      not\n      and\n      swap1\n      dup4\n      iszero\n      iszero\n      mul\n      or\n      swap1\n      sstore\n      pop\n      0xc0\n      dup3\n      add\n      mload\n      dup2\n      0x02\n      add\n      0x00\n      dup3\n      add\n      mload\n      dup2\n      0x00\n      add\n      exp(0x0100, 0x00)\n      dup2\n      sload\n      dup2\n      0xffffffff\n      mul\n      not\n      and\n      swap1\n      dup4\n      0xffffffff\n      and\n      mul\n      or\n      swap1\n      sstore\n      pop\n      0x20\n      dup3\n      add\n      mload\n      dup2\n      0x00\n      add\n      exp(0x0100, 0x04)\n      dup2\n      sload\n      dup2\n      0xffffffff\n      mul\n      not\n      and\n      swap1\n      dup4\n      0xffffffff\n      and\n      mul\n      or\n      swap1\n      sstore\n      pop\n      0x40\n      dup3\n      add\n      mload\n      dup2\n      0x00\n      add\n      exp(0x0100, 0x08)\n      dup2\n      sload\n      dup2\n      0xffffffff\n      mul\n      not\n      and\n      swap1\n      dup4\n      0xffffffff\n      and\n      mul\n      or\n      swap1\n      sstore\n      pop\n      0x60\n      dup3\n      add\n      mload\n      dup2\n      0x00\n      add\n      exp(0x0100, 0x0c)\n      dup2\n      sload\n      dup2\n      0xff\n      mul\n      not\n      and\n      swap1\n      dup4\n      0xff\n      and\n      mul\n      or\n      swap1\n      sstore\n      pop\n      pop\n      pop\n      0xe0\n      dup3\n      add\n      mload\n      dup2\n      0x03\n      add\n      0x00\n      dup3\n      add\n      mload\n      dup2\n      0x00\n      add\n      swap1\n      dup2\n      tag_151\n      swap2\n      swap1\n      tag_150\n      jump\t// in\n    tag_151:\n      pop\n      0x20\n      dup3\n      add\n      mload\n      dup2\n      0x01\n      add\n      exp(0x0100, 0x00)\n      dup2\n      sload\n      dup2\n      0xff\n      mul\n      not\n      and\n      swap1\n      dup4\n      0xff\n      and\n      mul\n      or\n      swap1\n      sstore\n      pop\n      0x40\n      dup3\n      add\n      mload\n      dup2\n      0x01\n      add\n      exp(0x0100, 0x01)\n      dup2\n      sload\n      dup2\n      0xff\n      mul\n      not\n      and\n      swap1\n      dup4\n      0xff\n      and\n      mul\n      or\n      swap1\n      sstore\n      pop\n      0x60\n      dup3\n      add\n      mload\n      dup2\n      0x01\n      add\n      exp(0x0100, 0x02)\n      dup2\n      sload\n      dup2\n      0xff\n      mul\n      not\n      and\n      swap1\n      dup4\n      0xff\n      and\n      mul\n      or\n      swap1\n      sstore\n      pop\n      pop\n      pop\n      pop\n      pop\n        /* \"contracts/zombie1.sol\":1103:1110  uint id */\n      0x00\n        /* \"contracts/zombie1.sol\":1136:1137  1 */\n      0x01\n        /* \"contracts/zombie1.sol\":1118:1125  players */\n      0x09\n        /* \"contracts/zombie1.sol\":1118:1132  players.length */\n      dup1\n      sload\n      swap1\n      pop\n        /* \"contracts/zombie1.sol\":1113:1137  uint(players.length) - 1 */\n      tag_152\n      swap2\n      swap1\n      tag_153\n      jump\t// in\n    tag_152:\n        /* \"contracts/zombie1.sol\":1103:1137  uint id = uint(players.length) - 1 */\n      swap1\n      pop\n        /* \"contracts/zombie1.sol\":1167:1177  msg.sender */\n      caller\n        /* \"contracts/zombie1.sol\":1152:1160  IdToUser */\n      0x06\n        /* \"contracts/zombie1.sol\":1152:1164  IdToUser[id] */\n      0x00\n        /* \"contracts/zombie1.sol\":1161:1163  id */\n      dup4\n        /* \"contracts/zombie1.sol\":1152:1164  IdToUser[id] */\n      dup2\n      mstore\n      0x20\n      add\n      swap1\n      dup2\n      mstore\n      0x20\n      add\n      0x00\n      keccak256\n      0x00\n        /* \"contracts/zombie1.sol\":1152:1177  IdToUser[id] = msg.sender */\n      0x0100\n      exp\n      dup2\n      sload\n      dup2\n      0xffffffffffffffffffffffffffffffffffffffff\n      mul\n      not\n      and\n      swap1\n      dup4\n      0xffffffffffffffffffffffffffffffffffffffff\n      and\n      mul\n      or\n      swap1\n      sstore\n      pop\n        /* \"contracts/zombie1.sol\":1216:1218  id */\n      dup1\n        /* \"contracts/zombie1.sol\":1192:1201  OwnerToId */\n      0x07\n        /* \"contracts/zombie1.sol\":1192:1213  OwnerToId[msg.sender] */\n      0x00\n        /* \"contracts/zombie1.sol\":1202:1212  msg.sender */\n      caller\n        /* \"contracts/zombie1.sol\":1192:1213  OwnerToId[msg.sender] */\n      0xffffffffffffffffffffffffffffffffffffffff\n      and\n      0xffffffffffffffffffffffffffffffffffffffff\n      and\n      dup2\n      mstore\n      0x20\n      add\n      swap1\n      dup2\n      mstore\n      0x20\n      add\n      0x00\n      keccak256\n        /* \"contracts/zombie1.sol\":1192:1218  OwnerToId[msg.sender] = id */\n      dup2\n      swap1\n      sstore\n      pop\n        /* \"contracts/zombie1.sol\":1234:1246  OwnerIdCount */\n      0x08\n        /* \"contracts/zombie1.sol\":1234:1258  OwnerIdCount[msg.sender] */\n      0x00\n        /* \"contracts/zombie1.sol\":1247:1257  msg.sender */\n      caller\n        /* \"contracts/zombie1.sol\":1234:1258  OwnerIdCount[msg.sender] */\n      0xffffffffffffffffffffffffffffffffffffffff\n      and\n      0xffffffffffffffffffffffffffffffffffffffff\n      and\n      dup2\n      mstore\n      0x20\n      add\n      swap1\n      dup2\n      mstore\n      0x20\n      add\n      0x00\n      keccak256\n      0x00\n        /* \"contracts/zombie1.sol\":1234:1261  OwnerIdCount[msg.sender] ++ */\n      dup2\n      sload\n      dup1\n      swap3\n      swap2\n      swap1\n      tag_154\n      swap1\n      tag_71\n      jump\t// in\n    tag_154:\n      swap2\n      swap1\n      pop\n      sstore\n      pop\n        /* \"contracts/zombie1.sol\":1281:1313  PlayerCreated(id, _name, _class) */\n      0xfc94ee92db66f710b511eabdc15ab50732beddbf1024d87e12aa4db53c03870c\n        /* \"contracts/zombie1.sol\":1295:1297  id */\n      dup2\n        /* \"contracts/zombie1.sol\":1299:1304  _name */\n      dup5\n        /* \"contracts/zombie1.sol\":1306:1312  _class */\n      dup5\n        /* \"contracts/zombie1.sol\":1281:1313  PlayerCreated(id, _name, _class) */\n      mload(0x40)\n      tag_155\n      swap4\n      swap3\n      swap2\n      swap1\n      tag_156\n      jump\t// in\n    tag_155:\n      mload(0x40)\n      dup1\n      swap2\n      sub\n      swap1\n      log1\n        /* \"contracts/zombie1.sol\":977:1327  {... */\n      pop\n        /* \"contracts/zombie1.sol\":896:1673  if (keccak256(abi.encodePacked(_class)) == keccak256(abi.encodePacked(\"melee\"))) {... */\n      jump(tag_157)\n    tag_147:\n        /* \"contracts/zombie1.sol\":1348:1355  players */\n      0x09\n        /* \"contracts/zombie1.sol\":1361:1436  Player(_name,100,100,1,true,false,Class(80,80,80,80), Weapon('fist',5,5,5)) */\n      mload(0x40)\n      dup1\n      0x0100\n      add\n      0x40\n      mstore\n      dup1\n        /* \"contracts/zombie1.sol\":1368:1373  _name */\n      dup5\n        /* \"contracts/zombie1.sol\":1361:1436  Player(_name,100,100,1,true,false,Class(80,80,80,80), Weapon('fist',5,5,5)) */\n      dup2\n      mstore\n      0x20\n      add\n        /* \"contracts/zombie1.sol\":1374:1377  100 */\n      0x64\n        /* \"contracts/zombie1.sol\":1361:1436  Player(_name,100,100,1,true,false,Class(80,80,80,80), Weapon('fist',5,5,5)) */\n      0xff\n      and\n      dup2\n      mstore\n      0x20\n      add\n        /* \"contracts/zombie1.sol\":1378:1381  100 */\n      0x64\n        /* \"contracts/zombie1.sol\":1361:1436  Player(_name,100,100,1,true,false,Class(80,80,80,80), Weapon('fist',5,5,5)) */\n      0xff\n      and\n      dup2\n      mstore\n      0x20\n      add\n        /* \"contracts/zombie1.sol\":1382:1383  1 */\n      0x01\n        /* \"contracts/zombie1.sol\":1361:1436  Player(_name,100,100,1,true,false,Class(80,80,80,80), Weapon('fist',5,5,5)) */\n      0xffffffff\n      and\n      dup2\n      mstore\n      0x20\n      add\n        /* \"contracts/zombie1.sol\":1384:1388  true */\n      0x01\n        /* \"contracts/zombie1.sol\":1361:1436  Player(_name,100,100,1,true,false,Class(80,80,80,80), Weapon('fist',5,5,5)) */\n      iszero\n      iszero\n      dup2\n      mstore\n      0x20\n      add\n        /* \"contracts/zombie1.sol\":1389:1394  false */\n      0x00\n        /* \"contracts/zombie1.sol\":1361:1436  Player(_name,100,100,1,true,false,Class(80,80,80,80), Weapon('fist',5,5,5)) */\n      iszero\n      iszero\n      dup2\n      mstore\n      0x20\n      add\n        /* \"contracts/zombie1.sol\":1395:1413  Class(80,80,80,80) */\n      mload(0x40)\n      dup1\n      0x80\n      add\n      0x40\n      mstore\n      dup1\n        /* \"contracts/zombie1.sol\":1401:1403  80 */\n      0x50\n        /* \"contracts/zombie1.sol\":1395:1413  Class(80,80,80,80) */\n      0xffffffff\n      and\n      dup2\n      mstore\n      0x20\n      add\n        /* \"contracts/zombie1.sol\":1404:1406  80 */\n      0x50\n        /* \"contracts/zombie1.sol\":1395:1413  Class(80,80,80,80) */\n      0xffffffff\n      and\n      dup2\n      mstore\n      0x20\n      add\n        /* \"contracts/zombie1.sol\":1407:1409  80 */\n      0x50\n        /* \"contracts/zombie1.sol\":1395:1413  Class(80,80,80,80) */\n      0xffffffff\n      and\n      dup2\n      mstore\n      0x20\n      add\n        /* \"contracts/zombie1.sol\":1410:1412  80 */\n      0x50\n        /* \"contracts/zombie1.sol\":1395:1413  Class(80,80,80,80) */\n      0xff\n      and\n      dup2\n      mstore\n      pop\n        /* \"contracts/zombie1.sol\":1361:1436  Player(_name,100,100,1,true,false,Class(80,80,80,80), Weapon('fist',5,5,5)) */\n      dup2\n      mstore\n      0x20\n      add\n        /* \"contracts/zombie1.sol\":1415:1435  Weapon('fist',5,5,5) */\n      mload(0x40)\n      dup1\n      0x80\n      add\n      0x40\n      mstore\n      dup1\n      mload(0x40)\n      dup1\n      0x40\n      add\n      0x40\n      mstore\n      dup1\n      0x04\n      dup2\n      mstore\n      0x20\n      add\n      0x6669737400000000000000000000000000000000000000000000000000000000\n      dup2\n      mstore\n      pop\n      dup2\n      mstore\n      0x20\n      add\n        /* \"contracts/zombie1.sol\":1429:1430  5 */\n      0x05\n        /* \"contracts/zombie1.sol\":1415:1435  Weapon('fist',5,5,5) */\n      0xff\n      and\n      dup2\n      mstore\n      0x20\n      add\n        /* \"contracts/zombie1.sol\":1431:1432  5 */\n      0x05\n        /* \"contracts/zombie1.sol\":1415:1435  Weapon('fist',5,5,5) */\n      0xff\n      and\n      dup2\n      mstore\n      0x20\n      add\n        /* \"contracts/zombie1.sol\":1433:1434  5 */\n      0x05\n        /* \"contracts/zombie1.sol\":1415:1435  Weapon('fist',5,5,5) */\n      0xff\n      and\n      dup2\n      mstore\n      pop\n        /* \"contracts/zombie1.sol\":1361:1436  Player(_name,100,100,1,true,false,Class(80,80,80,80), Weapon('fist',5,5,5)) */\n      dup2\n      mstore\n      pop\n        /* \"contracts/zombie1.sol\":1348:1437  players.push(Player(_name,100,100,1,true,false,Class(80,80,80,80), Weapon('fist',5,5,5))) */\n      swap1\n      dup1\n      0x01\n      dup2\n      sload\n      add\n      dup1\n      dup3\n      sstore\n      dup1\n      swap2\n      pop\n      pop\n      0x01\n      swap1\n      sub\n      swap1\n      0x00\n      mstore\n      keccak256(0x00, 0x20)\n      swap1\n      0x05\n      mul\n      add\n      0x00\n      swap1\n      swap2\n      swap1\n      swap2\n      swap1\n      swap2\n      pop\n      0x00\n      dup3\n      add\n      mload\n      dup2\n      0x00\n      add\n      swap1\n      dup2\n      tag_159\n      swap2\n      swap1\n      tag_150\n      jump\t// in\n    tag_159:\n      pop\n      0x20\n      dup3\n      add\n      mload\n      dup2\n      0x01\n      add\n      exp(0x0100, 0x00)\n      dup2\n      sload\n      dup2\n      0xff\n      mul\n      not\n      and\n      swap1\n      dup4\n      0xff\n      and\n      mul\n      or\n      swap1\n      sstore\n      pop\n      0x40\n      dup3\n      add\n      mload\n      dup2\n      0x01\n      add\n      exp(0x0100, 0x01)\n      dup2\n      sload\n      dup2\n      0xff\n      mul\n      not\n      and\n      swap1\n      dup4\n      0xff\n      and\n      mul\n      or\n      swap1\n      sstore\n      pop\n      0x60\n      dup3\n      add\n      mload\n      dup2\n      0x01\n      add\n      exp(0x0100, 0x02)\n      dup2\n      sload\n      dup2\n      0xffffffff\n      mul\n      not\n      and\n      swap1\n      dup4\n      0xffffffff\n      and\n      mul\n      or\n      swap1\n      sstore\n      pop\n      0x80\n      dup3\n      add\n      mload\n      dup2\n      0x01\n      add\n      exp(0x0100, 0x06)\n      dup2\n      sload\n      dup2\n      0xff\n      mul\n      not\n      and\n      swap1\n      dup4\n      iszero\n      iszero\n      mul\n      or\n      swap1\n      sstore\n      pop\n      0xa0\n      dup3\n      add\n      mload\n      dup2\n      0x01\n      add\n      exp(0x0100, 0x07)\n      dup2\n      sload\n      dup2\n      0xff\n      mul\n      not\n      and\n      swap1\n      dup4\n      iszero\n      iszero\n      mul\n      or\n      swap1\n      sstore\n      pop\n      0xc0\n      dup3\n      add\n      mload\n      dup2\n      0x02\n      add\n      0x00\n      dup3\n      add\n      mload\n      dup2\n      0x00\n      add\n      exp(0x0100, 0x00)\n      dup2\n      sload\n      dup2\n      0xffffffff\n      mul\n      not\n      and\n      swap1\n      dup4\n      0xffffffff\n      and\n      mul\n      or\n      swap1\n      sstore\n      pop\n      0x20\n      dup3\n      add\n      mload\n      dup2\n      0x00\n      add\n      exp(0x0100, 0x04)\n      dup2\n      sload\n      dup2\n      0xffffffff\n      mul\n      not\n      and\n      swap1\n      dup4\n      0xffffffff\n      and\n      mul\n      or\n      swap1\n      sstore\n      pop\n      0x40\n      dup3\n      add\n      mload\n      dup2\n      0x00\n      add\n      exp(0x0100, 0x08)\n      dup2\n      sload\n      dup2\n      0xffffffff\n      mul\n      not\n      and\n      swap1\n      dup4\n      0xffffffff\n      and\n      mul\n      or\n      swap1\n      sstore\n      pop\n      0x60\n      dup3\n      add\n      mload\n      dup2\n      0x00\n      add\n      exp(0x0100, 0x0c)\n      dup2\n      sload\n      dup2\n      0xff\n      mul\n      not\n      and\n      swap1\n      dup4\n      0xff\n      and\n      mul\n      or\n      swap1\n      sstore\n      pop\n      pop\n      pop\n      0xe0\n      dup3\n      add\n      mload\n      dup2\n      0x03\n      add\n      0x00\n      dup3\n      add\n      mload\n      dup2\n      0x00\n      add\n      swap1\n      dup2\n      tag_160\n      swap2\n      swap1\n      tag_150\n      jump\t// in\n    tag_160:\n      pop\n      0x20\n      dup3\n      add\n      mload\n      dup2\n      0x01\n      add\n      exp(0x0100, 0x00)\n      dup2\n      sload\n      dup2\n      0xff\n      mul\n      not\n      and\n      swap1\n      dup4\n      0xff\n      and\n      mul\n      or\n      swap1\n      sstore\n      pop\n      0x40\n      dup3\n      add\n      mload\n      dup2\n      0x01\n      add\n      exp(0x0100, 0x01)\n      dup2\n      sload\n      dup2\n      0xff\n      mul\n      not\n      and\n      swap1\n      dup4\n      0xff\n      and\n      mul\n      or\n      swap1\n      sstore\n      pop\n      0x60\n      dup3\n      add\n      mload\n      dup2\n      0x01\n      add\n      exp(0x0100, 0x02)\n      dup2\n      sload\n      dup2\n      0xff\n      mul\n      not\n      and\n      swap1\n      dup4\n      0xff\n      and\n      mul\n      or\n      swap1\n      sstore\n      pop\n      pop\n      pop\n      pop\n      pop\n        /* \"contracts/zombie1.sol\":1452:1459  uint id */\n      0x00\n        /* \"contracts/zombie1.sol\":1484:1485  1 */\n      0x01\n        /* \"contracts/zombie1.sol\":1467:1474  players */\n      0x09\n        /* \"contracts/zombie1.sol\":1467:1481  players.length */\n      dup1\n      sload\n      swap1\n      pop\n        /* \"contracts/zombie1.sol\":1467:1485  players.length - 1 */\n      tag_161\n      swap2\n      swap1\n      tag_153\n      jump\t// in\n    tag_161:\n        /* \"contracts/zombie1.sol\":1452:1486  uint id = uint(players.length - 1) */\n      swap1\n      pop\n        /* \"contracts/zombie1.sol\":1516:1526  msg.sender */\n      caller\n        /* \"contracts/zombie1.sol\":1501:1509  IdToUser */\n      0x06\n        /* \"contracts/zombie1.sol\":1501:1513  IdToUser[id] */\n      0x00\n        /* \"contracts/zombie1.sol\":1510:1512  id */\n      dup4\n        /* \"contracts/zombie1.sol\":1501:1513  IdToUser[id] */\n      dup2\n      mstore\n      0x20\n      add\n      swap1\n      dup2\n      mstore\n      0x20\n      add\n      0x00\n      keccak256\n      0x00\n        /* \"contracts/zombie1.sol\":1501:1526  IdToUser[id] = msg.sender */\n      0x0100\n      exp\n      dup2\n      sload\n      dup2\n      0xffffffffffffffffffffffffffffffffffffffff\n      mul\n      not\n      and\n      swap1\n      dup4\n      0xffffffffffffffffffffffffffffffffffffffff\n      and\n      mul\n      or\n      swap1\n      sstore\n      pop\n        /* \"contracts/zombie1.sol\":1565:1567  id */\n      dup1\n        /* \"contracts/zombie1.sol\":1541:1550  OwnerToId */\n      0x07\n        /* \"contracts/zombie1.sol\":1541:1562  OwnerToId[msg.sender] */\n      0x00\n        /* \"contracts/zombie1.sol\":1551:1561  msg.sender */\n      caller\n        /* \"contracts/zombie1.sol\":1541:1562  OwnerToId[msg.sender] */\n      0xffffffffffffffffffffffffffffffffffffffff\n      and\n      0xffffffffffffffffffffffffffffffffffffffff\n      and\n      dup2\n      mstore\n      0x20\n      add\n      swap1\n      dup2\n      mstore\n      0x20\n      add\n      0x00\n      keccak256\n        /* \"contracts/zombie1.sol\":1541:1567  OwnerToId[msg.sender] = id */\n      dup2\n      swap1\n      sstore\n      pop\n        /* \"contracts/zombie1.sol\":1582:1594  OwnerIdCount */\n      0x08\n        /* \"contracts/zombie1.sol\":1582:1606  OwnerIdCount[msg.sender] */\n      0x00\n        /* \"contracts/zombie1.sol\":1595:1605  msg.sender */\n      caller\n        /* \"contracts/zombie1.sol\":1582:1606  OwnerIdCount[msg.sender] */\n      0xffffffffffffffffffffffffffffffffffffffff\n      and\n      0xffffffffffffffffffffffffffffffffffffffff\n      and\n      dup2\n      mstore\n      0x20\n      add\n      swap1\n      dup2\n      mstore\n      0x20\n      add\n      0x00\n      keccak256\n      0x00\n        /* \"contracts/zombie1.sol\":1582:1609  OwnerIdCount[msg.sender] ++ */\n      dup2\n      sload\n      dup1\n      swap3\n      swap2\n      swap1\n      tag_162\n      swap1\n      tag_71\n      jump\t// in\n    tag_162:\n      swap2\n      swap1\n      pop\n      sstore\n      pop\n        /* \"contracts/zombie1.sol\":1629:1661  PlayerCreated(id, _name, _class) */\n      0xfc94ee92db66f710b511eabdc15ab50732beddbf1024d87e12aa4db53c03870c\n        /* \"contracts/zombie1.sol\":1643:1645  id */\n      dup2\n        /* \"contracts/zombie1.sol\":1647:1652  _name */\n      dup5\n        /* \"contracts/zombie1.sol\":1654:1660  _class */\n      dup5\n        /* \"contracts/zombie1.sol\":1629:1661  PlayerCreated(id, _name, _class) */\n      mload(0x40)\n      tag_163\n      swap4\n      swap3\n      swap2\n      swap1\n      tag_156\n      jump\t// in\n    tag_163:\n      mload(0x40)\n      dup1\n      swap2\n      sub\n      swap1\n      log1\n        /* \"contracts/zombie1.sol\":1333:1673  {... */\n      pop\n        /* \"contracts/zombie1.sol\":896:1673  if (keccak256(abi.encodePacked(_class)) == keccak256(abi.encodePacked(\"melee\"))) {... */\n    tag_157:\n        /* \"contracts/zombie1.sol\":1688:1704  Players(players) */\n      0x7ad47ab3a55f8b5a9ca0ea92521d08b0bfae3aed92e832d6eb4f978fba026912\n        /* \"contracts/zombie1.sol\":1696:1703  players */\n      0x09\n        /* \"contracts/zombie1.sol\":1688:1704  Players(players) */\n      mload(0x40)\n      tag_164\n      swap2\n      swap1\n      tag_165\n      jump\t// in\n    tag_164:\n      mload(0x40)\n      dup1\n      swap2\n      sub\n      swap1\n      log1\n        /* \"contracts/zombie1.sol\":809:1712  function createPlayer(string memory _name, string memory _class) external {... */\n      pop\n      pop\n      jump\t// out\n        /* \"contracts/zombie1.sol\":1720:2027  function findWeapon(string memory _name) external{... */\n    tag_49:\n        /* \"contracts/zombie1.sol\":1780:1792  uint modulus */\n      0x00\n        /* \"contracts/zombie1.sol\":1795:1798  100 */\n      0x64\n        /* \"contracts/zombie1.sol\":1780:1798  uint modulus = 100 */\n      swap1\n      pop\n        /* \"contracts/zombie1.sol\":1809:1821  uint success */\n      0x00\n        /* \"contracts/zombie1.sol\":1824:1826  99 */\n      0x63\n        /* \"contracts/zombie1.sol\":1809:1826  uint success = 99 */\n      swap1\n      pop\n        /* \"contracts/zombie1.sol\":1837:1848  uint result */\n      0x00\n        /* \"contracts/zombie1.sol\":1851:1892  _rolldice(modulus, OwnerToId[msg.sender]) */\n      tag_167\n        /* \"contracts/zombie1.sol\":1861:1868  modulus */\n      dup4\n        /* \"contracts/zombie1.sol\":1870:1879  OwnerToId */\n      0x07\n        /* \"contracts/zombie1.sol\":1870:1891  OwnerToId[msg.sender] */\n      0x00\n        /* \"contracts/zombie1.sol\":1880:1890  msg.sender */\n      caller\n        /* \"contracts/zombie1.sol\":1870:1891  OwnerToId[msg.sender] */\n      0xffffffffffffffffffffffffffffffffffffffff\n      and\n      0xffffffffffffffffffffffffffffffffffffffff\n      and\n      dup2\n      mstore\n      0x20\n      add\n      swap1\n      dup2\n      mstore\n      0x20\n      add\n      0x00\n      keccak256\n      sload\n        /* \"contracts/zombie1.sol\":1851:1860  _rolldice */\n      tag_168\n        /* \"contracts/zombie1.sol\":1851:1892  _rolldice(modulus, OwnerToId[msg.sender]) */\n      jump\t// in\n    tag_167:\n        /* \"contracts/zombie1.sol\":1837:1892  uint result = _rolldice(modulus, OwnerToId[msg.sender]) */\n      swap1\n      pop\n        /* \"contracts/zombie1.sol\":1905:1919  address player */\n      0x00\n        /* \"contracts/zombie1.sol\":1922:1932  msg.sender */\n      caller\n        /* \"contracts/zombie1.sol\":1905:1932  address player = msg.sender */\n      swap1\n      pop\n        /* \"contracts/zombie1.sol\":1956:1963  success */\n      dup3\n        /* \"contracts/zombie1.sol\":1946:1952  result */\n      dup3\n        /* \"contracts/zombie1.sol\":1946:1963  result <= success */\n      gt\n        /* \"contracts/zombie1.sol\":1943:2020  if(result <= success) {... */\n      tag_169\n      jumpi\n        /* \"contracts/zombie1.sol\":1980:2008  _obtainWeapon(player, _name) */\n      tag_170\n        /* \"contracts/zombie1.sol\":1994:2000  player */\n      dup2\n        /* \"contracts/zombie1.sol\":2002:2007  _name */\n      dup7\n        /* \"contracts/zombie1.sol\":1980:1993  _obtainWeapon */\n      tag_171\n        /* \"contracts/zombie1.sol\":1980:2008  _obtainWeapon(player, _name) */\n      jump\t// in\n    tag_170:\n        /* \"contracts/zombie1.sol\":1943:2020  if(result <= success) {... */\n    tag_169:\n        /* \"contracts/zombie1.sol\":1769:2027  {... */\n      pop\n      pop\n      pop\n      pop\n        /* \"contracts/zombie1.sol\":1720:2027  function findWeapon(string memory _name) external{... */\n      pop\n      jump\t// out\n        /* \"contracts/ownable.sol\":1626:1729  function transferOwnership(address newOwner) public onlyOwner {... */\n    tag_52:\n        /* \"contracts/ownable.sol\":873:882  isOwner() */\n      tag_173\n        /* \"contracts/ownable.sol\":873:880  isOwner */\n      tag_39\n        /* \"contracts/ownable.sol\":873:882  isOwner() */\n      jump\t// in\n    tag_173:\n        /* \"contracts/ownable.sol\":865:883  require(isOwner()) */\n      tag_174\n      jumpi\n      0x00\n      dup1\n      revert\n    tag_174:\n        /* \"contracts/ownable.sol\":1695:1723  _transferOwnership(newOwner) */\n      tag_176\n        /* \"contracts/ownable.sol\":1714:1722  newOwner */\n      dup2\n        /* \"contracts/ownable.sol\":1695:1713  _transferOwnership */\n      tag_177\n        /* \"contracts/ownable.sol\":1695:1723  _transferOwnership(newOwner) */\n      jump\t// in\n    tag_176:\n        /* \"contracts/ownable.sol\":1626:1729  function transferOwnership(address newOwner) public onlyOwner {... */\n      pop\n      jump\t// out\n        /* \"contracts/zombie1.sol\":779:802  Player[] public players */\n    tag_55:\n      0x09\n      dup2\n      dup2\n      sload\n      dup2\n      lt\n      tag_178\n      jumpi\n      0x00\n      dup1\n      revert\n    tag_178:\n      swap1\n      0x00\n      mstore\n      keccak256(0x00, 0x20)\n      swap1\n      0x05\n      mul\n      add\n      0x00\n      swap2\n      pop\n      swap1\n      pop\n      dup1\n      0x00\n      add\n      dup1\n      sload\n      tag_180\n      swap1\n      tag_75\n      jump\t// in\n    tag_180:\n      dup1\n      0x1f\n      add\n      0x20\n      dup1\n      swap2\n      div\n      mul\n      0x20\n      add\n      mload(0x40)\n      swap1\n      dup2\n      add\n      0x40\n      mstore\n      dup1\n      swap3\n      swap2\n      swap1\n      dup2\n      dup2\n      mstore\n      0x20\n      add\n      dup3\n      dup1\n      sload\n      tag_181\n      swap1\n      tag_75\n      jump\t// in\n    tag_181:\n      dup1\n      iszero\n      tag_182\n      jumpi\n      dup1\n      0x1f\n      lt\n      tag_183\n      jumpi\n      0x0100\n      dup1\n      dup4\n      sload\n      div\n      mul\n      dup4\n      mstore\n      swap2\n      0x20\n      add\n      swap2\n      jump(tag_182)\n    tag_183:\n      dup3\n      add\n      swap2\n      swap1\n      0x00\n      mstore\n      keccak256(0x00, 0x20)\n      swap1\n    tag_184:\n      dup2\n      sload\n      dup2\n      mstore\n      swap1\n      0x01\n      add\n      swap1\n      0x20\n      add\n      dup1\n      dup4\n      gt\n      tag_184\n      jumpi\n      dup3\n      swap1\n      sub\n      0x1f\n      and\n      dup3\n      add\n      swap2\n    tag_182:\n      pop\n      pop\n      pop\n      pop\n      pop\n      swap1\n      dup1\n      0x01\n      add\n      0x00\n      swap1\n      sload\n      swap1\n      0x0100\n      exp\n      swap1\n      div\n      0xff\n      and\n      swap1\n      dup1\n      0x01\n      add\n      0x01\n      swap1\n      sload\n      swap1\n      0x0100\n      exp\n      swap1\n      div\n      0xff\n      and\n      swap1\n      dup1\n      0x01\n      add\n      0x02\n      swap1\n      sload\n      swap1\n      0x0100\n      exp\n      swap1\n      div\n      0xffffffff\n      and\n      swap1\n      dup1\n      0x01\n      add\n      0x06\n      swap1\n      sload\n      swap1\n      0x0100\n      exp\n      swap1\n      div\n      0xff\n      and\n      swap1\n      dup1\n      0x01\n      add\n      0x07\n      swap1\n      sload\n      swap1\n      0x0100\n      exp\n      swap1\n      div\n      0xff\n      and\n      swap1\n      dup1\n      0x02\n      add\n      mload(0x40)\n      dup1\n      0x80\n      add\n      0x40\n      mstore\n      swap1\n      dup2\n      0x00\n      dup3\n      add\n      0x00\n      swap1\n      sload\n      swap1\n      0x0100\n      exp\n      swap1\n      div\n      0xffffffff\n      and\n      0xffffffff\n      and\n      0xffffffff\n      and\n      dup2\n      mstore\n      0x20\n      add\n      0x00\n      dup3\n      add\n      0x04\n      swap1\n      sload\n      swap1\n      0x0100\n      exp\n      swap1\n      div\n      0xffffffff\n      and\n      0xffffffff\n      and\n      0xffffffff\n      and\n      dup2\n      mstore\n      0x20\n      add\n      0x00\n      dup3\n      add\n      0x08\n      swap1\n      sload\n      swap1\n      0x0100\n      exp\n      swap1\n      div\n      0xffffffff\n      and\n      0xffffffff\n      and\n      0xffffffff\n      and\n      dup2\n      mstore\n      0x20\n      add\n      0x00\n      dup3\n      add\n      0x0c\n      swap1\n      sload\n      swap1\n      0x0100\n      exp\n      swap1\n      div\n      0xff\n      and\n      0xff\n      and\n      0xff\n      and\n      dup2\n      mstore\n      pop\n      pop\n      swap1\n      dup1\n      0x03\n      add\n      mload(0x40)\n      dup1\n      0x80\n      add\n      0x40\n      mstore\n      swap1\n      dup2\n      0x00\n      dup3\n      add\n      dup1\n      sload\n      tag_185\n      swap1\n      tag_75\n      jump\t// in\n    tag_185:\n      dup1\n      0x1f\n      add\n      0x20\n      dup1\n      swap2\n      div\n      mul\n      0x20\n      add\n      mload(0x40)\n      swap1\n      dup2\n      add\n      0x40\n      mstore\n      dup1\n      swap3\n      swap2\n      swap1\n      dup2\n      dup2\n      mstore\n      0x20\n      add\n      dup3\n      dup1\n      sload\n      tag_186\n      swap1\n      tag_75\n      jump\t// in\n    tag_186:\n      dup1\n      iszero\n      tag_187\n      jumpi\n      dup1\n      0x1f\n      lt\n      tag_188\n      jumpi\n      0x0100\n      dup1\n      dup4\n      sload\n      div\n      mul\n      dup4\n      mstore\n      swap2\n      0x20\n      add\n      swap2\n      jump(tag_187)\n    tag_188:\n      dup3\n      add\n      swap2\n      swap1\n      0x00\n      mstore\n      keccak256(0x00, 0x20)\n      swap1\n    tag_189:\n      dup2\n      sload\n      dup2\n      mstore\n      swap1\n      0x01\n      add\n      swap1\n      0x20\n      add\n      dup1\n      dup4\n      gt\n      tag_189\n      jumpi\n      dup3\n      swap1\n      sub\n      0x1f\n      and\n      dup3\n      add\n      swap2\n    tag_187:\n      pop\n      pop\n      pop\n      pop\n      pop\n      dup2\n      mstore\n      0x20\n      add\n      0x01\n      dup3\n      add\n      0x00\n      swap1\n      sload\n      swap1\n      0x0100\n      exp\n      swap1\n      div\n      0xff\n      and\n      0xff\n      and\n      0xff\n      and\n      dup2\n      mstore\n      0x20\n      add\n      0x01\n      dup3\n      add\n      0x01\n      swap1\n      sload\n      swap1\n      0x0100\n      exp\n      swap1\n      div\n      0xff\n      and\n      0xff\n      and\n      0xff\n      and\n      dup2\n      mstore\n      0x20\n      add\n      0x01\n      dup3\n      add\n      0x02\n      swap1\n      sload\n      swap1\n      0x0100\n      exp\n      swap1\n      div\n      0xff\n      and\n      0xff\n      and\n      0xff\n      and\n      dup2\n      mstore\n      pop\n      pop\n      swap1\n      pop\n      dup9\n      jump\t// out\n        /* \"contracts/lookAround.sol\":233:462  function _getRoll(uint _playerId) internal view returns(uint) {... */\n    tag_82:\n        /* \"contracts/lookAround.sol\":289:293  uint */\n      0x00\n        /* \"contracts/lookAround.sol\":306:317  uint result */\n      dup1\n        /* \"contracts/lookAround.sol\":320:346  _rolldice(1000, _playerId) */\n      tag_191\n        /* \"contracts/lookAround.sol\":330:334  1000 */\n      0x03e8\n        /* \"contracts/lookAround.sol\":336:345  _playerId */\n      dup5\n        /* \"contracts/lookAround.sol\":320:329  _rolldice */\n      tag_168\n        /* \"contracts/lookAround.sol\":320:346  _rolldice(1000, _playerId) */\n      jump\t// in\n    tag_191:\n        /* \"contracts/lookAround.sol\":306:346  uint result = _rolldice(1000, _playerId) */\n      swap1\n      pop\n        /* \"contracts/lookAround.sol\":374:375  1 */\n      0x01\n        /* \"contracts/lookAround.sol\":365:371  result */\n      dup2\n        /* \"contracts/lookAround.sol\":365:375  result >=1 */\n      lt\n        /* \"contracts/lookAround.sol\":361:455  if (result >=1) {... */\n      tag_192\n      jumpi\n        /* \"contracts/lookAround.sol\":399:400  1 */\n      0x01\n        /* \"contracts/lookAround.sol\":392:401  return(1) */\n      swap2\n      pop\n      pop\n      jump(tag_190)\n        /* \"contracts/lookAround.sol\":361:455  if (result >=1) {... */\n    tag_192:\n        /* \"contracts/lookAround.sol\":441:442  0 */\n      0x00\n        /* \"contracts/lookAround.sol\":434:443  return(0) */\n      swap2\n      pop\n      pop\n        /* \"contracts/lookAround.sol\":233:462  function _getRoll(uint _playerId) internal view returns(uint) {... */\n    tag_190:\n      swap2\n      swap1\n      pop\n      jump\t// out\n        /* \"contracts/lookAround.sol\":470:723  function _zombieGen(uint _playerId) internal view returns(Zombie memory){... */\n    tag_101:\n        /* \"contracts/lookAround.sol\":528:541  Zombie memory */\n      tag_194\n      tag_195\n      jump\t// in\n    tag_194:\n        /* \"contracts/lookAround.sol\":563:577  uint zombieDNA */\n      0x00\n        /* \"contracts/lookAround.sol\":643:648  10**4 */\n      0x2710\n        /* \"contracts/lookAround.sol\":612:627  block.timestamp */\n      timestamp\n        /* \"contracts/lookAround.sol\":628:637  _playerId */\n      dup5\n        /* \"contracts/lookAround.sol\":595:638  abi.encodePacked(block.timestamp,_playerId) */\n      add(0x20, mload(0x40))\n      tag_197\n      swap3\n      swap2\n      swap1\n      tag_198\n      jump\t// in\n    tag_197:\n      mload(0x40)\n      0x20\n      dup2\n      dup4\n      sub\n      sub\n      dup2\n      mstore\n      swap1\n      0x40\n      mstore\n        /* \"contracts/lookAround.sol\":585:639  keccak256(abi.encodePacked(block.timestamp,_playerId)) */\n      dup1\n      mload\n      swap1\n      0x20\n      add\n      keccak256\n        /* \"contracts/lookAround.sol\":580:640  uint(keccak256(abi.encodePacked(block.timestamp,_playerId))) */\n      0x00\n      shr\n        /* \"contracts/lookAround.sol\":580:649  uint(keccak256(abi.encodePacked(block.timestamp,_playerId)))% (10**4) */\n      tag_199\n      swap2\n      swap1\n      tag_200\n      jump\t// in\n    tag_199:\n        /* \"contracts/lookAround.sol\":563:649  uint zombieDNA = uint(keccak256(abi.encodePacked(block.timestamp,_playerId)))% (10**4) */\n      swap1\n      pop\n        /* \"contracts/lookAround.sol\":669:713  Zombie(\"Bob\", zombieDNA/100, zombieDNA %100) */\n      mload(0x40)\n      dup1\n      0x60\n      add\n      0x40\n      mstore\n      dup1\n      mload(0x40)\n      dup1\n      0x40\n      add\n      0x40\n      mstore\n      dup1\n      0x03\n      dup2\n      mstore\n      0x20\n      add\n      0x426f620000000000000000000000000000000000000000000000000000000000\n      dup2\n      mstore\n      pop\n      dup2\n      mstore\n      0x20\n      add\n        /* \"contracts/lookAround.sol\":693:696  100 */\n      0x64\n        /* \"contracts/lookAround.sol\":683:692  zombieDNA */\n      dup4\n        /* \"contracts/lookAround.sol\":683:696  zombieDNA/100 */\n      tag_201\n      swap2\n      swap1\n      tag_202\n      jump\t// in\n    tag_201:\n        /* \"contracts/lookAround.sol\":669:713  Zombie(\"Bob\", zombieDNA/100, zombieDNA %100) */\n      dup2\n      mstore\n      0x20\n      add\n        /* \"contracts/lookAround.sol\":709:712  100 */\n      0x64\n        /* \"contracts/lookAround.sol\":698:707  zombieDNA */\n      dup4\n        /* \"contracts/lookAround.sol\":698:712  zombieDNA %100 */\n      tag_203\n      swap2\n      swap1\n      tag_200\n      jump\t// in\n    tag_203:\n        /* \"contracts/lookAround.sol\":669:713  Zombie(\"Bob\", zombieDNA/100, zombieDNA %100) */\n      dup2\n      mstore\n      pop\n        /* \"contracts/lookAround.sol\":662:713  return Zombie(\"Bob\", zombieDNA/100, zombieDNA %100) */\n      swap2\n      pop\n      pop\n        /* \"contracts/lookAround.sol\":470:723  function _zombieGen(uint _playerId) internal view returns(Zombie memory){... */\n      swap2\n      swap1\n      pop\n      jump\t// out\n        /* \"contracts/zombieRollDice.sol\":129:304  function _rolldice(uint _modulus, uint _playerid) internal view returns(uint){... */\n    tag_168:\n        /* \"contracts/zombieRollDice.sol\":201:205  uint */\n      0x00\n        /* \"contracts/zombieRollDice.sol\":288:296  _modulus */\n      dup3\n        /* \"contracts/zombieRollDice.sol\":256:271  block.timestamp */\n      timestamp\n        /* \"contracts/zombieRollDice.sol\":273:282  _playerid */\n      dup4\n        /* \"contracts/zombieRollDice.sol\":239:283  abi.encodePacked(block.timestamp, _playerid) */\n      add(0x20, mload(0x40))\n      tag_205\n      swap3\n      swap2\n      swap1\n      tag_198\n      jump\t// in\n    tag_205:\n      mload(0x40)\n      0x20\n      dup2\n      dup4\n      sub\n      sub\n      dup2\n      mstore\n      swap1\n      0x40\n      mstore\n        /* \"contracts/zombieRollDice.sol\":229:284  keccak256(abi.encodePacked(block.timestamp, _playerid)) */\n      dup1\n      mload\n      swap1\n      0x20\n      add\n      keccak256\n        /* \"contracts/zombieRollDice.sol\":224:285  uint(keccak256(abi.encodePacked(block.timestamp, _playerid))) */\n      0x00\n      shr\n        /* \"contracts/zombieRollDice.sol\":224:296  uint(keccak256(abi.encodePacked(block.timestamp, _playerid))) % _modulus */\n      tag_206\n      swap2\n      swap1\n      tag_200\n      jump\t// in\n    tag_206:\n        /* \"contracts/zombieRollDice.sol\":217:296  return uint(keccak256(abi.encodePacked(block.timestamp, _playerid))) % _modulus */\n      swap1\n      pop\n        /* \"contracts/zombieRollDice.sol\":129:304  function _rolldice(uint _modulus, uint _playerid) internal view returns(uint){... */\n      swap3\n      swap2\n      pop\n      pop\n      jump\t// out\n        /* \"contracts/zombieWeapons.sol\":815:1386  function _obtainWeapon(address _playerId,string memory _name) internal{... */\n    tag_171:\n        /* \"contracts/zombieWeapons.sol\":906:927  uint weaponProperties */\n      0x00\n        /* \"contracts/zombieWeapons.sol\":930:953  _weapongenerator(_name) */\n      tag_208\n        /* \"contracts/zombieWeapons.sol\":947:952  _name */\n      dup3\n        /* \"contracts/zombieWeapons.sol\":930:946  _weapongenerator */\n      tag_209\n        /* \"contracts/zombieWeapons.sol\":930:953  _weapongenerator(_name) */\n      jump\t// in\n    tag_208:\n        /* \"contracts/zombieWeapons.sol\":906:953  uint weaponProperties = _weapongenerator(_name) */\n      swap1\n      pop\n        /* \"contracts/zombieWeapons.sol\":964:974  uint range */\n      0x00\n        /* \"contracts/zombieWeapons.sol\":994:1001  1000000 */\n      0x0f4240\n        /* \"contracts/zombieWeapons.sol\":977:993  weaponProperties */\n      dup3\n        /* \"contracts/zombieWeapons.sol\":977:1001  weaponProperties/1000000 */\n      tag_210\n      swap2\n      swap1\n      tag_202\n      jump\t// in\n    tag_210:\n        /* \"contracts/zombieWeapons.sol\":964:1001  uint range = weaponProperties/1000000 */\n      swap1\n      pop\n        /* \"contracts/zombieWeapons.sol\":1012:1023  uint damage */\n      0x00\n        /* \"contracts/zombieWeapons.sol\":1052:1056  1000 */\n      0x03e8\n        /* \"contracts/zombieWeapons.sol\":1045:1049  1000 */\n      dup1\n        /* \"contracts/zombieWeapons.sol\":1026:1042  weaponProperties */\n      dup5\n        /* \"contracts/zombieWeapons.sol\":1026:1049  weaponProperties / 1000 */\n      tag_211\n      swap2\n      swap1\n      tag_202\n      jump\t// in\n    tag_211:\n        /* \"contracts/zombieWeapons.sol\":1026:1056  weaponProperties / 1000 % 1000 */\n      tag_212\n      swap2\n      swap1\n      tag_200\n      jump\t// in\n    tag_212:\n        /* \"contracts/zombieWeapons.sol\":1012:1056  uint damage = weaponProperties / 1000 % 1000 */\n      swap1\n      pop\n        /* \"contracts/zombieWeapons.sol\":1067:1082  uint durability */\n      0x00\n        /* \"contracts/zombieWeapons.sol\":1104:1108  1000 */\n      0x03e8\n        /* \"contracts/zombieWeapons.sol\":1085:1101  weaponProperties */\n      dup5\n        /* \"contracts/zombieWeapons.sol\":1085:1108  weaponProperties % 1000 */\n      tag_213\n      swap2\n      swap1\n      tag_200\n      jump\t// in\n    tag_213:\n        /* \"contracts/zombieWeapons.sol\":1067:1108  uint durability = weaponProperties % 1000 */\n      swap1\n      pop\n        /* \"contracts/zombieWeapons.sol\":1119:1126  weapons */\n      0x03\n        /* \"contracts/zombieWeapons.sol\":1132:1192  Weapon(_name,uint8(range), uint8(damage), uint8(durability)) */\n      mload(0x40)\n      dup1\n      0x80\n      add\n      0x40\n      mstore\n      dup1\n        /* \"contracts/zombieWeapons.sol\":1139:1144  _name */\n      dup8\n        /* \"contracts/zombieWeapons.sol\":1132:1192  Weapon(_name,uint8(range), uint8(damage), uint8(durability)) */\n      dup2\n      mstore\n      0x20\n      add\n        /* \"contracts/zombieWeapons.sol\":1151:1156  range */\n      dup6\n        /* \"contracts/zombieWeapons.sol\":1132:1192  Weapon(_name,uint8(range), uint8(damage), uint8(durability)) */\n      0xff\n      and\n      dup2\n      mstore\n      0x20\n      add\n        /* \"contracts/zombieWeapons.sol\":1165:1171  damage */\n      dup5\n        /* \"contracts/zombieWeapons.sol\":1132:1192  Weapon(_name,uint8(range), uint8(damage), uint8(durability)) */\n      0xff\n      and\n      dup2\n      mstore\n      0x20\n      add\n        /* \"contracts/zombieWeapons.sol\":1180:1190  durability */\n      dup4\n        /* \"contracts/zombieWeapons.sol\":1132:1192  Weapon(_name,uint8(range), uint8(damage), uint8(durability)) */\n      0xff\n      and\n      dup2\n      mstore\n      pop\n        /* \"contracts/zombieWeapons.sol\":1119:1193  weapons.push(Weapon(_name,uint8(range), uint8(damage), uint8(durability))) */\n      swap1\n      dup1\n      0x01\n      dup2\n      sload\n      add\n      dup1\n      dup3\n      sstore\n      dup1\n      swap2\n      pop\n      pop\n      0x01\n      swap1\n      sub\n      swap1\n      0x00\n      mstore\n      keccak256(0x00, 0x20)\n      swap1\n      0x02\n      mul\n      add\n      0x00\n      swap1\n      swap2\n      swap1\n      swap2\n      swap1\n      swap2\n      pop\n      0x00\n      dup3\n      add\n      mload\n      dup2\n      0x00\n      add\n      swap1\n      dup2\n      tag_215\n      swap2\n      swap1\n      tag_150\n      jump\t// in\n    tag_215:\n      pop\n      0x20\n      dup3\n      add\n      mload\n      dup2\n      0x01\n      add\n      exp(0x0100, 0x00)\n      dup2\n      sload\n      dup2\n      0xff\n      mul\n      not\n      and\n      swap1\n      dup4\n      0xff\n      and\n      mul\n      or\n      swap1\n      sstore\n      pop\n      0x40\n      dup3\n      add\n      mload\n      dup2\n      0x01\n      add\n      exp(0x0100, 0x01)\n      dup2\n      sload\n      dup2\n      0xff\n      mul\n      not\n      and\n      swap1\n      dup4\n      0xff\n      and\n      mul\n      or\n      swap1\n      sstore\n      pop\n      0x60\n      dup3\n      add\n      mload\n      dup2\n      0x01\n      add\n      exp(0x0100, 0x02)\n      dup2\n      sload\n      dup2\n      0xff\n      mul\n      not\n      and\n      swap1\n      dup4\n      0xff\n      and\n      mul\n      or\n      swap1\n      sstore\n      pop\n      pop\n      pop\n        /* \"contracts/zombieWeapons.sol\":1204:1211  uint id */\n      0x00\n        /* \"contracts/zombieWeapons.sol\":1231:1232  1 */\n      0x01\n        /* \"contracts/zombieWeapons.sol\":1214:1221  weapons */\n      0x03\n        /* \"contracts/zombieWeapons.sol\":1214:1228  weapons.length */\n      dup1\n      sload\n      swap1\n      pop\n        /* \"contracts/zombieWeapons.sol\":1214:1232  weapons.length - 1 */\n      tag_216\n      swap2\n      swap1\n      tag_153\n      jump\t// in\n    tag_216:\n        /* \"contracts/zombieWeapons.sol\":1204:1232  uint id = weapons.length - 1 */\n      swap1\n      pop\n        /* \"contracts/zombieWeapons.sol\":1263:1272  _playerId */\n      dup7\n        /* \"contracts/zombieWeapons.sol\":1243:1256  WeaponToOwner */\n      0x01\n        /* \"contracts/zombieWeapons.sol\":1243:1260  WeaponToOwner[id] */\n      0x00\n        /* \"contracts/zombieWeapons.sol\":1257:1259  id */\n      dup4\n        /* \"contracts/zombieWeapons.sol\":1243:1260  WeaponToOwner[id] */\n      dup2\n      mstore\n      0x20\n      add\n      swap1\n      dup2\n      mstore\n      0x20\n      add\n      0x00\n      keccak256\n      0x00\n        /* \"contracts/zombieWeapons.sol\":1243:1272  WeaponToOwner[id] = _playerId */\n      0x0100\n      exp\n      dup2\n      sload\n      dup2\n      0xffffffffffffffffffffffffffffffffffffffff\n      mul\n      not\n      and\n      swap1\n      dup4\n      0xffffffffffffffffffffffffffffffffffffffff\n      and\n      mul\n      or\n      swap1\n      sstore\n      pop\n        /* \"contracts/zombieWeapons.sol\":1283:1299  OwnerWeaponCount */\n      0x02\n        /* \"contracts/zombieWeapons.sol\":1283:1310  OwnerWeaponCount[_playerId] */\n      0x00\n        /* \"contracts/zombieWeapons.sol\":1300:1309  _playerId */\n      dup9\n        /* \"contracts/zombieWeapons.sol\":1283:1310  OwnerWeaponCount[_playerId] */\n      0xffffffffffffffffffffffffffffffffffffffff\n      and\n      0xffffffffffffffffffffffffffffffffffffffff\n      and\n      dup2\n      mstore\n      0x20\n      add\n      swap1\n      dup2\n      mstore\n      0x20\n      add\n      0x00\n      keccak256\n      0x00\n        /* \"contracts/zombieWeapons.sol\":1283:1313  OwnerWeaponCount[_playerId] ++ */\n      dup2\n      sload\n      dup1\n      swap3\n      swap2\n      swap1\n      tag_217\n      swap1\n      tag_71\n      jump\t// in\n    tag_217:\n      swap2\n      swap1\n      pop\n      sstore\n      pop\n        /* \"contracts/zombieWeapons.sol\":1329:1376  WeaponFound(_playerId, _name, weaponProperties) */\n      0xe567398b5f2550951a498c5973b658fe260a8ccb602ecbb4ad2d886a494aba1b\n        /* \"contracts/zombieWeapons.sol\":1341:1350  _playerId */\n      dup8\n        /* \"contracts/zombieWeapons.sol\":1352:1357  _name */\n      dup8\n        /* \"contracts/zombieWeapons.sol\":1359:1375  weaponProperties */\n      dup8\n        /* \"contracts/zombieWeapons.sol\":1329:1376  WeaponFound(_playerId, _name, weaponProperties) */\n      mload(0x40)\n      tag_218\n      swap4\n      swap3\n      swap2\n      swap1\n      tag_219\n      jump\t// in\n    tag_218:\n      mload(0x40)\n      dup1\n      swap2\n      sub\n      swap1\n      log1\n        /* \"contracts/zombieWeapons.sol\":885:1386  {... */\n      pop\n      pop\n      pop\n      pop\n      pop\n        /* \"contracts/zombieWeapons.sol\":815:1386  function _obtainWeapon(address _playerId,string memory _name) internal{... */\n      pop\n      pop\n      jump\t// out\n        /* \"contracts/ownable.sol\":1866:2039  function _transferOwnership(address newOwner) internal {... */\n    tag_177:\n        /* \"contracts/ownable.sol\":1956:1957  0 */\n      0x00\n        /* \"contracts/ownable.sol\":1936:1958  newOwner != address(0) */\n      0xffffffffffffffffffffffffffffffffffffffff\n      and\n        /* \"contracts/ownable.sol\":1936:1944  newOwner */\n      dup2\n        /* \"contracts/ownable.sol\":1936:1958  newOwner != address(0) */\n      0xffffffffffffffffffffffffffffffffffffffff\n      and\n      sub\n        /* \"contracts/ownable.sol\":1928:1959  require(newOwner != address(0)) */\n      tag_221\n      jumpi\n      0x00\n      dup1\n      revert\n    tag_221:\n        /* \"contracts/ownable.sol\":2000:2008  newOwner */\n      dup1\n        /* \"contracts/ownable.sol\":1971:2009  OwnershipTransferred(_owner, newOwner) */\n      0xffffffffffffffffffffffffffffffffffffffff\n      and\n        /* \"contracts/ownable.sol\":1992:1998  _owner */\n      0x00\n      dup1\n      sload\n      swap1\n      0x0100\n      exp\n      swap1\n      div\n      0xffffffffffffffffffffffffffffffffffffffff\n      and\n        /* \"contracts/ownable.sol\":1971:2009  OwnershipTransferred(_owner, newOwner) */\n      0xffffffffffffffffffffffffffffffffffffffff\n      and\n      0x8be0079c531659141344cd1fd0a4f28419497f9722a3daafe3b4186f6b6457e0\n      mload(0x40)\n      mload(0x40)\n      dup1\n      swap2\n      sub\n      swap1\n      log3\n        /* \"contracts/ownable.sol\":2025:2033  newOwner */\n      dup1\n        /* \"contracts/ownable.sol\":2016:2022  _owner */\n      0x00\n      dup1\n        /* \"contracts/ownable.sol\":2016:2033  _owner = newOwner */\n      0x0100\n      exp\n      dup2\n      sload\n      dup2\n      0xffffffffffffffffffffffffffffffffffffffff\n      mul\n      not\n      and\n      swap1\n      dup4\n      0xffffffffffffffffffffffffffffffffffffffff\n      and\n      mul\n      or\n      swap1\n      sstore\n      pop\n        /* \"contracts/ownable.sol\":1866:2039  function _transferOwnership(address newOwner) internal {... */\n      pop\n      jump\t// out\n        /* \"contracts/zombieWeapons.sol\":539:807  function _weapongenerator(string memory _name) internal returns(uint) {... */\n    tag_209:\n        /* \"contracts/zombieWeapons.sol\":603:607  uint */\n      0x00\n        /* \"contracts/zombieWeapons.sol\":620:641  uint weaponProperties */\n      dup1\n        /* \"contracts/zombieWeapons.sol\":716:721  10**9 */\n      0x3b9aca00\n        /* \"contracts/zombieWeapons.sol\":676:691  block.timestamp */\n      timestamp\n        /* \"contracts/zombieWeapons.sol\":693:702  RandNonce */\n      sload(0x05)\n        /* \"contracts/zombieWeapons.sol\":704:709  _name */\n      dup6\n        /* \"contracts/zombieWeapons.sol\":659:710  abi.encodePacked(block.timestamp, RandNonce, _name) */\n      add(0x20, mload(0x40))\n      tag_223\n      swap4\n      swap3\n      swap2\n      swap1\n      tag_224\n      jump\t// in\n    tag_223:\n      mload(0x40)\n      0x20\n      dup2\n      dup4\n      sub\n      sub\n      dup2\n      mstore\n      swap1\n      0x40\n      mstore\n        /* \"contracts/zombieWeapons.sol\":649:711  keccak256(abi.encodePacked(block.timestamp, RandNonce, _name)) */\n      dup1\n      mload\n      swap1\n      0x20\n      add\n      keccak256\n        /* \"contracts/zombieWeapons.sol\":644:712  uint(keccak256(abi.encodePacked(block.timestamp, RandNonce, _name))) */\n      0x00\n      shr\n        /* \"contracts/zombieWeapons.sol\":644:722  uint(keccak256(abi.encodePacked(block.timestamp, RandNonce, _name))) % (10**9) */\n      tag_225\n      swap2\n      swap1\n      tag_200\n      jump\t// in\n    tag_225:\n        /* \"contracts/zombieWeapons.sol\":620:722  uint weaponProperties = uint(keccak256(abi.encodePacked(block.timestamp, RandNonce, _name))) % (10**9) */\n      swap1\n      pop\n        /* \"contracts/zombieWeapons.sol\":743:752  RandNonce */\n      0x05\n      0x00\n        /* \"contracts/zombieWeapons.sol\":743:754  RandNonce++ */\n      dup2\n      sload\n      dup1\n      swap3\n      swap2\n      swap1\n      tag_226\n      swap1\n      tag_71\n      jump\t// in\n    tag_226:\n      swap2\n      swap1\n      pop\n      sstore\n      pop\n        /* \"contracts/zombieWeapons.sol\":782:798  weaponProperties */\n      dup1\n        /* \"contracts/zombieWeapons.sol\":775:799  return(weaponProperties) */\n      swap2\n      pop\n      pop\n        /* \"contracts/zombieWeapons.sol\":539:807  function _weapongenerator(string memory _name) internal returns(uint) {... */\n      swap2\n      swap1\n      pop\n      jump\t// out\n    tag_195:\n      mload(0x40)\n      dup1\n      0x60\n      add\n      0x40\n      mstore\n      dup1\n      0x60\n      dup2\n      mstore\n      0x20\n      add\n      0x00\n      dup2\n      mstore\n      0x20\n      add\n      0x00\n      dup2\n      mstore\n      pop\n      swap1\n      jump\t// out\n        /* \"#utility.yul\":7:82   */\n    tag_227:\n        /* \"#utility.yul\":40:46   */\n      0x00\n        /* \"#utility.yul\":73:75   */\n      0x40\n        /* \"#utility.yul\":67:76   */\n      mload\n        /* \"#utility.yul\":57:76   */\n      swap1\n      pop\n        /* \"#utility.yul\":7:82   */\n      swap1\n      jump\t// out\n        /* \"#utility.yul\":88:205   */\n    tag_228:\n        /* \"#utility.yul\":197:198   */\n      0x00\n        /* \"#utility.yul\":194:195   */\n      dup1\n        /* \"#utility.yul\":187:199   */\n      revert\n        /* \"#utility.yul\":211:328   */\n    tag_229:\n        /* \"#utility.yul\":320:321   */\n      0x00\n        /* \"#utility.yul\":317:318   */\n      dup1\n        /* \"#utility.yul\":310:322   */\n      revert\n        /* \"#utility.yul\":334:460   */\n    tag_230:\n        /* \"#utility.yul\":371:378   */\n      0x00\n        /* \"#utility.yul\":411:453   */\n      0xffffffffffffffffffffffffffffffffffffffff\n        /* \"#utility.yul\":404:409   */\n      dup3\n        /* \"#utility.yul\":400:454   */\n      and\n        /* \"#utility.yul\":389:454   */\n      swap1\n      pop\n        /* \"#utility.yul\":334:460   */\n      swap2\n      swap1\n      pop\n      jump\t// out\n        /* \"#utility.yul\":466:562   */\n    tag_231:\n        /* \"#utility.yul\":503:510   */\n      0x00\n        /* \"#utility.yul\":532:556   */\n      tag_345\n        /* \"#utility.yul\":550:555   */\n      dup3\n        /* \"#utility.yul\":532:556   */\n      tag_230\n      jump\t// in\n    tag_345:\n        /* \"#utility.yul\":521:556   */\n      swap1\n      pop\n        /* \"#utility.yul\":466:562   */\n      swap2\n      swap1\n      pop\n      jump\t// out\n        /* \"#utility.yul\":568:690   */\n    tag_232:\n        /* \"#utility.yul\":641:665   */\n      tag_347\n        /* \"#utility.yul\":659:664   */\n      dup2\n        /* \"#utility.yul\":641:665   */\n      tag_231\n      jump\t// in\n    tag_347:\n        /* \"#utility.yul\":634:639   */\n      dup2\n        /* \"#utility.yul\":631:666   */\n      eq\n        /* \"#utility.yul\":621:684   */\n      tag_348\n      jumpi\n        /* \"#utility.yul\":680:681   */\n      0x00\n        /* \"#utility.yul\":677:678   */\n      dup1\n        /* \"#utility.yul\":670:682   */\n      revert\n        /* \"#utility.yul\":621:684   */\n    tag_348:\n        /* \"#utility.yul\":568:690   */\n      pop\n      jump\t// out\n        /* \"#utility.yul\":696:835   */\n    tag_233:\n        /* \"#utility.yul\":742:747   */\n      0x00\n        /* \"#utility.yul\":780:786   */\n      dup2\n        /* \"#utility.yul\":767:787   */\n      calldataload\n        /* \"#utility.yul\":758:787   */\n      swap1\n      pop\n        /* \"#utility.yul\":796:829   */\n      tag_350\n        /* \"#utility.yul\":823:828   */\n      dup2\n        /* \"#utility.yul\":796:829   */\n      tag_232\n      jump\t// in\n    tag_350:\n        /* \"#utility.yul\":696:835   */\n      swap3\n      swap2\n      pop\n      pop\n      jump\t// out\n        /* \"#utility.yul\":841:1170   */\n    tag_17:\n        /* \"#utility.yul\":900:906   */\n      0x00\n        /* \"#utility.yul\":949:951   */\n      0x20\n        /* \"#utility.yul\":937:946   */\n      dup3\n        /* \"#utility.yul\":928:935   */\n      dup5\n        /* \"#utility.yul\":924:947   */\n      sub\n        /* \"#utility.yul\":920:952   */\n      slt\n        /* \"#utility.yul\":917:1036   */\n      iszero\n      tag_352\n      jumpi\n        /* \"#utility.yul\":955:1034   */\n      tag_353\n      tag_228\n      jump\t// in\n    tag_353:\n        /* \"#utility.yul\":917:1036   */\n    tag_352:\n        /* \"#utility.yul\":1075:1076   */\n      0x00\n        /* \"#utility.yul\":1100:1153   */\n      tag_354\n        /* \"#utility.yul\":1145:1152   */\n      dup5\n        /* \"#utility.yul\":1136:1142   */\n      dup3\n        /* \"#utility.yul\":1125:1134   */\n      dup6\n        /* \"#utility.yul\":1121:1143   */\n      add\n        /* \"#utility.yul\":1100:1153   */\n      tag_233\n      jump\t// in\n    tag_354:\n        /* \"#utility.yul\":1090:1153   */\n      swap2\n      pop\n        /* \"#utility.yul\":1046:1163   */\n      pop\n        /* \"#utility.yul\":841:1170   */\n      swap3\n      swap2\n      pop\n      pop\n      jump\t// out\n        /* \"#utility.yul\":1176:1290   */\n    tag_234:\n        /* \"#utility.yul\":1243:1249   */\n      0x00\n        /* \"#utility.yul\":1277:1282   */\n      dup2\n        /* \"#utility.yul\":1271:1283   */\n      mload\n        /* \"#utility.yul\":1261:1283   */\n      swap1\n      pop\n        /* \"#utility.yul\":1176:1290   */\n      swap2\n      swap1\n      pop\n      jump\t// out\n        /* \"#utility.yul\":1296:1480   */\n    tag_235:\n        /* \"#utility.yul\":1395:1406   */\n      0x00\n        /* \"#utility.yul\":1429:1435   */\n      dup3\n        /* \"#utility.yul\":1424:1427   */\n      dup3\n        /* \"#utility.yul\":1417:1436   */\n      mstore\n        /* \"#utility.yul\":1469:1473   */\n      0x20\n        /* \"#utility.yul\":1464:1467   */\n      dup3\n        /* \"#utility.yul\":1460:1474   */\n      add\n        /* \"#utility.yul\":1445:1474   */\n      swap1\n      pop\n        /* \"#utility.yul\":1296:1480   */\n      swap3\n      swap2\n      pop\n      pop\n      jump\t// out\n        /* \"#utility.yul\":1486:1618   */\n    tag_236:\n        /* \"#utility.yul\":1553:1557   */\n      0x00\n        /* \"#utility.yul\":1576:1579   */\n      dup2\n        /* \"#utility.yul\":1568:1579   */\n      swap1\n      pop\n        /* \"#utility.yul\":1606:1610   */\n      0x20\n        /* \"#utility.yul\":1601:1604   */\n      dup3\n        /* \"#utility.yul\":1597:1611   */\n      add\n        /* \"#utility.yul\":1589:1611   */\n      swap1\n      pop\n        /* \"#utility.yul\":1486:1618   */\n      swap2\n      swap1\n      pop\n      jump\t// out\n        /* \"#utility.yul\":1624:1701   */\n    tag_237:\n        /* \"#utility.yul\":1661:1668   */\n      0x00\n        /* \"#utility.yul\":1690:1695   */\n      dup2\n        /* \"#utility.yul\":1679:1695   */\n      swap1\n      pop\n        /* \"#utility.yul\":1624:1701   */\n      swap2\n      swap1\n      pop\n      jump\t// out\n        /* \"#utility.yul\":1707:1815   */\n    tag_238:\n        /* \"#utility.yul\":1784:1808   */\n      tag_360\n        /* \"#utility.yul\":1802:1807   */\n      dup2\n        /* \"#utility.yul\":1784:1808   */\n      tag_237\n      jump\t// in\n    tag_360:\n        /* \"#utility.yul\":1779:1782   */\n      dup3\n        /* \"#utility.yul\":1772:1809   */\n      mstore\n        /* \"#utility.yul\":1707:1815   */\n      pop\n      pop\n      jump\t// out\n        /* \"#utility.yul\":1821:2000   */\n    tag_239:\n        /* \"#utility.yul\":1890:1900   */\n      0x00\n        /* \"#utility.yul\":1911:1957   */\n      tag_362\n        /* \"#utility.yul\":1953:1956   */\n      dup4\n        /* \"#utility.yul\":1945:1951   */\n      dup4\n        /* \"#utility.yul\":1911:1957   */\n      tag_238\n      jump\t// in\n    tag_362:\n        /* \"#utility.yul\":1989:1993   */\n      0x20\n        /* \"#utility.yul\":1984:1987   */\n      dup4\n        /* \"#utility.yul\":1980:1994   */\n      add\n        /* \"#utility.yul\":1966:1994   */\n      swap1\n      pop\n        /* \"#utility.yul\":1821:2000   */\n      swap3\n      swap2\n      pop\n      pop\n      jump\t// out\n        /* \"#utility.yul\":2006:2119   */\n    tag_240:\n        /* \"#utility.yul\":2076:2080   */\n      0x00\n        /* \"#utility.yul\":2108:2112   */\n      0x20\n        /* \"#utility.yul\":2103:2106   */\n      dup3\n        /* \"#utility.yul\":2099:2113   */\n      add\n        /* \"#utility.yul\":2091:2113   */\n      swap1\n      pop\n        /* \"#utility.yul\":2006:2119   */\n      swap2\n      swap1\n      pop\n      jump\t// out\n        /* \"#utility.yul\":2155:2887   */\n    tag_241:\n        /* \"#utility.yul\":2274:2277   */\n      0x00\n        /* \"#utility.yul\":2303:2357   */\n      tag_365\n        /* \"#utility.yul\":2351:2356   */\n      dup3\n        /* \"#utility.yul\":2303:2357   */\n      tag_234\n      jump\t// in\n    tag_365:\n        /* \"#utility.yul\":2373:2459   */\n      tag_366\n        /* \"#utility.yul\":2452:2458   */\n      dup2\n        /* \"#utility.yul\":2447:2450   */\n      dup6\n        /* \"#utility.yul\":2373:2459   */\n      tag_235\n      jump\t// in\n    tag_366:\n        /* \"#utility.yul\":2366:2459   */\n      swap4\n      pop\n        /* \"#utility.yul\":2483:2539   */\n      tag_367\n        /* \"#utility.yul\":2533:2538   */\n      dup4\n        /* \"#utility.yul\":2483:2539   */\n      tag_236\n      jump\t// in\n    tag_367:\n        /* \"#utility.yul\":2562:2569   */\n      dup1\n        /* \"#utility.yul\":2593:2594   */\n      0x00\n        /* \"#utility.yul\":2578:2862   */\n    tag_368:\n        /* \"#utility.yul\":2603:2609   */\n      dup4\n        /* \"#utility.yul\":2600:2601   */\n      dup2\n        /* \"#utility.yul\":2597:2610   */\n      lt\n        /* \"#utility.yul\":2578:2862   */\n      iszero\n      tag_370\n      jumpi\n        /* \"#utility.yul\":2679:2685   */\n      dup2\n        /* \"#utility.yul\":2673:2686   */\n      mload\n        /* \"#utility.yul\":2706:2769   */\n      tag_371\n        /* \"#utility.yul\":2765:2768   */\n      dup9\n        /* \"#utility.yul\":2750:2763   */\n      dup3\n        /* \"#utility.yul\":2706:2769   */\n      tag_239\n      jump\t// in\n    tag_371:\n        /* \"#utility.yul\":2699:2769   */\n      swap8\n      pop\n        /* \"#utility.yul\":2792:2852   */\n      tag_372\n        /* \"#utility.yul\":2845:2851   */\n      dup4\n        /* \"#utility.yul\":2792:2852   */\n      tag_240\n      jump\t// in\n    tag_372:\n        /* \"#utility.yul\":2782:2852   */\n      swap3\n      pop\n        /* \"#utility.yul\":2638:2862   */\n      pop\n        /* \"#utility.yul\":2625:2626   */\n      0x01\n        /* \"#utility.yul\":2622:2623   */\n      dup2\n        /* \"#utility.yul\":2618:2627   */\n      add\n        /* \"#utility.yul\":2613:2627   */\n      swap1\n      pop\n        /* \"#utility.yul\":2578:2862   */\n      jump(tag_368)\n    tag_370:\n        /* \"#utility.yul\":2582:2596   */\n      pop\n        /* \"#utility.yul\":2878:2881   */\n      dup6\n        /* \"#utility.yul\":2871:2881   */\n      swap4\n      pop\n        /* \"#utility.yul\":2279:2887   */\n      pop\n      pop\n      pop\n        /* \"#utility.yul\":2155:2887   */\n      swap3\n      swap2\n      pop\n      pop\n      jump\t// out\n        /* \"#utility.yul\":2893:3266   */\n    tag_20:\n        /* \"#utility.yul\":3036:3040   */\n      0x00\n        /* \"#utility.yul\":3074:3076   */\n      0x20\n        /* \"#utility.yul\":3063:3072   */\n      dup3\n        /* \"#utility.yul\":3059:3077   */\n      add\n        /* \"#utility.yul\":3051:3077   */\n      swap1\n      pop\n        /* \"#utility.yul\":3123:3132   */\n      dup2\n        /* \"#utility.yul\":3117:3121   */\n      dup2\n        /* \"#utility.yul\":3113:3133   */\n      sub\n        /* \"#utility.yul\":3109:3110   */\n      0x00\n        /* \"#utility.yul\":3098:3107   */\n      dup4\n        /* \"#utility.yul\":3094:3111   */\n      add\n        /* \"#utility.yul\":3087:3134   */\n      mstore\n        /* \"#utility.yul\":3151:3259   */\n      tag_374\n        /* \"#utility.yul\":3254:3258   */\n      dup2\n        /* \"#utility.yul\":3245:3251   */\n      dup5\n        /* \"#utility.yul\":3151:3259   */\n      tag_241\n      jump\t// in\n    tag_374:\n        /* \"#utility.yul\":3143:3259   */\n      swap1\n      pop\n        /* \"#utility.yul\":2893:3266   */\n      swap3\n      swap2\n      pop\n      pop\n      jump\t// out\n        /* \"#utility.yul\":3272:3394   */\n    tag_242:\n        /* \"#utility.yul\":3345:3369   */\n      tag_376\n        /* \"#utility.yul\":3363:3368   */\n      dup2\n        /* \"#utility.yul\":3345:3369   */\n      tag_237\n      jump\t// in\n    tag_376:\n        /* \"#utility.yul\":3338:3343   */\n      dup2\n        /* \"#utility.yul\":3335:3370   */\n      eq\n        /* \"#utility.yul\":3325:3388   */\n      tag_377\n      jumpi\n        /* \"#utility.yul\":3384:3385   */\n      0x00\n        /* \"#utility.yul\":3381:3382   */\n      dup1\n        /* \"#utility.yul\":3374:3386   */\n      revert\n        /* \"#utility.yul\":3325:3388   */\n    tag_377:\n        /* \"#utility.yul\":3272:3394   */\n      pop\n      jump\t// out\n        /* \"#utility.yul\":3400:3539   */\n    tag_243:\n        /* \"#utility.yul\":3446:3451   */\n      0x00\n        /* \"#utility.yul\":3484:3490   */\n      dup2\n        /* \"#utility.yul\":3471:3491   */\n      calldataload\n        /* \"#utility.yul\":3462:3491   */\n      swap1\n      pop\n        /* \"#utility.yul\":3500:3533   */\n      tag_379\n        /* \"#utility.yul\":3527:3532   */\n      dup2\n        /* \"#utility.yul\":3500:3533   */\n      tag_242\n      jump\t// in\n    tag_379:\n        /* \"#utility.yul\":3400:3539   */\n      swap3\n      swap2\n      pop\n      pop\n      jump\t// out\n        /* \"#utility.yul\":3545:3874   */\n    tag_23:\n        /* \"#utility.yul\":3604:3610   */\n      0x00\n        /* \"#utility.yul\":3653:3655   */\n      0x20\n        /* \"#utility.yul\":3641:3650   */\n      dup3\n        /* \"#utility.yul\":3632:3639   */\n      dup5\n        /* \"#utility.yul\":3628:3651   */\n      sub\n        /* \"#utility.yul\":3624:3656   */\n      slt\n        /* \"#utility.yul\":3621:3740   */\n      iszero\n      tag_381\n      jumpi\n        /* \"#utility.yul\":3659:3738   */\n      tag_382\n      tag_228\n      jump\t// in\n    tag_382:\n        /* \"#utility.yul\":3621:3740   */\n    tag_381:\n        /* \"#utility.yul\":3779:3780   */\n      0x00\n        /* \"#utility.yul\":3804:3857   */\n      tag_383\n        /* \"#utility.yul\":3849:3856   */\n      dup5\n        /* \"#utility.yul\":3840:3846   */\n      dup3\n        /* \"#utility.yul\":3829:3838   */\n      dup6\n        /* \"#utility.yul\":3825:3847   */\n      add\n        /* \"#utility.yul\":3804:3857   */\n      tag_243\n      jump\t// in\n    tag_383:\n        /* \"#utility.yul\":3794:3857   */\n      swap2\n      pop\n        /* \"#utility.yul\":3750:3867   */\n      pop\n        /* \"#utility.yul\":3545:3874   */\n      swap3\n      swap2\n      pop\n      pop\n      jump\t// out\n        /* \"#utility.yul\":3880:3979   */\n    tag_244:\n        /* \"#utility.yul\":3932:3938   */\n      0x00\n        /* \"#utility.yul\":3966:3971   */\n      dup2\n        /* \"#utility.yul\":3960:3972   */\n      mload\n        /* \"#utility.yul\":3950:3972   */\n      swap1\n      pop\n        /* \"#utility.yul\":3880:3979   */\n      swap2\n      swap1\n      pop\n      jump\t// out\n        /* \"#utility.yul\":3985:4154   */\n    tag_245:\n        /* \"#utility.yul\":4069:4080   */\n      0x00\n        /* \"#utility.yul\":4103:4109   */\n      dup3\n        /* \"#utility.yul\":4098:4101   */\n      dup3\n        /* \"#utility.yul\":4091:4110   */\n      mstore\n        /* \"#utility.yul\":4143:4147   */\n      0x20\n        /* \"#utility.yul\":4138:4141   */\n      dup3\n        /* \"#utility.yul\":4134:4148   */\n      add\n        /* \"#utility.yul\":4119:4148   */\n      swap1\n      pop\n        /* \"#utility.yul\":3985:4154   */\n      swap3\n      swap2\n      pop\n      pop\n      jump\t// out\n        /* \"#utility.yul\":4160:4299   */\n    tag_246:\n        /* \"#utility.yul\":4249:4255   */\n      dup3\n        /* \"#utility.yul\":4244:4247   */\n      dup2\n        /* \"#utility.yul\":4239:4242   */\n      dup4\n        /* \"#utility.yul\":4233:4256   */\n      mcopy\n        /* \"#utility.yul\":4290:4291   */\n      0x00\n        /* \"#utility.yul\":4281:4287   */\n      dup4\n        /* \"#utility.yul\":4276:4279   */\n      dup4\n        /* \"#utility.yul\":4272:4288   */\n      add\n        /* \"#utility.yul\":4265:4292   */\n      mstore\n        /* \"#utility.yul\":4160:4299   */\n      pop\n      pop\n      pop\n      jump\t// out\n        /* \"#utility.yul\":4305:4407   */\n    tag_247:\n        /* \"#utility.yul\":4346:4352   */\n      0x00\n        /* \"#utility.yul\":4397:4399   */\n      0x1f\n        /* \"#utility.yul\":4393:4400   */\n      not\n        /* \"#utility.yul\":4388:4390   */\n      0x1f\n        /* \"#utility.yul\":4381:4386   */\n      dup4\n        /* \"#utility.yul\":4377:4391   */\n      add\n        /* \"#utility.yul\":4373:4401   */\n      and\n        /* \"#utility.yul\":4363:4401   */\n      swap1\n      pop\n        /* \"#utility.yul\":4305:4407   */\n      swap2\n      swap1\n      pop\n      jump\t// out\n        /* \"#utility.yul\":4413:4790   */\n    tag_248:\n        /* \"#utility.yul\":4501:4504   */\n      0x00\n        /* \"#utility.yul\":4529:4568   */\n      tag_389\n        /* \"#utility.yul\":4562:4567   */\n      dup3\n        /* \"#utility.yul\":4529:4568   */\n      tag_244\n      jump\t// in\n    tag_389:\n        /* \"#utility.yul\":4584:4655   */\n      tag_390\n        /* \"#utility.yul\":4648:4654   */\n      dup2\n        /* \"#utility.yul\":4643:4646   */\n      dup6\n        /* \"#utility.yul\":4584:4655   */\n      tag_245\n      jump\t// in\n    tag_390:\n        /* \"#utility.yul\":4577:4655   */\n      swap4\n      pop\n        /* \"#utility.yul\":4664:4729   */\n      tag_391\n        /* \"#utility.yul\":4722:4728   */\n      dup2\n        /* \"#utility.yul\":4717:4720   */\n      dup6\n        /* \"#utility.yul\":4710:4714   */\n      0x20\n        /* \"#utility.yul\":4703:4708   */\n      dup7\n        /* \"#utility.yul\":4699:4715   */\n      add\n        /* \"#utility.yul\":4664:4729   */\n      tag_246\n      jump\t// in\n    tag_391:\n        /* \"#utility.yul\":4754:4783   */\n      tag_392\n        /* \"#utility.yul\":4776:4782   */\n      dup2\n        /* \"#utility.yul\":4754:4783   */\n      tag_247\n      jump\t// in\n    tag_392:\n        /* \"#utility.yul\":4749:4752   */\n      dup5\n        /* \"#utility.yul\":4745:4784   */\n      add\n        /* \"#utility.yul\":4738:4784   */\n      swap2\n      pop\n        /* \"#utility.yul\":4505:4790   */\n      pop\n        /* \"#utility.yul\":4413:4790   */\n      swap3\n      swap2\n      pop\n      pop\n      jump\t// out\n        /* \"#utility.yul\":4796:4882   */\n    tag_249:\n        /* \"#utility.yul\":4831:4838   */\n      0x00\n        /* \"#utility.yul\":4871:4875   */\n      0xff\n        /* \"#utility.yul\":4864:4869   */\n      dup3\n        /* \"#utility.yul\":4860:4876   */\n      and\n        /* \"#utility.yul\":4849:4876   */\n      swap1\n      pop\n        /* \"#utility.yul\":4796:4882   */\n      swap2\n      swap1\n      pop\n      jump\t// out\n        /* \"#utility.yul\":4888:5000   */\n    tag_250:\n        /* \"#utility.yul\":4971:4993   */\n      tag_395\n        /* \"#utility.yul\":4987:4992   */\n      dup2\n        /* \"#utility.yul\":4971:4993   */\n      tag_249\n      jump\t// in\n    tag_395:\n        /* \"#utility.yul\":4966:4969   */\n      dup3\n        /* \"#utility.yul\":4959:4994   */\n      mstore\n        /* \"#utility.yul\":4888:5000   */\n      pop\n      pop\n      jump\t// out\n        /* \"#utility.yul\":5006:5626   */\n    tag_26:\n        /* \"#utility.yul\":5191:5195   */\n      0x00\n        /* \"#utility.yul\":5229:5232   */\n      0x80\n        /* \"#utility.yul\":5218:5227   */\n      dup3\n        /* \"#utility.yul\":5214:5233   */\n      add\n        /* \"#utility.yul\":5206:5233   */\n      swap1\n      pop\n        /* \"#utility.yul\":5279:5288   */\n      dup2\n        /* \"#utility.yul\":5273:5277   */\n      dup2\n        /* \"#utility.yul\":5269:5289   */\n      sub\n        /* \"#utility.yul\":5265:5266   */\n      0x00\n        /* \"#utility.yul\":5254:5263   */\n      dup4\n        /* \"#utility.yul\":5250:5267   */\n      add\n        /* \"#utility.yul\":5243:5290   */\n      mstore\n        /* \"#utility.yul\":5307:5385   */\n      tag_397\n        /* \"#utility.yul\":5380:5384   */\n      dup2\n        /* \"#utility.yul\":5371:5377   */\n      dup8\n        /* \"#utility.yul\":5307:5385   */\n      tag_248\n      jump\t// in\n    tag_397:\n        /* \"#utility.yul\":5299:5385   */\n      swap1\n      pop\n        /* \"#utility.yul\":5395:5463   */\n      tag_398\n        /* \"#utility.yul\":5459:5461   */\n      0x20\n        /* \"#utility.yul\":5448:5457   */\n      dup4\n        /* \"#utility.yul\":5444:5462   */\n      add\n        /* \"#utility.yul\":5435:5441   */\n      dup7\n        /* \"#utility.yul\":5395:5463   */\n      tag_250\n      jump\t// in\n    tag_398:\n        /* \"#utility.yul\":5473:5541   */\n      tag_399\n        /* \"#utility.yul\":5537:5539   */\n      0x40\n        /* \"#utility.yul\":5526:5535   */\n      dup4\n        /* \"#utility.yul\":5522:5540   */\n      add\n        /* \"#utility.yul\":5513:5519   */\n      dup6\n        /* \"#utility.yul\":5473:5541   */\n      tag_250\n      jump\t// in\n    tag_399:\n        /* \"#utility.yul\":5551:5619   */\n      tag_400\n        /* \"#utility.yul\":5615:5617   */\n      0x60\n        /* \"#utility.yul\":5604:5613   */\n      dup4\n        /* \"#utility.yul\":5600:5618   */\n      add\n        /* \"#utility.yul\":5591:5597   */\n      dup5\n        /* \"#utility.yul\":5551:5619   */\n      tag_250\n      jump\t// in\n    tag_400:\n        /* \"#utility.yul\":5006:5626   */\n      swap6\n      swap5\n      pop\n      pop\n      pop\n      pop\n      pop\n      jump\t// out\n        /* \"#utility.yul\":5632:5750   */\n    tag_251:\n        /* \"#utility.yul\":5719:5743   */\n      tag_402\n        /* \"#utility.yul\":5737:5742   */\n      dup2\n        /* \"#utility.yul\":5719:5743   */\n      tag_231\n      jump\t// in\n    tag_402:\n        /* \"#utility.yul\":5714:5717   */\n      dup3\n        /* \"#utility.yul\":5707:5744   */\n      mstore\n        /* \"#utility.yul\":5632:5750   */\n      pop\n      pop\n      jump\t// out\n        /* \"#utility.yul\":5756:5978   */\n    tag_37:\n        /* \"#utility.yul\":5849:5853   */\n      0x00\n        /* \"#utility.yul\":5887:5889   */\n      0x20\n        /* \"#utility.yul\":5876:5885   */\n      dup3\n        /* \"#utility.yul\":5872:5890   */\n      add\n        /* \"#utility.yul\":5864:5890   */\n      swap1\n      pop\n        /* \"#utility.yul\":5900:5971   */\n      tag_404\n        /* \"#utility.yul\":5968:5969   */\n      0x00\n        /* \"#utility.yul\":5957:5966   */\n      dup4\n        /* \"#utility.yul\":5953:5970   */\n      add\n        /* \"#utility.yul\":5944:5950   */\n      dup5\n        /* \"#utility.yul\":5900:5971   */\n      tag_251\n      jump\t// in\n    tag_404:\n        /* \"#utility.yul\":5756:5978   */\n      swap3\n      swap2\n      pop\n      pop\n      jump\t// out\n        /* \"#utility.yul\":5984:6074   */\n    tag_252:\n        /* \"#utility.yul\":6018:6025   */\n      0x00\n        /* \"#utility.yul\":6061:6066   */\n      dup2\n        /* \"#utility.yul\":6054:6067   */\n      iszero\n        /* \"#utility.yul\":6047:6068   */\n      iszero\n        /* \"#utility.yul\":6036:6068   */\n      swap1\n      pop\n        /* \"#utility.yul\":5984:6074   */\n      swap2\n      swap1\n      pop\n      jump\t// out\n        /* \"#utility.yul\":6080:6189   */\n    tag_253:\n        /* \"#utility.yul\":6161:6182   */\n      tag_407\n        /* \"#utility.yul\":6176:6181   */\n      dup2\n        /* \"#utility.yul\":6161:6182   */\n      tag_252\n      jump\t// in\n    tag_407:\n        /* \"#utility.yul\":6156:6159   */\n      dup3\n        /* \"#utility.yul\":6149:6183   */\n      mstore\n        /* \"#utility.yul\":6080:6189   */\n      pop\n      pop\n      jump\t// out\n        /* \"#utility.yul\":6195:6405   */\n    tag_41:\n        /* \"#utility.yul\":6282:6286   */\n      0x00\n        /* \"#utility.yul\":6320:6322   */\n      0x20\n        /* \"#utility.yul\":6309:6318   */\n      dup3\n        /* \"#utility.yul\":6305:6323   */\n      add\n        /* \"#utility.yul\":6297:6323   */\n      swap1\n      pop\n        /* \"#utility.yul\":6333:6398   */\n      tag_409\n        /* \"#utility.yul\":6395:6396   */\n      0x00\n        /* \"#utility.yul\":6384:6393   */\n      dup4\n        /* \"#utility.yul\":6380:6397   */\n      add\n        /* \"#utility.yul\":6371:6377   */\n      dup5\n        /* \"#utility.yul\":6333:6398   */\n      tag_253\n      jump\t// in\n    tag_409:\n        /* \"#utility.yul\":6195:6405   */\n      swap3\n      swap2\n      pop\n      pop\n      jump\t// out\n        /* \"#utility.yul\":6411:6528   */\n    tag_254:\n        /* \"#utility.yul\":6520:6521   */\n      0x00\n        /* \"#utility.yul\":6517:6518   */\n      dup1\n        /* \"#utility.yul\":6510:6522   */\n      revert\n        /* \"#utility.yul\":6534:6651   */\n    tag_255:\n        /* \"#utility.yul\":6643:6644   */\n      0x00\n        /* \"#utility.yul\":6640:6641   */\n      dup1\n        /* \"#utility.yul\":6633:6645   */\n      revert\n        /* \"#utility.yul\":6657:6837   */\n    tag_61:\n        /* \"#utility.yul\":6705:6782   */\n      0x4e487b7100000000000000000000000000000000000000000000000000000000\n        /* \"#utility.yul\":6702:6703   */\n      0x00\n        /* \"#utility.yul\":6695:6783   */\n      mstore\n        /* \"#utility.yul\":6802:6806   */\n      0x41\n        /* \"#utility.yul\":6799:6800   */\n      0x04\n        /* \"#utility.yul\":6792:6807   */\n      mstore\n        /* \"#utility.yul\":6826:6830   */\n      0x24\n        /* \"#utility.yul\":6823:6824   */\n      0x00\n        /* \"#utility.yul\":6816:6831   */\n      revert\n        /* \"#utility.yul\":6843:7124   */\n    tag_256:\n        /* \"#utility.yul\":6926:6953   */\n      tag_414\n        /* \"#utility.yul\":6948:6952   */\n      dup3\n        /* \"#utility.yul\":6926:6953   */\n      tag_247\n      jump\t// in\n    tag_414:\n        /* \"#utility.yul\":6918:6924   */\n      dup2\n        /* \"#utility.yul\":6914:6954   */\n      add\n        /* \"#utility.yul\":7056:7062   */\n      dup2\n        /* \"#utility.yul\":7044:7054   */\n      dup2\n        /* \"#utility.yul\":7041:7063   */\n      lt\n        /* \"#utility.yul\":7020:7038   */\n      0xffffffffffffffff\n        /* \"#utility.yul\":7008:7018   */\n      dup3\n        /* \"#utility.yul\":7005:7039   */\n      gt\n        /* \"#utility.yul\":7002:7064   */\n      or\n        /* \"#utility.yul\":6999:7087   */\n      iszero\n      tag_415\n      jumpi\n        /* \"#utility.yul\":7067:7085   */\n      tag_416\n      tag_61\n      jump\t// in\n    tag_416:\n        /* \"#utility.yul\":6999:7087   */\n    tag_415:\n        /* \"#utility.yul\":7107:7117   */\n      dup1\n        /* \"#utility.yul\":7103:7105   */\n      0x40\n        /* \"#utility.yul\":7096:7118   */\n      mstore\n        /* \"#utility.yul\":6886:7124   */\n      pop\n        /* \"#utility.yul\":6843:7124   */\n      pop\n      pop\n      jump\t// out\n        /* \"#utility.yul\":7130:7259   */\n    tag_257:\n        /* \"#utility.yul\":7164:7170   */\n      0x00\n        /* \"#utility.yul\":7191:7211   */\n      tag_418\n      tag_227\n      jump\t// in\n    tag_418:\n        /* \"#utility.yul\":7181:7211   */\n      swap1\n      pop\n        /* \"#utility.yul\":7220:7253   */\n      tag_419\n        /* \"#utility.yul\":7248:7252   */\n      dup3\n        /* \"#utility.yul\":7240:7246   */\n      dup3\n        /* \"#utility.yul\":7220:7253   */\n      tag_256\n      jump\t// in\n    tag_419:\n        /* \"#utility.yul\":7130:7259   */\n      swap2\n      swap1\n      pop\n      jump\t// out\n        /* \"#utility.yul\":7265:7573   */\n    tag_258:\n        /* \"#utility.yul\":7327:7331   */\n      0x00\n        /* \"#utility.yul\":7417:7435   */\n      0xffffffffffffffff\n        /* \"#utility.yul\":7409:7415   */\n      dup3\n        /* \"#utility.yul\":7406:7436   */\n      gt\n        /* \"#utility.yul\":7403:7459   */\n      iszero\n      tag_421\n      jumpi\n        /* \"#utility.yul\":7439:7457   */\n      tag_422\n      tag_61\n      jump\t// in\n    tag_422:\n        /* \"#utility.yul\":7403:7459   */\n    tag_421:\n        /* \"#utility.yul\":7477:7506   */\n      tag_423\n        /* \"#utility.yul\":7499:7505   */\n      dup3\n        /* \"#utility.yul\":7477:7506   */\n      tag_247\n      jump\t// in\n    tag_423:\n        /* \"#utility.yul\":7469:7506   */\n      swap1\n      pop\n        /* \"#utility.yul\":7561:7565   */\n      0x20\n        /* \"#utility.yul\":7555:7559   */\n      dup2\n        /* \"#utility.yul\":7551:7566   */\n      add\n        /* \"#utility.yul\":7543:7566   */\n      swap1\n      pop\n        /* \"#utility.yul\":7265:7573   */\n      swap2\n      swap1\n      pop\n      jump\t// out\n        /* \"#utility.yul\":7579:7727   */\n    tag_259:\n        /* \"#utility.yul\":7677:7683   */\n      dup3\n        /* \"#utility.yul\":7672:7675   */\n      dup2\n        /* \"#utility.yul\":7667:7670   */\n      dup4\n        /* \"#utility.yul\":7654:7684   */\n      calldatacopy\n        /* \"#utility.yul\":7718:7719   */\n      0x00\n        /* \"#utility.yul\":7709:7715   */\n      dup4\n        /* \"#utility.yul\":7704:7707   */\n      dup4\n        /* \"#utility.yul\":7700:7716   */\n      add\n        /* \"#utility.yul\":7693:7720   */\n      mstore\n        /* \"#utility.yul\":7579:7727   */\n      pop\n      pop\n      pop\n      jump\t// out\n        /* \"#utility.yul\":7733:8158   */\n    tag_260:\n        /* \"#utility.yul\":7811:7816   */\n      0x00\n        /* \"#utility.yul\":7836:7902   */\n      tag_426\n        /* \"#utility.yul\":7852:7901   */\n      tag_427\n        /* \"#utility.yul\":7894:7900   */\n      dup5\n        /* \"#utility.yul\":7852:7901   */\n      tag_258\n      jump\t// in\n    tag_427:\n        /* \"#utility.yul\":7836:7902   */\n      tag_257\n      jump\t// in\n    tag_426:\n        /* \"#utility.yul\":7827:7902   */\n      swap1\n      pop\n        /* \"#utility.yul\":7925:7931   */\n      dup3\n        /* \"#utility.yul\":7918:7923   */\n      dup2\n        /* \"#utility.yul\":7911:7932   */\n      mstore\n        /* \"#utility.yul\":7963:7967   */\n      0x20\n        /* \"#utility.yul\":7956:7961   */\n      dup2\n        /* \"#utility.yul\":7952:7968   */\n      add\n        /* \"#utility.yul\":8001:8004   */\n      dup5\n        /* \"#utility.yul\":7992:7998   */\n      dup5\n        /* \"#utility.yul\":7987:7990   */\n      dup5\n        /* \"#utility.yul\":7983:7999   */\n      add\n        /* \"#utility.yul\":7980:8005   */\n      gt\n        /* \"#utility.yul\":7977:8089   */\n      iszero\n      tag_428\n      jumpi\n        /* \"#utility.yul\":8008:8087   */\n      tag_429\n      tag_255\n      jump\t// in\n    tag_429:\n        /* \"#utility.yul\":7977:8089   */\n    tag_428:\n        /* \"#utility.yul\":8098:8152   */\n      tag_430\n        /* \"#utility.yul\":8145:8151   */\n      dup5\n        /* \"#utility.yul\":8140:8143   */\n      dup3\n        /* \"#utility.yul\":8135:8138   */\n      dup6\n        /* \"#utility.yul\":8098:8152   */\n      tag_259\n      jump\t// in\n    tag_430:\n        /* \"#utility.yul\":7817:8158   */\n      pop\n        /* \"#utility.yul\":7733:8158   */\n      swap4\n      swap3\n      pop\n      pop\n      pop\n      jump\t// out\n        /* \"#utility.yul\":8178:8518   */\n    tag_261:\n        /* \"#utility.yul\":8234:8239   */\n      0x00\n        /* \"#utility.yul\":8283:8286   */\n      dup3\n        /* \"#utility.yul\":8276:8280   */\n      0x1f\n        /* \"#utility.yul\":8268:8274   */\n      dup4\n        /* \"#utility.yul\":8264:8281   */\n      add\n        /* \"#utility.yul\":8260:8287   */\n      slt\n        /* \"#utility.yul\":8250:8372   */\n      tag_432\n      jumpi\n        /* \"#utility.yul\":8291:8370   */\n      tag_433\n      tag_254\n      jump\t// in\n    tag_433:\n        /* \"#utility.yul\":8250:8372   */\n    tag_432:\n        /* \"#utility.yul\":8408:8414   */\n      dup2\n        /* \"#utility.yul\":8395:8415   */\n      calldataload\n        /* \"#utility.yul\":8433:8512   */\n      tag_434\n        /* \"#utility.yul\":8508:8511   */\n      dup5\n        /* \"#utility.yul\":8500:8506   */\n      dup3\n        /* \"#utility.yul\":8493:8497   */\n      0x20\n        /* \"#utility.yul\":8485:8491   */\n      dup7\n        /* \"#utility.yul\":8481:8498   */\n      add\n        /* \"#utility.yul\":8433:8512   */\n      tag_260\n      jump\t// in\n    tag_434:\n        /* \"#utility.yul\":8424:8512   */\n      swap2\n      pop\n        /* \"#utility.yul\":8240:8518   */\n      pop\n        /* \"#utility.yul\":8178:8518   */\n      swap3\n      swap2\n      pop\n      pop\n      jump\t// out\n        /* \"#utility.yul\":8524:9358   */\n    tag_44:\n        /* \"#utility.yul\":8612:8618   */\n      0x00\n        /* \"#utility.yul\":8620:8626   */\n      dup1\n        /* \"#utility.yul\":8669:8671   */\n      0x40\n        /* \"#utility.yul\":8657:8666   */\n      dup4\n        /* \"#utility.yul\":8648:8655   */\n      dup6\n        /* \"#utility.yul\":8644:8667   */\n      sub\n        /* \"#utility.yul\":8640:8672   */\n      slt\n        /* \"#utility.yul\":8637:8756   */\n      iszero\n      tag_436\n      jumpi\n        /* \"#utility.yul\":8675:8754   */\n      tag_437\n      tag_228\n      jump\t// in\n    tag_437:\n        /* \"#utility.yul\":8637:8756   */\n    tag_436:\n        /* \"#utility.yul\":8823:8824   */\n      0x00\n        /* \"#utility.yul\":8812:8821   */\n      dup4\n        /* \"#utility.yul\":8808:8825   */\n      add\n        /* \"#utility.yul\":8795:8826   */\n      calldataload\n        /* \"#utility.yul\":8853:8871   */\n      0xffffffffffffffff\n        /* \"#utility.yul\":8845:8851   */\n      dup2\n        /* \"#utility.yul\":8842:8872   */\n      gt\n        /* \"#utility.yul\":8839:8956   */\n      iszero\n      tag_438\n      jumpi\n        /* \"#utility.yul\":8875:8954   */\n      tag_439\n      tag_229\n      jump\t// in\n    tag_439:\n        /* \"#utility.yul\":8839:8956   */\n    tag_438:\n        /* \"#utility.yul\":8980:9043   */\n      tag_440\n        /* \"#utility.yul\":9035:9042   */\n      dup6\n        /* \"#utility.yul\":9026:9032   */\n      dup3\n        /* \"#utility.yul\":9015:9024   */\n      dup7\n        /* \"#utility.yul\":9011:9033   */\n      add\n        /* \"#utility.yul\":8980:9043   */\n      tag_261\n      jump\t// in\n    tag_440:\n        /* \"#utility.yul\":8970:9043   */\n      swap3\n      pop\n        /* \"#utility.yul\":8766:9053   */\n      pop\n        /* \"#utility.yul\":9120:9122   */\n      0x20\n        /* \"#utility.yul\":9109:9118   */\n      dup4\n        /* \"#utility.yul\":9105:9123   */\n      add\n        /* \"#utility.yul\":9092:9124   */\n      calldataload\n        /* \"#utility.yul\":9151:9169   */\n      0xffffffffffffffff\n        /* \"#utility.yul\":9143:9149   */\n      dup2\n        /* \"#utility.yul\":9140:9170   */\n      gt\n        /* \"#utility.yul\":9137:9254   */\n      iszero\n      tag_441\n      jumpi\n        /* \"#utility.yul\":9173:9252   */\n      tag_442\n      tag_229\n      jump\t// in\n    tag_442:\n        /* \"#utility.yul\":9137:9254   */\n    tag_441:\n        /* \"#utility.yul\":9278:9341   */\n      tag_443\n        /* \"#utility.yul\":9333:9340   */\n      dup6\n        /* \"#utility.yul\":9324:9330   */\n      dup3\n        /* \"#utility.yul\":9313:9322   */\n      dup7\n        /* \"#utility.yul\":9309:9331   */\n      add\n        /* \"#utility.yul\":9278:9341   */\n      tag_261\n      jump\t// in\n    tag_443:\n        /* \"#utility.yul\":9268:9341   */\n      swap2\n      pop\n        /* \"#utility.yul\":9063:9351   */\n      pop\n        /* \"#utility.yul\":8524:9358   */\n      swap3\n      pop\n      swap3\n      swap1\n      pop\n      jump\t// out\n        /* \"#utility.yul\":9364:9873   */\n    tag_48:\n        /* \"#utility.yul\":9433:9439   */\n      0x00\n        /* \"#utility.yul\":9482:9484   */\n      0x20\n        /* \"#utility.yul\":9470:9479   */\n      dup3\n        /* \"#utility.yul\":9461:9468   */\n      dup5\n        /* \"#utility.yul\":9457:9480   */\n      sub\n        /* \"#utility.yul\":9453:9485   */\n      slt\n        /* \"#utility.yul\":9450:9569   */\n      iszero\n      tag_445\n      jumpi\n        /* \"#utility.yul\":9488:9567   */\n      tag_446\n      tag_228\n      jump\t// in\n    tag_446:\n        /* \"#utility.yul\":9450:9569   */\n    tag_445:\n        /* \"#utility.yul\":9636:9637   */\n      0x00\n        /* \"#utility.yul\":9625:9634   */\n      dup3\n        /* \"#utility.yul\":9621:9638   */\n      add\n        /* \"#utility.yul\":9608:9639   */\n      calldataload\n        /* \"#utility.yul\":9666:9684   */\n      0xffffffffffffffff\n        /* \"#utility.yul\":9658:9664   */\n      dup2\n        /* \"#utility.yul\":9655:9685   */\n      gt\n        /* \"#utility.yul\":9652:9769   */\n      iszero\n      tag_447\n      jumpi\n        /* \"#utility.yul\":9688:9767   */\n      tag_448\n      tag_229\n      jump\t// in\n    tag_448:\n        /* \"#utility.yul\":9652:9769   */\n    tag_447:\n        /* \"#utility.yul\":9793:9856   */\n      tag_449\n        /* \"#utility.yul\":9848:9855   */\n      dup5\n        /* \"#utility.yul\":9839:9845   */\n      dup3\n        /* \"#utility.yul\":9828:9837   */\n      dup6\n        /* \"#utility.yul\":9824:9846   */\n      add\n        /* \"#utility.yul\":9793:9856   */\n      tag_261\n      jump\t// in\n    tag_449:\n        /* \"#utility.yul\":9783:9856   */\n      swap2\n      pop\n        /* \"#utility.yul\":9579:9866   */\n      pop\n        /* \"#utility.yul\":9364:9873   */\n      swap3\n      swap2\n      pop\n      pop\n      jump\t// out\n        /* \"#utility.yul\":9879:9972   */\n    tag_262:\n        /* \"#utility.yul\":9915:9922   */\n      0x00\n        /* \"#utility.yul\":9955:9965   */\n      0xffffffff\n        /* \"#utility.yul\":9948:9953   */\n      dup3\n        /* \"#utility.yul\":9944:9966   */\n      and\n        /* \"#utility.yul\":9933:9966   */\n      swap1\n      pop\n        /* \"#utility.yul\":9879:9972   */\n      swap2\n      swap1\n      pop\n      jump\t// out\n        /* \"#utility.yul\":9978:10093   */\n    tag_263:\n        /* \"#utility.yul\":10063:10086   */\n      tag_452\n        /* \"#utility.yul\":10080:10085   */\n      dup2\n        /* \"#utility.yul\":10063:10086   */\n      tag_262\n      jump\t// in\n    tag_452:\n        /* \"#utility.yul\":10058:10061   */\n      dup3\n        /* \"#utility.yul\":10051:10087   */\n      mstore\n        /* \"#utility.yul\":9978:10093   */\n      pop\n      pop\n      jump\t// out\n        /* \"#utility.yul\":10099:10204   */\n    tag_264:\n        /* \"#utility.yul\":10174:10197   */\n      tag_454\n        /* \"#utility.yul\":10191:10196   */\n      dup2\n        /* \"#utility.yul\":10174:10197   */\n      tag_262\n      jump\t// in\n    tag_454:\n        /* \"#utility.yul\":10169:10172   */\n      dup3\n        /* \"#utility.yul\":10162:10198   */\n      mstore\n        /* \"#utility.yul\":10099:10204   */\n      pop\n      pop\n      jump\t// out\n        /* \"#utility.yul\":10210:10312   */\n    tag_265:\n        /* \"#utility.yul\":10283:10305   */\n      tag_456\n        /* \"#utility.yul\":10299:10304   */\n      dup2\n        /* \"#utility.yul\":10283:10305   */\n      tag_249\n      jump\t// in\n    tag_456:\n        /* \"#utility.yul\":10278:10281   */\n      dup3\n        /* \"#utility.yul\":10271:10306   */\n      mstore\n        /* \"#utility.yul\":10210:10312   */\n      pop\n      pop\n      jump\t// out\n        /* \"#utility.yul\":10382:11229   */\n    tag_266:\n        /* \"#utility.yul\":10523:10527   */\n      0x80\n        /* \"#utility.yul\":10518:10521   */\n      dup3\n        /* \"#utility.yul\":10514:10528   */\n      add\n        /* \"#utility.yul\":10612:10616   */\n      0x00\n        /* \"#utility.yul\":10605:10610   */\n      dup3\n        /* \"#utility.yul\":10601:10617   */\n      add\n        /* \"#utility.yul\":10595:10618   */\n      mload\n        /* \"#utility.yul\":10631:10692   */\n      tag_458\n        /* \"#utility.yul\":10686:10690   */\n      0x00\n        /* \"#utility.yul\":10681:10684   */\n      dup6\n        /* \"#utility.yul\":10677:10691   */\n      add\n        /* \"#utility.yul\":10663:10675   */\n      dup3\n        /* \"#utility.yul\":10631:10692   */\n      tag_264\n      jump\t// in\n    tag_458:\n        /* \"#utility.yul\":10538:10702   */\n      pop\n        /* \"#utility.yul\":10786:10790   */\n      0x20\n        /* \"#utility.yul\":10779:10784   */\n      dup3\n        /* \"#utility.yul\":10775:10791   */\n      add\n        /* \"#utility.yul\":10769:10792   */\n      mload\n        /* \"#utility.yul\":10805:10866   */\n      tag_459\n        /* \"#utility.yul\":10860:10864   */\n      0x20\n        /* \"#utility.yul\":10855:10858   */\n      dup6\n        /* \"#utility.yul\":10851:10865   */\n      add\n        /* \"#utility.yul\":10837:10849   */\n      dup3\n        /* \"#utility.yul\":10805:10866   */\n      tag_264\n      jump\t// in\n    tag_459:\n        /* \"#utility.yul\":10712:10876   */\n      pop\n        /* \"#utility.yul\":10960:10964   */\n      0x40\n        /* \"#utility.yul\":10953:10958   */\n      dup3\n        /* \"#utility.yul\":10949:10965   */\n      add\n        /* \"#utility.yul\":10943:10966   */\n      mload\n        /* \"#utility.yul\":10979:11040   */\n      tag_460\n        /* \"#utility.yul\":11034:11038   */\n      0x40\n        /* \"#utility.yul\":11029:11032   */\n      dup6\n        /* \"#utility.yul\":11025:11039   */\n      add\n        /* \"#utility.yul\":11011:11023   */\n      dup3\n        /* \"#utility.yul\":10979:11040   */\n      tag_264\n      jump\t// in\n    tag_460:\n        /* \"#utility.yul\":10886:11050   */\n      pop\n        /* \"#utility.yul\":11134:11138   */\n      0x60\n        /* \"#utility.yul\":11127:11132   */\n      dup3\n        /* \"#utility.yul\":11123:11139   */\n      add\n        /* \"#utility.yul\":11117:11140   */\n      mload\n        /* \"#utility.yul\":11153:11212   */\n      tag_461\n        /* \"#utility.yul\":11206:11210   */\n      0x60\n        /* \"#utility.yul\":11201:11204   */\n      dup6\n        /* \"#utility.yul\":11197:11211   */\n      add\n        /* \"#utility.yul\":11183:11195   */\n      dup3\n        /* \"#utility.yul\":11153:11212   */\n      tag_265\n      jump\t// in\n    tag_461:\n        /* \"#utility.yul\":11060:11222   */\n      pop\n        /* \"#utility.yul\":10492:11229   */\n      pop\n        /* \"#utility.yul\":10382:11229   */\n      pop\n      pop\n      jump\t// out\n        /* \"#utility.yul\":11235:11394   */\n    tag_267:\n        /* \"#utility.yul\":11309:11320   */\n      0x00\n        /* \"#utility.yul\":11343:11349   */\n      dup3\n        /* \"#utility.yul\":11338:11341   */\n      dup3\n        /* \"#utility.yul\":11331:11350   */\n      mstore\n        /* \"#utility.yul\":11383:11387   */\n      0x20\n        /* \"#utility.yul\":11378:11381   */\n      dup3\n        /* \"#utility.yul\":11374:11388   */\n      add\n        /* \"#utility.yul\":11359:11388   */\n      swap1\n      pop\n        /* \"#utility.yul\":11235:11394   */\n      swap3\n      swap2\n      pop\n      pop\n      jump\t// out\n        /* \"#utility.yul\":11400:11757   */\n    tag_268:\n        /* \"#utility.yul\":11478:11481   */\n      0x00\n        /* \"#utility.yul\":11506:11545   */\n      tag_464\n        /* \"#utility.yul\":11539:11544   */\n      dup3\n        /* \"#utility.yul\":11506:11545   */\n      tag_244\n      jump\t// in\n    tag_464:\n        /* \"#utility.yul\":11561:11622   */\n      tag_465\n        /* \"#utility.yul\":11615:11621   */\n      dup2\n        /* \"#utility.yul\":11610:11613   */\n      dup6\n        /* \"#utility.yul\":11561:11622   */\n      tag_267\n      jump\t// in\n    tag_465:\n        /* \"#utility.yul\":11554:11622   */\n      swap4\n      pop\n        /* \"#utility.yul\":11631:11696   */\n      tag_466\n        /* \"#utility.yul\":11689:11695   */\n      dup2\n        /* \"#utility.yul\":11684:11687   */\n      dup6\n        /* \"#utility.yul\":11677:11681   */\n      0x20\n        /* \"#utility.yul\":11670:11675   */\n      dup7\n        /* \"#utility.yul\":11666:11682   */\n      add\n        /* \"#utility.yul\":11631:11696   */\n      tag_246\n      jump\t// in\n    tag_466:\n        /* \"#utility.yul\":11721:11750   */\n      tag_467\n        /* \"#utility.yul\":11743:11749   */\n      dup2\n        /* \"#utility.yul\":11721:11750   */\n      tag_247\n      jump\t// in\n    tag_467:\n        /* \"#utility.yul\":11716:11719   */\n      dup5\n        /* \"#utility.yul\":11712:11751   */\n      add\n        /* \"#utility.yul\":11705:11751   */\n      swap2\n      pop\n        /* \"#utility.yul\":11482:11757   */\n      pop\n        /* \"#utility.yul\":11400:11757   */\n      swap3\n      swap2\n      pop\n      pop\n      jump\t// out\n        /* \"#utility.yul\":11829:12776   */\n    tag_269:\n        /* \"#utility.yul\":11944:11947   */\n      0x00\n        /* \"#utility.yul\":11980:11984   */\n      0x80\n        /* \"#utility.yul\":11975:11978   */\n      dup4\n        /* \"#utility.yul\":11971:11985   */\n      add\n        /* \"#utility.yul\":12067:12071   */\n      0x00\n        /* \"#utility.yul\":12060:12065   */\n      dup4\n        /* \"#utility.yul\":12056:12072   */\n      add\n        /* \"#utility.yul\":12050:12073   */\n      mload\n        /* \"#utility.yul\":12120:12123   */\n      dup5\n        /* \"#utility.yul\":12114:12118   */\n      dup3\n        /* \"#utility.yul\":12110:12124   */\n      sub\n        /* \"#utility.yul\":12103:12107   */\n      0x00\n        /* \"#utility.yul\":12098:12101   */\n      dup7\n        /* \"#utility.yul\":12094:12108   */\n      add\n        /* \"#utility.yul\":12087:12125   */\n      mstore\n        /* \"#utility.yul\":12146:12219   */\n      tag_469\n        /* \"#utility.yul\":12214:12218   */\n      dup3\n        /* \"#utility.yul\":12200:12212   */\n      dup3\n        /* \"#utility.yul\":12146:12219   */\n      tag_268\n      jump\t// in\n    tag_469:\n        /* \"#utility.yul\":12138:12219   */\n      swap2\n      pop\n        /* \"#utility.yul\":11995:12230   */\n      pop\n        /* \"#utility.yul\":12313:12317   */\n      0x20\n        /* \"#utility.yul\":12306:12311   */\n      dup4\n        /* \"#utility.yul\":12302:12318   */\n      add\n        /* \"#utility.yul\":12296:12319   */\n      mload\n        /* \"#utility.yul\":12332:12391   */\n      tag_470\n        /* \"#utility.yul\":12385:12389   */\n      0x20\n        /* \"#utility.yul\":12380:12383   */\n      dup7\n        /* \"#utility.yul\":12376:12390   */\n      add\n        /* \"#utility.yul\":12362:12374   */\n      dup3\n        /* \"#utility.yul\":12332:12391   */\n      tag_265\n      jump\t// in\n    tag_470:\n        /* \"#utility.yul\":12240:12401   */\n      pop\n        /* \"#utility.yul\":12485:12489   */\n      0x40\n        /* \"#utility.yul\":12478:12483   */\n      dup4\n        /* \"#utility.yul\":12474:12490   */\n      add\n        /* \"#utility.yul\":12468:12491   */\n      mload\n        /* \"#utility.yul\":12504:12563   */\n      tag_471\n        /* \"#utility.yul\":12557:12561   */\n      0x40\n        /* \"#utility.yul\":12552:12555   */\n      dup7\n        /* \"#utility.yul\":12548:12562   */\n      add\n        /* \"#utility.yul\":12534:12546   */\n      dup3\n        /* \"#utility.yul\":12504:12563   */\n      tag_265\n      jump\t// in\n    tag_471:\n        /* \"#utility.yul\":12411:12573   */\n      pop\n        /* \"#utility.yul\":12661:12665   */\n      0x60\n        /* \"#utility.yul\":12654:12659   */\n      dup4\n        /* \"#utility.yul\":12650:12666   */\n      add\n        /* \"#utility.yul\":12644:12667   */\n      mload\n        /* \"#utility.yul\":12680:12739   */\n      tag_472\n        /* \"#utility.yul\":12733:12737   */\n      0x60\n        /* \"#utility.yul\":12728:12731   */\n      dup7\n        /* \"#utility.yul\":12724:12738   */\n      add\n        /* \"#utility.yul\":12710:12722   */\n      dup3\n        /* \"#utility.yul\":12680:12739   */\n      tag_265\n      jump\t// in\n    tag_472:\n        /* \"#utility.yul\":12583:12749   */\n      pop\n        /* \"#utility.yul\":12766:12770   */\n      dup1\n        /* \"#utility.yul\":12759:12770   */\n      swap2\n      pop\n        /* \"#utility.yul\":11949:12776   */\n      pop\n        /* \"#utility.yul\":11829:12776   */\n      swap3\n      swap2\n      pop\n      pop\n      jump\t// out\n        /* \"#utility.yul\":12782:14057   */\n    tag_57:\n        /* \"#utility.yul\":13159:13163   */\n      0x00\n        /* \"#utility.yul\":13197:13200   */\n      0x0160\n        /* \"#utility.yul\":13186:13195   */\n      dup3\n        /* \"#utility.yul\":13182:13201   */\n      add\n        /* \"#utility.yul\":13174:13201   */\n      swap1\n      pop\n        /* \"#utility.yul\":13247:13256   */\n      dup2\n        /* \"#utility.yul\":13241:13245   */\n      dup2\n        /* \"#utility.yul\":13237:13257   */\n      sub\n        /* \"#utility.yul\":13233:13234   */\n      0x00\n        /* \"#utility.yul\":13222:13231   */\n      dup4\n        /* \"#utility.yul\":13218:13235   */\n      add\n        /* \"#utility.yul\":13211:13258   */\n      mstore\n        /* \"#utility.yul\":13275:13353   */\n      tag_474\n        /* \"#utility.yul\":13348:13352   */\n      dup2\n        /* \"#utility.yul\":13339:13345   */\n      dup12\n        /* \"#utility.yul\":13275:13353   */\n      tag_248\n      jump\t// in\n    tag_474:\n        /* \"#utility.yul\":13267:13353   */\n      swap1\n      pop\n        /* \"#utility.yul\":13363:13431   */\n      tag_475\n        /* \"#utility.yul\":13427:13429   */\n      0x20\n        /* \"#utility.yul\":13416:13425   */\n      dup4\n        /* \"#utility.yul\":13412:13430   */\n      add\n        /* \"#utility.yul\":13403:13409   */\n      dup11\n        /* \"#utility.yul\":13363:13431   */\n      tag_250\n      jump\t// in\n    tag_475:\n        /* \"#utility.yul\":13441:13509   */\n      tag_476\n        /* \"#utility.yul\":13505:13507   */\n      0x40\n        /* \"#utility.yul\":13494:13503   */\n      dup4\n        /* \"#utility.yul\":13490:13508   */\n      add\n        /* \"#utility.yul\":13481:13487   */\n      dup10\n        /* \"#utility.yul\":13441:13509   */\n      tag_250\n      jump\t// in\n    tag_476:\n        /* \"#utility.yul\":13519:13589   */\n      tag_477\n        /* \"#utility.yul\":13585:13587   */\n      0x60\n        /* \"#utility.yul\":13574:13583   */\n      dup4\n        /* \"#utility.yul\":13570:13588   */\n      add\n        /* \"#utility.yul\":13561:13567   */\n      dup9\n        /* \"#utility.yul\":13519:13589   */\n      tag_263\n      jump\t// in\n    tag_477:\n        /* \"#utility.yul\":13599:13666   */\n      tag_478\n        /* \"#utility.yul\":13661:13664   */\n      0x80\n        /* \"#utility.yul\":13650:13659   */\n      dup4\n        /* \"#utility.yul\":13646:13665   */\n      add\n        /* \"#utility.yul\":13637:13643   */\n      dup8\n        /* \"#utility.yul\":13599:13666   */\n      tag_253\n      jump\t// in\n    tag_478:\n        /* \"#utility.yul\":13676:13743   */\n      tag_479\n        /* \"#utility.yul\":13738:13741   */\n      0xa0\n        /* \"#utility.yul\":13727:13736   */\n      dup4\n        /* \"#utility.yul\":13723:13742   */\n      add\n        /* \"#utility.yul\":13714:13720   */\n      dup7\n        /* \"#utility.yul\":13676:13743   */\n      tag_253\n      jump\t// in\n    tag_479:\n        /* \"#utility.yul\":13753:13870   */\n      tag_480\n        /* \"#utility.yul\":13865:13868   */\n      0xc0\n        /* \"#utility.yul\":13854:13863   */\n      dup4\n        /* \"#utility.yul\":13850:13869   */\n      add\n        /* \"#utility.yul\":13841:13847   */\n      dup6\n        /* \"#utility.yul\":13753:13870   */\n      tag_266\n      jump\t// in\n    tag_480:\n        /* \"#utility.yul\":13918:13927   */\n      dup2\n        /* \"#utility.yul\":13912:13916   */\n      dup2\n        /* \"#utility.yul\":13908:13928   */\n      sub\n        /* \"#utility.yul\":13902:13905   */\n      0x0140\n        /* \"#utility.yul\":13891:13900   */\n      dup4\n        /* \"#utility.yul\":13887:13906   */\n      add\n        /* \"#utility.yul\":13880:13929   */\n      mstore\n        /* \"#utility.yul\":13946:14050   */\n      tag_481\n        /* \"#utility.yul\":14045:14049   */\n      dup2\n        /* \"#utility.yul\":14036:14042   */\n      dup5\n        /* \"#utility.yul\":13946:14050   */\n      tag_269\n      jump\t// in\n    tag_481:\n        /* \"#utility.yul\":13938:14050   */\n      swap1\n      pop\n        /* \"#utility.yul\":12782:14057   */\n      swap10\n      swap9\n      pop\n      pop\n      pop\n      pop\n      pop\n      pop\n      pop\n      pop\n      pop\n      jump\t// out\n        /* \"#utility.yul\":14063:14243   */\n    tag_69:\n        /* \"#utility.yul\":14111:14188   */\n      0x4e487b7100000000000000000000000000000000000000000000000000000000\n        /* \"#utility.yul\":14108:14109   */\n      0x00\n        /* \"#utility.yul\":14101:14189   */\n      mstore\n        /* \"#utility.yul\":14208:14212   */\n      0x32\n        /* \"#utility.yul\":14205:14206   */\n      0x04\n        /* \"#utility.yul\":14198:14213   */\n      mstore\n        /* \"#utility.yul\":14232:14236   */\n      0x24\n        /* \"#utility.yul\":14229:14230   */\n      0x00\n        /* \"#utility.yul\":14222:14237   */\n      revert\n        /* \"#utility.yul\":14249:14429   */\n    tag_270:\n        /* \"#utility.yul\":14297:14374   */\n      0x4e487b7100000000000000000000000000000000000000000000000000000000\n        /* \"#utility.yul\":14294:14295   */\n      0x00\n        /* \"#utility.yul\":14287:14375   */\n      mstore\n        /* \"#utility.yul\":14394:14398   */\n      0x11\n        /* \"#utility.yul\":14391:14392   */\n      0x04\n        /* \"#utility.yul\":14384:14399   */\n      mstore\n        /* \"#utility.yul\":14418:14422   */\n      0x24\n        /* \"#utility.yul\":14415:14416   */\n      0x00\n        /* \"#utility.yul\":14408:14423   */\n      revert\n        /* \"#utility.yul\":14435:14668   */\n    tag_71:\n        /* \"#utility.yul\":14474:14477   */\n      0x00\n        /* \"#utility.yul\":14497:14521   */\n      tag_485\n        /* \"#utility.yul\":14515:14520   */\n      dup3\n        /* \"#utility.yul\":14497:14521   */\n      tag_237\n      jump\t// in\n    tag_485:\n        /* \"#utility.yul\":14488:14521   */\n      swap2\n      pop\n        /* \"#utility.yul\":14543:14609   */\n      0xffffffffffffffffffffffffffffffffffffffffffffffffffffffffffffffff\n        /* \"#utility.yul\":14536:14541   */\n      dup3\n        /* \"#utility.yul\":14533:14610   */\n      sub\n        /* \"#utility.yul\":14530:14633   */\n      tag_486\n      jumpi\n        /* \"#utility.yul\":14613:14631   */\n      tag_487\n      tag_270\n      jump\t// in\n    tag_487:\n        /* \"#utility.yul\":14530:14633   */\n    tag_486:\n        /* \"#utility.yul\":14660:14661   */\n      0x01\n        /* \"#utility.yul\":14653:14658   */\n      dup3\n        /* \"#utility.yul\":14649:14662   */\n      add\n        /* \"#utility.yul\":14642:14662   */\n      swap1\n      pop\n        /* \"#utility.yul\":14435:14668   */\n      swap2\n      swap1\n      pop\n      jump\t// out\n        /* \"#utility.yul\":14674:14854   */\n    tag_271:\n        /* \"#utility.yul\":14722:14799   */\n      0x4e487b7100000000000000000000000000000000000000000000000000000000\n        /* \"#utility.yul\":14719:14720   */\n      0x00\n        /* \"#utility.yul\":14712:14800   */\n      mstore\n        /* \"#utility.yul\":14819:14823   */\n      0x22\n        /* \"#utility.yul\":14816:14817   */\n      0x04\n        /* \"#utility.yul\":14809:14824   */\n      mstore\n        /* \"#utility.yul\":14843:14847   */\n      0x24\n        /* \"#utility.yul\":14840:14841   */\n      0x00\n        /* \"#utility.yul\":14833:14848   */\n      revert\n        /* \"#utility.yul\":14860:15180   */\n    tag_75:\n        /* \"#utility.yul\":14904:14910   */\n      0x00\n        /* \"#utility.yul\":14941:14942   */\n      0x02\n        /* \"#utility.yul\":14935:14939   */\n      dup3\n        /* \"#utility.yul\":14931:14943   */\n      div\n        /* \"#utility.yul\":14921:14943   */\n      swap1\n      pop\n        /* \"#utility.yul\":14988:14989   */\n      0x01\n        /* \"#utility.yul\":14982:14986   */\n      dup3\n        /* \"#utility.yul\":14978:14990   */\n      and\n        /* \"#utility.yul\":15009:15027   */\n      dup1\n        /* \"#utility.yul\":14999:15080   */\n      tag_490\n      jumpi\n        /* \"#utility.yul\":15065:15069   */\n      0x7f\n        /* \"#utility.yul\":15057:15063   */\n      dup3\n        /* \"#utility.yul\":15053:15070   */\n      and\n        /* \"#utility.yul\":15043:15070   */\n      swap2\n      pop\n        /* \"#utility.yul\":14999:15080   */\n    tag_490:\n        /* \"#utility.yul\":15127:15129   */\n      0x20\n        /* \"#utility.yul\":15119:15125   */\n      dup3\n        /* \"#utility.yul\":15116:15130   */\n      lt\n        /* \"#utility.yul\":15096:15114   */\n      dup2\n        /* \"#utility.yul\":15093:15131   */\n      sub\n        /* \"#utility.yul\":15090:15174   */\n      tag_491\n      jumpi\n        /* \"#utility.yul\":15146:15164   */\n      tag_492\n      tag_271\n      jump\t// in\n    tag_492:\n        /* \"#utility.yul\":15090:15174   */\n    tag_491:\n        /* \"#utility.yul\":14911:15180   */\n      pop\n        /* \"#utility.yul\":14860:15180   */\n      swap2\n      swap1\n      pop\n      jump\t// out\n        /* \"#utility.yul\":15186:15383   */\n    tag_103:\n        /* \"#utility.yul\":15225:15228   */\n      0x00\n        /* \"#utility.yul\":15244:15263   */\n      tag_494\n        /* \"#utility.yul\":15261:15262   */\n      dup3\n        /* \"#utility.yul\":15244:15263   */\n      tag_262\n      jump\t// in\n    tag_494:\n        /* \"#utility.yul\":15239:15263   */\n      swap2\n      pop\n        /* \"#utility.yul\":15277:15296   */\n      tag_495\n        /* \"#utility.yul\":15294:15295   */\n      dup4\n        /* \"#utility.yul\":15277:15296   */\n      tag_262\n      jump\t// in\n    tag_495:\n        /* \"#utility.yul\":15272:15296   */\n      swap3\n      pop\n        /* \"#utility.yul\":15319:15320   */\n      dup3\n        /* \"#utility.yul\":15316:15317   */\n      dup3\n        /* \"#utility.yul\":15312:15321   */\n      add\n        /* \"#utility.yul\":15305:15321   */\n      swap1\n      pop\n        /* \"#utility.yul\":15342:15352   */\n      0xffffffff\n        /* \"#utility.yul\":15337:15340   */\n      dup2\n        /* \"#utility.yul\":15334:15353   */\n      gt\n        /* \"#utility.yul\":15331:15376   */\n      iszero\n      tag_496\n      jumpi\n        /* \"#utility.yul\":15356:15374   */\n      tag_497\n      tag_270\n      jump\t// in\n    tag_497:\n        /* \"#utility.yul\":15331:15376   */\n    tag_496:\n        /* \"#utility.yul\":15186:15383   */\n      swap3\n      swap2\n      pop\n      pop\n      jump\t// out\n        /* \"#utility.yul\":15389:15549   */\n    tag_272:\n        /* \"#utility.yul\":15529:15541   */\n      0x566963746f727921212100000000000000000000000000000000000000000000\n        /* \"#utility.yul\":15525:15526   */\n      0x00\n        /* \"#utility.yul\":15517:15523   */\n      dup3\n        /* \"#utility.yul\":15513:15527   */\n      add\n        /* \"#utility.yul\":15506:15542   */\n      mstore\n        /* \"#utility.yul\":15389:15549   */\n      pop\n      jump\t// out\n        /* \"#utility.yul\":15555:15921   */\n    tag_273:\n        /* \"#utility.yul\":15697:15700   */\n      0x00\n        /* \"#utility.yul\":15718:15785   */\n      tag_500\n        /* \"#utility.yul\":15782:15784   */\n      0x0a\n        /* \"#utility.yul\":15777:15780   */\n      dup4\n        /* \"#utility.yul\":15718:15785   */\n      tag_245\n      jump\t// in\n    tag_500:\n        /* \"#utility.yul\":15711:15785   */\n      swap2\n      pop\n        /* \"#utility.yul\":15794:15887   */\n      tag_501\n        /* \"#utility.yul\":15883:15886   */\n      dup3\n        /* \"#utility.yul\":15794:15887   */\n      tag_272\n      jump\t// in\n    tag_501:\n        /* \"#utility.yul\":15912:15914   */\n      0x20\n        /* \"#utility.yul\":15907:15910   */\n      dup3\n        /* \"#utility.yul\":15903:15915   */\n      add\n        /* \"#utility.yul\":15896:15915   */\n      swap1\n      pop\n        /* \"#utility.yul\":15555:15921   */\n      swap2\n      swap1\n      pop\n      jump\t// out\n        /* \"#utility.yul\":15927:15987   */\n    tag_274:\n        /* \"#utility.yul\":15955:15958   */\n      0x00\n        /* \"#utility.yul\":15976:15981   */\n      dup2\n        /* \"#utility.yul\":15969:15981   */\n      swap1\n      pop\n        /* \"#utility.yul\":15927:15987   */\n      swap2\n      swap1\n      pop\n      jump\t// out\n        /* \"#utility.yul\":15993:16133   */\n    tag_275:\n        /* \"#utility.yul\":16042:16051   */\n      0x00\n        /* \"#utility.yul\":16075:16127   */\n      tag_504\n        /* \"#utility.yul\":16093:16126   */\n      tag_505\n        /* \"#utility.yul\":16102:16125   */\n      tag_506\n        /* \"#utility.yul\":16119:16124   */\n      dup5\n        /* \"#utility.yul\":16102:16125   */\n      tag_262\n      jump\t// in\n    tag_506:\n        /* \"#utility.yul\":16093:16126   */\n      tag_274\n      jump\t// in\n    tag_505:\n        /* \"#utility.yul\":16075:16127   */\n      tag_237\n      jump\t// in\n    tag_504:\n        /* \"#utility.yul\":16062:16127   */\n      swap1\n      pop\n        /* \"#utility.yul\":15993:16133   */\n      swap2\n      swap1\n      pop\n      jump\t// out\n        /* \"#utility.yul\":16139:16268   */\n    tag_276:\n        /* \"#utility.yul\":16225:16261   */\n      tag_508\n        /* \"#utility.yul\":16255:16260   */\n      dup2\n        /* \"#utility.yul\":16225:16261   */\n      tag_275\n      jump\t// in\n    tag_508:\n        /* \"#utility.yul\":16220:16223   */\n      dup3\n        /* \"#utility.yul\":16213:16262   */\n      mstore\n        /* \"#utility.yul\":16139:16268   */\n      pop\n      pop\n      jump\t// out\n        /* \"#utility.yul\":16274:16392   */\n    tag_277:\n        /* \"#utility.yul\":16361:16385   */\n      tag_510\n        /* \"#utility.yul\":16379:16384   */\n      dup2\n        /* \"#utility.yul\":16361:16385   */\n      tag_237\n      jump\t// in\n    tag_510:\n        /* \"#utility.yul\":16356:16359   */\n      dup3\n        /* \"#utility.yul\":16349:16386   */\n      mstore\n        /* \"#utility.yul\":16274:16392   */\n      pop\n      pop\n      jump\t// out\n        /* \"#utility.yul\":16398:17035   */\n    tag_107:\n        /* \"#utility.yul\":16619:16623   */\n      0x00\n        /* \"#utility.yul\":16657:16659   */\n      0x60\n        /* \"#utility.yul\":16646:16655   */\n      dup3\n        /* \"#utility.yul\":16642:16660   */\n      add\n        /* \"#utility.yul\":16634:16660   */\n      swap1\n      pop\n        /* \"#utility.yul\":16706:16715   */\n      dup2\n        /* \"#utility.yul\":16700:16704   */\n      dup2\n        /* \"#utility.yul\":16696:16716   */\n      sub\n        /* \"#utility.yul\":16692:16693   */\n      0x00\n        /* \"#utility.yul\":16681:16690   */\n      dup4\n        /* \"#utility.yul\":16677:16694   */\n      add\n        /* \"#utility.yul\":16670:16717   */\n      mstore\n        /* \"#utility.yul\":16734:16865   */\n      tag_512\n        /* \"#utility.yul\":16860:16864   */\n      dup2\n        /* \"#utility.yul\":16734:16865   */\n      tag_273\n      jump\t// in\n    tag_512:\n        /* \"#utility.yul\":16726:16865   */\n      swap1\n      pop\n        /* \"#utility.yul\":16875:16946   */\n      tag_513\n        /* \"#utility.yul\":16942:16944   */\n      0x20\n        /* \"#utility.yul\":16931:16940   */\n      dup4\n        /* \"#utility.yul\":16927:16945   */\n      add\n        /* \"#utility.yul\":16918:16924   */\n      dup6\n        /* \"#utility.yul\":16875:16946   */\n      tag_276\n      jump\t// in\n    tag_513:\n        /* \"#utility.yul\":16956:17028   */\n      tag_514\n        /* \"#utility.yul\":17024:17026   */\n      0x40\n        /* \"#utility.yul\":17013:17022   */\n      dup4\n        /* \"#utility.yul\":17009:17027   */\n      add\n        /* \"#utility.yul\":17000:17006   */\n      dup5\n        /* \"#utility.yul\":16956:17028   */\n      tag_277\n      jump\t// in\n    tag_514:\n        /* \"#utility.yul\":16398:17035   */\n      swap4\n      swap3\n      pop\n      pop\n      pop\n      jump\t// out\n        /* \"#utility.yul\":17041:17216   */\n    tag_112:\n        /* \"#utility.yul\":17079:17082   */\n      0x00\n        /* \"#utility.yul\":17102:17125   */\n      tag_516\n        /* \"#utility.yul\":17119:17124   */\n      dup3\n        /* \"#utility.yul\":17102:17125   */\n      tag_262\n      jump\t// in\n    tag_516:\n        /* \"#utility.yul\":17093:17125   */\n      swap2\n      pop\n        /* \"#utility.yul\":17147:17157   */\n      0xffffffff\n        /* \"#utility.yul\":17140:17145   */\n      dup3\n        /* \"#utility.yul\":17137:17158   */\n      sub\n        /* \"#utility.yul\":17134:17181   */\n      tag_517\n      jumpi\n        /* \"#utility.yul\":17161:17179   */\n      tag_518\n      tag_270\n      jump\t// in\n    tag_518:\n        /* \"#utility.yul\":17134:17181   */\n    tag_517:\n        /* \"#utility.yul\":17208:17209   */\n      0x01\n        /* \"#utility.yul\":17201:17206   */\n      dup3\n        /* \"#utility.yul\":17197:17210   */\n      add\n        /* \"#utility.yul\":17190:17210   */\n      swap1\n      pop\n        /* \"#utility.yul\":17041:17216   */\n      swap2\n      swap1\n      pop\n      jump\t// out\n        /* \"#utility.yul\":17222:17377   */\n    tag_278:\n        /* \"#utility.yul\":17362:17369   */\n      0x4c6f736521000000000000000000000000000000000000000000000000000000\n        /* \"#utility.yul\":17358:17359   */\n      0x00\n        /* \"#utility.yul\":17350:17356   */\n      dup3\n        /* \"#utility.yul\":17346:17360   */\n      add\n        /* \"#utility.yul\":17339:17370   */\n      mstore\n        /* \"#utility.yul\":17222:17377   */\n      pop\n      jump\t// out\n        /* \"#utility.yul\":17383:17748   */\n    tag_279:\n        /* \"#utility.yul\":17525:17528   */\n      0x00\n        /* \"#utility.yul\":17546:17612   */\n      tag_521\n        /* \"#utility.yul\":17610:17611   */\n      0x05\n        /* \"#utility.yul\":17605:17608   */\n      dup4\n        /* \"#utility.yul\":17546:17612   */\n      tag_245\n      jump\t// in\n    tag_521:\n        /* \"#utility.yul\":17539:17612   */\n      swap2\n      pop\n        /* \"#utility.yul\":17621:17714   */\n      tag_522\n        /* \"#utility.yul\":17710:17713   */\n      dup3\n        /* \"#utility.yul\":17621:17714   */\n      tag_278\n      jump\t// in\n    tag_522:\n        /* \"#utility.yul\":17739:17741   */\n      0x20\n        /* \"#utility.yul\":17734:17737   */\n      dup3\n        /* \"#utility.yul\":17730:17742   */\n      add\n        /* \"#utility.yul\":17723:17742   */\n      swap1\n      pop\n        /* \"#utility.yul\":17383:17748   */\n      swap2\n      swap1\n      pop\n      jump\t// out\n        /* \"#utility.yul\":17754:18391   */\n    tag_116:\n        /* \"#utility.yul\":17975:17979   */\n      0x00\n        /* \"#utility.yul\":18013:18015   */\n      0x60\n        /* \"#utility.yul\":18002:18011   */\n      dup3\n        /* \"#utility.yul\":17998:18016   */\n      add\n        /* \"#utility.yul\":17990:18016   */\n      swap1\n      pop\n        /* \"#utility.yul\":18062:18071   */\n      dup2\n        /* \"#utility.yul\":18056:18060   */\n      dup2\n        /* \"#utility.yul\":18052:18072   */\n      sub\n        /* \"#utility.yul\":18048:18049   */\n      0x00\n        /* \"#utility.yul\":18037:18046   */\n      dup4\n        /* \"#utility.yul\":18033:18050   */\n      add\n        /* \"#utility.yul\":18026:18073   */\n      mstore\n        /* \"#utility.yul\":18090:18221   */\n      tag_524\n        /* \"#utility.yul\":18216:18220   */\n      dup2\n        /* \"#utility.yul\":18090:18221   */\n      tag_279\n      jump\t// in\n    tag_524:\n        /* \"#utility.yul\":18082:18221   */\n      swap1\n      pop\n        /* \"#utility.yul\":18231:18302   */\n      tag_525\n        /* \"#utility.yul\":18298:18300   */\n      0x20\n        /* \"#utility.yul\":18287:18296   */\n      dup4\n        /* \"#utility.yul\":18283:18301   */\n      add\n        /* \"#utility.yul\":18274:18280   */\n      dup6\n        /* \"#utility.yul\":18231:18302   */\n      tag_276\n      jump\t// in\n    tag_525:\n        /* \"#utility.yul\":18312:18384   */\n      tag_526\n        /* \"#utility.yul\":18380:18382   */\n      0x40\n        /* \"#utility.yul\":18369:18378   */\n      dup4\n        /* \"#utility.yul\":18365:18383   */\n      add\n        /* \"#utility.yul\":18356:18362   */\n      dup5\n        /* \"#utility.yul\":18312:18384   */\n      tag_277\n      jump\t// in\n    tag_526:\n        /* \"#utility.yul\":17754:18391   */\n      swap4\n      swap3\n      pop\n      pop\n      pop\n      jump\t// out\n        /* \"#utility.yul\":18397:18564   */\n    tag_280:\n        /* \"#utility.yul\":18537:18556   */\n      0x4e6f7468696e672077617320666f756e64000000000000000000000000000000\n        /* \"#utility.yul\":18533:18534   */\n      0x00\n        /* \"#utility.yul\":18525:18531   */\n      dup3\n        /* \"#utility.yul\":18521:18535   */\n      add\n        /* \"#utility.yul\":18514:18557   */\n      mstore\n        /* \"#utility.yul\":18397:18564   */\n      pop\n      jump\t// out\n        /* \"#utility.yul\":18570:18936   */\n    tag_281:\n        /* \"#utility.yul\":18712:18715   */\n      0x00\n        /* \"#utility.yul\":18733:18800   */\n      tag_529\n        /* \"#utility.yul\":18797:18799   */\n      0x11\n        /* \"#utility.yul\":18792:18795   */\n      dup4\n        /* \"#utility.yul\":18733:18800   */\n      tag_245\n      jump\t// in\n    tag_529:\n        /* \"#utility.yul\":18726:18800   */\n      swap2\n      pop\n        /* \"#utility.yul\":18809:18902   */\n      tag_530\n        /* \"#utility.yul\":18898:18901   */\n      dup3\n        /* \"#utility.yul\":18809:18902   */\n      tag_280\n      jump\t// in\n    tag_530:\n        /* \"#utility.yul\":18927:18929   */\n      0x20\n        /* \"#utility.yul\":18922:18925   */\n      dup3\n        /* \"#utility.yul\":18918:18930   */\n      add\n        /* \"#utility.yul\":18911:18930   */\n      swap1\n      pop\n        /* \"#utility.yul\":18570:18936   */\n      swap2\n      swap1\n      pop\n      jump\t// out\n        /* \"#utility.yul\":18942:19027   */\n    tag_282:\n        /* \"#utility.yul\":18987:18994   */\n      0x00\n        /* \"#utility.yul\":19016:19021   */\n      dup2\n        /* \"#utility.yul\":19005:19021   */\n      swap1\n      pop\n        /* \"#utility.yul\":18942:19027   */\n      swap2\n      swap1\n      pop\n      jump\t// out\n        /* \"#utility.yul\":19033:19191   */\n    tag_283:\n        /* \"#utility.yul\":19091:19100   */\n      0x00\n        /* \"#utility.yul\":19124:19185   */\n      tag_533\n        /* \"#utility.yul\":19142:19184   */\n      tag_534\n        /* \"#utility.yul\":19151:19183   */\n      tag_535\n        /* \"#utility.yul\":19177:19182   */\n      dup5\n        /* \"#utility.yul\":19151:19183   */\n      tag_282\n      jump\t// in\n    tag_535:\n        /* \"#utility.yul\":19142:19184   */\n      tag_274\n      jump\t// in\n    tag_534:\n        /* \"#utility.yul\":19124:19185   */\n      tag_237\n      jump\t// in\n    tag_533:\n        /* \"#utility.yul\":19111:19185   */\n      swap1\n      pop\n        /* \"#utility.yul\":19033:19191   */\n      swap2\n      swap1\n      pop\n      jump\t// out\n        /* \"#utility.yul\":19197:19344   */\n    tag_284:\n        /* \"#utility.yul\":19292:19337   */\n      tag_537\n        /* \"#utility.yul\":19331:19336   */\n      dup2\n        /* \"#utility.yul\":19292:19337   */\n      tag_283\n      jump\t// in\n    tag_537:\n        /* \"#utility.yul\":19287:19290   */\n      dup3\n        /* \"#utility.yul\":19280:19338   */\n      mstore\n        /* \"#utility.yul\":19197:19344   */\n      pop\n      pop\n      jump\t// out\n        /* \"#utility.yul\":19350:20003   */\n    tag_125:\n        /* \"#utility.yul\":19579:19583   */\n      0x00\n        /* \"#utility.yul\":19617:19619   */\n      0x60\n        /* \"#utility.yul\":19606:19615   */\n      dup3\n        /* \"#utility.yul\":19602:19620   */\n      add\n        /* \"#utility.yul\":19594:19620   */\n      swap1\n      pop\n        /* \"#utility.yul\":19666:19675   */\n      dup2\n        /* \"#utility.yul\":19660:19664   */\n      dup2\n        /* \"#utility.yul\":19656:19676   */\n      sub\n        /* \"#utility.yul\":19652:19653   */\n      0x00\n        /* \"#utility.yul\":19641:19650   */\n      dup4\n        /* \"#utility.yul\":19637:19654   */\n      add\n        /* \"#utility.yul\":19630:19677   */\n      mstore\n        /* \"#utility.yul\":19694:19825   */\n      tag_539\n        /* \"#utility.yul\":19820:19824   */\n      dup2\n        /* \"#utility.yul\":19694:19825   */\n      tag_281\n      jump\t// in\n    tag_539:\n        /* \"#utility.yul\":19686:19825   */\n      swap1\n      pop\n        /* \"#utility.yul\":19835:19915   */\n      tag_540\n        /* \"#utility.yul\":19911:19913   */\n      0x20\n        /* \"#utility.yul\":19900:19909   */\n      dup4\n        /* \"#utility.yul\":19896:19914   */\n      add\n        /* \"#utility.yul\":19887:19893   */\n      dup6\n        /* \"#utility.yul\":19835:19915   */\n      tag_284\n      jump\t// in\n    tag_540:\n        /* \"#utility.yul\":19925:19996   */\n      tag_541\n        /* \"#utility.yul\":19992:19994   */\n      0x40\n        /* \"#utility.yul\":19981:19990   */\n      dup4\n        /* \"#utility.yul\":19977:19995   */\n      add\n        /* \"#utility.yul\":19968:19974   */\n      dup5\n        /* \"#utility.yul\":19925:19996   */\n      tag_276\n      jump\t// in\n    tag_541:\n        /* \"#utility.yul\":19350:20003   */\n      swap4\n      swap3\n      pop\n      pop\n      pop\n      jump\t// out\n        /* \"#utility.yul\":20009:20158   */\n    tag_285:\n        /* \"#utility.yul\":20058:20064   */\n      0x00\n        /* \"#utility.yul\":20092:20097   */\n      dup2\n        /* \"#utility.yul\":20086:20098   */\n      sload\n        /* \"#utility.yul\":20076:20098   */\n      swap1\n      pop\n        /* \"#utility.yul\":20118:20151   */\n      tag_543\n        /* \"#utility.yul\":20144:20150   */\n      dup2\n        /* \"#utility.yul\":20118:20151   */\n      tag_75\n      jump\t// in\n    tag_543:\n        /* \"#utility.yul\":20108:20151   */\n      swap1\n      pop\n        /* \"#utility.yul\":20009:20158   */\n      swap2\n      swap1\n      pop\n      jump\t// out\n        /* \"#utility.yul\":20164:20305   */\n    tag_286:\n        /* \"#utility.yul\":20213:20217   */\n      0x00\n        /* \"#utility.yul\":20236:20239   */\n      dup2\n        /* \"#utility.yul\":20228:20239   */\n      swap1\n      pop\n        /* \"#utility.yul\":20259:20262   */\n      dup2\n        /* \"#utility.yul\":20256:20257   */\n      0x00\n        /* \"#utility.yul\":20249:20263   */\n      mstore\n        /* \"#utility.yul\":20293:20297   */\n      0x20\n        /* \"#utility.yul\":20290:20291   */\n      0x00\n        /* \"#utility.yul\":20280:20298   */\n      keccak256\n        /* \"#utility.yul\":20272:20298   */\n      swap1\n      pop\n        /* \"#utility.yul\":20164:20305   */\n      swap2\n      swap1\n      pop\n      jump\t// out\n        /* \"#utility.yul\":20311:20404   */\n    tag_287:\n        /* \"#utility.yul\":20348:20354   */\n      0x00\n        /* \"#utility.yul\":20395:20397   */\n      0x20\n        /* \"#utility.yul\":20390:20392   */\n      0x1f\n        /* \"#utility.yul\":20383:20388   */\n      dup4\n        /* \"#utility.yul\":20379:20393   */\n      add\n        /* \"#utility.yul\":20375:20398   */\n      div\n        /* \"#utility.yul\":20365:20398   */\n      swap1\n      pop\n        /* \"#utility.yul\":20311:20404   */\n      swap2\n      swap1\n      pop\n      jump\t// out\n        /* \"#utility.yul\":20410:20517   */\n    tag_288:\n        /* \"#utility.yul\":20454:20462   */\n      0x00\n        /* \"#utility.yul\":20504:20509   */\n      dup3\n        /* \"#utility.yul\":20498:20502   */\n      dup3\n        /* \"#utility.yul\":20494:20510   */\n      shl\n        /* \"#utility.yul\":20473:20510   */\n      swap1\n      pop\n        /* \"#utility.yul\":20410:20517   */\n      swap3\n      swap2\n      pop\n      pop\n      jump\t// out\n        /* \"#utility.yul\":20523:20916   */\n    tag_289:\n        /* \"#utility.yul\":20592:20598   */\n      0x00\n        /* \"#utility.yul\":20642:20643   */\n      0x08\n        /* \"#utility.yul\":20630:20640   */\n      dup4\n        /* \"#utility.yul\":20626:20644   */\n      mul\n        /* \"#utility.yul\":20665:20762   */\n      tag_548\n        /* \"#utility.yul\":20695:20761   */\n      0xffffffffffffffffffffffffffffffffffffffffffffffffffffffffffffffff\n        /* \"#utility.yul\":20684:20693   */\n      dup3\n        /* \"#utility.yul\":20665:20762   */\n      tag_288\n      jump\t// in\n    tag_548:\n        /* \"#utility.yul\":20783:20822   */\n      tag_549\n        /* \"#utility.yul\":20813:20821   */\n      dup7\n        /* \"#utility.yul\":20802:20811   */\n      dup4\n        /* \"#utility.yul\":20783:20822   */\n      tag_288\n      jump\t// in\n    tag_549:\n        /* \"#utility.yul\":20771:20822   */\n      swap6\n      pop\n        /* \"#utility.yul\":20855:20859   */\n      dup1\n        /* \"#utility.yul\":20851:20860   */\n      not\n        /* \"#utility.yul\":20844:20849   */\n      dup5\n        /* \"#utility.yul\":20840:20861   */\n      and\n        /* \"#utility.yul\":20831:20861   */\n      swap4\n      pop\n        /* \"#utility.yul\":20904:20908   */\n      dup1\n        /* \"#utility.yul\":20894:20902   */\n      dup7\n        /* \"#utility.yul\":20890:20909   */\n      and\n        /* \"#utility.yul\":20883:20888   */\n      dup5\n        /* \"#utility.yul\":20880:20910   */\n      or\n        /* \"#utility.yul\":20870:20910   */\n      swap3\n      pop\n        /* \"#utility.yul\":20599:20916   */\n      pop\n      pop\n        /* \"#utility.yul\":20523:20916   */\n      swap4\n      swap3\n      pop\n      pop\n      pop\n      jump\t// out\n        /* \"#utility.yul\":20922:21064   */\n    tag_290:\n        /* \"#utility.yul\":20972:20981   */\n      0x00\n        /* \"#utility.yul\":21005:21058   */\n      tag_551\n        /* \"#utility.yul\":21023:21057   */\n      tag_552\n        /* \"#utility.yul\":21032:21056   */\n      tag_553\n        /* \"#utility.yul\":21050:21055   */\n      dup5\n        /* \"#utility.yul\":21032:21056   */\n      tag_237\n      jump\t// in\n    tag_553:\n        /* \"#utility.yul\":21023:21057   */\n      tag_274\n      jump\t// in\n    tag_552:\n        /* \"#utility.yul\":21005:21058   */\n      tag_237\n      jump\t// in\n    tag_551:\n        /* \"#utility.yul\":20992:21058   */\n      swap1\n      pop\n        /* \"#utility.yul\":20922:21064   */\n      swap2\n      swap1\n      pop\n      jump\t// out\n        /* \"#utility.yul\":21070:21145   */\n    tag_291:\n        /* \"#utility.yul\":21113:21116   */\n      0x00\n        /* \"#utility.yul\":21134:21139   */\n      dup2\n        /* \"#utility.yul\":21127:21139   */\n      swap1\n      pop\n        /* \"#utility.yul\":21070:21145   */\n      swap2\n      swap1\n      pop\n      jump\t// out\n        /* \"#utility.yul\":21151:21420   */\n    tag_292:\n        /* \"#utility.yul\":21261:21300   */\n      tag_556\n        /* \"#utility.yul\":21292:21299   */\n      dup4\n        /* \"#utility.yul\":21261:21300   */\n      tag_290\n      jump\t// in\n    tag_556:\n        /* \"#utility.yul\":21322:21413   */\n      tag_557\n        /* \"#utility.yul\":21371:21412   */\n      tag_558\n        /* \"#utility.yul\":21395:21411   */\n      dup3\n        /* \"#utility.yul\":21371:21412   */\n      tag_291\n      jump\t// in\n    tag_558:\n        /* \"#utility.yul\":21363:21369   */\n      dup5\n        /* \"#utility.yul\":21356:21360   */\n      dup5\n        /* \"#utility.yul\":21350:21361   */\n      sload\n        /* \"#utility.yul\":21322:21413   */\n      tag_289\n      jump\t// in\n    tag_557:\n        /* \"#utility.yul\":21316:21320   */\n      dup3\n        /* \"#utility.yul\":21309:21414   */\n      sstore\n        /* \"#utility.yul\":21227:21420   */\n      pop\n        /* \"#utility.yul\":21151:21420   */\n      pop\n      pop\n      pop\n      jump\t// out\n        /* \"#utility.yul\":21426:21499   */\n    tag_293:\n        /* \"#utility.yul\":21471:21474   */\n      0x00\n        /* \"#utility.yul\":21426:21499   */\n      swap1\n      jump\t// out\n        /* \"#utility.yul\":21505:21694   */\n    tag_294:\n        /* \"#utility.yul\":21582:21614   */\n      tag_561\n      tag_293\n      jump\t// in\n    tag_561:\n        /* \"#utility.yul\":21623:21688   */\n      tag_562\n        /* \"#utility.yul\":21681:21687   */\n      dup2\n        /* \"#utility.yul\":21673:21679   */\n      dup5\n        /* \"#utility.yul\":21667:21671   */\n      dup5\n        /* \"#utility.yul\":21623:21688   */\n      tag_292\n      jump\t// in\n    tag_562:\n        /* \"#utility.yul\":21558:21694   */\n      pop\n        /* \"#utility.yul\":21505:21694   */\n      pop\n      pop\n      jump\t// out\n        /* \"#utility.yul\":21700:21886   */\n    tag_295:\n        /* \"#utility.yul\":21760:21880   */\n    tag_564:\n        /* \"#utility.yul\":21777:21780   */\n      dup2\n        /* \"#utility.yul\":21770:21775   */\n      dup2\n        /* \"#utility.yul\":21767:21781   */\n      lt\n        /* \"#utility.yul\":21760:21880   */\n      iszero\n      tag_566\n      jumpi\n        /* \"#utility.yul\":21831:21870   */\n      tag_567\n        /* \"#utility.yul\":21868:21869   */\n      0x00\n        /* \"#utility.yul\":21861:21866   */\n      dup3\n        /* \"#utility.yul\":21831:21870   */\n      tag_294\n      jump\t// in\n    tag_567:\n        /* \"#utility.yul\":21804:21805   */\n      0x01\n        /* \"#utility.yul\":21797:21802   */\n      dup2\n        /* \"#utility.yul\":21793:21806   */\n      add\n        /* \"#utility.yul\":21784:21806   */\n      swap1\n      pop\n        /* \"#utility.yul\":21760:21880   */\n      jump(tag_564)\n    tag_566:\n        /* \"#utility.yul\":21700:21886   */\n      pop\n      pop\n      jump\t// out\n        /* \"#utility.yul\":21892:22435   */\n    tag_296:\n        /* \"#utility.yul\":21993:21995   */\n      0x1f\n        /* \"#utility.yul\":21988:21991   */\n      dup3\n        /* \"#utility.yul\":21985:21996   */\n      gt\n        /* \"#utility.yul\":21982:22428   */\n      iszero\n      tag_569\n      jumpi\n        /* \"#utility.yul\":22027:22065   */\n      tag_570\n        /* \"#utility.yul\":22059:22064   */\n      dup2\n        /* \"#utility.yul\":22027:22065   */\n      tag_286\n      jump\t// in\n    tag_570:\n        /* \"#utility.yul\":22111:22140   */\n      tag_571\n        /* \"#utility.yul\":22129:22139   */\n      dup5\n        /* \"#utility.yul\":22111:22140   */\n      tag_287\n      jump\t// in\n    tag_571:\n        /* \"#utility.yul\":22101:22109   */\n      dup2\n        /* \"#utility.yul\":22097:22141   */\n      add\n        /* \"#utility.yul\":22294:22296   */\n      0x20\n        /* \"#utility.yul\":22282:22292   */\n      dup6\n        /* \"#utility.yul\":22279:22297   */\n      lt\n        /* \"#utility.yul\":22276:22325   */\n      iszero\n      tag_572\n      jumpi\n        /* \"#utility.yul\":22315:22323   */\n      dup2\n        /* \"#utility.yul\":22300:22323   */\n      swap1\n      pop\n        /* \"#utility.yul\":22276:22325   */\n    tag_572:\n        /* \"#utility.yul\":22338:22418   */\n      tag_573\n        /* \"#utility.yul\":22394:22416   */\n      tag_574\n        /* \"#utility.yul\":22412:22415   */\n      dup6\n        /* \"#utility.yul\":22394:22416   */\n      tag_287\n      jump\t// in\n    tag_574:\n        /* \"#utility.yul\":22384:22392   */\n      dup4\n        /* \"#utility.yul\":22380:22417   */\n      add\n        /* \"#utility.yul\":22367:22378   */\n      dup3\n        /* \"#utility.yul\":22338:22418   */\n      tag_295\n      jump\t// in\n    tag_573:\n        /* \"#utility.yul\":21997:22428   */\n      pop\n      pop\n        /* \"#utility.yul\":21982:22428   */\n    tag_569:\n        /* \"#utility.yul\":21892:22435   */\n      pop\n      pop\n      pop\n      jump\t// out\n        /* \"#utility.yul\":22441:22558   */\n    tag_297:\n        /* \"#utility.yul\":22495:22503   */\n      0x00\n        /* \"#utility.yul\":22545:22550   */\n      dup3\n        /* \"#utility.yul\":22539:22543   */\n      dup3\n        /* \"#utility.yul\":22535:22551   */\n      shr\n        /* \"#utility.yul\":22514:22551   */\n      swap1\n      pop\n        /* \"#utility.yul\":22441:22558   */\n      swap3\n      swap2\n      pop\n      pop\n      jump\t// out\n        /* \"#utility.yul\":22564:22733   */\n    tag_298:\n        /* \"#utility.yul\":22608:22614   */\n      0x00\n        /* \"#utility.yul\":22641:22692   */\n      tag_577\n        /* \"#utility.yul\":22689:22690   */\n      0x00\n        /* \"#utility.yul\":22685:22691   */\n      not\n        /* \"#utility.yul\":22677:22682   */\n      dup5\n        /* \"#utility.yul\":22674:22675   */\n      0x08\n        /* \"#utility.yul\":22670:22683   */\n      mul\n        /* \"#utility.yul\":22641:22692   */\n      tag_297\n      jump\t// in\n    tag_577:\n        /* \"#utility.yul\":22637:22693   */\n      not\n        /* \"#utility.yul\":22722:22726   */\n      dup1\n        /* \"#utility.yul\":22716:22720   */\n      dup4\n        /* \"#utility.yul\":22712:22727   */\n      and\n        /* \"#utility.yul\":22702:22727   */\n      swap2\n      pop\n        /* \"#utility.yul\":22615:22733   */\n      pop\n        /* \"#utility.yul\":22564:22733   */\n      swap3\n      swap2\n      pop\n      pop\n      jump\t// out\n        /* \"#utility.yul\":22738:23033   */\n    tag_299:\n        /* \"#utility.yul\":22814:22818   */\n      0x00\n        /* \"#utility.yul\":22960:22989   */\n      tag_579\n        /* \"#utility.yul\":22985:22988   */\n      dup4\n        /* \"#utility.yul\":22979:22983   */\n      dup4\n        /* \"#utility.yul\":22960:22989   */\n      tag_298\n      jump\t// in\n    tag_579:\n        /* \"#utility.yul\":22952:22989   */\n      swap2\n      pop\n        /* \"#utility.yul\":23022:23025   */\n      dup3\n        /* \"#utility.yul\":23019:23020   */\n      0x02\n        /* \"#utility.yul\":23015:23026   */\n      mul\n        /* \"#utility.yul\":23009:23013   */\n      dup3\n        /* \"#utility.yul\":23006:23027   */\n      or\n        /* \"#utility.yul\":22998:23027   */\n      swap1\n      pop\n        /* \"#utility.yul\":22738:23033   */\n      swap3\n      swap2\n      pop\n      pop\n      jump\t// out\n        /* \"#utility.yul\":23038:24489   */\n    tag_139:\n        /* \"#utility.yul\":23149:23152   */\n      dup2\n        /* \"#utility.yul\":23143:23147   */\n      dup2\n        /* \"#utility.yul\":23140:23153   */\n      sub\n        /* \"#utility.yul\":23137:23163   */\n      tag_581\n      jumpi\n        /* \"#utility.yul\":23156:23161   */\n      pop\n      pop\n      jump(tag_580)\n        /* \"#utility.yul\":23137:23163   */\n    tag_581:\n        /* \"#utility.yul\":23187:23221   */\n      tag_582\n        /* \"#utility.yul\":23217:23220   */\n      dup3\n        /* \"#utility.yul\":23187:23221   */\n      tag_285\n      jump\t// in\n    tag_582:\n        /* \"#utility.yul\":23286:23304   */\n      0xffffffffffffffff\n        /* \"#utility.yul\":23278:23284   */\n      dup2\n        /* \"#utility.yul\":23275:23305   */\n      gt\n        /* \"#utility.yul\":23272:23328   */\n      iszero\n      tag_583\n      jumpi\n        /* \"#utility.yul\":23308:23326   */\n      tag_584\n      tag_61\n      jump\t// in\n    tag_584:\n        /* \"#utility.yul\":23272:23328   */\n    tag_583:\n        /* \"#utility.yul\":23352:23390   */\n      tag_585\n        /* \"#utility.yul\":23384:23388   */\n      dup3\n        /* \"#utility.yul\":23378:23389   */\n      sload\n        /* \"#utility.yul\":23352:23390   */\n      tag_75\n      jump\t// in\n    tag_585:\n        /* \"#utility.yul\":23437:23504   */\n      tag_586\n        /* \"#utility.yul\":23497:23503   */\n      dup3\n        /* \"#utility.yul\":23489:23495   */\n      dup3\n        /* \"#utility.yul\":23483:23487   */\n      dup6\n        /* \"#utility.yul\":23437:23504   */\n      tag_296\n      jump\t// in\n    tag_586:\n        /* \"#utility.yul\":23531:23532   */\n      0x00\n        /* \"#utility.yul\":23560:23562   */\n      0x1f\n        /* \"#utility.yul\":23552:23558   */\n      dup4\n        /* \"#utility.yul\":23549:23563   */\n      gt\n        /* \"#utility.yul\":23577:23578   */\n      0x01\n        /* \"#utility.yul\":23572:24244   */\n      dup2\n      eq\n      tag_588\n      jumpi\n        /* \"#utility.yul\":24288:24289   */\n      0x00\n        /* \"#utility.yul\":24305:24311   */\n      dup5\n        /* \"#utility.yul\":24302:24379   */\n      iszero\n      tag_589\n      jumpi\n        /* \"#utility.yul\":24354:24363   */\n      dup3\n        /* \"#utility.yul\":24349:24352   */\n      dup8\n        /* \"#utility.yul\":24345:24364   */\n      add\n        /* \"#utility.yul\":24339:24365   */\n      sload\n        /* \"#utility.yul\":24330:24365   */\n      swap1\n      pop\n        /* \"#utility.yul\":24302:24379   */\n    tag_589:\n        /* \"#utility.yul\":24405:24472   */\n      tag_590\n        /* \"#utility.yul\":24465:24471   */\n      dup6\n        /* \"#utility.yul\":24458:24463   */\n      dup3\n        /* \"#utility.yul\":24405:24472   */\n      tag_299\n      jump\t// in\n    tag_590:\n        /* \"#utility.yul\":24399:24403   */\n      dup7\n        /* \"#utility.yul\":24392:24473   */\n      sstore\n        /* \"#utility.yul\":24261:24483   */\n      pop\n        /* \"#utility.yul\":23542:24483   */\n      jump(tag_587)\n        /* \"#utility.yul\":23572:24244   */\n    tag_588:\n        /* \"#utility.yul\":23624:23628   */\n      0x1f\n        /* \"#utility.yul\":23620:23629   */\n      not\n        /* \"#utility.yul\":23612:23618   */\n      dup5\n        /* \"#utility.yul\":23608:23630   */\n      and\n        /* \"#utility.yul\":23650:23686   */\n      tag_591\n        /* \"#utility.yul\":23682:23685   */\n      dup8\n        /* \"#utility.yul\":23650:23686   */\n      tag_286\n      jump\t// in\n    tag_591:\n        /* \"#utility.yul\":23643:23686   */\n      swap7\n      pop\n        /* \"#utility.yul\":23713:23750   */\n      tag_592\n        /* \"#utility.yul\":23745:23749   */\n      dup7\n        /* \"#utility.yul\":23713:23750   */\n      tag_286\n      jump\t// in\n    tag_592:\n        /* \"#utility.yul\":23772:23773   */\n      0x00\n        /* \"#utility.yul\":23786:23993   */\n    tag_593:\n        /* \"#utility.yul\":23800:23807   */\n      dup3\n        /* \"#utility.yul\":23797:23798   */\n      dup2\n        /* \"#utility.yul\":23794:23808   */\n      lt\n        /* \"#utility.yul\":23786:23993   */\n      iszero\n      tag_595\n      jumpi\n        /* \"#utility.yul\":23879:23888   */\n      dup5\n        /* \"#utility.yul\":23874:23877   */\n      dup10\n        /* \"#utility.yul\":23870:23889   */\n      add\n        /* \"#utility.yul\":23864:23890   */\n      sload\n        /* \"#utility.yul\":23856:23862   */\n      dup3\n        /* \"#utility.yul\":23849:23891   */\n      sstore\n        /* \"#utility.yul\":23930:23931   */\n      0x01\n        /* \"#utility.yul\":23922:23928   */\n      dup3\n        /* \"#utility.yul\":23918:23932   */\n      add\n        /* \"#utility.yul\":23908:23932   */\n      swap2\n      pop\n        /* \"#utility.yul\":23977:23978   */\n      0x01\n        /* \"#utility.yul\":23966:23975   */\n      dup6\n        /* \"#utility.yul\":23962:23979   */\n      add\n        /* \"#utility.yul\":23949:23979   */\n      swap5\n      pop\n        /* \"#utility.yul\":23823:23827   */\n      0x20\n        /* \"#utility.yul\":23820:23821   */\n      dup2\n        /* \"#utility.yul\":23816:23828   */\n      add\n        /* \"#utility.yul\":23811:23828   */\n      swap1\n      pop\n        /* \"#utility.yul\":23786:23993   */\n      jump(tag_593)\n    tag_595:\n        /* \"#utility.yul\":24021:24027   */\n      dup7\n        /* \"#utility.yul\":24012:24019   */\n      dup4\n        /* \"#utility.yul\":24009:24028   */\n      lt\n        /* \"#utility.yul\":24006:24185   */\n      iszero\n      tag_596\n      jumpi\n        /* \"#utility.yul\":24079:24088   */\n      dup5\n        /* \"#utility.yul\":24074:24077   */\n      dup10\n        /* \"#utility.yul\":24070:24089   */\n      add\n        /* \"#utility.yul\":24064:24090   */\n      sload\n        /* \"#utility.yul\":24122:24170   */\n      tag_597\n        /* \"#utility.yul\":24164:24168   */\n      0x1f\n        /* \"#utility.yul\":24156:24162   */\n      dup10\n        /* \"#utility.yul\":24152:24169   */\n      and\n        /* \"#utility.yul\":24141:24150   */\n      dup3\n        /* \"#utility.yul\":24122:24170   */\n      tag_298\n      jump\t// in\n    tag_597:\n        /* \"#utility.yul\":24114:24120   */\n      dup4\n        /* \"#utility.yul\":24107:24171   */\n      sstore\n        /* \"#utility.yul\":24029:24185   */\n      pop\n        /* \"#utility.yul\":24006:24185   */\n    tag_596:\n        /* \"#utility.yul\":24231:24232   */\n      0x01\n        /* \"#utility.yul\":24227:24228   */\n      0x02\n        /* \"#utility.yul\":24219:24225   */\n      dup9\n        /* \"#utility.yul\":24215:24229   */\n      mul\n        /* \"#utility.yul\":24211:24233   */\n      add\n        /* \"#utility.yul\":24205:24209   */\n      dup9\n        /* \"#utility.yul\":24198:24234   */\n      sstore\n        /* \"#utility.yul\":23579:24244   */\n      pop\n      pop\n      pop\n        /* \"#utility.yul\":23542:24483   */\n    tag_587:\n      pop\n        /* \"#utility.yul\":23127:24489   */\n      pop\n      pop\n      pop\n        /* \"#utility.yul\":23038:24489   */\n      pop\n      pop\n    tag_580:\n      jump\t// out\n        /* \"#utility.yul\":24495:24643   */\n    tag_300:\n        /* \"#utility.yul\":24597:24608   */\n      0x00\n        /* \"#utility.yul\":24634:24637   */\n      dup2\n        /* \"#utility.yul\":24619:24637   */\n      swap1\n      pop\n        /* \"#utility.yul\":24495:24643   */\n      swap3\n      swap2\n      pop\n      pop\n      jump\t// out\n        /* \"#utility.yul\":24649:24804   */\n    tag_301:\n        /* \"#utility.yul\":24789:24796   */\n      0x6d656c6565000000000000000000000000000000000000000000000000000000\n        /* \"#utility.yul\":24785:24786   */\n      0x00\n        /* \"#utility.yul\":24777:24783   */\n      dup3\n        /* \"#utility.yul\":24773:24787   */\n      add\n        /* \"#utility.yul\":24766:24797   */\n      mstore\n        /* \"#utility.yul\":24649:24804   */\n      pop\n      jump\t// out\n        /* \"#utility.yul\":24810:25210   */\n    tag_302:\n        /* \"#utility.yul\":24970:24973   */\n      0x00\n        /* \"#utility.yul\":24991:25075   */\n      tag_601\n        /* \"#utility.yul\":25073:25074   */\n      0x05\n        /* \"#utility.yul\":25068:25071   */\n      dup4\n        /* \"#utility.yul\":24991:25075   */\n      tag_300\n      jump\t// in\n    tag_601:\n        /* \"#utility.yul\":24984:25075   */\n      swap2\n      pop\n        /* \"#utility.yul\":25084:25177   */\n      tag_602\n        /* \"#utility.yul\":25173:25176   */\n      dup3\n        /* \"#utility.yul\":25084:25177   */\n      tag_301\n      jump\t// in\n    tag_602:\n        /* \"#utility.yul\":25202:25203   */\n      0x05\n        /* \"#utility.yul\":25197:25200   */\n      dup3\n        /* \"#utility.yul\":25193:25204   */\n      add\n        /* \"#utility.yul\":25186:25204   */\n      swap1\n      pop\n        /* \"#utility.yul\":24810:25210   */\n      swap2\n      swap1\n      pop\n      jump\t// out\n        /* \"#utility.yul\":25216:25597   */\n    tag_144:\n        /* \"#utility.yul\":25401:25404   */\n      0x00\n        /* \"#utility.yul\":25423:25571   */\n      tag_604\n        /* \"#utility.yul\":25567:25570   */\n      dup3\n        /* \"#utility.yul\":25423:25571   */\n      tag_302\n      jump\t// in\n    tag_604:\n        /* \"#utility.yul\":25416:25571   */\n      swap2\n      pop\n        /* \"#utility.yul\":25588:25591   */\n      dup2\n        /* \"#utility.yul\":25581:25591   */\n      swap1\n      pop\n        /* \"#utility.yul\":25216:25597   */\n      swap2\n      swap1\n      pop\n      jump\t// out\n        /* \"#utility.yul\":25603:25993   */\n    tag_303:\n        /* \"#utility.yul\":25709:25712   */\n      0x00\n        /* \"#utility.yul\":25737:25776   */\n      tag_606\n        /* \"#utility.yul\":25770:25775   */\n      dup3\n        /* \"#utility.yul\":25737:25776   */\n      tag_244\n      jump\t// in\n    tag_606:\n        /* \"#utility.yul\":25792:25881   */\n      tag_607\n        /* \"#utility.yul\":25874:25880   */\n      dup2\n        /* \"#utility.yul\":25869:25872   */\n      dup6\n        /* \"#utility.yul\":25792:25881   */\n      tag_300\n      jump\t// in\n    tag_607:\n        /* \"#utility.yul\":25785:25881   */\n      swap4\n      pop\n        /* \"#utility.yul\":25890:25955   */\n      tag_608\n        /* \"#utility.yul\":25948:25954   */\n      dup2\n        /* \"#utility.yul\":25943:25946   */\n      dup6\n        /* \"#utility.yul\":25936:25940   */\n      0x20\n        /* \"#utility.yul\":25929:25934   */\n      dup7\n        /* \"#utility.yul\":25925:25941   */\n      add\n        /* \"#utility.yul\":25890:25955   */\n      tag_246\n      jump\t// in\n    tag_608:\n        /* \"#utility.yul\":25980:25986   */\n      dup1\n        /* \"#utility.yul\":25975:25978   */\n      dup5\n        /* \"#utility.yul\":25971:25987   */\n      add\n        /* \"#utility.yul\":25964:25987   */\n      swap2\n      pop\n        /* \"#utility.yul\":25713:25993   */\n      pop\n        /* \"#utility.yul\":25603:25993   */\n      swap3\n      swap2\n      pop\n      pop\n      jump\t// out\n        /* \"#utility.yul\":25999:26274   */\n    tag_146:\n        /* \"#utility.yul\":26131:26134   */\n      0x00\n        /* \"#utility.yul\":26153:26248   */\n      tag_610\n        /* \"#utility.yul\":26244:26247   */\n      dup3\n        /* \"#utility.yul\":26235:26241   */\n      dup5\n        /* \"#utility.yul\":26153:26248   */\n      tag_303\n      jump\t// in\n    tag_610:\n        /* \"#utility.yul\":26146:26248   */\n      swap2\n      pop\n        /* \"#utility.yul\":26265:26268   */\n      dup2\n        /* \"#utility.yul\":26258:26268   */\n      swap1\n      pop\n        /* \"#utility.yul\":25999:26274   */\n      swap3\n      swap2\n      pop\n      pop\n      jump\t// out\n        /* \"#utility.yul\":26280:27675   */\n    tag_150:\n        /* \"#utility.yul\":26397:26434   */\n      tag_612\n        /* \"#utility.yul\":26430:26433   */\n      dup3\n        /* \"#utility.yul\":26397:26434   */\n      tag_244\n      jump\t// in\n    tag_612:\n        /* \"#utility.yul\":26499:26517   */\n      0xffffffffffffffff\n        /* \"#utility.yul\":26491:26497   */\n      dup2\n        /* \"#utility.yul\":26488:26518   */\n      gt\n        /* \"#utility.yul\":26485:26541   */\n      iszero\n      tag_613\n      jumpi\n        /* \"#utility.yul\":26521:26539   */\n      tag_614\n      tag_61\n      jump\t// in\n    tag_614:\n        /* \"#utility.yul\":26485:26541   */\n    tag_613:\n        /* \"#utility.yul\":26565:26603   */\n      tag_615\n        /* \"#utility.yul\":26597:26601   */\n      dup3\n        /* \"#utility.yul\":26591:26602   */\n      sload\n        /* \"#utility.yul\":26565:26603   */\n      tag_75\n      jump\t// in\n    tag_615:\n        /* \"#utility.yul\":26650:26717   */\n      tag_616\n        /* \"#utility.yul\":26710:26716   */\n      dup3\n        /* \"#utility.yul\":26702:26708   */\n      dup3\n        /* \"#utility.yul\":26696:26700   */\n      dup6\n        /* \"#utility.yul\":26650:26717   */\n      tag_296\n      jump\t// in\n    tag_616:\n        /* \"#utility.yul\":26744:26745   */\n      0x00\n        /* \"#utility.yul\":26768:26772   */\n      0x20\n        /* \"#utility.yul\":26755:26772   */\n      swap1\n      pop\n        /* \"#utility.yul\":26800:26802   */\n      0x1f\n        /* \"#utility.yul\":26792:26798   */\n      dup4\n        /* \"#utility.yul\":26789:26803   */\n      gt\n        /* \"#utility.yul\":26817:26818   */\n      0x01\n        /* \"#utility.yul\":26812:27430   */\n      dup2\n      eq\n      tag_618\n      jumpi\n        /* \"#utility.yul\":27474:27475   */\n      0x00\n        /* \"#utility.yul\":27491:27497   */\n      dup5\n        /* \"#utility.yul\":27488:27565   */\n      iszero\n      tag_619\n      jumpi\n        /* \"#utility.yul\":27540:27549   */\n      dup3\n        /* \"#utility.yul\":27535:27538   */\n      dup8\n        /* \"#utility.yul\":27531:27550   */\n      add\n        /* \"#utility.yul\":27525:27551   */\n      mload\n        /* \"#utility.yul\":27516:27551   */\n      swap1\n      pop\n        /* \"#utility.yul\":27488:27565   */\n    tag_619:\n        /* \"#utility.yul\":27591:27658   */\n      tag_620\n        /* \"#utility.yul\":27651:27657   */\n      dup6\n        /* \"#utility.yul\":27644:27649   */\n      dup3\n        /* \"#utility.yul\":27591:27658   */\n      tag_299\n      jump\t// in\n    tag_620:\n        /* \"#utility.yul\":27585:27589   */\n      dup7\n        /* \"#utility.yul\":27578:27659   */\n      sstore\n        /* \"#utility.yul\":27447:27669   */\n      pop\n        /* \"#utility.yul\":26782:27669   */\n      jump(tag_617)\n        /* \"#utility.yul\":26812:27430   */\n    tag_618:\n        /* \"#utility.yul\":26864:26868   */\n      0x1f\n        /* \"#utility.yul\":26860:26869   */\n      not\n        /* \"#utility.yul\":26852:26858   */\n      dup5\n        /* \"#utility.yul\":26848:26870   */\n      and\n        /* \"#utility.yul\":26898:26935   */\n      tag_621\n        /* \"#utility.yul\":26930:26934   */\n      dup7\n        /* \"#utility.yul\":26898:26935   */\n      tag_286\n      jump\t// in\n    tag_621:\n        /* \"#utility.yul\":26957:26958   */\n      0x00\n        /* \"#utility.yul\":26971:27179   */\n    tag_622:\n        /* \"#utility.yul\":26985:26992   */\n      dup3\n        /* \"#utility.yul\":26982:26983   */\n      dup2\n        /* \"#utility.yul\":26979:26993   */\n      lt\n        /* \"#utility.yul\":26971:27179   */\n      iszero\n      tag_624\n      jumpi\n        /* \"#utility.yul\":27064:27073   */\n      dup5\n        /* \"#utility.yul\":27059:27062   */\n      dup10\n        /* \"#utility.yul\":27055:27074   */\n      add\n        /* \"#utility.yul\":27049:27075   */\n      mload\n        /* \"#utility.yul\":27041:27047   */\n      dup3\n        /* \"#utility.yul\":27034:27076   */\n      sstore\n        /* \"#utility.yul\":27115:27116   */\n      0x01\n        /* \"#utility.yul\":27107:27113   */\n      dup3\n        /* \"#utility.yul\":27103:27117   */\n      add\n        /* \"#utility.yul\":27093:27117   */\n      swap2\n      pop\n        /* \"#utility.yul\":27162:27164   */\n      0x20\n        /* \"#utility.yul\":27151:27160   */\n      dup6\n        /* \"#utility.yul\":27147:27165   */\n      add\n        /* \"#utility.yul\":27134:27165   */\n      swap5\n      pop\n        /* \"#utility.yul\":27008:27012   */\n      0x20\n        /* \"#utility.yul\":27005:27006   */\n      dup2\n        /* \"#utility.yul\":27001:27013   */\n      add\n        /* \"#utility.yul\":26996:27013   */\n      swap1\n      pop\n        /* \"#utility.yul\":26971:27179   */\n      jump(tag_622)\n    tag_624:\n        /* \"#utility.yul\":27207:27213   */\n      dup7\n        /* \"#utility.yul\":27198:27205   */\n      dup4\n        /* \"#utility.yul\":27195:27214   */\n      lt\n        /* \"#utility.yul\":27192:27371   */\n      iszero\n      tag_625\n      jumpi\n        /* \"#utility.yul\":27265:27274   */\n      dup5\n        /* \"#utility.yul\":27260:27263   */\n      dup10\n        /* \"#utility.yul\":27256:27275   */\n      add\n        /* \"#utility.yul\":27250:27276   */\n      mload\n        /* \"#utility.yul\":27308:27356   */\n      tag_626\n        /* \"#utility.yul\":27350:27354   */\n      0x1f\n        /* \"#utility.yul\":27342:27348   */\n      dup10\n        /* \"#utility.yul\":27338:27355   */\n      and\n        /* \"#utility.yul\":27327:27336   */\n      dup3\n        /* \"#utility.yul\":27308:27356   */\n      tag_298\n      jump\t// in\n    tag_626:\n        /* \"#utility.yul\":27300:27306   */\n      dup4\n        /* \"#utility.yul\":27293:27357   */\n      sstore\n        /* \"#utility.yul\":27215:27371   */\n      pop\n        /* \"#utility.yul\":27192:27371   */\n    tag_625:\n        /* \"#utility.yul\":27417:27418   */\n      0x01\n        /* \"#utility.yul\":27413:27414   */\n      0x02\n        /* \"#utility.yul\":27405:27411   */\n      dup9\n        /* \"#utility.yul\":27401:27415   */\n      mul\n        /* \"#utility.yul\":27397:27419   */\n      add\n        /* \"#utility.yul\":27391:27395   */\n      dup9\n        /* \"#utility.yul\":27384:27420   */\n      sstore\n        /* \"#utility.yul\":26819:27430   */\n      pop\n      pop\n      pop\n        /* \"#utility.yul\":26782:27669   */\n    tag_617:\n      pop\n        /* \"#utility.yul\":26372:27675   */\n      pop\n      pop\n      pop\n        /* \"#utility.yul\":26280:27675   */\n      pop\n      pop\n      jump\t// out\n        /* \"#utility.yul\":27681:27875   */\n    tag_153:\n        /* \"#utility.yul\":27721:27725   */\n      0x00\n        /* \"#utility.yul\":27741:27761   */\n      tag_628\n        /* \"#utility.yul\":27759:27760   */\n      dup3\n        /* \"#utility.yul\":27741:27761   */\n      tag_237\n      jump\t// in\n    tag_628:\n        /* \"#utility.yul\":27736:27761   */\n      swap2\n      pop\n        /* \"#utility.yul\":27775:27795   */\n      tag_629\n        /* \"#utility.yul\":27793:27794   */\n      dup4\n        /* \"#utility.yul\":27775:27795   */\n      tag_237\n      jump\t// in\n    tag_629:\n        /* \"#utility.yul\":27770:27795   */\n      swap3\n      pop\n        /* \"#utility.yul\":27819:27820   */\n      dup3\n        /* \"#utility.yul\":27816:27817   */\n      dup3\n        /* \"#utility.yul\":27812:27821   */\n      sub\n        /* \"#utility.yul\":27804:27821   */\n      swap1\n      pop\n        /* \"#utility.yul\":27843:27844   */\n      dup2\n        /* \"#utility.yul\":27837:27841   */\n      dup2\n        /* \"#utility.yul\":27834:27845   */\n      gt\n        /* \"#utility.yul\":27831:27868   */\n      iszero\n      tag_630\n      jumpi\n        /* \"#utility.yul\":27848:27866   */\n      tag_631\n      tag_270\n      jump\t// in\n    tag_631:\n        /* \"#utility.yul\":27831:27868   */\n    tag_630:\n        /* \"#utility.yul\":27681:27875   */\n      swap3\n      swap2\n      pop\n      pop\n      jump\t// out\n        /* \"#utility.yul\":27881:28505   */\n    tag_156:\n        /* \"#utility.yul\":28070:28074   */\n      0x00\n        /* \"#utility.yul\":28108:28110   */\n      0x60\n        /* \"#utility.yul\":28097:28106   */\n      dup3\n        /* \"#utility.yul\":28093:28111   */\n      add\n        /* \"#utility.yul\":28085:28111   */\n      swap1\n      pop\n        /* \"#utility.yul\":28121:28192   */\n      tag_633\n        /* \"#utility.yul\":28189:28190   */\n      0x00\n        /* \"#utility.yul\":28178:28187   */\n      dup4\n        /* \"#utility.yul\":28174:28191   */\n      add\n        /* \"#utility.yul\":28165:28171   */\n      dup7\n        /* \"#utility.yul\":28121:28192   */\n      tag_277\n      jump\t// in\n    tag_633:\n        /* \"#utility.yul\":28239:28248   */\n      dup2\n        /* \"#utility.yul\":28233:28237   */\n      dup2\n        /* \"#utility.yul\":28229:28249   */\n      sub\n        /* \"#utility.yul\":28224:28226   */\n      0x20\n        /* \"#utility.yul\":28213:28222   */\n      dup4\n        /* \"#utility.yul\":28209:28227   */\n      add\n        /* \"#utility.yul\":28202:28250   */\n      mstore\n        /* \"#utility.yul\":28267:28345   */\n      tag_634\n        /* \"#utility.yul\":28340:28344   */\n      dup2\n        /* \"#utility.yul\":28331:28337   */\n      dup6\n        /* \"#utility.yul\":28267:28345   */\n      tag_248\n      jump\t// in\n    tag_634:\n        /* \"#utility.yul\":28259:28345   */\n      swap1\n      pop\n        /* \"#utility.yul\":28392:28401   */\n      dup2\n        /* \"#utility.yul\":28386:28390   */\n      dup2\n        /* \"#utility.yul\":28382:28402   */\n      sub\n        /* \"#utility.yul\":28377:28379   */\n      0x40\n        /* \"#utility.yul\":28366:28375   */\n      dup4\n        /* \"#utility.yul\":28362:28380   */\n      add\n        /* \"#utility.yul\":28355:28403   */\n      mstore\n        /* \"#utility.yul\":28420:28498   */\n      tag_635\n        /* \"#utility.yul\":28493:28497   */\n      dup2\n        /* \"#utility.yul\":28484:28490   */\n      dup5\n        /* \"#utility.yul\":28420:28498   */\n      tag_248\n      jump\t// in\n    tag_635:\n        /* \"#utility.yul\":28412:28498   */\n      swap1\n      pop\n        /* \"#utility.yul\":27881:28505   */\n      swap5\n      swap4\n      pop\n      pop\n      pop\n      pop\n      jump\t// out\n        /* \"#utility.yul\":28511:28642   */\n    tag_304:\n        /* \"#utility.yul\":28595:28601   */\n      0x00\n        /* \"#utility.yul\":28629:28634   */\n      dup2\n        /* \"#utility.yul\":28623:28635   */\n      sload\n        /* \"#utility.yul\":28613:28635   */\n      swap1\n      pop\n        /* \"#utility.yul\":28511:28642   */\n      swap2\n      swap1\n      pop\n      jump\t// out\n        /* \"#utility.yul\":28648:28855   */\n    tag_305:\n        /* \"#utility.yul\":28770:28781   */\n      0x00\n        /* \"#utility.yul\":28804:28810   */\n      dup3\n        /* \"#utility.yul\":28799:28802   */\n      dup3\n        /* \"#utility.yul\":28792:28811   */\n      mstore\n        /* \"#utility.yul\":28844:28848   */\n      0x20\n        /* \"#utility.yul\":28839:28842   */\n      dup3\n        /* \"#utility.yul\":28835:28849   */\n      add\n        /* \"#utility.yul\":28820:28849   */\n      swap1\n      pop\n        /* \"#utility.yul\":28648:28855   */\n      swap3\n      swap2\n      pop\n      pop\n      jump\t// out\n        /* \"#utility.yul\":28861:29037   */\n    tag_306:\n        /* \"#utility.yul\":28945:28949   */\n      0x00\n        /* \"#utility.yul\":28968:28971   */\n      dup2\n        /* \"#utility.yul\":28960:28971   */\n      swap1\n      pop\n        /* \"#utility.yul\":28991:28994   */\n      dup2\n        /* \"#utility.yul\":28988:28989   */\n      0x00\n        /* \"#utility.yul\":28981:28995   */\n      mstore\n        /* \"#utility.yul\":29025:29029   */\n      0x20\n        /* \"#utility.yul\":29022:29023   */\n      0x00\n        /* \"#utility.yul\":29012:29030   */\n      keccak256\n        /* \"#utility.yul\":29004:29030   */\n      swap1\n      pop\n        /* \"#utility.yul\":28861:29037   */\n      swap2\n      swap1\n      pop\n      jump\t// out\n        /* \"#utility.yul\":29067:29878   */\n    tag_307:\n        /* \"#utility.yul\":29142:29145   */\n      0x00\n        /* \"#utility.yul\":29179:29184   */\n      dup2\n        /* \"#utility.yul\":29173:29185   */\n      sload\n        /* \"#utility.yul\":29208:29244   */\n      tag_640\n        /* \"#utility.yul\":29234:29243   */\n      dup2\n        /* \"#utility.yul\":29208:29244   */\n      tag_75\n      jump\t// in\n    tag_640:\n        /* \"#utility.yul\":29260:29321   */\n      tag_641\n        /* \"#utility.yul\":29314:29320   */\n      dup2\n        /* \"#utility.yul\":29309:29312   */\n      dup7\n        /* \"#utility.yul\":29260:29321   */\n      tag_267\n      jump\t// in\n    tag_641:\n        /* \"#utility.yul\":29253:29321   */\n      swap5\n      pop\n        /* \"#utility.yul\":29352:29353   */\n      0x01\n        /* \"#utility.yul\":29341:29350   */\n      dup3\n        /* \"#utility.yul\":29337:29354   */\n      and\n        /* \"#utility.yul\":29368:29369   */\n      0x00\n        /* \"#utility.yul\":29363:29527   */\n      dup2\n      eq\n      tag_643\n      jumpi\n        /* \"#utility.yul\":29541:29542   */\n      0x01\n        /* \"#utility.yul\":29536:29872   */\n      dup2\n      eq\n      tag_644\n      jumpi\n        /* \"#utility.yul\":29330:29872   */\n      jump(tag_642)\n        /* \"#utility.yul\":29363:29527   */\n    tag_643:\n        /* \"#utility.yul\":29447:29451   */\n      0xff\n        /* \"#utility.yul\":29443:29452   */\n      not\n        /* \"#utility.yul\":29432:29441   */\n      dup4\n        /* \"#utility.yul\":29428:29453   */\n      and\n        /* \"#utility.yul\":29423:29426   */\n      dup7\n        /* \"#utility.yul\":29416:29454   */\n      mstore\n        /* \"#utility.yul\":29507:29513   */\n      dup2\n        /* \"#utility.yul\":29500:29514   */\n      iszero\n        /* \"#utility.yul\":29493:29515   */\n      iszero\n        /* \"#utility.yul\":29487:29491   */\n      0x20\n        /* \"#utility.yul\":29483:29516   */\n      mul\n        /* \"#utility.yul\":29478:29481   */\n      dup7\n        /* \"#utility.yul\":29474:29517   */\n      add\n        /* \"#utility.yul\":29467:29517   */\n      swap4\n      pop\n        /* \"#utility.yul\":29363:29527   */\n      jump(tag_642)\n        /* \"#utility.yul\":29536:29872   */\n    tag_644:\n        /* \"#utility.yul\":29603:29641   */\n      tag_645\n        /* \"#utility.yul\":29635:29640   */\n      dup6\n        /* \"#utility.yul\":29603:29641   */\n      tag_286\n      jump\t// in\n    tag_645:\n        /* \"#utility.yul\":29663:29664   */\n      0x00\n        /* \"#utility.yul\":29677:29831   */\n    tag_646:\n        /* \"#utility.yul\":29691:29697   */\n      dup4\n        /* \"#utility.yul\":29688:29689   */\n      dup2\n        /* \"#utility.yul\":29685:29698   */\n      lt\n        /* \"#utility.yul\":29677:29831   */\n      iszero\n      tag_648\n      jumpi\n        /* \"#utility.yul\":29765:29772   */\n      dup2\n        /* \"#utility.yul\":29759:29773   */\n      sload\n        /* \"#utility.yul\":29755:29756   */\n      dup2\n        /* \"#utility.yul\":29750:29753   */\n      dup10\n        /* \"#utility.yul\":29746:29757   */\n      add\n        /* \"#utility.yul\":29739:29774   */\n      mstore\n        /* \"#utility.yul\":29815:29816   */\n      0x01\n        /* \"#utility.yul\":29806:29813   */\n      dup3\n        /* \"#utility.yul\":29802:29817   */\n      add\n        /* \"#utility.yul\":29791:29817   */\n      swap2\n      pop\n        /* \"#utility.yul\":29713:29717   */\n      0x20\n        /* \"#utility.yul\":29710:29711   */\n      dup2\n        /* \"#utility.yul\":29706:29718   */\n      add\n        /* \"#utility.yul\":29701:29718   */\n      swap1\n      pop\n        /* \"#utility.yul\":29677:29831   */\n      jump(tag_646)\n    tag_648:\n        /* \"#utility.yul\":29860:29861   */\n      dup1\n        /* \"#utility.yul\":29855:29858   */\n      dup9\n        /* \"#utility.yul\":29851:29862   */\n      add\n        /* \"#utility.yul\":29844:29862   */\n      swap6\n      pop\n        /* \"#utility.yul\":29543:29872   */\n      pop\n      pop\n        /* \"#utility.yul\":29330:29872   */\n    tag_642:\n      pop\n        /* \"#utility.yul\":29146:29878   */\n      pop\n      pop\n        /* \"#utility.yul\":29067:29878   */\n      swap3\n      swap2\n      pop\n      pop\n      jump\t// out\n        /* \"#utility.yul\":29884:29986   */\n    tag_308:\n        /* \"#utility.yul\":29926:29934   */\n      0x00\n        /* \"#utility.yul\":29973:29978   */\n      dup2\n        /* \"#utility.yul\":29970:29971   */\n      0x00\n        /* \"#utility.yul\":29966:29979   */\n      shr\n        /* \"#utility.yul\":29945:29979   */\n      swap1\n      pop\n        /* \"#utility.yul\":29884:29986   */\n      swap2\n      swap1\n      pop\n      jump\t// out\n        /* \"#utility.yul\":29992:30091   */\n    tag_309:\n        /* \"#utility.yul\":30040:30047   */\n      0x00\n        /* \"#utility.yul\":30080:30084   */\n      0xff\n        /* \"#utility.yul\":30073:30078   */\n      dup3\n        /* \"#utility.yul\":30069:30085   */\n      and\n        /* \"#utility.yul\":30058:30085   */\n      swap1\n      pop\n        /* \"#utility.yul\":29992:30091   */\n      swap2\n      swap1\n      pop\n      jump\t// out\n        /* \"#utility.yul\":30097:30259   */\n    tag_310:\n        /* \"#utility.yul\":30164:30169   */\n      0x00\n        /* \"#utility.yul\":30189:30253   */\n      tag_652\n        /* \"#utility.yul\":30218:30252   */\n      tag_653\n        /* \"#utility.yul\":30241:30251   */\n      dup4\n        /* \"#utility.yul\":30218:30252   */\n      tag_308\n      jump\t// in\n    tag_653:\n        /* \"#utility.yul\":30189:30253   */\n      tag_309\n      jump\t// in\n    tag_652:\n        /* \"#utility.yul\":30180:30253   */\n      swap1\n      pop\n        /* \"#utility.yul\":30097:30259   */\n      swap2\n      swap1\n      pop\n      jump\t// out\n        /* \"#utility.yul\":30265:30367   */\n    tag_311:\n        /* \"#utility.yul\":30307:30315   */\n      0x00\n        /* \"#utility.yul\":30354:30359   */\n      dup2\n        /* \"#utility.yul\":30351:30352   */\n      0x08\n        /* \"#utility.yul\":30347:30360   */\n      shr\n        /* \"#utility.yul\":30326:30360   */\n      swap1\n      pop\n        /* \"#utility.yul\":30265:30367   */\n      swap2\n      swap1\n      pop\n      jump\t// out\n        /* \"#utility.yul\":30373:30535   */\n    tag_312:\n        /* \"#utility.yul\":30440:30445   */\n      0x00\n        /* \"#utility.yul\":30465:30529   */\n      tag_656\n        /* \"#utility.yul\":30494:30528   */\n      tag_657\n        /* \"#utility.yul\":30517:30527   */\n      dup4\n        /* \"#utility.yul\":30494:30528   */\n      tag_311\n      jump\t// in\n    tag_657:\n        /* \"#utility.yul\":30465:30529   */\n      tag_309\n      jump\t// in\n    tag_656:\n        /* \"#utility.yul\":30456:30529   */\n      swap1\n      pop\n        /* \"#utility.yul\":30373:30535   */\n      swap2\n      swap1\n      pop\n      jump\t// out\n        /* \"#utility.yul\":30541:30645   */\n    tag_313:\n        /* \"#utility.yul\":30584:30592   */\n      0x00\n        /* \"#utility.yul\":30632:30637   */\n      dup2\n        /* \"#utility.yul\":30628:30630   */\n      0x10\n        /* \"#utility.yul\":30624:30638   */\n      shr\n        /* \"#utility.yul\":30603:30638   */\n      swap1\n      pop\n        /* \"#utility.yul\":30541:30645   */\n      swap2\n      swap1\n      pop\n      jump\t// out\n        /* \"#utility.yul\":30651:30757   */\n    tag_314:\n        /* \"#utility.yul\":30700:30707   */\n      0x00\n        /* \"#utility.yul\":30740:30750   */\n      0xffffffff\n        /* \"#utility.yul\":30733:30738   */\n      dup3\n        /* \"#utility.yul\":30729:30751   */\n      and\n        /* \"#utility.yul\":30718:30751   */\n      swap1\n      pop\n        /* \"#utility.yul\":30651:30757   */\n      swap2\n      swap1\n      pop\n      jump\t// out\n        /* \"#utility.yul\":30763:30928   */\n    tag_315:\n        /* \"#utility.yul\":30831:30836   */\n      0x00\n        /* \"#utility.yul\":30856:30922   */\n      tag_661\n        /* \"#utility.yul\":30886:30921   */\n      tag_662\n        /* \"#utility.yul\":30910:30920   */\n      dup4\n        /* \"#utility.yul\":30886:30921   */\n      tag_313\n      jump\t// in\n    tag_662:\n        /* \"#utility.yul\":30856:30922   */\n      tag_314\n      jump\t// in\n    tag_661:\n        /* \"#utility.yul\":30847:30922   */\n      swap1\n      pop\n        /* \"#utility.yul\":30763:30928   */\n      swap2\n      swap1\n      pop\n      jump\t// out\n        /* \"#utility.yul\":30934:31038   */\n    tag_316:\n        /* \"#utility.yul\":30977:30985   */\n      0x00\n        /* \"#utility.yul\":31025:31030   */\n      dup2\n        /* \"#utility.yul\":31021:31023   */\n      0x30\n        /* \"#utility.yul\":31017:31031   */\n      shr\n        /* \"#utility.yul\":30996:31031   */\n      swap1\n      pop\n        /* \"#utility.yul\":30934:31038   */\n      swap2\n      swap1\n      pop\n      jump\t// out\n        /* \"#utility.yul\":31044:31142   */\n    tag_317:\n        /* \"#utility.yul\":31091:31098   */\n      0x00\n        /* \"#utility.yul\":31131:31135   */\n      0xff\n        /* \"#utility.yul\":31124:31129   */\n      dup3\n        /* \"#utility.yul\":31120:31136   */\n      and\n        /* \"#utility.yul\":31109:31136   */\n      swap1\n      pop\n        /* \"#utility.yul\":31044:31142   */\n      swap2\n      swap1\n      pop\n      jump\t// out\n        /* \"#utility.yul\":31148:31309   */\n    tag_318:\n        /* \"#utility.yul\":31214:31219   */\n      0x00\n        /* \"#utility.yul\":31239:31303   */\n      tag_666\n        /* \"#utility.yul\":31267:31302   */\n      tag_667\n        /* \"#utility.yul\":31291:31301   */\n      dup4\n        /* \"#utility.yul\":31267:31302   */\n      tag_316\n      jump\t// in\n    tag_667:\n        /* \"#utility.yul\":31239:31303   */\n      tag_317\n      jump\t// in\n    tag_666:\n        /* \"#utility.yul\":31230:31303   */\n      swap1\n      pop\n        /* \"#utility.yul\":31148:31309   */\n      swap2\n      swap1\n      pop\n      jump\t// out\n        /* \"#utility.yul\":31315:31414   */\n    tag_319:\n        /* \"#utility.yul\":31386:31407   */\n      tag_669\n        /* \"#utility.yul\":31401:31406   */\n      dup2\n        /* \"#utility.yul\":31386:31407   */\n      tag_252\n      jump\t// in\n    tag_669:\n        /* \"#utility.yul\":31381:31384   */\n      dup3\n        /* \"#utility.yul\":31374:31408   */\n      mstore\n        /* \"#utility.yul\":31315:31414   */\n      pop\n      pop\n      jump\t// out\n        /* \"#utility.yul\":31420:31524   */\n    tag_320:\n        /* \"#utility.yul\":31463:31471   */\n      0x00\n        /* \"#utility.yul\":31511:31516   */\n      dup2\n        /* \"#utility.yul\":31507:31509   */\n      0x38\n        /* \"#utility.yul\":31503:31517   */\n      shr\n        /* \"#utility.yul\":31482:31517   */\n      swap1\n      pop\n        /* \"#utility.yul\":31420:31524   */\n      swap2\n      swap1\n      pop\n      jump\t// out\n        /* \"#utility.yul\":31530:31691   */\n    tag_321:\n        /* \"#utility.yul\":31596:31601   */\n      0x00\n        /* \"#utility.yul\":31621:31685   */\n      tag_672\n        /* \"#utility.yul\":31649:31684   */\n      tag_673\n        /* \"#utility.yul\":31673:31683   */\n      dup4\n        /* \"#utility.yul\":31649:31684   */\n      tag_320\n      jump\t// in\n    tag_673:\n        /* \"#utility.yul\":31621:31685   */\n      tag_317\n      jump\t// in\n    tag_672:\n        /* \"#utility.yul\":31612:31685   */\n      swap1\n      pop\n        /* \"#utility.yul\":31530:31691   */\n      swap2\n      swap1\n      pop\n      jump\t// out\n        /* \"#utility.yul\":31697:31861   */\n    tag_322:\n        /* \"#utility.yul\":31765:31770   */\n      0x00\n        /* \"#utility.yul\":31790:31855   */\n      tag_675\n        /* \"#utility.yul\":31820:31854   */\n      tag_676\n        /* \"#utility.yul\":31843:31853   */\n      dup4\n        /* \"#utility.yul\":31820:31854   */\n      tag_308\n      jump\t// in\n    tag_676:\n        /* \"#utility.yul\":31790:31855   */\n      tag_314\n      jump\t// in\n    tag_675:\n        /* \"#utility.yul\":31781:31855   */\n      swap1\n      pop\n        /* \"#utility.yul\":31697:31861   */\n      swap2\n      swap1\n      pop\n      jump\t// out\n        /* \"#utility.yul\":31867:31971   */\n    tag_323:\n        /* \"#utility.yul\":31910:31918   */\n      0x00\n        /* \"#utility.yul\":31958:31963   */\n      dup2\n        /* \"#utility.yul\":31954:31956   */\n      0x20\n        /* \"#utility.yul\":31950:31964   */\n      shr\n        /* \"#utility.yul\":31929:31964   */\n      swap1\n      pop\n        /* \"#utility.yul\":31867:31971   */\n      swap2\n      swap1\n      pop\n      jump\t// out\n        /* \"#utility.yul\":31977:32142   */\n    tag_324:\n        /* \"#utility.yul\":32045:32050   */\n      0x00\n        /* \"#utility.yul\":32070:32136   */\n      tag_679\n        /* \"#utility.yul\":32100:32135   */\n      tag_680\n        /* \"#utility.yul\":32124:32134   */\n      dup4\n        /* \"#utility.yul\":32100:32135   */\n      tag_323\n      jump\t// in\n    tag_680:\n        /* \"#utility.yul\":32070:32136   */\n      tag_314\n      jump\t// in\n    tag_679:\n        /* \"#utility.yul\":32061:32136   */\n      swap1\n      pop\n        /* \"#utility.yul\":31977:32142   */\n      swap2\n      swap1\n      pop\n      jump\t// out\n        /* \"#utility.yul\":32148:32252   */\n    tag_325:\n        /* \"#utility.yul\":32191:32199   */\n      0x00\n        /* \"#utility.yul\":32239:32244   */\n      dup2\n        /* \"#utility.yul\":32235:32237   */\n      0x40\n        /* \"#utility.yul\":32231:32245   */\n      shr\n        /* \"#utility.yul\":32210:32245   */\n      swap1\n      pop\n        /* \"#utility.yul\":32148:32252   */\n      swap2\n      swap1\n      pop\n      jump\t// out\n        /* \"#utility.yul\":32258:32423   */\n    tag_326:\n        /* \"#utility.yul\":32326:32331   */\n      0x00\n        /* \"#utility.yul\":32351:32417   */\n      tag_683\n        /* \"#utility.yul\":32381:32416   */\n      tag_684\n        /* \"#utility.yul\":32405:32415   */\n      dup4\n        /* \"#utility.yul\":32381:32416   */\n      tag_325\n      jump\t// in\n    tag_684:\n        /* \"#utility.yul\":32351:32417   */\n      tag_314\n      jump\t// in\n    tag_683:\n        /* \"#utility.yul\":32342:32417   */\n      swap1\n      pop\n        /* \"#utility.yul\":32258:32423   */\n      swap2\n      swap1\n      pop\n      jump\t// out\n        /* \"#utility.yul\":32429:32533   */\n    tag_327:\n        /* \"#utility.yul\":32472:32480   */\n      0x00\n        /* \"#utility.yul\":32520:32525   */\n      dup2\n        /* \"#utility.yul\":32516:32518   */\n      0x60\n        /* \"#utility.yul\":32512:32526   */\n      shr\n        /* \"#utility.yul\":32491:32526   */\n      swap1\n      pop\n        /* \"#utility.yul\":32429:32533   */\n      swap2\n      swap1\n      pop\n      jump\t// out\n        /* \"#utility.yul\":32539:32703   */\n    tag_328:\n        /* \"#utility.yul\":32607:32612   */\n      0x00\n        /* \"#utility.yul\":32632:32697   */\n      tag_687\n        /* \"#utility.yul\":32661:32696   */\n      tag_688\n        /* \"#utility.yul\":32685:32695   */\n      dup4\n        /* \"#utility.yul\":32661:32696   */\n      tag_327\n      jump\t// in\n    tag_688:\n        /* \"#utility.yul\":32632:32697   */\n      tag_309\n      jump\t// in\n    tag_687:\n        /* \"#utility.yul\":32623:32697   */\n      swap1\n      pop\n        /* \"#utility.yul\":32539:32703   */\n      swap2\n      swap1\n      pop\n      jump\t// out\n        /* \"#utility.yul\":32773:33806   */\n    tag_329:\n        /* \"#utility.yul\":32901:32905   */\n      0x80\n        /* \"#utility.yul\":32896:32899   */\n      dup3\n        /* \"#utility.yul\":32892:32906   */\n      add\n        /* \"#utility.yul\":32932:32933   */\n      0x00\n        /* \"#utility.yul\":33009:33013   */\n      dup1\n        /* \"#utility.yul\":33002:33007   */\n      dup4\n        /* \"#utility.yul\":32998:33014   */\n      add\n        /* \"#utility.yul\":32992:33015   */\n      sload\n        /* \"#utility.yul\":32979:33015   */\n      swap1\n      pop\n        /* \"#utility.yul\":33048:33102   */\n      tag_690\n        /* \"#utility.yul\":33092:33101   */\n      dup2\n        /* \"#utility.yul\":33048:33102   */\n      tag_322\n      jump\t// in\n    tag_690:\n        /* \"#utility.yul\":33115:33176   */\n      tag_691\n        /* \"#utility.yul\":33170:33174   */\n      0x00\n        /* \"#utility.yul\":33165:33168   */\n      dup7\n        /* \"#utility.yul\":33161:33175   */\n      add\n        /* \"#utility.yul\":33147:33159   */\n      dup3\n        /* \"#utility.yul\":33115:33176   */\n      tag_264\n      jump\t// in\n    tag_691:\n        /* \"#utility.yul\":32943:33186   */\n      pop\n        /* \"#utility.yul\":33253:33307   */\n      tag_692\n        /* \"#utility.yul\":33297:33306   */\n      dup2\n        /* \"#utility.yul\":33253:33307   */\n      tag_324\n      jump\t// in\n    tag_692:\n        /* \"#utility.yul\":33320:33381   */\n      tag_693\n        /* \"#utility.yul\":33375:33379   */\n      0x20\n        /* \"#utility.yul\":33370:33373   */\n      dup7\n        /* \"#utility.yul\":33366:33380   */\n      add\n        /* \"#utility.yul\":33352:33364   */\n      dup3\n        /* \"#utility.yul\":33320:33381   */\n      tag_264\n      jump\t// in\n    tag_693:\n        /* \"#utility.yul\":33196:33391   */\n      pop\n        /* \"#utility.yul\":33458:33512   */\n      tag_694\n        /* \"#utility.yul\":33502:33511   */\n      dup2\n        /* \"#utility.yul\":33458:33512   */\n      tag_326\n      jump\t// in\n    tag_694:\n        /* \"#utility.yul\":33525:33586   */\n      tag_695\n        /* \"#utility.yul\":33580:33584   */\n      0x40\n        /* \"#utility.yul\":33575:33578   */\n      dup7\n        /* \"#utility.yul\":33571:33585   */\n      add\n        /* \"#utility.yul\":33557:33569   */\n      dup3\n        /* \"#utility.yul\":33525:33586   */\n      tag_264\n      jump\t// in\n    tag_695:\n        /* \"#utility.yul\":33401:33596   */\n      pop\n        /* \"#utility.yul\":33663:33717   */\n      tag_696\n        /* \"#utility.yul\":33707:33716   */\n      dup2\n        /* \"#utility.yul\":33663:33717   */\n      tag_328\n      jump\t// in\n    tag_696:\n        /* \"#utility.yul\":33730:33789   */\n      tag_697\n        /* \"#utility.yul\":33783:33787   */\n      0x60\n        /* \"#utility.yul\":33778:33781   */\n      dup7\n        /* \"#utility.yul\":33774:33788   */\n      add\n        /* \"#utility.yul\":33760:33772   */\n      dup3\n        /* \"#utility.yul\":33730:33789   */\n      tag_265\n      jump\t// in\n    tag_697:\n        /* \"#utility.yul\":33606:33799   */\n      pop\n        /* \"#utility.yul\":32870:33806   */\n      pop\n      pop\n        /* \"#utility.yul\":32773:33806   */\n      pop\n      pop\n      jump\t// out\n        /* \"#utility.yul\":33812:33975   */\n    tag_330:\n        /* \"#utility.yul\":33879:33884   */\n      0x00\n        /* \"#utility.yul\":33904:33969   */\n      tag_699\n        /* \"#utility.yul\":33933:33968   */\n      tag_700\n        /* \"#utility.yul\":33957:33967   */\n      dup4\n        /* \"#utility.yul\":33933:33968   */\n      tag_313\n      jump\t// in\n    tag_700:\n        /* \"#utility.yul\":33904:33969   */\n      tag_309\n      jump\t// in\n    tag_699:\n        /* \"#utility.yul\":33895:33969   */\n      swap1\n      pop\n        /* \"#utility.yul\":33812:33975   */\n      swap2\n      swap1\n      pop\n      jump\t// out\n        /* \"#utility.yul\":34047:35136   */\n    tag_331:\n        /* \"#utility.yul\":34149:34152   */\n      0x00\n        /* \"#utility.yul\":34185:34189   */\n      0x80\n        /* \"#utility.yul\":34180:34183   */\n      dup4\n        /* \"#utility.yul\":34176:34190   */\n      add\n        /* \"#utility.yul\":34216:34217   */\n      0x00\n        /* \"#utility.yul\":34293:34297   */\n      dup1\n        /* \"#utility.yul\":34286:34291   */\n      dup5\n        /* \"#utility.yul\":34282:34298   */\n      add\n        /* \"#utility.yul\":34345:34348   */\n      dup6\n        /* \"#utility.yul\":34339:34343   */\n      dup4\n        /* \"#utility.yul\":34335:34349   */\n      sub\n        /* \"#utility.yul\":34328:34332   */\n      0x00\n        /* \"#utility.yul\":34323:34326   */\n      dup8\n        /* \"#utility.yul\":34319:34333   */\n      add\n        /* \"#utility.yul\":34312:34350   */\n      mstore\n        /* \"#utility.yul\":34371:34441   */\n      tag_702\n        /* \"#utility.yul\":34436:34440   */\n      dup4\n        /* \"#utility.yul\":34422:34434   */\n      dup3\n        /* \"#utility.yul\":34371:34441   */\n      tag_307\n      jump\t// in\n    tag_702:\n        /* \"#utility.yul\":34363:34441   */\n      swap3\n      pop\n        /* \"#utility.yul\":34227:34452   */\n      pop\n        /* \"#utility.yul\":34527:34531   */\n      0x01\n        /* \"#utility.yul\":34520:34525   */\n      dup5\n        /* \"#utility.yul\":34516:34532   */\n      add\n        /* \"#utility.yul\":34510:34533   */\n      sload\n        /* \"#utility.yul\":34497:34533   */\n      swap1\n      pop\n        /* \"#utility.yul\":34566:34619   */\n      tag_703\n        /* \"#utility.yul\":34609:34618   */\n      dup2\n        /* \"#utility.yul\":34566:34619   */\n      tag_310\n      jump\t// in\n    tag_703:\n        /* \"#utility.yul\":34632:34691   */\n      tag_704\n        /* \"#utility.yul\":34685:34689   */\n      0x20\n        /* \"#utility.yul\":34680:34683   */\n      dup8\n        /* \"#utility.yul\":34676:34690   */\n      add\n        /* \"#utility.yul\":34662:34674   */\n      dup3\n        /* \"#utility.yul\":34632:34691   */\n      tag_265\n      jump\t// in\n    tag_704:\n        /* \"#utility.yul\":34462:34701   */\n      pop\n        /* \"#utility.yul\":34768:34821   */\n      tag_705\n        /* \"#utility.yul\":34811:34820   */\n      dup2\n        /* \"#utility.yul\":34768:34821   */\n      tag_312\n      jump\t// in\n    tag_705:\n        /* \"#utility.yul\":34834:34893   */\n      tag_706\n        /* \"#utility.yul\":34887:34891   */\n      0x40\n        /* \"#utility.yul\":34882:34885   */\n      dup8\n        /* \"#utility.yul\":34878:34892   */\n      add\n        /* \"#utility.yul\":34864:34876   */\n      dup3\n        /* \"#utility.yul\":34834:34893   */\n      tag_265\n      jump\t// in\n    tag_706:\n        /* \"#utility.yul\":34711:34903   */\n      pop\n        /* \"#utility.yul\":34974:35027   */\n      tag_707\n        /* \"#utility.yul\":35017:35026   */\n      dup2\n        /* \"#utility.yul\":34974:35027   */\n      tag_330\n      jump\t// in\n    tag_707:\n        /* \"#utility.yul\":35040:35099   */\n      tag_708\n        /* \"#utility.yul\":35093:35097   */\n      0x60\n        /* \"#utility.yul\":35088:35091   */\n      dup8\n        /* \"#utility.yul\":35084:35098   */\n      add\n        /* \"#utility.yul\":35070:35082   */\n      dup3\n        /* \"#utility.yul\":35040:35099   */\n      tag_265\n      jump\t// in\n    tag_708:\n        /* \"#utility.yul\":34913:35109   */\n      pop\n        /* \"#utility.yul\":35126:35130   */\n      dup2\n        /* \"#utility.yul\":35119:35130   */\n      swap3\n      pop\n        /* \"#utility.yul\":34154:35136   */\n      pop\n      pop\n        /* \"#utility.yul\":34047:35136   */\n      swap3\n      swap2\n      pop\n      pop\n      jump\t// out\n        /* \"#utility.yul\":35208:37166   */\n    tag_332:\n        /* \"#utility.yul\":35310:35313   */\n      0x00\n        /* \"#utility.yul\":35346:35352   */\n      0x0160\n        /* \"#utility.yul\":35341:35344   */\n      dup4\n        /* \"#utility.yul\":35337:35353   */\n      add\n        /* \"#utility.yul\":35379:35380   */\n      0x00\n        /* \"#utility.yul\":35456:35460   */\n      dup1\n        /* \"#utility.yul\":35449:35454   */\n      dup5\n        /* \"#utility.yul\":35445:35461   */\n      add\n        /* \"#utility.yul\":35508:35511   */\n      dup6\n        /* \"#utility.yul\":35502:35506   */\n      dup4\n        /* \"#utility.yul\":35498:35512   */\n      sub\n        /* \"#utility.yul\":35491:35495   */\n      0x00\n        /* \"#utility.yul\":35486:35489   */\n      dup8\n        /* \"#utility.yul\":35482:35496   */\n      add\n        /* \"#utility.yul\":35475:35513   */\n      mstore\n        /* \"#utility.yul\":35534:35604   */\n      tag_710\n        /* \"#utility.yul\":35599:35603   */\n      dup4\n        /* \"#utility.yul\":35585:35597   */\n      dup3\n        /* \"#utility.yul\":35534:35604   */\n      tag_307\n      jump\t// in\n    tag_710:\n        /* \"#utility.yul\":35526:35604   */\n      swap3\n      pop\n        /* \"#utility.yul\":35390:35615   */\n      pop\n        /* \"#utility.yul\":35691:35695   */\n      0x01\n        /* \"#utility.yul\":35684:35689   */\n      dup5\n        /* \"#utility.yul\":35680:35696   */\n      add\n        /* \"#utility.yul\":35674:35697   */\n      sload\n        /* \"#utility.yul\":35661:35697   */\n      swap1\n      pop\n        /* \"#utility.yul\":35730:35783   */\n      tag_711\n        /* \"#utility.yul\":35773:35782   */\n      dup2\n        /* \"#utility.yul\":35730:35783   */\n      tag_310\n      jump\t// in\n    tag_711:\n        /* \"#utility.yul\":35796:35855   */\n      tag_712\n        /* \"#utility.yul\":35849:35853   */\n      0x20\n        /* \"#utility.yul\":35844:35847   */\n      dup8\n        /* \"#utility.yul\":35840:35854   */\n      add\n        /* \"#utility.yul\":35826:35838   */\n      dup3\n        /* \"#utility.yul\":35796:35855   */\n      tag_265\n      jump\t// in\n    tag_712:\n        /* \"#utility.yul\":35625:35865   */\n      pop\n        /* \"#utility.yul\":35931:35984   */\n      tag_713\n        /* \"#utility.yul\":35974:35983   */\n      dup2\n        /* \"#utility.yul\":35931:35984   */\n      tag_312\n      jump\t// in\n    tag_713:\n        /* \"#utility.yul\":35997:36056   */\n      tag_714\n        /* \"#utility.yul\":36050:36054   */\n      0x40\n        /* \"#utility.yul\":36045:36048   */\n      dup8\n        /* \"#utility.yul\":36041:36055   */\n      add\n        /* \"#utility.yul\":36027:36039   */\n      dup3\n        /* \"#utility.yul\":35997:36056   */\n      tag_265\n      jump\t// in\n    tag_714:\n        /* \"#utility.yul\":35875:36066   */\n      pop\n        /* \"#utility.yul\":36132:36186   */\n      tag_715\n        /* \"#utility.yul\":36176:36185   */\n      dup2\n        /* \"#utility.yul\":36132:36186   */\n      tag_315\n      jump\t// in\n    tag_715:\n        /* \"#utility.yul\":36199:36260   */\n      tag_716\n        /* \"#utility.yul\":36254:36258   */\n      0x60\n        /* \"#utility.yul\":36249:36252   */\n      dup8\n        /* \"#utility.yul\":36245:36259   */\n      add\n        /* \"#utility.yul\":36231:36243   */\n      dup3\n        /* \"#utility.yul\":36199:36260   */\n      tag_264\n      jump\t// in\n    tag_716:\n        /* \"#utility.yul\":36076:36270   */\n      pop\n        /* \"#utility.yul\":36336:36388   */\n      tag_717\n        /* \"#utility.yul\":36378:36387   */\n      dup2\n        /* \"#utility.yul\":36336:36388   */\n      tag_318\n      jump\t// in\n    tag_717:\n        /* \"#utility.yul\":36401:36458   */\n      tag_718\n        /* \"#utility.yul\":36452:36456   */\n      0x80\n        /* \"#utility.yul\":36447:36450   */\n      dup8\n        /* \"#utility.yul\":36443:36457   */\n      add\n        /* \"#utility.yul\":36429:36441   */\n      dup3\n        /* \"#utility.yul\":36401:36458   */\n      tag_319\n      jump\t// in\n    tag_718:\n        /* \"#utility.yul\":36280:36468   */\n      pop\n        /* \"#utility.yul\":36533:36585   */\n      tag_719\n        /* \"#utility.yul\":36575:36584   */\n      dup2\n        /* \"#utility.yul\":36533:36585   */\n      tag_321\n      jump\t// in\n    tag_719:\n        /* \"#utility.yul\":36598:36655   */\n      tag_720\n        /* \"#utility.yul\":36649:36653   */\n      0xa0\n        /* \"#utility.yul\":36644:36647   */\n      dup8\n        /* \"#utility.yul\":36640:36654   */\n      add\n        /* \"#utility.yul\":36626:36638   */\n      dup3\n        /* \"#utility.yul\":36598:36655   */\n      tag_319\n      jump\t// in\n    tag_720:\n        /* \"#utility.yul\":36478:36665   */\n      pop\n        /* \"#utility.yul\":36742:36746   */\n      0x02\n        /* \"#utility.yul\":36735:36740   */\n      dup5\n        /* \"#utility.yul\":36731:36747   */\n      add\n        /* \"#utility.yul\":36760:36864   */\n      tag_721\n        /* \"#utility.yul\":36858:36862   */\n      0xc0\n        /* \"#utility.yul\":36853:36856   */\n      dup8\n        /* \"#utility.yul\":36849:36863   */\n      add\n        /* \"#utility.yul\":36835:36847   */\n      dup3\n        /* \"#utility.yul\":36760:36864   */\n      tag_329\n      jump\t// in\n    tag_721:\n        /* \"#utility.yul\":36675:36874   */\n      pop\n        /* \"#utility.yul\":36952:36956   */\n      0x03\n        /* \"#utility.yul\":36945:36950   */\n      dup5\n        /* \"#utility.yul\":36941:36957   */\n      add\n        /* \"#utility.yul\":37006:37009   */\n      dup6\n        /* \"#utility.yul\":37000:37004   */\n      dup4\n        /* \"#utility.yul\":36996:37010   */\n      sub\n        /* \"#utility.yul\":36987:36993   */\n      0x0140\n        /* \"#utility.yul\":36982:36985   */\n      dup8\n        /* \"#utility.yul\":36978:36994   */\n      add\n        /* \"#utility.yul\":36971:37011   */\n      mstore\n        /* \"#utility.yul\":37032:37128   */\n      tag_722\n        /* \"#utility.yul\":37123:37127   */\n      dup4\n        /* \"#utility.yul\":37109:37121   */\n      dup3\n        /* \"#utility.yul\":37032:37128   */\n      tag_331\n      jump\t// in\n    tag_722:\n        /* \"#utility.yul\":37024:37128   */\n      swap3\n      pop\n        /* \"#utility.yul\":36884:37139   */\n      pop\n        /* \"#utility.yul\":37156:37160   */\n      dup2\n        /* \"#utility.yul\":37149:37160   */\n      swap3\n      pop\n        /* \"#utility.yul\":35315:37166   */\n      pop\n      pop\n        /* \"#utility.yul\":35208:37166   */\n      swap3\n      swap2\n      pop\n      pop\n      jump\t// out\n        /* \"#utility.yul\":37172:37414   */\n    tag_333:\n        /* \"#utility.yul\":37284:37294   */\n      0x00\n        /* \"#utility.yul\":37319:37408   */\n      tag_724\n        /* \"#utility.yul\":37404:37407   */\n      dup4\n        /* \"#utility.yul\":37396:37402   */\n      dup4\n        /* \"#utility.yul\":37319:37408   */\n      tag_332\n      jump\t// in\n    tag_724:\n        /* \"#utility.yul\":37305:37408   */\n      swap1\n      pop\n        /* \"#utility.yul\":37172:37414   */\n      swap3\n      swap2\n      pop\n      pop\n      jump\t// out\n        /* \"#utility.yul\":37420:37550   */\n    tag_334:\n        /* \"#utility.yul\":37507:37511   */\n      0x00\n        /* \"#utility.yul\":37539:37543   */\n      0x05\n        /* \"#utility.yul\":37534:37537   */\n      dup3\n        /* \"#utility.yul\":37530:37544   */\n      add\n        /* \"#utility.yul\":37522:37544   */\n      swap1\n      pop\n        /* \"#utility.yul\":37420:37550   */\n      swap2\n      swap1\n      pop\n      jump\t// out\n        /* \"#utility.yul\":37626:38687   */\n    tag_335:\n        /* \"#utility.yul\":37785:37788   */\n      0x00\n        /* \"#utility.yul\":37814:37885   */\n      tag_727\n        /* \"#utility.yul\":37879:37884   */\n      dup3\n        /* \"#utility.yul\":37814:37885   */\n      tag_304\n      jump\t// in\n    tag_727:\n        /* \"#utility.yul\":37901:38010   */\n      tag_728\n        /* \"#utility.yul\":38003:38009   */\n      dup2\n        /* \"#utility.yul\":37998:38001   */\n      dup6\n        /* \"#utility.yul\":37901:38010   */\n      tag_305\n      jump\t// in\n    tag_728:\n        /* \"#utility.yul\":37894:38010   */\n      swap4\n      pop\n        /* \"#utility.yul\":38036:38039   */\n      dup4\n        /* \"#utility.yul\":38081:38085   */\n      0x20\n        /* \"#utility.yul\":38073:38079   */\n      dup3\n        /* \"#utility.yul\":38069:38086   */\n      mul\n        /* \"#utility.yul\":38064:38067   */\n      dup6\n        /* \"#utility.yul\":38060:38087   */\n      add\n        /* \"#utility.yul\":38111:38184   */\n      tag_729\n        /* \"#utility.yul\":38178:38183   */\n      dup6\n        /* \"#utility.yul\":38111:38184   */\n      tag_306\n      jump\t// in\n    tag_729:\n        /* \"#utility.yul\":38207:38214   */\n      dup1\n        /* \"#utility.yul\":38238:38239   */\n      0x00\n        /* \"#utility.yul\":38223:38642   */\n    tag_730:\n        /* \"#utility.yul\":38248:38254   */\n      dup6\n        /* \"#utility.yul\":38245:38246   */\n      dup2\n        /* \"#utility.yul\":38242:38255   */\n      lt\n        /* \"#utility.yul\":38223:38642   */\n      iszero\n      tag_732\n      jumpi\n        /* \"#utility.yul\":38319:38328   */\n      dup5\n        /* \"#utility.yul\":38313:38317   */\n      dup5\n        /* \"#utility.yul\":38309:38329   */\n      sub\n        /* \"#utility.yul\":38304:38307   */\n      dup10\n        /* \"#utility.yul\":38297:38330   */\n      mstore\n        /* \"#utility.yul\":38364:38370   */\n      dup2\n        /* \"#utility.yul\":38391:38498   */\n      tag_733\n        /* \"#utility.yul\":38493:38497   */\n      dup6\n        /* \"#utility.yul\":38478:38491   */\n      dup3\n        /* \"#utility.yul\":38391:38498   */\n      tag_333\n      jump\t// in\n    tag_733:\n        /* \"#utility.yul\":38383:38498   */\n      swap5\n      pop\n        /* \"#utility.yul\":38521:38598   */\n      tag_734\n        /* \"#utility.yul\":38591:38597   */\n      dup4\n        /* \"#utility.yul\":38521:38598   */\n      tag_334\n      jump\t// in\n    tag_734:\n        /* \"#utility.yul\":38511:38598   */\n      swap3\n      pop\n        /* \"#utility.yul\":38627:38631   */\n      0x20\n        /* \"#utility.yul\":38622:38625   */\n      dup11\n        /* \"#utility.yul\":38618:38632   */\n      add\n        /* \"#utility.yul\":38611:38632   */\n      swap10\n      pop\n        /* \"#utility.yul\":38283:38642   */\n      pop\n        /* \"#utility.yul\":38270:38271   */\n      0x01\n        /* \"#utility.yul\":38267:38268   */\n      dup2\n        /* \"#utility.yul\":38263:38272   */\n      add\n        /* \"#utility.yul\":38258:38272   */\n      swap1\n      pop\n        /* \"#utility.yul\":38223:38642   */\n      jump(tag_730)\n    tag_732:\n        /* \"#utility.yul\":38227:38241   */\n      pop\n        /* \"#utility.yul\":38658:38662   */\n      dup3\n        /* \"#utility.yul\":38651:38662   */\n      swap8\n      pop\n        /* \"#utility.yul\":38678:38681   */\n      dup8\n        /* \"#utility.yul\":38671:38681   */\n      swap6\n      pop\n        /* \"#utility.yul\":37790:38687   */\n      pop\n      pop\n      pop\n      pop\n      pop\n        /* \"#utility.yul\":37626:38687   */\n      swap3\n      swap2\n      pop\n      pop\n      jump\t// out\n        /* \"#utility.yul\":38693:39146   */\n    tag_165:\n        /* \"#utility.yul\":38876:38880   */\n      0x00\n        /* \"#utility.yul\":38914:38916   */\n      0x20\n        /* \"#utility.yul\":38903:38912   */\n      dup3\n        /* \"#utility.yul\":38899:38917   */\n      add\n        /* \"#utility.yul\":38891:38917   */\n      swap1\n      pop\n        /* \"#utility.yul\":38963:38972   */\n      dup2\n        /* \"#utility.yul\":38957:38961   */\n      dup2\n        /* \"#utility.yul\":38953:38973   */\n      sub\n        /* \"#utility.yul\":38949:38950   */\n      0x00\n        /* \"#utility.yul\":38938:38947   */\n      dup4\n        /* \"#utility.yul\":38934:38951   */\n      add\n        /* \"#utility.yul\":38927:38974   */\n      mstore\n        /* \"#utility.yul\":38991:39139   */\n      tag_736\n        /* \"#utility.yul\":39134:39138   */\n      dup2\n        /* \"#utility.yul\":39125:39131   */\n      dup5\n        /* \"#utility.yul\":38991:39139   */\n      tag_335\n      jump\t// in\n    tag_736:\n        /* \"#utility.yul\":38983:39139   */\n      swap1\n      pop\n        /* \"#utility.yul\":38693:39146   */\n      swap3\n      swap2\n      pop\n      pop\n      jump\t// out\n        /* \"#utility.yul\":39152:39231   */\n    tag_336:\n        /* \"#utility.yul\":39191:39198   */\n      0x00\n        /* \"#utility.yul\":39220:39225   */\n      dup2\n        /* \"#utility.yul\":39209:39225   */\n      swap1\n      pop\n        /* \"#utility.yul\":39152:39231   */\n      swap2\n      swap1\n      pop\n      jump\t// out\n        /* \"#utility.yul\":39237:39394   */\n    tag_337:\n        /* \"#utility.yul\":39342:39387   */\n      tag_739\n        /* \"#utility.yul\":39362:39386   */\n      tag_740\n        /* \"#utility.yul\":39380:39385   */\n      dup3\n        /* \"#utility.yul\":39362:39386   */\n      tag_237\n      jump\t// in\n    tag_740:\n        /* \"#utility.yul\":39342:39387   */\n      tag_336\n      jump\t// in\n    tag_739:\n        /* \"#utility.yul\":39337:39340   */\n      dup3\n        /* \"#utility.yul\":39330:39388   */\n      mstore\n        /* \"#utility.yul\":39237:39394   */\n      pop\n      pop\n      jump\t// out\n        /* \"#utility.yul\":39400:39797   */\n    tag_198:\n        /* \"#utility.yul\":39540:39543   */\n      0x00\n        /* \"#utility.yul\":39555:39630   */\n      tag_742\n        /* \"#utility.yul\":39626:39629   */\n      dup3\n        /* \"#utility.yul\":39617:39623   */\n      dup6\n        /* \"#utility.yul\":39555:39630   */\n      tag_337\n      jump\t// in\n    tag_742:\n        /* \"#utility.yul\":39655:39657   */\n      0x20\n        /* \"#utility.yul\":39650:39653   */\n      dup3\n        /* \"#utility.yul\":39646:39658   */\n      add\n        /* \"#utility.yul\":39639:39658   */\n      swap2\n      pop\n        /* \"#utility.yul\":39668:39743   */\n      tag_743\n        /* \"#utility.yul\":39739:39742   */\n      dup3\n        /* \"#utility.yul\":39730:39736   */\n      dup5\n        /* \"#utility.yul\":39668:39743   */\n      tag_337\n      jump\t// in\n    tag_743:\n        /* \"#utility.yul\":39768:39770   */\n      0x20\n        /* \"#utility.yul\":39763:39766   */\n      dup3\n        /* \"#utility.yul\":39759:39771   */\n      add\n        /* \"#utility.yul\":39752:39771   */\n      swap2\n      pop\n        /* \"#utility.yul\":39788:39791   */\n      dup2\n        /* \"#utility.yul\":39781:39791   */\n      swap1\n      pop\n        /* \"#utility.yul\":39400:39797   */\n      swap4\n      swap3\n      pop\n      pop\n      pop\n      jump\t// out\n        /* \"#utility.yul\":39803:39983   */\n    tag_338:\n        /* \"#utility.yul\":39851:39928   */\n      0x4e487b7100000000000000000000000000000000000000000000000000000000\n        /* \"#utility.yul\":39848:39849   */\n      0x00\n        /* \"#utility.yul\":39841:39929   */\n      mstore\n        /* \"#utility.yul\":39948:39952   */\n      0x12\n        /* \"#utility.yul\":39945:39946   */\n      0x04\n        /* \"#utility.yul\":39938:39953   */\n      mstore\n        /* \"#utility.yul\":39972:39976   */\n      0x24\n        /* \"#utility.yul\":39969:39970   */\n      0x00\n        /* \"#utility.yul\":39962:39977   */\n      revert\n        /* \"#utility.yul\":39989:40165   */\n    tag_200:\n        /* \"#utility.yul\":40021:40022   */\n      0x00\n        /* \"#utility.yul\":40038:40058   */\n      tag_746\n        /* \"#utility.yul\":40056:40057   */\n      dup3\n        /* \"#utility.yul\":40038:40058   */\n      tag_237\n      jump\t// in\n    tag_746:\n        /* \"#utility.yul\":40033:40058   */\n      swap2\n      pop\n        /* \"#utility.yul\":40072:40092   */\n      tag_747\n        /* \"#utility.yul\":40090:40091   */\n      dup4\n        /* \"#utility.yul\":40072:40092   */\n      tag_237\n      jump\t// in\n    tag_747:\n        /* \"#utility.yul\":40067:40092   */\n      swap3\n      pop\n        /* \"#utility.yul\":40111:40112   */\n      dup3\n        /* \"#utility.yul\":40101:40136   */\n      tag_748\n      jumpi\n        /* \"#utility.yul\":40116:40134   */\n      tag_749\n      tag_338\n      jump\t// in\n    tag_749:\n        /* \"#utility.yul\":40101:40136   */\n    tag_748:\n        /* \"#utility.yul\":40157:40158   */\n      dup3\n        /* \"#utility.yul\":40154:40155   */\n      dup3\n        /* \"#utility.yul\":40150:40159   */\n      mod\n        /* \"#utility.yul\":40145:40159   */\n      swap1\n      pop\n        /* \"#utility.yul\":39989:40165   */\n      swap3\n      swap2\n      pop\n      pop\n      jump\t// out\n        /* \"#utility.yul\":40171:40356   */\n    tag_202:\n        /* \"#utility.yul\":40211:40212   */\n      0x00\n        /* \"#utility.yul\":40228:40248   */\n      tag_751\n        /* \"#utility.yul\":40246:40247   */\n      dup3\n        /* \"#utility.yul\":40228:40248   */\n      tag_237\n      jump\t// in\n    tag_751:\n        /* \"#utility.yul\":40223:40248   */\n      swap2\n      pop\n        /* \"#utility.yul\":40262:40282   */\n      tag_752\n        /* \"#utility.yul\":40280:40281   */\n      dup4\n        /* \"#utility.yul\":40262:40282   */\n      tag_237\n      jump\t// in\n    tag_752:\n        /* \"#utility.yul\":40257:40282   */\n      swap3\n      pop\n        /* \"#utility.yul\":40301:40302   */\n      dup3\n        /* \"#utility.yul\":40291:40326   */\n      tag_753\n      jumpi\n        /* \"#utility.yul\":40306:40324   */\n      tag_754\n      tag_338\n      jump\t// in\n    tag_754:\n        /* \"#utility.yul\":40291:40326   */\n    tag_753:\n        /* \"#utility.yul\":40348:40349   */\n      dup3\n        /* \"#utility.yul\":40345:40346   */\n      dup3\n        /* \"#utility.yul\":40341:40350   */\n      div\n        /* \"#utility.yul\":40336:40350   */\n      swap1\n      pop\n        /* \"#utility.yul\":40171:40356   */\n      swap3\n      swap2\n      pop\n      pop\n      jump\t// out\n        /* \"#utility.yul\":40362:40895   */\n    tag_219:\n        /* \"#utility.yul\":40531:40535   */\n      0x00\n        /* \"#utility.yul\":40569:40571   */\n      0x60\n        /* \"#utility.yul\":40558:40567   */\n      dup3\n        /* \"#utility.yul\":40554:40572   */\n      add\n        /* \"#utility.yul\":40546:40572   */\n      swap1\n      pop\n        /* \"#utility.yul\":40582:40653   */\n      tag_756\n        /* \"#utility.yul\":40650:40651   */\n      0x00\n        /* \"#utility.yul\":40639:40648   */\n      dup4\n        /* \"#utility.yul\":40635:40652   */\n      add\n        /* \"#utility.yul\":40626:40632   */\n      dup7\n        /* \"#utility.yul\":40582:40653   */\n      tag_251\n      jump\t// in\n    tag_756:\n        /* \"#utility.yul\":40700:40709   */\n      dup2\n        /* \"#utility.yul\":40694:40698   */\n      dup2\n        /* \"#utility.yul\":40690:40710   */\n      sub\n        /* \"#utility.yul\":40685:40687   */\n      0x20\n        /* \"#utility.yul\":40674:40683   */\n      dup4\n        /* \"#utility.yul\":40670:40688   */\n      add\n        /* \"#utility.yul\":40663:40711   */\n      mstore\n        /* \"#utility.yul\":40728:40806   */\n      tag_757\n        /* \"#utility.yul\":40801:40805   */\n      dup2\n        /* \"#utility.yul\":40792:40798   */\n      dup6\n        /* \"#utility.yul\":40728:40806   */\n      tag_248\n      jump\t// in\n    tag_757:\n        /* \"#utility.yul\":40720:40806   */\n      swap1\n      pop\n        /* \"#utility.yul\":40816:40888   */\n      tag_758\n        /* \"#utility.yul\":40884:40886   */\n      0x40\n        /* \"#utility.yul\":40873:40882   */\n      dup4\n        /* \"#utility.yul\":40869:40887   */\n      add\n        /* \"#utility.yul\":40860:40866   */\n      dup5\n        /* \"#utility.yul\":40816:40888   */\n      tag_277\n      jump\t// in\n    tag_758:\n        /* \"#utility.yul\":40362:40895   */\n      swap5\n      swap4\n      pop\n      pop\n      pop\n      pop\n      jump\t// out\n        /* \"#utility.yul\":40901:41458   */\n    tag_224:\n        /* \"#utility.yul\":41089:41092   */\n      0x00\n        /* \"#utility.yul\":41104:41179   */\n      tag_760\n        /* \"#utility.yul\":41175:41178   */\n      dup3\n        /* \"#utility.yul\":41166:41172   */\n      dup7\n        /* \"#utility.yul\":41104:41179   */\n      tag_337\n      jump\t// in\n    tag_760:\n        /* \"#utility.yul\":41204:41206   */\n      0x20\n        /* \"#utility.yul\":41199:41202   */\n      dup3\n        /* \"#utility.yul\":41195:41207   */\n      add\n        /* \"#utility.yul\":41188:41207   */\n      swap2\n      pop\n        /* \"#utility.yul\":41217:41292   */\n      tag_761\n        /* \"#utility.yul\":41288:41291   */\n      dup3\n        /* \"#utility.yul\":41279:41285   */\n      dup6\n        /* \"#utility.yul\":41217:41292   */\n      tag_337\n      jump\t// in\n    tag_761:\n        /* \"#utility.yul\":41317:41319   */\n      0x20\n        /* \"#utility.yul\":41312:41315   */\n      dup3\n        /* \"#utility.yul\":41308:41320   */\n      add\n        /* \"#utility.yul\":41301:41320   */\n      swap2\n      pop\n        /* \"#utility.yul\":41337:41432   */\n      tag_762\n        /* \"#utility.yul\":41428:41431   */\n      dup3\n        /* \"#utility.yul\":41419:41425   */\n      dup5\n        /* \"#utility.yul\":41337:41432   */\n      tag_303\n      jump\t// in\n    tag_762:\n        /* \"#utility.yul\":41330:41432   */\n      swap2\n      pop\n        /* \"#utility.yul\":41449:41452   */\n      dup2\n        /* \"#utility.yul\":41442:41452   */\n      swap1\n      pop\n        /* \"#utility.yul\":40901:41458   */\n      swap5\n      swap4\n      pop\n      pop\n      pop\n      pop\n      jump\t// out\n\n    auxdata: 0xa2646970667358221220b6a60efa81e5ae2885445b50df7975e08db09db5d306b48ec887ac7e98e6960a64736f6c634300081a0033\n}\n",
				"bytecode": {
					"linkReferences": {},
					"object": "60806040525f6005553480156012575f80fd5b50335f806101000a81548173ffffffffffffffffffffffffffffffffffffffff021916908373ffffffffffffffffffffffffffffffffffffffff1602179055505f8054906101000a900473ffffffffffffffffffffffffffffffffffffffff1673ffffffffffffffffffffffffffffffffffffffff165f73ffffffffffffffffffffffffffffffffffffffff167f8be0079c531659141344cd1fd0a4f28419497f9722a3daafe3b4186f6b6457e060405160405180910390a36131da806100d85f395ff3fe608060405234801561000f575f80fd5b50600436106100a7575f3560e01c80638da5cb5b1161006f5780638da5cb5b1461013e5780638f32d59b1461015c578063933ebf391461017a578063970f7d7314610196578063f2fde38b146101b2578063f71d96cb146101ce576100a7565b80633ef1ee50146100ab578063555e73c8146100db5780635da39b9c1461010e578063715018a6146101185780638457780714610122575b5f80fd5b6100c560048036038101906100c09190611d93565b610205565b6040516100d29190611e7e565b60405180910390f35b6100f560048036038101906100f09190611ec8565b61034a565b6040516101059493929190611f7e565b60405180910390f35b610116610431565b005b6101206109bf565b005b61013c60048036038101906101379190611ec8565b610a89565b005b610146610c11565b6040516101539190611fd7565b60405180910390f35b610164610c38565b604051610171919061200a565b60405180910390f35b610194600480360381019061018f919061214f565b610c8d565b005b6101b060048036038101906101ab91906121c5565b61155c565b005b6101cc60048036038101906101c79190611d93565b6115cd565b005b6101e860048036038101906101e39190611ec8565b6115e9565b6040516101fc989796959493929190612343565b60405180910390f35b60605f60025f8473ffffffffffffffffffffffffffffffffffffffff1673ffffffffffffffffffffffffffffffffffffffff1681526020019081526020015f205467ffffffffffffffff81111561025f5761025e61202b565b5b60405190808252806020026020018201604052801561028d5781602001602082028036833780820191505090505b5090505f805b60038054905081101561033f578473ffffffffffffffffffffffffffffffffffffffff1660015f8381526020019081526020015f205f9054906101000a900473ffffffffffffffffffffffffffffffffffffffff1673ffffffffffffffffffffffffffffffffffffffff16036103325780838381518110610317576103166123ce565b5b602002602001018181525050818061032e90612428565b9250505b8080600101915050610293565b508192505050919050565b60038181548110610359575f80fd5b905f5260205f2090600202015f91509050805f0180546103789061249c565b80601f01602080910402602001604051908101604052809291908181526020018280546103a49061249c565b80156103ef5780601f106103c6576101008083540402835291602001916103ef565b820191905f5260205f20905b8154815290600101906020018083116103d257829003601f168201915b505050505090806001015f9054906101000a900460ff16908060010160019054906101000a900460ff16908060010160029054906101000a900460ff16905084565b5f60075f3373ffffffffffffffffffffffffffffffffffffffff1673ffffffffffffffffffffffffffffffffffffffff1681526020019081526020015f205490505f61047c82611888565b90506001810361094c5760016009838154811061049c5761049b6123ce565b5b905f5260205f20906005020160010160076101000a81548160ff0219169083151502179055505f600983815481106104d7576104d66123ce565b5b905f5260205f209060050201604051806101000160405290815f820180546104fe9061249c565b80601f016020809104026020016040519081016040528092919081815260200182805461052a9061249c565b80156105755780601f1061054c57610100808354040283529160200191610575565b820191905f5260205f20905b81548152906001019060200180831161055857829003601f168201915b50505050508152602001600182015f9054906101000a900460ff1660ff1660ff1681526020016001820160019054906101000a900460ff1660ff1660ff1681526020016001820160029054906101000a900463ffffffff1663ffffffff1663ffffffff1681526020016001820160069054906101000a900460ff161515151581526020016001820160079054906101000a900460ff16151515158152602001600282016040518060800160405290815f82015f9054906101000a900463ffffffff1663ffffffff1663ffffffff1681526020015f820160049054906101000a900463ffffffff1663ffffffff1663ffffffff1681526020015f820160089054906101000a900463ffffffff1663ffffffff1663ffffffff1681526020015f8201600c9054906101000a900460ff1660ff1660ff16815250508152602001600382016040518060800160405290815f820180546106d09061249c565b80601f01602080910402602001604051908101604052809291908181526020018280546106fc9061249c565b80156107475780601f1061071e57610100808354040283529160200191610747565b820191905f5260205f20905b81548152906001019060200180831161072a57829003601f168201915b50505050508152602001600182015f9054906101000a900460ff1660ff1660ff1681526020016001820160019054906101000a900460ff1660ff1660ff1681526020016001820160029054906101000a900460ff1660ff1660ff16815250508152505090505f6107b6846118b4565b90508160e001516040015160ff168260c00151604001516107d791906124cc565b63ffffffff168160400151116108a9577f91c6d69eac266a1ed233f0d4544d38438777858029c23cbd6a4a6578bd71d0d38260e001516040015160ff168360c001516040015161082791906124cc565b826040015160405161083a929190612595565b60405180910390a160098481548110610856576108556123ce565b5b905f5260205f209060050201600101600281819054906101000a900463ffffffff1680929190610885906125cf565b91906101000a81548163ffffffff021916908363ffffffff16021790555050610945565b7f91c6d69eac266a1ed233f0d4544d38438777858029c23cbd6a4a6578bd71d0d38260e001516040015160ff168360c00151604001516108e991906124cc565b82604001516040516108fc929190612644565b60405180910390a15f60098581548110610919576109186123ce565b5b905f5260205f20906005020160010160066101000a81548160ff0219169083151502179055505f429050505b50506109bb565b7f91c6d69eac266a1ed233f0d4544d38438777858029c23cbd6a4a6578bd71d0d35f60098481548110610982576109816123ce565b5b905f5260205f2090600502016002015f0160089054906101000a900463ffffffff166040516109b2929190612701565b60405180910390a15b5050565b6109c7610c38565b6109cf575f80fd5b5f73ffffffffffffffffffffffffffffffffffffffff165f8054906101000a900473ffffffffffffffffffffffffffffffffffffffff1673ffffffffffffffffffffffffffffffffffffffff167f8be0079c531659141344cd1fd0a4f28419497f9722a3daafe3b4186f6b6457e060405160405180910390a35f805f6101000a81548173ffffffffffffffffffffffffffffffffffffffff021916908373ffffffffffffffffffffffffffffffffffffffff160217905550565b60015f8281526020019081526020015f205f9054906101000a900473ffffffffffffffffffffffffffffffffffffffff1673ffffffffffffffffffffffffffffffffffffffff163373ffffffffffffffffffffffffffffffffffffffff1614610af0575f80fd5b60038181548110610b0457610b036123ce565b5b905f5260205f209060020201600960075f3373ffffffffffffffffffffffffffffffffffffffff1673ffffffffffffffffffffffffffffffffffffffff1681526020019081526020015f205481548110610b6157610b606123ce565b5b905f5260205f2090600502016003015f8201815f019081610b8291906128e4565b50600182015f9054906101000a900460ff16816001015f6101000a81548160ff021916908360ff1602179055506001820160019054906101000a900460ff168160010160016101000a81548160ff021916908360ff1602179055506001820160029054906101000a900460ff168160010160026101000a81548160ff021916908360ff16021790555090505050565b5f805f9054906101000a900473ffffffffffffffffffffffffffffffffffffffff16905090565b5f805f9054906101000a900473ffffffffffffffffffffffffffffffffffffffff1673ffffffffffffffffffffffffffffffffffffffff163373ffffffffffffffffffffffffffffffffffffffff1614905090565b604051602001610c9c90612a1d565b6040516020818303038152906040528051906020012081604051602001610cc39190612a61565b6040516020818303038152906040528051906020012003611101576009604051806101000160405280848152602001606460ff168152602001606460ff168152602001600163ffffffff1681526020016001151581526020015f151581526020016040518060800160405280606463ffffffff168152602001606463ffffffff168152602001606463ffffffff168152602001606460ff16815250815260200160405180608001604052806040518060400160405280600481526020017f66697374000000000000000000000000000000000000000000000000000000008152508152602001600a60ff168152602001600a60ff168152602001600a60ff16815250815250908060018154018082558091505060019003905f5260205f2090600502015f909190919091505f820151815f019081610e019190612a77565b506020820151816001015f6101000a81548160ff021916908360ff16021790555060408201518160010160016101000a81548160ff021916908360ff16021790555060608201518160010160026101000a81548163ffffffff021916908363ffffffff16021790555060808201518160010160066101000a81548160ff02191690831515021790555060a08201518160010160076101000a81548160ff02191690831515021790555060c0820151816002015f820151815f015f6101000a81548163ffffffff021916908363ffffffff1602179055506020820151815f0160046101000a81548163ffffffff021916908363ffffffff1602179055506040820151815f0160086101000a81548163ffffffff021916908363ffffffff1602179055506060820151815f01600c6101000a81548160ff021916908360ff160217905550505060e0820151816003015f820151815f019081610f619190612a77565b506020820151816001015f6101000a81548160ff021916908360ff16021790555060408201518160010160016101000a81548160ff021916908360ff16021790555060608201518160010160026101000a81548160ff021916908360ff160217905550505050505f6001600980549050610fdb9190612b46565b90503360065f8381526020019081526020015f205f6101000a81548173ffffffffffffffffffffffffffffffffffffffff021916908373ffffffffffffffffffffffffffffffffffffffff1602179055508060075f3373ffffffffffffffffffffffffffffffffffffffff1673ffffffffffffffffffffffffffffffffffffffff1681526020019081526020015f208190555060085f3373ffffffffffffffffffffffffffffffffffffffff1673ffffffffffffffffffffffffffffffffffffffff1681526020019081526020015f205f8154809291906110bb90612428565b91905055507ffc94ee92db66f710b511eabdc15ab50732beddbf1024d87e12aa4db53c03870c8184846040516110f393929190612b79565b60405180910390a150611520565b6009604051806101000160405280848152602001606460ff168152602001606460ff168152602001600163ffffffff1681526020016001151581526020015f151581526020016040518060800160405280605063ffffffff168152602001605063ffffffff168152602001605063ffffffff168152602001605060ff16815250815260200160405180608001604052806040518060400160405280600481526020017f66697374000000000000000000000000000000000000000000000000000000008152508152602001600560ff168152602001600560ff168152602001600560ff16815250815250908060018154018082558091505060019003905f5260205f2090600502015f909190919091505f820151815f0190816112249190612a77565b506020820151816001015f6101000a81548160ff021916908360ff16021790555060408201518160010160016101000a81548160ff021916908360ff16021790555060608201518160010160026101000a81548163ffffffff021916908363ffffffff16021790555060808201518160010160066101000a81548160ff02191690831515021790555060a08201518160010160076101000a81548160ff02191690831515021790555060c0820151816002015f820151815f015f6101000a81548163ffffffff021916908363ffffffff1602179055506020820151815f0160046101000a81548163ffffffff021916908363ffffffff1602179055506040820151815f0160086101000a81548163ffffffff021916908363ffffffff1602179055506060820151815f01600c6101000a81548160ff021916908360ff160217905550505060e0820151816003015f820151815f0190816113849190612a77565b506020820151816001015f6101000a81548160ff021916908360ff16021790555060408201518160010160016101000a81548160ff021916908360ff16021790555060608201518160010160026101000a81548160ff021916908360ff160217905550505050505f60016009805490506113fe9190612b46565b90503360065f8381526020019081526020015f205f6101000a81548173ffffffffffffffffffffffffffffffffffffffff021916908373ffffffffffffffffffffffffffffffffffffffff1602179055508060075f3373ffffffffffffffffffffffffffffffffffffffff1673ffffffffffffffffffffffffffffffffffffffff1681526020019081526020015f208190555060085f3373ffffffffffffffffffffffffffffffffffffffff1673ffffffffffffffffffffffffffffffffffffffff1681526020019081526020015f205f8154809291906114de90612428565b91905055507ffc94ee92db66f710b511eabdc15ab50732beddbf1024d87e12aa4db53c03870c81848460405161151693929190612b79565b60405180910390a1505b7f7ad47ab3a55f8b5a9ca0ea92521d08b0bfae3aed92e832d6eb4f978fba02691260096040516115509190613038565b60405180910390a15050565b5f606490505f606390505f6115ae8360075f3373ffffffffffffffffffffffffffffffffffffffff1673ffffffffffffffffffffffffffffffffffffffff1681526020019081526020015f2054611967565b90505f3390508282116115c6576115c581866119a6565b5b5050505050565b6115d5610c38565b6115dd575f80fd5b6115e681611bb5565b50565b600981815481106115f8575f80fd5b905f5260205f2090600502015f91509050805f0180546116179061249c565b80601f01602080910402602001604051908101604052809291908181526020018280546116439061249c565b801561168e5780601f106116655761010080835404028352916020019161168e565b820191905f5260205f20905b81548152906001019060200180831161167157829003601f168201915b505050505090806001015f9054906101000a900460ff16908060010160019054906101000a900460ff16908060010160029054906101000a900463ffffffff16908060010160069054906101000a900460ff16908060010160079054906101000a900460ff1690806002016040518060800160405290815f82015f9054906101000a900463ffffffff1663ffffffff1663ffffffff1681526020015f820160049054906101000a900463ffffffff1663ffffffff1663ffffffff1681526020015f820160089054906101000a900463ffffffff1663ffffffff1663ffffffff1681526020015f8201600c9054906101000a900460ff1660ff1660ff168152505090806003016040518060800160405290815f820180546117ad9061249c565b80601f01602080910402602001604051908101604052809291908181526020018280546117d99061249c565b80156118245780601f106117fb57610100808354040283529160200191611824565b820191905f5260205f20905b81548152906001019060200180831161180757829003601f168201915b50505050508152602001600182015f9054906101000a900460ff1660ff1660ff1681526020016001820160019054906101000a900460ff1660ff1660ff1681526020016001820160029054906101000a900460ff1660ff1660ff1681525050905088565b5f806118966103e884611967565b9050600181106118aa5760019150506118af565b5f9150505b919050565b6118bc611d09565b5f61271042846040516020016118d3929190613078565b604051602081830303815290604052805190602001205f1c6118f591906130d0565b905060405180606001604052806040518060400160405280600381526020017f426f620000000000000000000000000000000000000000000000000000000000815250815260200160648361194a9190613100565b815260200160648361195c91906130d0565b815250915050919050565b5f82428360405160200161197c929190613078565b604051602081830303815290604052805190602001205f1c61199e91906130d0565b905092915050565b5f6119b082611ca7565b90505f620f4240826119c29190613100565b90505f6103e880846119d49190613100565b6119de91906130d0565b90505f6103e8846119ef91906130d0565b9050600360405180608001604052808781526020018560ff1681526020018460ff1681526020018360ff16815250908060018154018082558091505060019003905f5260205f2090600202015f909190919091505f820151815f019081611a569190612a77565b506020820151816001015f6101000a81548160ff021916908360ff16021790555060408201518160010160016101000a81548160ff021916908360ff16021790555060608201518160010160026101000a81548160ff021916908360ff16021790555050505f6001600380549050611ace9190612b46565b90508660015f8381526020019081526020015f205f6101000a81548173ffffffffffffffffffffffffffffffffffffffff021916908373ffffffffffffffffffffffffffffffffffffffff16021790555060025f8873ffffffffffffffffffffffffffffffffffffffff1673ffffffffffffffffffffffffffffffffffffffff1681526020019081526020015f205f815480929190611b6c90612428565b91905055507fe567398b5f2550951a498c5973b658fe260a8ccb602ecbb4ad2d886a494aba1b878787604051611ba493929190613130565b60405180910390a150505050505050565b5f73ffffffffffffffffffffffffffffffffffffffff168173ffffffffffffffffffffffffffffffffffffffff1603611bec575f80fd5b8073ffffffffffffffffffffffffffffffffffffffff165f8054906101000a900473ffffffffffffffffffffffffffffffffffffffff1673ffffffffffffffffffffffffffffffffffffffff167f8be0079c531659141344cd1fd0a4f28419497f9722a3daafe3b4186f6b6457e060405160405180910390a3805f806101000a81548173ffffffffffffffffffffffffffffffffffffffff021916908373ffffffffffffffffffffffffffffffffffffffff16021790555050565b5f80633b9aca004260055485604051602001611cc59392919061316c565b604051602081830303815290604052805190602001205f1c611ce791906130d0565b905060055f815480929190611cfb90612428565b919050555080915050919050565b6040518060600160405280606081526020015f81526020015f81525090565b5f604051905090565b5f80fd5b5f80fd5b5f73ffffffffffffffffffffffffffffffffffffffff82169050919050565b5f611d6282611d39565b9050919050565b611d7281611d58565b8114611d7c575f80fd5b50565b5f81359050611d8d81611d69565b92915050565b5f60208284031215611da857611da7611d31565b5b5f611db584828501611d7f565b91505092915050565b5f81519050919050565b5f82825260208201905092915050565b5f819050602082019050919050565b5f819050919050565b611df981611de7565b82525050565b5f611e0a8383611df0565b60208301905092915050565b5f602082019050919050565b5f611e2c82611dbe565b611e368185611dc8565b9350611e4183611dd8565b805f5b83811015611e71578151611e588882611dff565b9750611e6383611e16565b925050600181019050611e44565b5085935050505092915050565b5f6020820190508181035f830152611e968184611e22565b905092915050565b611ea781611de7565b8114611eb1575f80fd5b50565b5f81359050611ec281611e9e565b92915050565b5f60208284031215611edd57611edc611d31565b5b5f611eea84828501611eb4565b91505092915050565b5f81519050919050565b5f82825260208201905092915050565b8281835e5f83830152505050565b5f601f19601f8301169050919050565b5f611f3582611ef3565b611f3f8185611efd565b9350611f4f818560208601611f0d565b611f5881611f1b565b840191505092915050565b5f60ff82169050919050565b611f7881611f63565b82525050565b5f6080820190508181035f830152611f968187611f2b565b9050611fa56020830186611f6f565b611fb26040830185611f6f565b611fbf6060830184611f6f565b95945050505050565b611fd181611d58565b82525050565b5f602082019050611fea5f830184611fc8565b92915050565b5f8115159050919050565b61200481611ff0565b82525050565b5f60208201905061201d5f830184611ffb565b92915050565b5f80fd5b5f80fd5b7f4e487b71000000000000000000000000000000000000000000000000000000005f52604160045260245ffd5b61206182611f1b565b810181811067ffffffffffffffff821117156120805761207f61202b565b5b80604052505050565b5f612092611d28565b905061209e8282612058565b919050565b5f67ffffffffffffffff8211156120bd576120bc61202b565b5b6120c682611f1b565b9050602081019050919050565b828183375f83830152505050565b5f6120f36120ee846120a3565b612089565b90508281526020810184848401111561210f5761210e612027565b5b61211a8482856120d3565b509392505050565b5f82601f83011261213657612135612023565b5b81356121468482602086016120e1565b91505092915050565b5f806040838503121561216557612164611d31565b5b5f83013567ffffffffffffffff81111561218257612181611d35565b5b61218e85828601612122565b925050602083013567ffffffffffffffff8111156121af576121ae611d35565b5b6121bb85828601612122565b9150509250929050565b5f602082840312156121da576121d9611d31565b5b5f82013567ffffffffffffffff8111156121f7576121f6611d35565b5b61220384828501612122565b91505092915050565b5f63ffffffff82169050919050565b6122248161220c565b82525050565b6122338161220c565b82525050565b61224281611f63565b82525050565b608082015f82015161225c5f85018261222a565b50602082015161226f602085018261222a565b506040820151612282604085018261222a565b5060608201516122956060850182612239565b50505050565b5f82825260208201905092915050565b5f6122b582611ef3565b6122bf818561229b565b93506122cf818560208601611f0d565b6122d881611f1b565b840191505092915050565b5f608083015f8301518482035f8601526122fd82826122ab565b91505060208301516123126020860182612239565b5060408301516123256040860182612239565b5060608301516123386060860182612239565b508091505092915050565b5f610160820190508181035f83015261235c818b611f2b565b905061236b602083018a611f6f565b6123786040830189611f6f565b612385606083018861221b565b6123926080830187611ffb565b61239f60a0830186611ffb565b6123ac60c0830185612248565b8181036101408301526123bf81846122e3565b90509998505050505050505050565b7f4e487b71000000000000000000000000000000000000000000000000000000005f52603260045260245ffd5b7f4e487b71000000000000000000000000000000000000000000000000000000005f52601160045260245ffd5b5f61243282611de7565b91507fffffffffffffffffffffffffffffffffffffffffffffffffffffffffffffffff8203612464576124636123fb565b5b600182019050919050565b7f4e487b71000000000000000000000000000000000000000000000000000000005f52602260045260245ffd5b5f60028204905060018216806124b357607f821691505b6020821081036124c6576124c561246f565b5b50919050565b5f6124d68261220c565b91506124e18361220c565b9250828201905063ffffffff8111156124fd576124fc6123fb565b5b92915050565b7f566963746f7279212121000000000000000000000000000000000000000000005f82015250565b5f612537600a83611efd565b915061254282612503565b602082019050919050565b5f819050919050565b5f61257061256b6125668461220c565b61254d565b611de7565b9050919050565b61258081612556565b82525050565b61258f81611de7565b82525050565b5f6060820190508181035f8301526125ac8161252b565b90506125bb6020830185612577565b6125c86040830184612586565b9392505050565b5f6125d98261220c565b915063ffffffff82036125ef576125ee6123fb565b5b600182019050919050565b7f4c6f7365210000000000000000000000000000000000000000000000000000005f82015250565b5f61262e600583611efd565b9150612639826125fa565b602082019050919050565b5f6060820190508181035f83015261265b81612622565b905061266a6020830185612577565b6126776040830184612586565b9392505050565b7f4e6f7468696e672077617320666f756e640000000000000000000000000000005f82015250565b5f6126b2601183611efd565b91506126bd8261267e565b602082019050919050565b5f819050919050565b5f6126eb6126e66126e1846126c8565b61254d565b611de7565b9050919050565b6126fb816126d1565b82525050565b5f6060820190508181035f830152612718816126a6565b905061272760208301856126f2565b6127346040830184612577565b9392505050565b5f815490506127498161249c565b9050919050565b5f819050815f5260205f209050919050565b5f6020601f8301049050919050565b5f82821b905092915050565b5f600883026127ac7fffffffffffffffffffffffffffffffffffffffffffffffffffffffffffffffff82612771565b6127b68683612771565b95508019841693508086168417925050509392505050565b5f6127e86127e36127de84611de7565b61254d565b611de7565b9050919050565b5f819050919050565b612801836127ce565b61281561280d826127ef565b84845461277d565b825550505050565b5f90565b61282961281d565b6128348184846127f8565b505050565b5b818110156128575761284c5f82612821565b60018101905061283a565b5050565b601f82111561289c5761286d81612750565b61287684612762565b81016020851015612885578190505b61289961289185612762565b830182612839565b50505b505050565b5f82821c905092915050565b5f6128bc5f19846008026128a1565b1980831691505092915050565b5f6128d483836128ad565b9150826002028217905092915050565b8181036128f25750506129c7565b6128fb8261273b565b67ffffffffffffffff8111156129145761291361202b565b5b61291e825461249c565b61292982828561285b565b5f601f831160018114612956575f8415612944578287015490505b61294e85826128c9565b8655506129c0565b601f19841661296487612750565b965061296f86612750565b5f5b8281101561299657848901548255600182019150600185019450602081019050612971565b868310156129b357848901546129af601f8916826128ad565b8355505b6001600288020188555050505b5050505050505b565b5f81905092915050565b7f6d656c65650000000000000000000000000000000000000000000000000000005f82015250565b5f612a076005836129c9565b9150612a12826129d3565b600582019050919050565b5f612a27826129fb565b9150819050919050565b5f612a3b82611ef3565b612a4581856129c9565b9350612a55818560208601611f0d565b80840191505092915050565b5f612a6c8284612a31565b915081905092915050565b612a8082611ef3565b67ffffffffffffffff811115612a9957612a9861202b565b5b612aa3825461249c565b612aae82828561285b565b5f60209050601f831160018114612adf575f8415612acd578287015190505b612ad785826128c9565b865550612b3e565b601f198416612aed86612750565b5f5b82811015612b1457848901518255600182019150602085019450602081019050612aef565b86831015612b315784890151612b2d601f8916826128ad565b8355505b6001600288020188555050505b505050505050565b5f612b5082611de7565b9150612b5b83611de7565b9250828203905081811115612b7357612b726123fb565b5b92915050565b5f606082019050612b8c5f830186612586565b8181036020830152612b9e8185611f2b565b90508181036040830152612bb28184611f2b565b9050949350505050565b5f81549050919050565b5f82825260208201905092915050565b5f819050815f5260205f209050919050565b5f8154612bf48161249c565b612bfe818661229b565b9450600182165f8114612c185760018114612c2e57612c60565b60ff198316865281151560200286019350612c60565b612c3785612750565b5f5b83811015612c5857815481890152600182019150602081019050612c39565b808801955050505b50505092915050565b5f815f1c9050919050565b5f60ff82169050919050565b5f612c92612c8d83612c69565b612c74565b9050919050565b5f8160081c9050919050565b5f612cb7612cb283612c99565b612c74565b9050919050565b5f8160101c9050919050565b5f63ffffffff82169050919050565b5f612ceb612ce683612cbe565b612cca565b9050919050565b5f8160301c9050919050565b5f60ff82169050919050565b5f612d1c612d1783612cf2565b612cfe565b9050919050565b612d2c81611ff0565b82525050565b5f8160381c9050919050565b5f612d50612d4b83612d32565b612cfe565b9050919050565b5f612d69612d6483612c69565b612cca565b9050919050565b5f8160201c9050919050565b5f612d8e612d8983612d70565b612cca565b9050919050565b5f8160401c9050919050565b5f612db3612dae83612d95565b612cca565b9050919050565b5f8160601c9050919050565b5f612dd8612dd383612dba565b612c74565b9050919050565b608082015f808301549050612df381612d57565b612dff5f86018261222a565b50612e0981612d7c565b612e16602086018261222a565b50612e2081612da1565b612e2d604086018261222a565b50612e3781612dc6565b612e446060860182612239565b5050505050565b5f612e5d612e5883612cbe565b612c74565b9050919050565b5f608083015f8084018583035f870152612e7e8382612be8565b92505060018401549050612e9181612c80565b612e9e6020870182612239565b50612ea881612ca5565b612eb56040870182612239565b50612ebf81612e4b565b612ecc6060870182612239565b50819250505092915050565b5f61016083015f8084018583035f870152612ef38382612be8565b92505060018401549050612f0681612c80565b612f136020870182612239565b50612f1d81612ca5565b612f2a6040870182612239565b50612f3481612cd9565b612f41606087018261222a565b50612f4b81612d0a565b612f586080870182612d23565b50612f6281612d3e565b612f6f60a0870182612d23565b5060028401612f8160c0870182612ddf565b5060038401858303610140870152612f998382612e64565b925050819250505092915050565b5f612fb28383612ed8565b905092915050565b5f600582019050919050565b5f612fd082612bbc565b612fda8185612bc6565b935083602082028501612fec85612bd6565b805f5b85811015613026578484038952816130078582612fa7565b945061301283612fba565b925060208a01995050600181019050612fef565b50829750879550505050505092915050565b5f6020820190508181035f8301526130508184612fc6565b905092915050565b5f819050919050565b61307261306d82611de7565b613058565b82525050565b5f6130838285613061565b6020820191506130938284613061565b6020820191508190509392505050565b7f4e487b71000000000000000000000000000000000000000000000000000000005f52601260045260245ffd5b5f6130da82611de7565b91506130e583611de7565b9250826130f5576130f46130a3565b5b828206905092915050565b5f61310a82611de7565b915061311583611de7565b925082613125576131246130a3565b5b828204905092915050565b5f6060820190506131435f830186611fc8565b81810360208301526131558185611f2b565b90506131646040830184612586565b949350505050565b5f6131778286613061565b6020820191506131878285613061565b6020820191506131978284612a31565b915081905094935050505056fea2646970667358221220b6a60efa81e5ae2885445b50df7975e08db09db5d306b48ec887ac7e98e6960a64736f6c634300081a0033",
					"opcodes": "PUSH1 0x80 PUSH1 0x40 MSTORE PUSH0 PUSH1 0x5 SSTORE CALLVALUE DUP1 ISZERO PUSH1 0x12 JUMPI PUSH0 DUP1 REVERT JUMPDEST POP CALLER PUSH0 DUP1 PUSH2 0x100 EXP DUP2 SLOAD DUP2 PUSH20 0xFFFFFFFFFFFFFFFFFFFFFFFFFFFFFFFFFFFFFFFF MUL NOT AND SWAP1 DUP4 PUSH20 0xFFFFFFFFFFFFFFFFFFFFFFFFFFFFFFFFFFFFFFFF AND MUL OR SWAP1 SSTORE POP PUSH0 DUP1 SLOAD SWAP1 PUSH2 0x100 EXP SWAP1 DIV PUSH20 0xFFFFFFFFFFFFFFFFFFFFFFFFFFFFFFFFFFFFFFFF AND PUSH20 0xFFFFFFFFFFFFFFFFFFFFFFFFFFFFFFFFFFFFFFFF AND PUSH0 PUSH20 0xFFFFFFFFFFFFFFFFFFFFFFFFFFFFFFFFFFFFFFFF AND PUSH32 0x8BE0079C531659141344CD1FD0A4F28419497F9722A3DAAFE3B4186F6B6457E0 PUSH1 0x40 MLOAD PUSH1 0x40 MLOAD DUP1 SWAP2 SUB SWAP1 LOG3 PUSH2 0x31DA DUP1 PUSH2 0xD8 PUSH0 CODECOPY PUSH0 RETURN INVALID PUSH1 0x80 PUSH1 0x40 MSTORE CALLVALUE DUP1 ISZERO PUSH2 0xF JUMPI PUSH0 DUP1 REVERT JUMPDEST POP PUSH1 0x4 CALLDATASIZE LT PUSH2 0xA7 JUMPI PUSH0 CALLDATALOAD PUSH1 0xE0 SHR DUP1 PUSH4 0x8DA5CB5B GT PUSH2 0x6F JUMPI DUP1 PUSH4 0x8DA5CB5B EQ PUSH2 0x13E JUMPI DUP1 PUSH4 0x8F32D59B EQ PUSH2 0x15C JUMPI DUP1 PUSH4 0x933EBF39 EQ PUSH2 0x17A JUMPI DUP1 PUSH4 0x970F7D73 EQ PUSH2 0x196 JUMPI DUP1 PUSH4 0xF2FDE38B EQ PUSH2 0x1B2 JUMPI DUP1 PUSH4 0xF71D96CB EQ PUSH2 0x1CE JUMPI PUSH2 0xA7 JUMP JUMPDEST DUP1 PUSH4 0x3EF1EE50 EQ PUSH2 0xAB JUMPI DUP1 PUSH4 0x555E73C8 EQ PUSH2 0xDB JUMPI DUP1 PUSH4 0x5DA39B9C EQ PUSH2 0x10E JUMPI DUP1 PUSH4 0x715018A6 EQ PUSH2 0x118 JUMPI DUP1 PUSH4 0x84577807 EQ PUSH2 0x122 JUMPI JUMPDEST PUSH0 DUP1 REVERT JUMPDEST PUSH2 0xC5 PUSH1 0x4 DUP1 CALLDATASIZE SUB DUP2 ADD SWAP1 PUSH2 0xC0 SWAP2 SWAP1 PUSH2 0x1D93 JUMP JUMPDEST PUSH2 0x205 JUMP JUMPDEST PUSH1 0x40 MLOAD PUSH2 0xD2 SWAP2 SWAP1 PUSH2 0x1E7E JUMP JUMPDEST PUSH1 0x40 MLOAD DUP1 SWAP2 SUB SWAP1 RETURN JUMPDEST PUSH2 0xF5 PUSH1 0x4 DUP1 CALLDATASIZE SUB DUP2 ADD SWAP1 PUSH2 0xF0 SWAP2 SWAP1 PUSH2 0x1EC8 JUMP JUMPDEST PUSH2 0x34A JUMP JUMPDEST PUSH1 0x40 MLOAD PUSH2 0x105 SWAP5 SWAP4 SWAP3 SWAP2 SWAP1 PUSH2 0x1F7E JUMP JUMPDEST PUSH1 0x40 MLOAD DUP1 SWAP2 SUB SWAP1 RETURN JUMPDEST PUSH2 0x116 PUSH2 0x431 JUMP JUMPDEST STOP JUMPDEST PUSH2 0x120 PUSH2 0x9BF JUMP JUMPDEST STOP JUMPDEST PUSH2 0x13C PUSH1 0x4 DUP1 CALLDATASIZE SUB DUP2 ADD SWAP1 PUSH2 0x137 SWAP2 SWAP1 PUSH2 0x1EC8 JUMP JUMPDEST PUSH2 0xA89 JUMP JUMPDEST STOP JUMPDEST PUSH2 0x146 PUSH2 0xC11 JUMP JUMPDEST PUSH1 0x40 MLOAD PUSH2 0x153 SWAP2 SWAP1 PUSH2 0x1FD7 JUMP JUMPDEST PUSH1 0x40 MLOAD DUP1 SWAP2 SUB SWAP1 RETURN JUMPDEST PUSH2 0x164 PUSH2 0xC38 JUMP JUMPDEST PUSH1 0x40 MLOAD PUSH2 0x171 SWAP2 SWAP1 PUSH2 0x200A JUMP JUMPDEST PUSH1 0x40 MLOAD DUP1 SWAP2 SUB SWAP1 RETURN JUMPDEST PUSH2 0x194 PUSH1 0x4 DUP1 CALLDATASIZE SUB DUP2 ADD SWAP1 PUSH2 0x18F SWAP2 SWAP1 PUSH2 0x214F JUMP JUMPDEST PUSH2 0xC8D JUMP JUMPDEST STOP JUMPDEST PUSH2 0x1B0 PUSH1 0x4 DUP1 CALLDATASIZE SUB DUP2 ADD SWAP1 PUSH2 0x1AB SWAP2 SWAP1 PUSH2 0x21C5 JUMP JUMPDEST PUSH2 0x155C JUMP JUMPDEST STOP JUMPDEST PUSH2 0x1CC PUSH1 0x4 DUP1 CALLDATASIZE SUB DUP2 ADD SWAP1 PUSH2 0x1C7 SWAP2 SWAP1 PUSH2 0x1D93 JUMP JUMPDEST PUSH2 0x15CD JUMP JUMPDEST STOP JUMPDEST PUSH2 0x1E8 PUSH1 0x4 DUP1 CALLDATASIZE SUB DUP2 ADD SWAP1 PUSH2 0x1E3 SWAP2 SWAP1 PUSH2 0x1EC8 JUMP JUMPDEST PUSH2 0x15E9 JUMP JUMPDEST PUSH1 0x40 MLOAD PUSH2 0x1FC SWAP9 SWAP8 SWAP7 SWAP6 SWAP5 SWAP4 SWAP3 SWAP2 SWAP1 PUSH2 0x2343 JUMP JUMPDEST PUSH1 0x40 MLOAD DUP1 SWAP2 SUB SWAP1 RETURN JUMPDEST PUSH1 0x60 PUSH0 PUSH1 0x2 PUSH0 DUP5 PUSH20 0xFFFFFFFFFFFFFFFFFFFFFFFFFFFFFFFFFFFFFFFF AND PUSH20 0xFFFFFFFFFFFFFFFFFFFFFFFFFFFFFFFFFFFFFFFF AND DUP2 MSTORE PUSH1 0x20 ADD SWAP1 DUP2 MSTORE PUSH1 0x20 ADD PUSH0 KECCAK256 SLOAD PUSH8 0xFFFFFFFFFFFFFFFF DUP2 GT ISZERO PUSH2 0x25F JUMPI PUSH2 0x25E PUSH2 0x202B JUMP JUMPDEST JUMPDEST PUSH1 0x40 MLOAD SWAP1 DUP1 DUP3 MSTORE DUP1 PUSH1 0x20 MUL PUSH1 0x20 ADD DUP3 ADD PUSH1 0x40 MSTORE DUP1 ISZERO PUSH2 0x28D JUMPI DUP2 PUSH1 0x20 ADD PUSH1 0x20 DUP3 MUL DUP1 CALLDATASIZE DUP4 CALLDATACOPY DUP1 DUP3 ADD SWAP2 POP POP SWAP1 POP JUMPDEST POP SWAP1 POP PUSH0 DUP1 JUMPDEST PUSH1 0x3 DUP1 SLOAD SWAP1 POP DUP2 LT ISZERO PUSH2 0x33F JUMPI DUP5 PUSH20 0xFFFFFFFFFFFFFFFFFFFFFFFFFFFFFFFFFFFFFFFF AND PUSH1 0x1 PUSH0 DUP4 DUP2 MSTORE PUSH1 0x20 ADD SWAP1 DUP2 MSTORE PUSH1 0x20 ADD PUSH0 KECCAK256 PUSH0 SWAP1 SLOAD SWAP1 PUSH2 0x100 EXP SWAP1 DIV PUSH20 0xFFFFFFFFFFFFFFFFFFFFFFFFFFFFFFFFFFFFFFFF AND PUSH20 0xFFFFFFFFFFFFFFFFFFFFFFFFFFFFFFFFFFFFFFFF AND SUB PUSH2 0x332 JUMPI DUP1 DUP4 DUP4 DUP2 MLOAD DUP2 LT PUSH2 0x317 JUMPI PUSH2 0x316 PUSH2 0x23CE JUMP JUMPDEST JUMPDEST PUSH1 0x20 MUL PUSH1 0x20 ADD ADD DUP2 DUP2 MSTORE POP POP DUP2 DUP1 PUSH2 0x32E SWAP1 PUSH2 0x2428 JUMP JUMPDEST SWAP3 POP POP JUMPDEST DUP1 DUP1 PUSH1 0x1 ADD SWAP2 POP POP PUSH2 0x293 JUMP JUMPDEST POP DUP2 SWAP3 POP POP POP SWAP2 SWAP1 POP JUMP JUMPDEST PUSH1 0x3 DUP2 DUP2 SLOAD DUP2 LT PUSH2 0x359 JUMPI PUSH0 DUP1 REVERT JUMPDEST SWAP1 PUSH0 MSTORE PUSH1 0x20 PUSH0 KECCAK256 SWAP1 PUSH1 0x2 MUL ADD PUSH0 SWAP2 POP SWAP1 POP DUP1 PUSH0 ADD DUP1 SLOAD PUSH2 0x378 SWAP1 PUSH2 0x249C JUMP JUMPDEST DUP1 PUSH1 0x1F ADD PUSH1 0x20 DUP1 SWAP2 DIV MUL PUSH1 0x20 ADD PUSH1 0x40 MLOAD SWAP1 DUP2 ADD PUSH1 0x40 MSTORE DUP1 SWAP3 SWAP2 SWAP1 DUP2 DUP2 MSTORE PUSH1 0x20 ADD DUP3 DUP1 SLOAD PUSH2 0x3A4 SWAP1 PUSH2 0x249C JUMP JUMPDEST DUP1 ISZERO PUSH2 0x3EF JUMPI DUP1 PUSH1 0x1F LT PUSH2 0x3C6 JUMPI PUSH2 0x100 DUP1 DUP4 SLOAD DIV MUL DUP4 MSTORE SWAP2 PUSH1 0x20 ADD SWAP2 PUSH2 0x3EF JUMP JUMPDEST DUP3 ADD SWAP2 SWAP1 PUSH0 MSTORE PUSH1 0x20 PUSH0 KECCAK256 SWAP1 JUMPDEST DUP2 SLOAD DUP2 MSTORE SWAP1 PUSH1 0x1 ADD SWAP1 PUSH1 0x20 ADD DUP1 DUP4 GT PUSH2 0x3D2 JUMPI DUP3 SWAP1 SUB PUSH1 0x1F AND DUP3 ADD SWAP2 JUMPDEST POP POP POP POP POP SWAP1 DUP1 PUSH1 0x1 ADD PUSH0 SWAP1 SLOAD SWAP1 PUSH2 0x100 EXP SWAP1 DIV PUSH1 0xFF AND SWAP1 DUP1 PUSH1 0x1 ADD PUSH1 0x1 SWAP1 SLOAD SWAP1 PUSH2 0x100 EXP SWAP1 DIV PUSH1 0xFF AND SWAP1 DUP1 PUSH1 0x1 ADD PUSH1 0x2 SWAP1 SLOAD SWAP1 PUSH2 0x100 EXP SWAP1 DIV PUSH1 0xFF AND SWAP1 POP DUP5 JUMP JUMPDEST PUSH0 PUSH1 0x7 PUSH0 CALLER PUSH20 0xFFFFFFFFFFFFFFFFFFFFFFFFFFFFFFFFFFFFFFFF AND PUSH20 0xFFFFFFFFFFFFFFFFFFFFFFFFFFFFFFFFFFFFFFFF AND DUP2 MSTORE PUSH1 0x20 ADD SWAP1 DUP2 MSTORE PUSH1 0x20 ADD PUSH0 KECCAK256 SLOAD SWAP1 POP PUSH0 PUSH2 0x47C DUP3 PUSH2 0x1888 JUMP JUMPDEST SWAP1 POP PUSH1 0x1 DUP2 SUB PUSH2 0x94C JUMPI PUSH1 0x1 PUSH1 0x9 DUP4 DUP2 SLOAD DUP2 LT PUSH2 0x49C JUMPI PUSH2 0x49B PUSH2 0x23CE JUMP JUMPDEST JUMPDEST SWAP1 PUSH0 MSTORE PUSH1 0x20 PUSH0 KECCAK256 SWAP1 PUSH1 0x5 MUL ADD PUSH1 0x1 ADD PUSH1 0x7 PUSH2 0x100 EXP DUP2 SLOAD DUP2 PUSH1 0xFF MUL NOT AND SWAP1 DUP4 ISZERO ISZERO MUL OR SWAP1 SSTORE POP PUSH0 PUSH1 0x9 DUP4 DUP2 SLOAD DUP2 LT PUSH2 0x4D7 JUMPI PUSH2 0x4D6 PUSH2 0x23CE JUMP JUMPDEST JUMPDEST SWAP1 PUSH0 MSTORE PUSH1 0x20 PUSH0 KECCAK256 SWAP1 PUSH1 0x5 MUL ADD PUSH1 0x40 MLOAD DUP1 PUSH2 0x100 ADD PUSH1 0x40 MSTORE SWAP1 DUP2 PUSH0 DUP3 ADD DUP1 SLOAD PUSH2 0x4FE SWAP1 PUSH2 0x249C JUMP JUMPDEST DUP1 PUSH1 0x1F ADD PUSH1 0x20 DUP1 SWAP2 DIV MUL PUSH1 0x20 ADD PUSH1 0x40 MLOAD SWAP1 DUP2 ADD PUSH1 0x40 MSTORE DUP1 SWAP3 SWAP2 SWAP1 DUP2 DUP2 MSTORE PUSH1 0x20 ADD DUP3 DUP1 SLOAD PUSH2 0x52A SWAP1 PUSH2 0x249C JUMP JUMPDEST DUP1 ISZERO PUSH2 0x575 JUMPI DUP1 PUSH1 0x1F LT PUSH2 0x54C JUMPI PUSH2 0x100 DUP1 DUP4 SLOAD DIV MUL DUP4 MSTORE SWAP2 PUSH1 0x20 ADD SWAP2 PUSH2 0x575 JUMP JUMPDEST DUP3 ADD SWAP2 SWAP1 PUSH0 MSTORE PUSH1 0x20 PUSH0 KECCAK256 SWAP1 JUMPDEST DUP2 SLOAD DUP2 MSTORE SWAP1 PUSH1 0x1 ADD SWAP1 PUSH1 0x20 ADD DUP1 DUP4 GT PUSH2 0x558 JUMPI DUP3 SWAP1 SUB PUSH1 0x1F AND DUP3 ADD SWAP2 JUMPDEST POP POP POP POP POP DUP2 MSTORE PUSH1 0x20 ADD PUSH1 0x1 DUP3 ADD PUSH0 SWAP1 SLOAD SWAP1 PUSH2 0x100 EXP SWAP1 DIV PUSH1 0xFF AND PUSH1 0xFF AND PUSH1 0xFF AND DUP2 MSTORE PUSH1 0x20 ADD PUSH1 0x1 DUP3 ADD PUSH1 0x1 SWAP1 SLOAD SWAP1 PUSH2 0x100 EXP SWAP1 DIV PUSH1 0xFF AND PUSH1 0xFF AND PUSH1 0xFF AND DUP2 MSTORE PUSH1 0x20 ADD PUSH1 0x1 DUP3 ADD PUSH1 0x2 SWAP1 SLOAD SWAP1 PUSH2 0x100 EXP SWAP1 DIV PUSH4 0xFFFFFFFF AND PUSH4 0xFFFFFFFF AND PUSH4 0xFFFFFFFF AND DUP2 MSTORE PUSH1 0x20 ADD PUSH1 0x1 DUP3 ADD PUSH1 0x6 SWAP1 SLOAD SWAP1 PUSH2 0x100 EXP SWAP1 DIV PUSH1 0xFF AND ISZERO ISZERO ISZERO ISZERO DUP2 MSTORE PUSH1 0x20 ADD PUSH1 0x1 DUP3 ADD PUSH1 0x7 SWAP1 SLOAD SWAP1 PUSH2 0x100 EXP SWAP1 DIV PUSH1 0xFF AND ISZERO ISZERO ISZERO ISZERO DUP2 MSTORE PUSH1 0x20 ADD PUSH1 0x2 DUP3 ADD PUSH1 0x40 MLOAD DUP1 PUSH1 0x80 ADD PUSH1 0x40 MSTORE SWAP1 DUP2 PUSH0 DUP3 ADD PUSH0 SWAP1 SLOAD SWAP1 PUSH2 0x100 EXP SWAP1 DIV PUSH4 0xFFFFFFFF AND PUSH4 0xFFFFFFFF AND PUSH4 0xFFFFFFFF AND DUP2 MSTORE PUSH1 0x20 ADD PUSH0 DUP3 ADD PUSH1 0x4 SWAP1 SLOAD SWAP1 PUSH2 0x100 EXP SWAP1 DIV PUSH4 0xFFFFFFFF AND PUSH4 0xFFFFFFFF AND PUSH4 0xFFFFFFFF AND DUP2 MSTORE PUSH1 0x20 ADD PUSH0 DUP3 ADD PUSH1 0x8 SWAP1 SLOAD SWAP1 PUSH2 0x100 EXP SWAP1 DIV PUSH4 0xFFFFFFFF AND PUSH4 0xFFFFFFFF AND PUSH4 0xFFFFFFFF AND DUP2 MSTORE PUSH1 0x20 ADD PUSH0 DUP3 ADD PUSH1 0xC SWAP1 SLOAD SWAP1 PUSH2 0x100 EXP SWAP1 DIV PUSH1 0xFF AND PUSH1 0xFF AND PUSH1 0xFF AND DUP2 MSTORE POP POP DUP2 MSTORE PUSH1 0x20 ADD PUSH1 0x3 DUP3 ADD PUSH1 0x40 MLOAD DUP1 PUSH1 0x80 ADD PUSH1 0x40 MSTORE SWAP1 DUP2 PUSH0 DUP3 ADD DUP1 SLOAD PUSH2 0x6D0 SWAP1 PUSH2 0x249C JUMP JUMPDEST DUP1 PUSH1 0x1F ADD PUSH1 0x20 DUP1 SWAP2 DIV MUL PUSH1 0x20 ADD PUSH1 0x40 MLOAD SWAP1 DUP2 ADD PUSH1 0x40 MSTORE DUP1 SWAP3 SWAP2 SWAP1 DUP2 DUP2 MSTORE PUSH1 0x20 ADD DUP3 DUP1 SLOAD PUSH2 0x6FC SWAP1 PUSH2 0x249C JUMP JUMPDEST DUP1 ISZERO PUSH2 0x747 JUMPI DUP1 PUSH1 0x1F LT PUSH2 0x71E JUMPI PUSH2 0x100 DUP1 DUP4 SLOAD DIV MUL DUP4 MSTORE SWAP2 PUSH1 0x20 ADD SWAP2 PUSH2 0x747 JUMP JUMPDEST DUP3 ADD SWAP2 SWAP1 PUSH0 MSTORE PUSH1 0x20 PUSH0 KECCAK256 SWAP1 JUMPDEST DUP2 SLOAD DUP2 MSTORE SWAP1 PUSH1 0x1 ADD SWAP1 PUSH1 0x20 ADD DUP1 DUP4 GT PUSH2 0x72A JUMPI DUP3 SWAP1 SUB PUSH1 0x1F AND DUP3 ADD SWAP2 JUMPDEST POP POP POP POP POP DUP2 MSTORE PUSH1 0x20 ADD PUSH1 0x1 DUP3 ADD PUSH0 SWAP1 SLOAD SWAP1 PUSH2 0x100 EXP SWAP1 DIV PUSH1 0xFF AND PUSH1 0xFF AND PUSH1 0xFF AND DUP2 MSTORE PUSH1 0x20 ADD PUSH1 0x1 DUP3 ADD PUSH1 0x1 SWAP1 SLOAD SWAP1 PUSH2 0x100 EXP SWAP1 DIV PUSH1 0xFF AND PUSH1 0xFF AND PUSH1 0xFF AND DUP2 MSTORE PUSH1 0x20 ADD PUSH1 0x1 DUP3 ADD PUSH1 0x2 SWAP1 SLOAD SWAP1 PUSH2 0x100 EXP SWAP1 DIV PUSH1 0xFF AND PUSH1 0xFF AND PUSH1 0xFF AND DUP2 MSTORE POP POP DUP2 MSTORE POP POP SWAP1 POP PUSH0 PUSH2 0x7B6 DUP5 PUSH2 0x18B4 JUMP JUMPDEST SWAP1 POP DUP2 PUSH1 0xE0 ADD MLOAD PUSH1 0x40 ADD MLOAD PUSH1 0xFF AND DUP3 PUSH1 0xC0 ADD MLOAD PUSH1 0x40 ADD MLOAD PUSH2 0x7D7 SWAP2 SWAP1 PUSH2 0x24CC JUMP JUMPDEST PUSH4 0xFFFFFFFF AND DUP2 PUSH1 0x40 ADD MLOAD GT PUSH2 0x8A9 JUMPI PUSH32 0x91C6D69EAC266A1ED233F0D4544D38438777858029C23CBD6A4A6578BD71D0D3 DUP3 PUSH1 0xE0 ADD MLOAD PUSH1 0x40 ADD MLOAD PUSH1 0xFF AND DUP4 PUSH1 0xC0 ADD MLOAD PUSH1 0x40 ADD MLOAD PUSH2 0x827 SWAP2 SWAP1 PUSH2 0x24CC JUMP JUMPDEST DUP3 PUSH1 0x40 ADD MLOAD PUSH1 0x40 MLOAD PUSH2 0x83A SWAP3 SWAP2 SWAP1 PUSH2 0x2595 JUMP JUMPDEST PUSH1 0x40 MLOAD DUP1 SWAP2 SUB SWAP1 LOG1 PUSH1 0x9 DUP5 DUP2 SLOAD DUP2 LT PUSH2 0x856 JUMPI PUSH2 0x855 PUSH2 0x23CE JUMP JUMPDEST JUMPDEST SWAP1 PUSH0 MSTORE PUSH1 0x20 PUSH0 KECCAK256 SWAP1 PUSH1 0x5 MUL ADD PUSH1 0x1 ADD PUSH1 0x2 DUP2 DUP2 SWAP1 SLOAD SWAP1 PUSH2 0x100 EXP SWAP1 DIV PUSH4 0xFFFFFFFF AND DUP1 SWAP3 SWAP2 SWAP1 PUSH2 0x885 SWAP1 PUSH2 0x25CF JUMP JUMPDEST SWAP2 SWAP1 PUSH2 0x100 EXP DUP2 SLOAD DUP2 PUSH4 0xFFFFFFFF MUL NOT AND SWAP1 DUP4 PUSH4 0xFFFFFFFF AND MUL OR SWAP1 SSTORE POP POP PUSH2 0x945 JUMP JUMPDEST PUSH32 0x91C6D69EAC266A1ED233F0D4544D38438777858029C23CBD6A4A6578BD71D0D3 DUP3 PUSH1 0xE0 ADD MLOAD PUSH1 0x40 ADD MLOAD PUSH1 0xFF AND DUP4 PUSH1 0xC0 ADD MLOAD PUSH1 0x40 ADD MLOAD PUSH2 0x8E9 SWAP2 SWAP1 PUSH2 0x24CC JUMP JUMPDEST DUP3 PUSH1 0x40 ADD MLOAD PUSH1 0x40 MLOAD PUSH2 0x8FC SWAP3 SWAP2 SWAP1 PUSH2 0x2644 JUMP JUMPDEST PUSH1 0x40 MLOAD DUP1 SWAP2 SUB SWAP1 LOG1 PUSH0 PUSH1 0x9 DUP6 DUP2 SLOAD DUP2 LT PUSH2 0x919 JUMPI PUSH2 0x918 PUSH2 0x23CE JUMP JUMPDEST JUMPDEST SWAP1 PUSH0 MSTORE PUSH1 0x20 PUSH0 KECCAK256 SWAP1 PUSH1 0x5 MUL ADD PUSH1 0x1 ADD PUSH1 0x6 PUSH2 0x100 EXP DUP2 SLOAD DUP2 PUSH1 0xFF MUL NOT AND SWAP1 DUP4 ISZERO ISZERO MUL OR SWAP1 SSTORE POP PUSH0 TIMESTAMP SWAP1 POP POP JUMPDEST POP POP PUSH2 0x9BB JUMP JUMPDEST PUSH32 0x91C6D69EAC266A1ED233F0D4544D38438777858029C23CBD6A4A6578BD71D0D3 PUSH0 PUSH1 0x9 DUP5 DUP2 SLOAD DUP2 LT PUSH2 0x982 JUMPI PUSH2 0x981 PUSH2 0x23CE JUMP JUMPDEST JUMPDEST SWAP1 PUSH0 MSTORE PUSH1 0x20 PUSH0 KECCAK256 SWAP1 PUSH1 0x5 MUL ADD PUSH1 0x2 ADD PUSH0 ADD PUSH1 0x8 SWAP1 SLOAD SWAP1 PUSH2 0x100 EXP SWAP1 DIV PUSH4 0xFFFFFFFF AND PUSH1 0x40 MLOAD PUSH2 0x9B2 SWAP3 SWAP2 SWAP1 PUSH2 0x2701 JUMP JUMPDEST PUSH1 0x40 MLOAD DUP1 SWAP2 SUB SWAP1 LOG1 JUMPDEST POP POP JUMP JUMPDEST PUSH2 0x9C7 PUSH2 0xC38 JUMP JUMPDEST PUSH2 0x9CF JUMPI PUSH0 DUP1 REVERT JUMPDEST PUSH0 PUSH20 0xFFFFFFFFFFFFFFFFFFFFFFFFFFFFFFFFFFFFFFFF AND PUSH0 DUP1 SLOAD SWAP1 PUSH2 0x100 EXP SWAP1 DIV PUSH20 0xFFFFFFFFFFFFFFFFFFFFFFFFFFFFFFFFFFFFFFFF AND PUSH20 0xFFFFFFFFFFFFFFFFFFFFFFFFFFFFFFFFFFFFFFFF AND PUSH32 0x8BE0079C531659141344CD1FD0A4F28419497F9722A3DAAFE3B4186F6B6457E0 PUSH1 0x40 MLOAD PUSH1 0x40 MLOAD DUP1 SWAP2 SUB SWAP1 LOG3 PUSH0 DUP1 PUSH0 PUSH2 0x100 EXP DUP2 SLOAD DUP2 PUSH20 0xFFFFFFFFFFFFFFFFFFFFFFFFFFFFFFFFFFFFFFFF MUL NOT AND SWAP1 DUP4 PUSH20 0xFFFFFFFFFFFFFFFFFFFFFFFFFFFFFFFFFFFFFFFF AND MUL OR SWAP1 SSTORE POP JUMP JUMPDEST PUSH1 0x1 PUSH0 DUP3 DUP2 MSTORE PUSH1 0x20 ADD SWAP1 DUP2 MSTORE PUSH1 0x20 ADD PUSH0 KECCAK256 PUSH0 SWAP1 SLOAD SWAP1 PUSH2 0x100 EXP SWAP1 DIV PUSH20 0xFFFFFFFFFFFFFFFFFFFFFFFFFFFFFFFFFFFFFFFF AND PUSH20 0xFFFFFFFFFFFFFFFFFFFFFFFFFFFFFFFFFFFFFFFF AND CALLER PUSH20 0xFFFFFFFFFFFFFFFFFFFFFFFFFFFFFFFFFFFFFFFF AND EQ PUSH2 0xAF0 JUMPI PUSH0 DUP1 REVERT JUMPDEST PUSH1 0x3 DUP2 DUP2 SLOAD DUP2 LT PUSH2 0xB04 JUMPI PUSH2 0xB03 PUSH2 0x23CE JUMP JUMPDEST JUMPDEST SWAP1 PUSH0 MSTORE PUSH1 0x20 PUSH0 KECCAK256 SWAP1 PUSH1 0x2 MUL ADD PUSH1 0x9 PUSH1 0x7 PUSH0 CALLER PUSH20 0xFFFFFFFFFFFFFFFFFFFFFFFFFFFFFFFFFFFFFFFF AND PUSH20 0xFFFFFFFFFFFFFFFFFFFFFFFFFFFFFFFFFFFFFFFF AND DUP2 MSTORE PUSH1 0x20 ADD SWAP1 DUP2 MSTORE PUSH1 0x20 ADD PUSH0 KECCAK256 SLOAD DUP2 SLOAD DUP2 LT PUSH2 0xB61 JUMPI PUSH2 0xB60 PUSH2 0x23CE JUMP JUMPDEST JUMPDEST SWAP1 PUSH0 MSTORE PUSH1 0x20 PUSH0 KECCAK256 SWAP1 PUSH1 0x5 MUL ADD PUSH1 0x3 ADD PUSH0 DUP3 ADD DUP2 PUSH0 ADD SWAP1 DUP2 PUSH2 0xB82 SWAP2 SWAP1 PUSH2 0x28E4 JUMP JUMPDEST POP PUSH1 0x1 DUP3 ADD PUSH0 SWAP1 SLOAD SWAP1 PUSH2 0x100 EXP SWAP1 DIV PUSH1 0xFF AND DUP2 PUSH1 0x1 ADD PUSH0 PUSH2 0x100 EXP DUP2 SLOAD DUP2 PUSH1 0xFF MUL NOT AND SWAP1 DUP4 PUSH1 0xFF AND MUL OR SWAP1 SSTORE POP PUSH1 0x1 DUP3 ADD PUSH1 0x1 SWAP1 SLOAD SWAP1 PUSH2 0x100 EXP SWAP1 DIV PUSH1 0xFF AND DUP2 PUSH1 0x1 ADD PUSH1 0x1 PUSH2 0x100 EXP DUP2 SLOAD DUP2 PUSH1 0xFF MUL NOT AND SWAP1 DUP4 PUSH1 0xFF AND MUL OR SWAP1 SSTORE POP PUSH1 0x1 DUP3 ADD PUSH1 0x2 SWAP1 SLOAD SWAP1 PUSH2 0x100 EXP SWAP1 DIV PUSH1 0xFF AND DUP2 PUSH1 0x1 ADD PUSH1 0x2 PUSH2 0x100 EXP DUP2 SLOAD DUP2 PUSH1 0xFF MUL NOT AND SWAP1 DUP4 PUSH1 0xFF AND MUL OR SWAP1 SSTORE POP SWAP1 POP POP POP JUMP JUMPDEST PUSH0 DUP1 PUSH0 SWAP1 SLOAD SWAP1 PUSH2 0x100 EXP SWAP1 DIV PUSH20 0xFFFFFFFFFFFFFFFFFFFFFFFFFFFFFFFFFFFFFFFF AND SWAP1 POP SWAP1 JUMP JUMPDEST PUSH0 DUP1 PUSH0 SWAP1 SLOAD SWAP1 PUSH2 0x100 EXP SWAP1 DIV PUSH20 0xFFFFFFFFFFFFFFFFFFFFFFFFFFFFFFFFFFFFFFFF AND PUSH20 0xFFFFFFFFFFFFFFFFFFFFFFFFFFFFFFFFFFFFFFFF AND CALLER PUSH20 0xFFFFFFFFFFFFFFFFFFFFFFFFFFFFFFFFFFFFFFFF AND EQ SWAP1 POP SWAP1 JUMP JUMPDEST PUSH1 0x40 MLOAD PUSH1 0x20 ADD PUSH2 0xC9C SWAP1 PUSH2 0x2A1D JUMP JUMPDEST PUSH1 0x40 MLOAD PUSH1 0x20 DUP2 DUP4 SUB SUB DUP2 MSTORE SWAP1 PUSH1 0x40 MSTORE DUP1 MLOAD SWAP1 PUSH1 0x20 ADD KECCAK256 DUP2 PUSH1 0x40 MLOAD PUSH1 0x20 ADD PUSH2 0xCC3 SWAP2 SWAP1 PUSH2 0x2A61 JUMP JUMPDEST PUSH1 0x40 MLOAD PUSH1 0x20 DUP2 DUP4 SUB SUB DUP2 MSTORE SWAP1 PUSH1 0x40 MSTORE DUP1 MLOAD SWAP1 PUSH1 0x20 ADD KECCAK256 SUB PUSH2 0x1101 JUMPI PUSH1 0x9 PUSH1 0x40 MLOAD DUP1 PUSH2 0x100 ADD PUSH1 0x40 MSTORE DUP1 DUP5 DUP2 MSTORE PUSH1 0x20 ADD PUSH1 0x64 PUSH1 0xFF AND DUP2 MSTORE PUSH1 0x20 ADD PUSH1 0x64 PUSH1 0xFF AND DUP2 MSTORE PUSH1 0x20 ADD PUSH1 0x1 PUSH4 0xFFFFFFFF AND DUP2 MSTORE PUSH1 0x20 ADD PUSH1 0x1 ISZERO ISZERO DUP2 MSTORE PUSH1 0x20 ADD PUSH0 ISZERO ISZERO DUP2 MSTORE PUSH1 0x20 ADD PUSH1 0x40 MLOAD DUP1 PUSH1 0x80 ADD PUSH1 0x40 MSTORE DUP1 PUSH1 0x64 PUSH4 0xFFFFFFFF AND DUP2 MSTORE PUSH1 0x20 ADD PUSH1 0x64 PUSH4 0xFFFFFFFF AND DUP2 MSTORE PUSH1 0x20 ADD PUSH1 0x64 PUSH4 0xFFFFFFFF AND DUP2 MSTORE PUSH1 0x20 ADD PUSH1 0x64 PUSH1 0xFF AND DUP2 MSTORE POP DUP2 MSTORE PUSH1 0x20 ADD PUSH1 0x40 MLOAD DUP1 PUSH1 0x80 ADD PUSH1 0x40 MSTORE DUP1 PUSH1 0x40 MLOAD DUP1 PUSH1 0x40 ADD PUSH1 0x40 MSTORE DUP1 PUSH1 0x4 DUP2 MSTORE PUSH1 0x20 ADD PUSH32 0x6669737400000000000000000000000000000000000000000000000000000000 DUP2 MSTORE POP DUP2 MSTORE PUSH1 0x20 ADD PUSH1 0xA PUSH1 0xFF AND DUP2 MSTORE PUSH1 0x20 ADD PUSH1 0xA PUSH1 0xFF AND DUP2 MSTORE PUSH1 0x20 ADD PUSH1 0xA PUSH1 0xFF AND DUP2 MSTORE POP DUP2 MSTORE POP SWAP1 DUP1 PUSH1 0x1 DUP2 SLOAD ADD DUP1 DUP3 SSTORE DUP1 SWAP2 POP POP PUSH1 0x1 SWAP1 SUB SWAP1 PUSH0 MSTORE PUSH1 0x20 PUSH0 KECCAK256 SWAP1 PUSH1 0x5 MUL ADD PUSH0 SWAP1 SWAP2 SWAP1 SWAP2 SWAP1 SWAP2 POP PUSH0 DUP3 ADD MLOAD DUP2 PUSH0 ADD SWAP1 DUP2 PUSH2 0xE01 SWAP2 SWAP1 PUSH2 0x2A77 JUMP JUMPDEST POP PUSH1 0x20 DUP3 ADD MLOAD DUP2 PUSH1 0x1 ADD PUSH0 PUSH2 0x100 EXP DUP2 SLOAD DUP2 PUSH1 0xFF MUL NOT AND SWAP1 DUP4 PUSH1 0xFF AND MUL OR SWAP1 SSTORE POP PUSH1 0x40 DUP3 ADD MLOAD DUP2 PUSH1 0x1 ADD PUSH1 0x1 PUSH2 0x100 EXP DUP2 SLOAD DUP2 PUSH1 0xFF MUL NOT AND SWAP1 DUP4 PUSH1 0xFF AND MUL OR SWAP1 SSTORE POP PUSH1 0x60 DUP3 ADD MLOAD DUP2 PUSH1 0x1 ADD PUSH1 0x2 PUSH2 0x100 EXP DUP2 SLOAD DUP2 PUSH4 0xFFFFFFFF MUL NOT AND SWAP1 DUP4 PUSH4 0xFFFFFFFF AND MUL OR SWAP1 SSTORE POP PUSH1 0x80 DUP3 ADD MLOAD DUP2 PUSH1 0x1 ADD PUSH1 0x6 PUSH2 0x100 EXP DUP2 SLOAD DUP2 PUSH1 0xFF MUL NOT AND SWAP1 DUP4 ISZERO ISZERO MUL OR SWAP1 SSTORE POP PUSH1 0xA0 DUP3 ADD MLOAD DUP2 PUSH1 0x1 ADD PUSH1 0x7 PUSH2 0x100 EXP DUP2 SLOAD DUP2 PUSH1 0xFF MUL NOT AND SWAP1 DUP4 ISZERO ISZERO MUL OR SWAP1 SSTORE POP PUSH1 0xC0 DUP3 ADD MLOAD DUP2 PUSH1 0x2 ADD PUSH0 DUP3 ADD MLOAD DUP2 PUSH0 ADD PUSH0 PUSH2 0x100 EXP DUP2 SLOAD DUP2 PUSH4 0xFFFFFFFF MUL NOT AND SWAP1 DUP4 PUSH4 0xFFFFFFFF AND MUL OR SWAP1 SSTORE POP PUSH1 0x20 DUP3 ADD MLOAD DUP2 PUSH0 ADD PUSH1 0x4 PUSH2 0x100 EXP DUP2 SLOAD DUP2 PUSH4 0xFFFFFFFF MUL NOT AND SWAP1 DUP4 PUSH4 0xFFFFFFFF AND MUL OR SWAP1 SSTORE POP PUSH1 0x40 DUP3 ADD MLOAD DUP2 PUSH0 ADD PUSH1 0x8 PUSH2 0x100 EXP DUP2 SLOAD DUP2 PUSH4 0xFFFFFFFF MUL NOT AND SWAP1 DUP4 PUSH4 0xFFFFFFFF AND MUL OR SWAP1 SSTORE POP PUSH1 0x60 DUP3 ADD MLOAD DUP2 PUSH0 ADD PUSH1 0xC PUSH2 0x100 EXP DUP2 SLOAD DUP2 PUSH1 0xFF MUL NOT AND SWAP1 DUP4 PUSH1 0xFF AND MUL OR SWAP1 SSTORE POP POP POP PUSH1 0xE0 DUP3 ADD MLOAD DUP2 PUSH1 0x3 ADD PUSH0 DUP3 ADD MLOAD DUP2 PUSH0 ADD SWAP1 DUP2 PUSH2 0xF61 SWAP2 SWAP1 PUSH2 0x2A77 JUMP JUMPDEST POP PUSH1 0x20 DUP3 ADD MLOAD DUP2 PUSH1 0x1 ADD PUSH0 PUSH2 0x100 EXP DUP2 SLOAD DUP2 PUSH1 0xFF MUL NOT AND SWAP1 DUP4 PUSH1 0xFF AND MUL OR SWAP1 SSTORE POP PUSH1 0x40 DUP3 ADD MLOAD DUP2 PUSH1 0x1 ADD PUSH1 0x1 PUSH2 0x100 EXP DUP2 SLOAD DUP2 PUSH1 0xFF MUL NOT AND SWAP1 DUP4 PUSH1 0xFF AND MUL OR SWAP1 SSTORE POP PUSH1 0x60 DUP3 ADD MLOAD DUP2 PUSH1 0x1 ADD PUSH1 0x2 PUSH2 0x100 EXP DUP2 SLOAD DUP2 PUSH1 0xFF MUL NOT AND SWAP1 DUP4 PUSH1 0xFF AND MUL OR SWAP1 SSTORE POP POP POP POP POP PUSH0 PUSH1 0x1 PUSH1 0x9 DUP1 SLOAD SWAP1 POP PUSH2 0xFDB SWAP2 SWAP1 PUSH2 0x2B46 JUMP JUMPDEST SWAP1 POP CALLER PUSH1 0x6 PUSH0 DUP4 DUP2 MSTORE PUSH1 0x20 ADD SWAP1 DUP2 MSTORE PUSH1 0x20 ADD PUSH0 KECCAK256 PUSH0 PUSH2 0x100 EXP DUP2 SLOAD DUP2 PUSH20 0xFFFFFFFFFFFFFFFFFFFFFFFFFFFFFFFFFFFFFFFF MUL NOT AND SWAP1 DUP4 PUSH20 0xFFFFFFFFFFFFFFFFFFFFFFFFFFFFFFFFFFFFFFFF AND MUL OR SWAP1 SSTORE POP DUP1 PUSH1 0x7 PUSH0 CALLER PUSH20 0xFFFFFFFFFFFFFFFFFFFFFFFFFFFFFFFFFFFFFFFF AND PUSH20 0xFFFFFFFFFFFFFFFFFFFFFFFFFFFFFFFFFFFFFFFF AND DUP2 MSTORE PUSH1 0x20 ADD SWAP1 DUP2 MSTORE PUSH1 0x20 ADD PUSH0 KECCAK256 DUP2 SWAP1 SSTORE POP PUSH1 0x8 PUSH0 CALLER PUSH20 0xFFFFFFFFFFFFFFFFFFFFFFFFFFFFFFFFFFFFFFFF AND PUSH20 0xFFFFFFFFFFFFFFFFFFFFFFFFFFFFFFFFFFFFFFFF AND DUP2 MSTORE PUSH1 0x20 ADD SWAP1 DUP2 MSTORE PUSH1 0x20 ADD PUSH0 KECCAK256 PUSH0 DUP2 SLOAD DUP1 SWAP3 SWAP2 SWAP1 PUSH2 0x10BB SWAP1 PUSH2 0x2428 JUMP JUMPDEST SWAP2 SWAP1 POP SSTORE POP PUSH32 0xFC94EE92DB66F710B511EABDC15AB50732BEDDBF1024D87E12AA4DB53C03870C DUP2 DUP5 DUP5 PUSH1 0x40 MLOAD PUSH2 0x10F3 SWAP4 SWAP3 SWAP2 SWAP1 PUSH2 0x2B79 JUMP JUMPDEST PUSH1 0x40 MLOAD DUP1 SWAP2 SUB SWAP1 LOG1 POP PUSH2 0x1520 JUMP JUMPDEST PUSH1 0x9 PUSH1 0x40 MLOAD DUP1 PUSH2 0x100 ADD PUSH1 0x40 MSTORE DUP1 DUP5 DUP2 MSTORE PUSH1 0x20 ADD PUSH1 0x64 PUSH1 0xFF AND DUP2 MSTORE PUSH1 0x20 ADD PUSH1 0x64 PUSH1 0xFF AND DUP2 MSTORE PUSH1 0x20 ADD PUSH1 0x1 PUSH4 0xFFFFFFFF AND DUP2 MSTORE PUSH1 0x20 ADD PUSH1 0x1 ISZERO ISZERO DUP2 MSTORE PUSH1 0x20 ADD PUSH0 ISZERO ISZERO DUP2 MSTORE PUSH1 0x20 ADD PUSH1 0x40 MLOAD DUP1 PUSH1 0x80 ADD PUSH1 0x40 MSTORE DUP1 PUSH1 0x50 PUSH4 0xFFFFFFFF AND DUP2 MSTORE PUSH1 0x20 ADD PUSH1 0x50 PUSH4 0xFFFFFFFF AND DUP2 MSTORE PUSH1 0x20 ADD PUSH1 0x50 PUSH4 0xFFFFFFFF AND DUP2 MSTORE PUSH1 0x20 ADD PUSH1 0x50 PUSH1 0xFF AND DUP2 MSTORE POP DUP2 MSTORE PUSH1 0x20 ADD PUSH1 0x40 MLOAD DUP1 PUSH1 0x80 ADD PUSH1 0x40 MSTORE DUP1 PUSH1 0x40 MLOAD DUP1 PUSH1 0x40 ADD PUSH1 0x40 MSTORE DUP1 PUSH1 0x4 DUP2 MSTORE PUSH1 0x20 ADD PUSH32 0x6669737400000000000000000000000000000000000000000000000000000000 DUP2 MSTORE POP DUP2 MSTORE PUSH1 0x20 ADD PUSH1 0x5 PUSH1 0xFF AND DUP2 MSTORE PUSH1 0x20 ADD PUSH1 0x5 PUSH1 0xFF AND DUP2 MSTORE PUSH1 0x20 ADD PUSH1 0x5 PUSH1 0xFF AND DUP2 MSTORE POP DUP2 MSTORE POP SWAP1 DUP1 PUSH1 0x1 DUP2 SLOAD ADD DUP1 DUP3 SSTORE DUP1 SWAP2 POP POP PUSH1 0x1 SWAP1 SUB SWAP1 PUSH0 MSTORE PUSH1 0x20 PUSH0 KECCAK256 SWAP1 PUSH1 0x5 MUL ADD PUSH0 SWAP1 SWAP2 SWAP1 SWAP2 SWAP1 SWAP2 POP PUSH0 DUP3 ADD MLOAD DUP2 PUSH0 ADD SWAP1 DUP2 PUSH2 0x1224 SWAP2 SWAP1 PUSH2 0x2A77 JUMP JUMPDEST POP PUSH1 0x20 DUP3 ADD MLOAD DUP2 PUSH1 0x1 ADD PUSH0 PUSH2 0x100 EXP DUP2 SLOAD DUP2 PUSH1 0xFF MUL NOT AND SWAP1 DUP4 PUSH1 0xFF AND MUL OR SWAP1 SSTORE POP PUSH1 0x40 DUP3 ADD MLOAD DUP2 PUSH1 0x1 ADD PUSH1 0x1 PUSH2 0x100 EXP DUP2 SLOAD DUP2 PUSH1 0xFF MUL NOT AND SWAP1 DUP4 PUSH1 0xFF AND MUL OR SWAP1 SSTORE POP PUSH1 0x60 DUP3 ADD MLOAD DUP2 PUSH1 0x1 ADD PUSH1 0x2 PUSH2 0x100 EXP DUP2 SLOAD DUP2 PUSH4 0xFFFFFFFF MUL NOT AND SWAP1 DUP4 PUSH4 0xFFFFFFFF AND MUL OR SWAP1 SSTORE POP PUSH1 0x80 DUP3 ADD MLOAD DUP2 PUSH1 0x1 ADD PUSH1 0x6 PUSH2 0x100 EXP DUP2 SLOAD DUP2 PUSH1 0xFF MUL NOT AND SWAP1 DUP4 ISZERO ISZERO MUL OR SWAP1 SSTORE POP PUSH1 0xA0 DUP3 ADD MLOAD DUP2 PUSH1 0x1 ADD PUSH1 0x7 PUSH2 0x100 EXP DUP2 SLOAD DUP2 PUSH1 0xFF MUL NOT AND SWAP1 DUP4 ISZERO ISZERO MUL OR SWAP1 SSTORE POP PUSH1 0xC0 DUP3 ADD MLOAD DUP2 PUSH1 0x2 ADD PUSH0 DUP3 ADD MLOAD DUP2 PUSH0 ADD PUSH0 PUSH2 0x100 EXP DUP2 SLOAD DUP2 PUSH4 0xFFFFFFFF MUL NOT AND SWAP1 DUP4 PUSH4 0xFFFFFFFF AND MUL OR SWAP1 SSTORE POP PUSH1 0x20 DUP3 ADD MLOAD DUP2 PUSH0 ADD PUSH1 0x4 PUSH2 0x100 EXP DUP2 SLOAD DUP2 PUSH4 0xFFFFFFFF MUL NOT AND SWAP1 DUP4 PUSH4 0xFFFFFFFF AND MUL OR SWAP1 SSTORE POP PUSH1 0x40 DUP3 ADD MLOAD DUP2 PUSH0 ADD PUSH1 0x8 PUSH2 0x100 EXP DUP2 SLOAD DUP2 PUSH4 0xFFFFFFFF MUL NOT AND SWAP1 DUP4 PUSH4 0xFFFFFFFF AND MUL OR SWAP1 SSTORE POP PUSH1 0x60 DUP3 ADD MLOAD DUP2 PUSH0 ADD PUSH1 0xC PUSH2 0x100 EXP DUP2 SLOAD DUP2 PUSH1 0xFF MUL NOT AND SWAP1 DUP4 PUSH1 0xFF AND MUL OR SWAP1 SSTORE POP POP POP PUSH1 0xE0 DUP3 ADD MLOAD DUP2 PUSH1 0x3 ADD PUSH0 DUP3 ADD MLOAD DUP2 PUSH0 ADD SWAP1 DUP2 PUSH2 0x1384 SWAP2 SWAP1 PUSH2 0x2A77 JUMP JUMPDEST POP PUSH1 0x20 DUP3 ADD MLOAD DUP2 PUSH1 0x1 ADD PUSH0 PUSH2 0x100 EXP DUP2 SLOAD DUP2 PUSH1 0xFF MUL NOT AND SWAP1 DUP4 PUSH1 0xFF AND MUL OR SWAP1 SSTORE POP PUSH1 0x40 DUP3 ADD MLOAD DUP2 PUSH1 0x1 ADD PUSH1 0x1 PUSH2 0x100 EXP DUP2 SLOAD DUP2 PUSH1 0xFF MUL NOT AND SWAP1 DUP4 PUSH1 0xFF AND MUL OR SWAP1 SSTORE POP PUSH1 0x60 DUP3 ADD MLOAD DUP2 PUSH1 0x1 ADD PUSH1 0x2 PUSH2 0x100 EXP DUP2 SLOAD DUP2 PUSH1 0xFF MUL NOT AND SWAP1 DUP4 PUSH1 0xFF AND MUL OR SWAP1 SSTORE POP POP POP POP POP PUSH0 PUSH1 0x1 PUSH1 0x9 DUP1 SLOAD SWAP1 POP PUSH2 0x13FE SWAP2 SWAP1 PUSH2 0x2B46 JUMP JUMPDEST SWAP1 POP CALLER PUSH1 0x6 PUSH0 DUP4 DUP2 MSTORE PUSH1 0x20 ADD SWAP1 DUP2 MSTORE PUSH1 0x20 ADD PUSH0 KECCAK256 PUSH0 PUSH2 0x100 EXP DUP2 SLOAD DUP2 PUSH20 0xFFFFFFFFFFFFFFFFFFFFFFFFFFFFFFFFFFFFFFFF MUL NOT AND SWAP1 DUP4 PUSH20 0xFFFFFFFFFFFFFFFFFFFFFFFFFFFFFFFFFFFFFFFF AND MUL OR SWAP1 SSTORE POP DUP1 PUSH1 0x7 PUSH0 CALLER PUSH20 0xFFFFFFFFFFFFFFFFFFFFFFFFFFFFFFFFFFFFFFFF AND PUSH20 0xFFFFFFFFFFFFFFFFFFFFFFFFFFFFFFFFFFFFFFFF AND DUP2 MSTORE PUSH1 0x20 ADD SWAP1 DUP2 MSTORE PUSH1 0x20 ADD PUSH0 KECCAK256 DUP2 SWAP1 SSTORE POP PUSH1 0x8 PUSH0 CALLER PUSH20 0xFFFFFFFFFFFFFFFFFFFFFFFFFFFFFFFFFFFFFFFF AND PUSH20 0xFFFFFFFFFFFFFFFFFFFFFFFFFFFFFFFFFFFFFFFF AND DUP2 MSTORE PUSH1 0x20 ADD SWAP1 DUP2 MSTORE PUSH1 0x20 ADD PUSH0 KECCAK256 PUSH0 DUP2 SLOAD DUP1 SWAP3 SWAP2 SWAP1 PUSH2 0x14DE SWAP1 PUSH2 0x2428 JUMP JUMPDEST SWAP2 SWAP1 POP SSTORE POP PUSH32 0xFC94EE92DB66F710B511EABDC15AB50732BEDDBF1024D87E12AA4DB53C03870C DUP2 DUP5 DUP5 PUSH1 0x40 MLOAD PUSH2 0x1516 SWAP4 SWAP3 SWAP2 SWAP1 PUSH2 0x2B79 JUMP JUMPDEST PUSH1 0x40 MLOAD DUP1 SWAP2 SUB SWAP1 LOG1 POP JUMPDEST PUSH32 0x7AD47AB3A55F8B5A9CA0EA92521D08B0BFAE3AED92E832D6EB4F978FBA026912 PUSH1 0x9 PUSH1 0x40 MLOAD PUSH2 0x1550 SWAP2 SWAP1 PUSH2 0x3038 JUMP JUMPDEST PUSH1 0x40 MLOAD DUP1 SWAP2 SUB SWAP1 LOG1 POP POP JUMP JUMPDEST PUSH0 PUSH1 0x64 SWAP1 POP PUSH0 PUSH1 0x63 SWAP1 POP PUSH0 PUSH2 0x15AE DUP4 PUSH1 0x7 PUSH0 CALLER PUSH20 0xFFFFFFFFFFFFFFFFFFFFFFFFFFFFFFFFFFFFFFFF AND PUSH20 0xFFFFFFFFFFFFFFFFFFFFFFFFFFFFFFFFFFFFFFFF AND DUP2 MSTORE PUSH1 0x20 ADD SWAP1 DUP2 MSTORE PUSH1 0x20 ADD PUSH0 KECCAK256 SLOAD PUSH2 0x1967 JUMP JUMPDEST SWAP1 POP PUSH0 CALLER SWAP1 POP DUP3 DUP3 GT PUSH2 0x15C6 JUMPI PUSH2 0x15C5 DUP2 DUP7 PUSH2 0x19A6 JUMP JUMPDEST JUMPDEST POP POP POP POP POP JUMP JUMPDEST PUSH2 0x15D5 PUSH2 0xC38 JUMP JUMPDEST PUSH2 0x15DD JUMPI PUSH0 DUP1 REVERT JUMPDEST PUSH2 0x15E6 DUP2 PUSH2 0x1BB5 JUMP JUMPDEST POP JUMP JUMPDEST PUSH1 0x9 DUP2 DUP2 SLOAD DUP2 LT PUSH2 0x15F8 JUMPI PUSH0 DUP1 REVERT JUMPDEST SWAP1 PUSH0 MSTORE PUSH1 0x20 PUSH0 KECCAK256 SWAP1 PUSH1 0x5 MUL ADD PUSH0 SWAP2 POP SWAP1 POP DUP1 PUSH0 ADD DUP1 SLOAD PUSH2 0x1617 SWAP1 PUSH2 0x249C JUMP JUMPDEST DUP1 PUSH1 0x1F ADD PUSH1 0x20 DUP1 SWAP2 DIV MUL PUSH1 0x20 ADD PUSH1 0x40 MLOAD SWAP1 DUP2 ADD PUSH1 0x40 MSTORE DUP1 SWAP3 SWAP2 SWAP1 DUP2 DUP2 MSTORE PUSH1 0x20 ADD DUP3 DUP1 SLOAD PUSH2 0x1643 SWAP1 PUSH2 0x249C JUMP JUMPDEST DUP1 ISZERO PUSH2 0x168E JUMPI DUP1 PUSH1 0x1F LT PUSH2 0x1665 JUMPI PUSH2 0x100 DUP1 DUP4 SLOAD DIV MUL DUP4 MSTORE SWAP2 PUSH1 0x20 ADD SWAP2 PUSH2 0x168E JUMP JUMPDEST DUP3 ADD SWAP2 SWAP1 PUSH0 MSTORE PUSH1 0x20 PUSH0 KECCAK256 SWAP1 JUMPDEST DUP2 SLOAD DUP2 MSTORE SWAP1 PUSH1 0x1 ADD SWAP1 PUSH1 0x20 ADD DUP1 DUP4 GT PUSH2 0x1671 JUMPI DUP3 SWAP1 SUB PUSH1 0x1F AND DUP3 ADD SWAP2 JUMPDEST POP POP POP POP POP SWAP1 DUP1 PUSH1 0x1 ADD PUSH0 SWAP1 SLOAD SWAP1 PUSH2 0x100 EXP SWAP1 DIV PUSH1 0xFF AND SWAP1 DUP1 PUSH1 0x1 ADD PUSH1 0x1 SWAP1 SLOAD SWAP1 PUSH2 0x100 EXP SWAP1 DIV PUSH1 0xFF AND SWAP1 DUP1 PUSH1 0x1 ADD PUSH1 0x2 SWAP1 SLOAD SWAP1 PUSH2 0x100 EXP SWAP1 DIV PUSH4 0xFFFFFFFF AND SWAP1 DUP1 PUSH1 0x1 ADD PUSH1 0x6 SWAP1 SLOAD SWAP1 PUSH2 0x100 EXP SWAP1 DIV PUSH1 0xFF AND SWAP1 DUP1 PUSH1 0x1 ADD PUSH1 0x7 SWAP1 SLOAD SWAP1 PUSH2 0x100 EXP SWAP1 DIV PUSH1 0xFF AND SWAP1 DUP1 PUSH1 0x2 ADD PUSH1 0x40 MLOAD DUP1 PUSH1 0x80 ADD PUSH1 0x40 MSTORE SWAP1 DUP2 PUSH0 DUP3 ADD PUSH0 SWAP1 SLOAD SWAP1 PUSH2 0x100 EXP SWAP1 DIV PUSH4 0xFFFFFFFF AND PUSH4 0xFFFFFFFF AND PUSH4 0xFFFFFFFF AND DUP2 MSTORE PUSH1 0x20 ADD PUSH0 DUP3 ADD PUSH1 0x4 SWAP1 SLOAD SWAP1 PUSH2 0x100 EXP SWAP1 DIV PUSH4 0xFFFFFFFF AND PUSH4 0xFFFFFFFF AND PUSH4 0xFFFFFFFF AND DUP2 MSTORE PUSH1 0x20 ADD PUSH0 DUP3 ADD PUSH1 0x8 SWAP1 SLOAD SWAP1 PUSH2 0x100 EXP SWAP1 DIV PUSH4 0xFFFFFFFF AND PUSH4 0xFFFFFFFF AND PUSH4 0xFFFFFFFF AND DUP2 MSTORE PUSH1 0x20 ADD PUSH0 DUP3 ADD PUSH1 0xC SWAP1 SLOAD SWAP1 PUSH2 0x100 EXP SWAP1 DIV PUSH1 0xFF AND PUSH1 0xFF AND PUSH1 0xFF AND DUP2 MSTORE POP POP SWAP1 DUP1 PUSH1 0x3 ADD PUSH1 0x40 MLOAD DUP1 PUSH1 0x80 ADD PUSH1 0x40 MSTORE SWAP1 DUP2 PUSH0 DUP3 ADD DUP1 SLOAD PUSH2 0x17AD SWAP1 PUSH2 0x249C JUMP JUMPDEST DUP1 PUSH1 0x1F ADD PUSH1 0x20 DUP1 SWAP2 DIV MUL PUSH1 0x20 ADD PUSH1 0x40 MLOAD SWAP1 DUP2 ADD PUSH1 0x40 MSTORE DUP1 SWAP3 SWAP2 SWAP1 DUP2 DUP2 MSTORE PUSH1 0x20 ADD DUP3 DUP1 SLOAD PUSH2 0x17D9 SWAP1 PUSH2 0x249C JUMP JUMPDEST DUP1 ISZERO PUSH2 0x1824 JUMPI DUP1 PUSH1 0x1F LT PUSH2 0x17FB JUMPI PUSH2 0x100 DUP1 DUP4 SLOAD DIV MUL DUP4 MSTORE SWAP2 PUSH1 0x20 ADD SWAP2 PUSH2 0x1824 JUMP JUMPDEST DUP3 ADD SWAP2 SWAP1 PUSH0 MSTORE PUSH1 0x20 PUSH0 KECCAK256 SWAP1 JUMPDEST DUP2 SLOAD DUP2 MSTORE SWAP1 PUSH1 0x1 ADD SWAP1 PUSH1 0x20 ADD DUP1 DUP4 GT PUSH2 0x1807 JUMPI DUP3 SWAP1 SUB PUSH1 0x1F AND DUP3 ADD SWAP2 JUMPDEST POP POP POP POP POP DUP2 MSTORE PUSH1 0x20 ADD PUSH1 0x1 DUP3 ADD PUSH0 SWAP1 SLOAD SWAP1 PUSH2 0x100 EXP SWAP1 DIV PUSH1 0xFF AND PUSH1 0xFF AND PUSH1 0xFF AND DUP2 MSTORE PUSH1 0x20 ADD PUSH1 0x1 DUP3 ADD PUSH1 0x1 SWAP1 SLOAD SWAP1 PUSH2 0x100 EXP SWAP1 DIV PUSH1 0xFF AND PUSH1 0xFF AND PUSH1 0xFF AND DUP2 MSTORE PUSH1 0x20 ADD PUSH1 0x1 DUP3 ADD PUSH1 0x2 SWAP1 SLOAD SWAP1 PUSH2 0x100 EXP SWAP1 DIV PUSH1 0xFF AND PUSH1 0xFF AND PUSH1 0xFF AND DUP2 MSTORE POP POP SWAP1 POP DUP9 JUMP JUMPDEST PUSH0 DUP1 PUSH2 0x1896 PUSH2 0x3E8 DUP5 PUSH2 0x1967 JUMP JUMPDEST SWAP1 POP PUSH1 0x1 DUP2 LT PUSH2 0x18AA JUMPI PUSH1 0x1 SWAP2 POP POP PUSH2 0x18AF JUMP JUMPDEST PUSH0 SWAP2 POP POP JUMPDEST SWAP2 SWAP1 POP JUMP JUMPDEST PUSH2 0x18BC PUSH2 0x1D09 JUMP JUMPDEST PUSH0 PUSH2 0x2710 TIMESTAMP DUP5 PUSH1 0x40 MLOAD PUSH1 0x20 ADD PUSH2 0x18D3 SWAP3 SWAP2 SWAP1 PUSH2 0x3078 JUMP JUMPDEST PUSH1 0x40 MLOAD PUSH1 0x20 DUP2 DUP4 SUB SUB DUP2 MSTORE SWAP1 PUSH1 0x40 MSTORE DUP1 MLOAD SWAP1 PUSH1 0x20 ADD KECCAK256 PUSH0 SHR PUSH2 0x18F5 SWAP2 SWAP1 PUSH2 0x30D0 JUMP JUMPDEST SWAP1 POP PUSH1 0x40 MLOAD DUP1 PUSH1 0x60 ADD PUSH1 0x40 MSTORE DUP1 PUSH1 0x40 MLOAD DUP1 PUSH1 0x40 ADD PUSH1 0x40 MSTORE DUP1 PUSH1 0x3 DUP2 MSTORE PUSH1 0x20 ADD PUSH32 0x426F620000000000000000000000000000000000000000000000000000000000 DUP2 MSTORE POP DUP2 MSTORE PUSH1 0x20 ADD PUSH1 0x64 DUP4 PUSH2 0x194A SWAP2 SWAP1 PUSH2 0x3100 JUMP JUMPDEST DUP2 MSTORE PUSH1 0x20 ADD PUSH1 0x64 DUP4 PUSH2 0x195C SWAP2 SWAP1 PUSH2 0x30D0 JUMP JUMPDEST DUP2 MSTORE POP SWAP2 POP POP SWAP2 SWAP1 POP JUMP JUMPDEST PUSH0 DUP3 TIMESTAMP DUP4 PUSH1 0x40 MLOAD PUSH1 0x20 ADD PUSH2 0x197C SWAP3 SWAP2 SWAP1 PUSH2 0x3078 JUMP JUMPDEST PUSH1 0x40 MLOAD PUSH1 0x20 DUP2 DUP4 SUB SUB DUP2 MSTORE SWAP1 PUSH1 0x40 MSTORE DUP1 MLOAD SWAP1 PUSH1 0x20 ADD KECCAK256 PUSH0 SHR PUSH2 0x199E SWAP2 SWAP1 PUSH2 0x30D0 JUMP JUMPDEST SWAP1 POP SWAP3 SWAP2 POP POP JUMP JUMPDEST PUSH0 PUSH2 0x19B0 DUP3 PUSH2 0x1CA7 JUMP JUMPDEST SWAP1 POP PUSH0 PUSH3 0xF4240 DUP3 PUSH2 0x19C2 SWAP2 SWAP1 PUSH2 0x3100 JUMP JUMPDEST SWAP1 POP PUSH0 PUSH2 0x3E8 DUP1 DUP5 PUSH2 0x19D4 SWAP2 SWAP1 PUSH2 0x3100 JUMP JUMPDEST PUSH2 0x19DE SWAP2 SWAP1 PUSH2 0x30D0 JUMP JUMPDEST SWAP1 POP PUSH0 PUSH2 0x3E8 DUP5 PUSH2 0x19EF SWAP2 SWAP1 PUSH2 0x30D0 JUMP JUMPDEST SWAP1 POP PUSH1 0x3 PUSH1 0x40 MLOAD DUP1 PUSH1 0x80 ADD PUSH1 0x40 MSTORE DUP1 DUP8 DUP2 MSTORE PUSH1 0x20 ADD DUP6 PUSH1 0xFF AND DUP2 MSTORE PUSH1 0x20 ADD DUP5 PUSH1 0xFF AND DUP2 MSTORE PUSH1 0x20 ADD DUP4 PUSH1 0xFF AND DUP2 MSTORE POP SWAP1 DUP1 PUSH1 0x1 DUP2 SLOAD ADD DUP1 DUP3 SSTORE DUP1 SWAP2 POP POP PUSH1 0x1 SWAP1 SUB SWAP1 PUSH0 MSTORE PUSH1 0x20 PUSH0 KECCAK256 SWAP1 PUSH1 0x2 MUL ADD PUSH0 SWAP1 SWAP2 SWAP1 SWAP2 SWAP1 SWAP2 POP PUSH0 DUP3 ADD MLOAD DUP2 PUSH0 ADD SWAP1 DUP2 PUSH2 0x1A56 SWAP2 SWAP1 PUSH2 0x2A77 JUMP JUMPDEST POP PUSH1 0x20 DUP3 ADD MLOAD DUP2 PUSH1 0x1 ADD PUSH0 PUSH2 0x100 EXP DUP2 SLOAD DUP2 PUSH1 0xFF MUL NOT AND SWAP1 DUP4 PUSH1 0xFF AND MUL OR SWAP1 SSTORE POP PUSH1 0x40 DUP3 ADD MLOAD DUP2 PUSH1 0x1 ADD PUSH1 0x1 PUSH2 0x100 EXP DUP2 SLOAD DUP2 PUSH1 0xFF MUL NOT AND SWAP1 DUP4 PUSH1 0xFF AND MUL OR SWAP1 SSTORE POP PUSH1 0x60 DUP3 ADD MLOAD DUP2 PUSH1 0x1 ADD PUSH1 0x2 PUSH2 0x100 EXP DUP2 SLOAD DUP2 PUSH1 0xFF MUL NOT AND SWAP1 DUP4 PUSH1 0xFF AND MUL OR SWAP1 SSTORE POP POP POP PUSH0 PUSH1 0x1 PUSH1 0x3 DUP1 SLOAD SWAP1 POP PUSH2 0x1ACE SWAP2 SWAP1 PUSH2 0x2B46 JUMP JUMPDEST SWAP1 POP DUP7 PUSH1 0x1 PUSH0 DUP4 DUP2 MSTORE PUSH1 0x20 ADD SWAP1 DUP2 MSTORE PUSH1 0x20 ADD PUSH0 KECCAK256 PUSH0 PUSH2 0x100 EXP DUP2 SLOAD DUP2 PUSH20 0xFFFFFFFFFFFFFFFFFFFFFFFFFFFFFFFFFFFFFFFF MUL NOT AND SWAP1 DUP4 PUSH20 0xFFFFFFFFFFFFFFFFFFFFFFFFFFFFFFFFFFFFFFFF AND MUL OR SWAP1 SSTORE POP PUSH1 0x2 PUSH0 DUP9 PUSH20 0xFFFFFFFFFFFFFFFFFFFFFFFFFFFFFFFFFFFFFFFF AND PUSH20 0xFFFFFFFFFFFFFFFFFFFFFFFFFFFFFFFFFFFFFFFF AND DUP2 MSTORE PUSH1 0x20 ADD SWAP1 DUP2 MSTORE PUSH1 0x20 ADD PUSH0 KECCAK256 PUSH0 DUP2 SLOAD DUP1 SWAP3 SWAP2 SWAP1 PUSH2 0x1B6C SWAP1 PUSH2 0x2428 JUMP JUMPDEST SWAP2 SWAP1 POP SSTORE POP PUSH32 0xE567398B5F2550951A498C5973B658FE260A8CCB602ECBB4AD2D886A494ABA1B DUP8 DUP8 DUP8 PUSH1 0x40 MLOAD PUSH2 0x1BA4 SWAP4 SWAP3 SWAP2 SWAP1 PUSH2 0x3130 JUMP JUMPDEST PUSH1 0x40 MLOAD DUP1 SWAP2 SUB SWAP1 LOG1 POP POP POP POP POP POP POP JUMP JUMPDEST PUSH0 PUSH20 0xFFFFFFFFFFFFFFFFFFFFFFFFFFFFFFFFFFFFFFFF AND DUP2 PUSH20 0xFFFFFFFFFFFFFFFFFFFFFFFFFFFFFFFFFFFFFFFF AND SUB PUSH2 0x1BEC JUMPI PUSH0 DUP1 REVERT JUMPDEST DUP1 PUSH20 0xFFFFFFFFFFFFFFFFFFFFFFFFFFFFFFFFFFFFFFFF AND PUSH0 DUP1 SLOAD SWAP1 PUSH2 0x100 EXP SWAP1 DIV PUSH20 0xFFFFFFFFFFFFFFFFFFFFFFFFFFFFFFFFFFFFFFFF AND PUSH20 0xFFFFFFFFFFFFFFFFFFFFFFFFFFFFFFFFFFFFFFFF AND PUSH32 0x8BE0079C531659141344CD1FD0A4F28419497F9722A3DAAFE3B4186F6B6457E0 PUSH1 0x40 MLOAD PUSH1 0x40 MLOAD DUP1 SWAP2 SUB SWAP1 LOG3 DUP1 PUSH0 DUP1 PUSH2 0x100 EXP DUP2 SLOAD DUP2 PUSH20 0xFFFFFFFFFFFFFFFFFFFFFFFFFFFFFFFFFFFFFFFF MUL NOT AND SWAP1 DUP4 PUSH20 0xFFFFFFFFFFFFFFFFFFFFFFFFFFFFFFFFFFFFFFFF AND MUL OR SWAP1 SSTORE POP POP JUMP JUMPDEST PUSH0 DUP1 PUSH4 0x3B9ACA00 TIMESTAMP PUSH1 0x5 SLOAD DUP6 PUSH1 0x40 MLOAD PUSH1 0x20 ADD PUSH2 0x1CC5 SWAP4 SWAP3 SWAP2 SWAP1 PUSH2 0x316C JUMP JUMPDEST PUSH1 0x40 MLOAD PUSH1 0x20 DUP2 DUP4 SUB SUB DUP2 MSTORE SWAP1 PUSH1 0x40 MSTORE DUP1 MLOAD SWAP1 PUSH1 0x20 ADD KECCAK256 PUSH0 SHR PUSH2 0x1CE7 SWAP2 SWAP1 PUSH2 0x30D0 JUMP JUMPDEST SWAP1 POP PUSH1 0x5 PUSH0 DUP2 SLOAD DUP1 SWAP3 SWAP2 SWAP1 PUSH2 0x1CFB SWAP1 PUSH2 0x2428 JUMP JUMPDEST SWAP2 SWAP1 POP SSTORE POP DUP1 SWAP2 POP POP SWAP2 SWAP1 POP JUMP JUMPDEST PUSH1 0x40 MLOAD DUP1 PUSH1 0x60 ADD PUSH1 0x40 MSTORE DUP1 PUSH1 0x60 DUP2 MSTORE PUSH1 0x20 ADD PUSH0 DUP2 MSTORE PUSH1 0x20 ADD PUSH0 DUP2 MSTORE POP SWAP1 JUMP JUMPDEST PUSH0 PUSH1 0x40 MLOAD SWAP1 POP SWAP1 JUMP JUMPDEST PUSH0 DUP1 REVERT JUMPDEST PUSH0 DUP1 REVERT JUMPDEST PUSH0 PUSH20 0xFFFFFFFFFFFFFFFFFFFFFFFFFFFFFFFFFFFFFFFF DUP3 AND SWAP1 POP SWAP2 SWAP1 POP JUMP JUMPDEST PUSH0 PUSH2 0x1D62 DUP3 PUSH2 0x1D39 JUMP JUMPDEST SWAP1 POP SWAP2 SWAP1 POP JUMP JUMPDEST PUSH2 0x1D72 DUP2 PUSH2 0x1D58 JUMP JUMPDEST DUP2 EQ PUSH2 0x1D7C JUMPI PUSH0 DUP1 REVERT JUMPDEST POP JUMP JUMPDEST PUSH0 DUP2 CALLDATALOAD SWAP1 POP PUSH2 0x1D8D DUP2 PUSH2 0x1D69 JUMP JUMPDEST SWAP3 SWAP2 POP POP JUMP JUMPDEST PUSH0 PUSH1 0x20 DUP3 DUP5 SUB SLT ISZERO PUSH2 0x1DA8 JUMPI PUSH2 0x1DA7 PUSH2 0x1D31 JUMP JUMPDEST JUMPDEST PUSH0 PUSH2 0x1DB5 DUP5 DUP3 DUP6 ADD PUSH2 0x1D7F JUMP JUMPDEST SWAP2 POP POP SWAP3 SWAP2 POP POP JUMP JUMPDEST PUSH0 DUP2 MLOAD SWAP1 POP SWAP2 SWAP1 POP JUMP JUMPDEST PUSH0 DUP3 DUP3 MSTORE PUSH1 0x20 DUP3 ADD SWAP1 POP SWAP3 SWAP2 POP POP JUMP JUMPDEST PUSH0 DUP2 SWAP1 POP PUSH1 0x20 DUP3 ADD SWAP1 POP SWAP2 SWAP1 POP JUMP JUMPDEST PUSH0 DUP2 SWAP1 POP SWAP2 SWAP1 POP JUMP JUMPDEST PUSH2 0x1DF9 DUP2 PUSH2 0x1DE7 JUMP JUMPDEST DUP3 MSTORE POP POP JUMP JUMPDEST PUSH0 PUSH2 0x1E0A DUP4 DUP4 PUSH2 0x1DF0 JUMP JUMPDEST PUSH1 0x20 DUP4 ADD SWAP1 POP SWAP3 SWAP2 POP POP JUMP JUMPDEST PUSH0 PUSH1 0x20 DUP3 ADD SWAP1 POP SWAP2 SWAP1 POP JUMP JUMPDEST PUSH0 PUSH2 0x1E2C DUP3 PUSH2 0x1DBE JUMP JUMPDEST PUSH2 0x1E36 DUP2 DUP6 PUSH2 0x1DC8 JUMP JUMPDEST SWAP4 POP PUSH2 0x1E41 DUP4 PUSH2 0x1DD8 JUMP JUMPDEST DUP1 PUSH0 JUMPDEST DUP4 DUP2 LT ISZERO PUSH2 0x1E71 JUMPI DUP2 MLOAD PUSH2 0x1E58 DUP9 DUP3 PUSH2 0x1DFF JUMP JUMPDEST SWAP8 POP PUSH2 0x1E63 DUP4 PUSH2 0x1E16 JUMP JUMPDEST SWAP3 POP POP PUSH1 0x1 DUP2 ADD SWAP1 POP PUSH2 0x1E44 JUMP JUMPDEST POP DUP6 SWAP4 POP POP POP POP SWAP3 SWAP2 POP POP JUMP JUMPDEST PUSH0 PUSH1 0x20 DUP3 ADD SWAP1 POP DUP2 DUP2 SUB PUSH0 DUP4 ADD MSTORE PUSH2 0x1E96 DUP2 DUP5 PUSH2 0x1E22 JUMP JUMPDEST SWAP1 POP SWAP3 SWAP2 POP POP JUMP JUMPDEST PUSH2 0x1EA7 DUP2 PUSH2 0x1DE7 JUMP JUMPDEST DUP2 EQ PUSH2 0x1EB1 JUMPI PUSH0 DUP1 REVERT JUMPDEST POP JUMP JUMPDEST PUSH0 DUP2 CALLDATALOAD SWAP1 POP PUSH2 0x1EC2 DUP2 PUSH2 0x1E9E JUMP JUMPDEST SWAP3 SWAP2 POP POP JUMP JUMPDEST PUSH0 PUSH1 0x20 DUP3 DUP5 SUB SLT ISZERO PUSH2 0x1EDD JUMPI PUSH2 0x1EDC PUSH2 0x1D31 JUMP JUMPDEST JUMPDEST PUSH0 PUSH2 0x1EEA DUP5 DUP3 DUP6 ADD PUSH2 0x1EB4 JUMP JUMPDEST SWAP2 POP POP SWAP3 SWAP2 POP POP JUMP JUMPDEST PUSH0 DUP2 MLOAD SWAP1 POP SWAP2 SWAP1 POP JUMP JUMPDEST PUSH0 DUP3 DUP3 MSTORE PUSH1 0x20 DUP3 ADD SWAP1 POP SWAP3 SWAP2 POP POP JUMP JUMPDEST DUP3 DUP2 DUP4 MCOPY PUSH0 DUP4 DUP4 ADD MSTORE POP POP POP JUMP JUMPDEST PUSH0 PUSH1 0x1F NOT PUSH1 0x1F DUP4 ADD AND SWAP1 POP SWAP2 SWAP1 POP JUMP JUMPDEST PUSH0 PUSH2 0x1F35 DUP3 PUSH2 0x1EF3 JUMP JUMPDEST PUSH2 0x1F3F DUP2 DUP6 PUSH2 0x1EFD JUMP JUMPDEST SWAP4 POP PUSH2 0x1F4F DUP2 DUP6 PUSH1 0x20 DUP7 ADD PUSH2 0x1F0D JUMP JUMPDEST PUSH2 0x1F58 DUP2 PUSH2 0x1F1B JUMP JUMPDEST DUP5 ADD SWAP2 POP POP SWAP3 SWAP2 POP POP JUMP JUMPDEST PUSH0 PUSH1 0xFF DUP3 AND SWAP1 POP SWAP2 SWAP1 POP JUMP JUMPDEST PUSH2 0x1F78 DUP2 PUSH2 0x1F63 JUMP JUMPDEST DUP3 MSTORE POP POP JUMP JUMPDEST PUSH0 PUSH1 0x80 DUP3 ADD SWAP1 POP DUP2 DUP2 SUB PUSH0 DUP4 ADD MSTORE PUSH2 0x1F96 DUP2 DUP8 PUSH2 0x1F2B JUMP JUMPDEST SWAP1 POP PUSH2 0x1FA5 PUSH1 0x20 DUP4 ADD DUP7 PUSH2 0x1F6F JUMP JUMPDEST PUSH2 0x1FB2 PUSH1 0x40 DUP4 ADD DUP6 PUSH2 0x1F6F JUMP JUMPDEST PUSH2 0x1FBF PUSH1 0x60 DUP4 ADD DUP5 PUSH2 0x1F6F JUMP JUMPDEST SWAP6 SWAP5 POP POP POP POP POP JUMP JUMPDEST PUSH2 0x1FD1 DUP2 PUSH2 0x1D58 JUMP JUMPDEST DUP3 MSTORE POP POP JUMP JUMPDEST PUSH0 PUSH1 0x20 DUP3 ADD SWAP1 POP PUSH2 0x1FEA PUSH0 DUP4 ADD DUP5 PUSH2 0x1FC8 JUMP JUMPDEST SWAP3 SWAP2 POP POP JUMP JUMPDEST PUSH0 DUP2 ISZERO ISZERO SWAP1 POP SWAP2 SWAP1 POP JUMP JUMPDEST PUSH2 0x2004 DUP2 PUSH2 0x1FF0 JUMP JUMPDEST DUP3 MSTORE POP POP JUMP JUMPDEST PUSH0 PUSH1 0x20 DUP3 ADD SWAP1 POP PUSH2 0x201D PUSH0 DUP4 ADD DUP5 PUSH2 0x1FFB JUMP JUMPDEST SWAP3 SWAP2 POP POP JUMP JUMPDEST PUSH0 DUP1 REVERT JUMPDEST PUSH0 DUP1 REVERT JUMPDEST PUSH32 0x4E487B7100000000000000000000000000000000000000000000000000000000 PUSH0 MSTORE PUSH1 0x41 PUSH1 0x4 MSTORE PUSH1 0x24 PUSH0 REVERT JUMPDEST PUSH2 0x2061 DUP3 PUSH2 0x1F1B JUMP JUMPDEST DUP2 ADD DUP2 DUP2 LT PUSH8 0xFFFFFFFFFFFFFFFF DUP3 GT OR ISZERO PUSH2 0x2080 JUMPI PUSH2 0x207F PUSH2 0x202B JUMP JUMPDEST JUMPDEST DUP1 PUSH1 0x40 MSTORE POP POP POP JUMP JUMPDEST PUSH0 PUSH2 0x2092 PUSH2 0x1D28 JUMP JUMPDEST SWAP1 POP PUSH2 0x209E DUP3 DUP3 PUSH2 0x2058 JUMP JUMPDEST SWAP2 SWAP1 POP JUMP JUMPDEST PUSH0 PUSH8 0xFFFFFFFFFFFFFFFF DUP3 GT ISZERO PUSH2 0x20BD JUMPI PUSH2 0x20BC PUSH2 0x202B JUMP JUMPDEST JUMPDEST PUSH2 0x20C6 DUP3 PUSH2 0x1F1B JUMP JUMPDEST SWAP1 POP PUSH1 0x20 DUP2 ADD SWAP1 POP SWAP2 SWAP1 POP JUMP JUMPDEST DUP3 DUP2 DUP4 CALLDATACOPY PUSH0 DUP4 DUP4 ADD MSTORE POP POP POP JUMP JUMPDEST PUSH0 PUSH2 0x20F3 PUSH2 0x20EE DUP5 PUSH2 0x20A3 JUMP JUMPDEST PUSH2 0x2089 JUMP JUMPDEST SWAP1 POP DUP3 DUP2 MSTORE PUSH1 0x20 DUP2 ADD DUP5 DUP5 DUP5 ADD GT ISZERO PUSH2 0x210F JUMPI PUSH2 0x210E PUSH2 0x2027 JUMP JUMPDEST JUMPDEST PUSH2 0x211A DUP5 DUP3 DUP6 PUSH2 0x20D3 JUMP JUMPDEST POP SWAP4 SWAP3 POP POP POP JUMP JUMPDEST PUSH0 DUP3 PUSH1 0x1F DUP4 ADD SLT PUSH2 0x2136 JUMPI PUSH2 0x2135 PUSH2 0x2023 JUMP JUMPDEST JUMPDEST DUP2 CALLDATALOAD PUSH2 0x2146 DUP5 DUP3 PUSH1 0x20 DUP7 ADD PUSH2 0x20E1 JUMP JUMPDEST SWAP2 POP POP SWAP3 SWAP2 POP POP JUMP JUMPDEST PUSH0 DUP1 PUSH1 0x40 DUP4 DUP6 SUB SLT ISZERO PUSH2 0x2165 JUMPI PUSH2 0x2164 PUSH2 0x1D31 JUMP JUMPDEST JUMPDEST PUSH0 DUP4 ADD CALLDATALOAD PUSH8 0xFFFFFFFFFFFFFFFF DUP2 GT ISZERO PUSH2 0x2182 JUMPI PUSH2 0x2181 PUSH2 0x1D35 JUMP JUMPDEST JUMPDEST PUSH2 0x218E DUP6 DUP3 DUP7 ADD PUSH2 0x2122 JUMP JUMPDEST SWAP3 POP POP PUSH1 0x20 DUP4 ADD CALLDATALOAD PUSH8 0xFFFFFFFFFFFFFFFF DUP2 GT ISZERO PUSH2 0x21AF JUMPI PUSH2 0x21AE PUSH2 0x1D35 JUMP JUMPDEST JUMPDEST PUSH2 0x21BB DUP6 DUP3 DUP7 ADD PUSH2 0x2122 JUMP JUMPDEST SWAP2 POP POP SWAP3 POP SWAP3 SWAP1 POP JUMP JUMPDEST PUSH0 PUSH1 0x20 DUP3 DUP5 SUB SLT ISZERO PUSH2 0x21DA JUMPI PUSH2 0x21D9 PUSH2 0x1D31 JUMP JUMPDEST JUMPDEST PUSH0 DUP3 ADD CALLDATALOAD PUSH8 0xFFFFFFFFFFFFFFFF DUP2 GT ISZERO PUSH2 0x21F7 JUMPI PUSH2 0x21F6 PUSH2 0x1D35 JUMP JUMPDEST JUMPDEST PUSH2 0x2203 DUP5 DUP3 DUP6 ADD PUSH2 0x2122 JUMP JUMPDEST SWAP2 POP POP SWAP3 SWAP2 POP POP JUMP JUMPDEST PUSH0 PUSH4 0xFFFFFFFF DUP3 AND SWAP1 POP SWAP2 SWAP1 POP JUMP JUMPDEST PUSH2 0x2224 DUP2 PUSH2 0x220C JUMP JUMPDEST DUP3 MSTORE POP POP JUMP JUMPDEST PUSH2 0x2233 DUP2 PUSH2 0x220C JUMP JUMPDEST DUP3 MSTORE POP POP JUMP JUMPDEST PUSH2 0x2242 DUP2 PUSH2 0x1F63 JUMP JUMPDEST DUP3 MSTORE POP POP JUMP JUMPDEST PUSH1 0x80 DUP3 ADD PUSH0 DUP3 ADD MLOAD PUSH2 0x225C PUSH0 DUP6 ADD DUP3 PUSH2 0x222A JUMP JUMPDEST POP PUSH1 0x20 DUP3 ADD MLOAD PUSH2 0x226F PUSH1 0x20 DUP6 ADD DUP3 PUSH2 0x222A JUMP JUMPDEST POP PUSH1 0x40 DUP3 ADD MLOAD PUSH2 0x2282 PUSH1 0x40 DUP6 ADD DUP3 PUSH2 0x222A JUMP JUMPDEST POP PUSH1 0x60 DUP3 ADD MLOAD PUSH2 0x2295 PUSH1 0x60 DUP6 ADD DUP3 PUSH2 0x2239 JUMP JUMPDEST POP POP POP POP JUMP JUMPDEST PUSH0 DUP3 DUP3 MSTORE PUSH1 0x20 DUP3 ADD SWAP1 POP SWAP3 SWAP2 POP POP JUMP JUMPDEST PUSH0 PUSH2 0x22B5 DUP3 PUSH2 0x1EF3 JUMP JUMPDEST PUSH2 0x22BF DUP2 DUP6 PUSH2 0x229B JUMP JUMPDEST SWAP4 POP PUSH2 0x22CF DUP2 DUP6 PUSH1 0x20 DUP7 ADD PUSH2 0x1F0D JUMP JUMPDEST PUSH2 0x22D8 DUP2 PUSH2 0x1F1B JUMP JUMPDEST DUP5 ADD SWAP2 POP POP SWAP3 SWAP2 POP POP JUMP JUMPDEST PUSH0 PUSH1 0x80 DUP4 ADD PUSH0 DUP4 ADD MLOAD DUP5 DUP3 SUB PUSH0 DUP7 ADD MSTORE PUSH2 0x22FD DUP3 DUP3 PUSH2 0x22AB JUMP JUMPDEST SWAP2 POP POP PUSH1 0x20 DUP4 ADD MLOAD PUSH2 0x2312 PUSH1 0x20 DUP7 ADD DUP3 PUSH2 0x2239 JUMP JUMPDEST POP PUSH1 0x40 DUP4 ADD MLOAD PUSH2 0x2325 PUSH1 0x40 DUP7 ADD DUP3 PUSH2 0x2239 JUMP JUMPDEST POP PUSH1 0x60 DUP4 ADD MLOAD PUSH2 0x2338 PUSH1 0x60 DUP7 ADD DUP3 PUSH2 0x2239 JUMP JUMPDEST POP DUP1 SWAP2 POP POP SWAP3 SWAP2 POP POP JUMP JUMPDEST PUSH0 PUSH2 0x160 DUP3 ADD SWAP1 POP DUP2 DUP2 SUB PUSH0 DUP4 ADD MSTORE PUSH2 0x235C DUP2 DUP12 PUSH2 0x1F2B JUMP JUMPDEST SWAP1 POP PUSH2 0x236B PUSH1 0x20 DUP4 ADD DUP11 PUSH2 0x1F6F JUMP JUMPDEST PUSH2 0x2378 PUSH1 0x40 DUP4 ADD DUP10 PUSH2 0x1F6F JUMP JUMPDEST PUSH2 0x2385 PUSH1 0x60 DUP4 ADD DUP9 PUSH2 0x221B JUMP JUMPDEST PUSH2 0x2392 PUSH1 0x80 DUP4 ADD DUP8 PUSH2 0x1FFB JUMP JUMPDEST PUSH2 0x239F PUSH1 0xA0 DUP4 ADD DUP7 PUSH2 0x1FFB JUMP JUMPDEST PUSH2 0x23AC PUSH1 0xC0 DUP4 ADD DUP6 PUSH2 0x2248 JUMP JUMPDEST DUP2 DUP2 SUB PUSH2 0x140 DUP4 ADD MSTORE PUSH2 0x23BF DUP2 DUP5 PUSH2 0x22E3 JUMP JUMPDEST SWAP1 POP SWAP10 SWAP9 POP POP POP POP POP POP POP POP POP JUMP JUMPDEST PUSH32 0x4E487B7100000000000000000000000000000000000000000000000000000000 PUSH0 MSTORE PUSH1 0x32 PUSH1 0x4 MSTORE PUSH1 0x24 PUSH0 REVERT JUMPDEST PUSH32 0x4E487B7100000000000000000000000000000000000000000000000000000000 PUSH0 MSTORE PUSH1 0x11 PUSH1 0x4 MSTORE PUSH1 0x24 PUSH0 REVERT JUMPDEST PUSH0 PUSH2 0x2432 DUP3 PUSH2 0x1DE7 JUMP JUMPDEST SWAP2 POP PUSH32 0xFFFFFFFFFFFFFFFFFFFFFFFFFFFFFFFFFFFFFFFFFFFFFFFFFFFFFFFFFFFFFFFF DUP3 SUB PUSH2 0x2464 JUMPI PUSH2 0x2463 PUSH2 0x23FB JUMP JUMPDEST JUMPDEST PUSH1 0x1 DUP3 ADD SWAP1 POP SWAP2 SWAP1 POP JUMP JUMPDEST PUSH32 0x4E487B7100000000000000000000000000000000000000000000000000000000 PUSH0 MSTORE PUSH1 0x22 PUSH1 0x4 MSTORE PUSH1 0x24 PUSH0 REVERT JUMPDEST PUSH0 PUSH1 0x2 DUP3 DIV SWAP1 POP PUSH1 0x1 DUP3 AND DUP1 PUSH2 0x24B3 JUMPI PUSH1 0x7F DUP3 AND SWAP2 POP JUMPDEST PUSH1 0x20 DUP3 LT DUP2 SUB PUSH2 0x24C6 JUMPI PUSH2 0x24C5 PUSH2 0x246F JUMP JUMPDEST JUMPDEST POP SWAP2 SWAP1 POP JUMP JUMPDEST PUSH0 PUSH2 0x24D6 DUP3 PUSH2 0x220C JUMP JUMPDEST SWAP2 POP PUSH2 0x24E1 DUP4 PUSH2 0x220C JUMP JUMPDEST SWAP3 POP DUP3 DUP3 ADD SWAP1 POP PUSH4 0xFFFFFFFF DUP2 GT ISZERO PUSH2 0x24FD JUMPI PUSH2 0x24FC PUSH2 0x23FB JUMP JUMPDEST JUMPDEST SWAP3 SWAP2 POP POP JUMP JUMPDEST PUSH32 0x566963746F727921212100000000000000000000000000000000000000000000 PUSH0 DUP3 ADD MSTORE POP JUMP JUMPDEST PUSH0 PUSH2 0x2537 PUSH1 0xA DUP4 PUSH2 0x1EFD JUMP JUMPDEST SWAP2 POP PUSH2 0x2542 DUP3 PUSH2 0x2503 JUMP JUMPDEST PUSH1 0x20 DUP3 ADD SWAP1 POP SWAP2 SWAP1 POP JUMP JUMPDEST PUSH0 DUP2 SWAP1 POP SWAP2 SWAP1 POP JUMP JUMPDEST PUSH0 PUSH2 0x2570 PUSH2 0x256B PUSH2 0x2566 DUP5 PUSH2 0x220C JUMP JUMPDEST PUSH2 0x254D JUMP JUMPDEST PUSH2 0x1DE7 JUMP JUMPDEST SWAP1 POP SWAP2 SWAP1 POP JUMP JUMPDEST PUSH2 0x2580 DUP2 PUSH2 0x2556 JUMP JUMPDEST DUP3 MSTORE POP POP JUMP JUMPDEST PUSH2 0x258F DUP2 PUSH2 0x1DE7 JUMP JUMPDEST DUP3 MSTORE POP POP JUMP JUMPDEST PUSH0 PUSH1 0x60 DUP3 ADD SWAP1 POP DUP2 DUP2 SUB PUSH0 DUP4 ADD MSTORE PUSH2 0x25AC DUP2 PUSH2 0x252B JUMP JUMPDEST SWAP1 POP PUSH2 0x25BB PUSH1 0x20 DUP4 ADD DUP6 PUSH2 0x2577 JUMP JUMPDEST PUSH2 0x25C8 PUSH1 0x40 DUP4 ADD DUP5 PUSH2 0x2586 JUMP JUMPDEST SWAP4 SWAP3 POP POP POP JUMP JUMPDEST PUSH0 PUSH2 0x25D9 DUP3 PUSH2 0x220C JUMP JUMPDEST SWAP2 POP PUSH4 0xFFFFFFFF DUP3 SUB PUSH2 0x25EF JUMPI PUSH2 0x25EE PUSH2 0x23FB JUMP JUMPDEST JUMPDEST PUSH1 0x1 DUP3 ADD SWAP1 POP SWAP2 SWAP1 POP JUMP JUMPDEST PUSH32 0x4C6F736521000000000000000000000000000000000000000000000000000000 PUSH0 DUP3 ADD MSTORE POP JUMP JUMPDEST PUSH0 PUSH2 0x262E PUSH1 0x5 DUP4 PUSH2 0x1EFD JUMP JUMPDEST SWAP2 POP PUSH2 0x2639 DUP3 PUSH2 0x25FA JUMP JUMPDEST PUSH1 0x20 DUP3 ADD SWAP1 POP SWAP2 SWAP1 POP JUMP JUMPDEST PUSH0 PUSH1 0x60 DUP3 ADD SWAP1 POP DUP2 DUP2 SUB PUSH0 DUP4 ADD MSTORE PUSH2 0x265B DUP2 PUSH2 0x2622 JUMP JUMPDEST SWAP1 POP PUSH2 0x266A PUSH1 0x20 DUP4 ADD DUP6 PUSH2 0x2577 JUMP JUMPDEST PUSH2 0x2677 PUSH1 0x40 DUP4 ADD DUP5 PUSH2 0x2586 JUMP JUMPDEST SWAP4 SWAP3 POP POP POP JUMP JUMPDEST PUSH32 0x4E6F7468696E672077617320666F756E64000000000000000000000000000000 PUSH0 DUP3 ADD MSTORE POP JUMP JUMPDEST PUSH0 PUSH2 0x26B2 PUSH1 0x11 DUP4 PUSH2 0x1EFD JUMP JUMPDEST SWAP2 POP PUSH2 0x26BD DUP3 PUSH2 0x267E JUMP JUMPDEST PUSH1 0x20 DUP3 ADD SWAP1 POP SWAP2 SWAP1 POP JUMP JUMPDEST PUSH0 DUP2 SWAP1 POP SWAP2 SWAP1 POP JUMP JUMPDEST PUSH0 PUSH2 0x26EB PUSH2 0x26E6 PUSH2 0x26E1 DUP5 PUSH2 0x26C8 JUMP JUMPDEST PUSH2 0x254D JUMP JUMPDEST PUSH2 0x1DE7 JUMP JUMPDEST SWAP1 POP SWAP2 SWAP1 POP JUMP JUMPDEST PUSH2 0x26FB DUP2 PUSH2 0x26D1 JUMP JUMPDEST DUP3 MSTORE POP POP JUMP JUMPDEST PUSH0 PUSH1 0x60 DUP3 ADD SWAP1 POP DUP2 DUP2 SUB PUSH0 DUP4 ADD MSTORE PUSH2 0x2718 DUP2 PUSH2 0x26A6 JUMP JUMPDEST SWAP1 POP PUSH2 0x2727 PUSH1 0x20 DUP4 ADD DUP6 PUSH2 0x26F2 JUMP JUMPDEST PUSH2 0x2734 PUSH1 0x40 DUP4 ADD DUP5 PUSH2 0x2577 JUMP JUMPDEST SWAP4 SWAP3 POP POP POP JUMP JUMPDEST PUSH0 DUP2 SLOAD SWAP1 POP PUSH2 0x2749 DUP2 PUSH2 0x249C JUMP JUMPDEST SWAP1 POP SWAP2 SWAP1 POP JUMP JUMPDEST PUSH0 DUP2 SWAP1 POP DUP2 PUSH0 MSTORE PUSH1 0x20 PUSH0 KECCAK256 SWAP1 POP SWAP2 SWAP1 POP JUMP JUMPDEST PUSH0 PUSH1 0x20 PUSH1 0x1F DUP4 ADD DIV SWAP1 POP SWAP2 SWAP1 POP JUMP JUMPDEST PUSH0 DUP3 DUP3 SHL SWAP1 POP SWAP3 SWAP2 POP POP JUMP JUMPDEST PUSH0 PUSH1 0x8 DUP4 MUL PUSH2 0x27AC PUSH32 0xFFFFFFFFFFFFFFFFFFFFFFFFFFFFFFFFFFFFFFFFFFFFFFFFFFFFFFFFFFFFFFFF DUP3 PUSH2 0x2771 JUMP JUMPDEST PUSH2 0x27B6 DUP7 DUP4 PUSH2 0x2771 JUMP JUMPDEST SWAP6 POP DUP1 NOT DUP5 AND SWAP4 POP DUP1 DUP7 AND DUP5 OR SWAP3 POP POP POP SWAP4 SWAP3 POP POP POP JUMP JUMPDEST PUSH0 PUSH2 0x27E8 PUSH2 0x27E3 PUSH2 0x27DE DUP5 PUSH2 0x1DE7 JUMP JUMPDEST PUSH2 0x254D JUMP JUMPDEST PUSH2 0x1DE7 JUMP JUMPDEST SWAP1 POP SWAP2 SWAP1 POP JUMP JUMPDEST PUSH0 DUP2 SWAP1 POP SWAP2 SWAP1 POP JUMP JUMPDEST PUSH2 0x2801 DUP4 PUSH2 0x27CE JUMP JUMPDEST PUSH2 0x2815 PUSH2 0x280D DUP3 PUSH2 0x27EF JUMP JUMPDEST DUP5 DUP5 SLOAD PUSH2 0x277D JUMP JUMPDEST DUP3 SSTORE POP POP POP POP JUMP JUMPDEST PUSH0 SWAP1 JUMP JUMPDEST PUSH2 0x2829 PUSH2 0x281D JUMP JUMPDEST PUSH2 0x2834 DUP2 DUP5 DUP5 PUSH2 0x27F8 JUMP JUMPDEST POP POP POP JUMP JUMPDEST JUMPDEST DUP2 DUP2 LT ISZERO PUSH2 0x2857 JUMPI PUSH2 0x284C PUSH0 DUP3 PUSH2 0x2821 JUMP JUMPDEST PUSH1 0x1 DUP2 ADD SWAP1 POP PUSH2 0x283A JUMP JUMPDEST POP POP JUMP JUMPDEST PUSH1 0x1F DUP3 GT ISZERO PUSH2 0x289C JUMPI PUSH2 0x286D DUP2 PUSH2 0x2750 JUMP JUMPDEST PUSH2 0x2876 DUP5 PUSH2 0x2762 JUMP JUMPDEST DUP2 ADD PUSH1 0x20 DUP6 LT ISZERO PUSH2 0x2885 JUMPI DUP2 SWAP1 POP JUMPDEST PUSH2 0x2899 PUSH2 0x2891 DUP6 PUSH2 0x2762 JUMP JUMPDEST DUP4 ADD DUP3 PUSH2 0x2839 JUMP JUMPDEST POP POP JUMPDEST POP POP POP JUMP JUMPDEST PUSH0 DUP3 DUP3 SHR SWAP1 POP SWAP3 SWAP2 POP POP JUMP JUMPDEST PUSH0 PUSH2 0x28BC PUSH0 NOT DUP5 PUSH1 0x8 MUL PUSH2 0x28A1 JUMP JUMPDEST NOT DUP1 DUP4 AND SWAP2 POP POP SWAP3 SWAP2 POP POP JUMP JUMPDEST PUSH0 PUSH2 0x28D4 DUP4 DUP4 PUSH2 0x28AD JUMP JUMPDEST SWAP2 POP DUP3 PUSH1 0x2 MUL DUP3 OR SWAP1 POP SWAP3 SWAP2 POP POP JUMP JUMPDEST DUP2 DUP2 SUB PUSH2 0x28F2 JUMPI POP POP PUSH2 0x29C7 JUMP JUMPDEST PUSH2 0x28FB DUP3 PUSH2 0x273B JUMP JUMPDEST PUSH8 0xFFFFFFFFFFFFFFFF DUP2 GT ISZERO PUSH2 0x2914 JUMPI PUSH2 0x2913 PUSH2 0x202B JUMP JUMPDEST JUMPDEST PUSH2 0x291E DUP3 SLOAD PUSH2 0x249C JUMP JUMPDEST PUSH2 0x2929 DUP3 DUP3 DUP6 PUSH2 0x285B JUMP JUMPDEST PUSH0 PUSH1 0x1F DUP4 GT PUSH1 0x1 DUP2 EQ PUSH2 0x2956 JUMPI PUSH0 DUP5 ISZERO PUSH2 0x2944 JUMPI DUP3 DUP8 ADD SLOAD SWAP1 POP JUMPDEST PUSH2 0x294E DUP6 DUP3 PUSH2 0x28C9 JUMP JUMPDEST DUP7 SSTORE POP PUSH2 0x29C0 JUMP JUMPDEST PUSH1 0x1F NOT DUP5 AND PUSH2 0x2964 DUP8 PUSH2 0x2750 JUMP JUMPDEST SWAP7 POP PUSH2 0x296F DUP7 PUSH2 0x2750 JUMP JUMPDEST PUSH0 JUMPDEST DUP3 DUP2 LT ISZERO PUSH2 0x2996 JUMPI DUP5 DUP10 ADD SLOAD DUP3 SSTORE PUSH1 0x1 DUP3 ADD SWAP2 POP PUSH1 0x1 DUP6 ADD SWAP5 POP PUSH1 0x20 DUP2 ADD SWAP1 POP PUSH2 0x2971 JUMP JUMPDEST DUP7 DUP4 LT ISZERO PUSH2 0x29B3 JUMPI DUP5 DUP10 ADD SLOAD PUSH2 0x29AF PUSH1 0x1F DUP10 AND DUP3 PUSH2 0x28AD JUMP JUMPDEST DUP4 SSTORE POP JUMPDEST PUSH1 0x1 PUSH1 0x2 DUP9 MUL ADD DUP9 SSTORE POP POP POP JUMPDEST POP POP POP POP POP POP JUMPDEST JUMP JUMPDEST PUSH0 DUP2 SWAP1 POP SWAP3 SWAP2 POP POP JUMP JUMPDEST PUSH32 0x6D656C6565000000000000000000000000000000000000000000000000000000 PUSH0 DUP3 ADD MSTORE POP JUMP JUMPDEST PUSH0 PUSH2 0x2A07 PUSH1 0x5 DUP4 PUSH2 0x29C9 JUMP JUMPDEST SWAP2 POP PUSH2 0x2A12 DUP3 PUSH2 0x29D3 JUMP JUMPDEST PUSH1 0x5 DUP3 ADD SWAP1 POP SWAP2 SWAP1 POP JUMP JUMPDEST PUSH0 PUSH2 0x2A27 DUP3 PUSH2 0x29FB JUMP JUMPDEST SWAP2 POP DUP2 SWAP1 POP SWAP2 SWAP1 POP JUMP JUMPDEST PUSH0 PUSH2 0x2A3B DUP3 PUSH2 0x1EF3 JUMP JUMPDEST PUSH2 0x2A45 DUP2 DUP6 PUSH2 0x29C9 JUMP JUMPDEST SWAP4 POP PUSH2 0x2A55 DUP2 DUP6 PUSH1 0x20 DUP7 ADD PUSH2 0x1F0D JUMP JUMPDEST DUP1 DUP5 ADD SWAP2 POP POP SWAP3 SWAP2 POP POP JUMP JUMPDEST PUSH0 PUSH2 0x2A6C DUP3 DUP5 PUSH2 0x2A31 JUMP JUMPDEST SWAP2 POP DUP2 SWAP1 POP SWAP3 SWAP2 POP POP JUMP JUMPDEST PUSH2 0x2A80 DUP3 PUSH2 0x1EF3 JUMP JUMPDEST PUSH8 0xFFFFFFFFFFFFFFFF DUP2 GT ISZERO PUSH2 0x2A99 JUMPI PUSH2 0x2A98 PUSH2 0x202B JUMP JUMPDEST JUMPDEST PUSH2 0x2AA3 DUP3 SLOAD PUSH2 0x249C JUMP JUMPDEST PUSH2 0x2AAE DUP3 DUP3 DUP6 PUSH2 0x285B JUMP JUMPDEST PUSH0 PUSH1 0x20 SWAP1 POP PUSH1 0x1F DUP4 GT PUSH1 0x1 DUP2 EQ PUSH2 0x2ADF JUMPI PUSH0 DUP5 ISZERO PUSH2 0x2ACD JUMPI DUP3 DUP8 ADD MLOAD SWAP1 POP JUMPDEST PUSH2 0x2AD7 DUP6 DUP3 PUSH2 0x28C9 JUMP JUMPDEST DUP7 SSTORE POP PUSH2 0x2B3E JUMP JUMPDEST PUSH1 0x1F NOT DUP5 AND PUSH2 0x2AED DUP7 PUSH2 0x2750 JUMP JUMPDEST PUSH0 JUMPDEST DUP3 DUP2 LT ISZERO PUSH2 0x2B14 JUMPI DUP5 DUP10 ADD MLOAD DUP3 SSTORE PUSH1 0x1 DUP3 ADD SWAP2 POP PUSH1 0x20 DUP6 ADD SWAP5 POP PUSH1 0x20 DUP2 ADD SWAP1 POP PUSH2 0x2AEF JUMP JUMPDEST DUP7 DUP4 LT ISZERO PUSH2 0x2B31 JUMPI DUP5 DUP10 ADD MLOAD PUSH2 0x2B2D PUSH1 0x1F DUP10 AND DUP3 PUSH2 0x28AD JUMP JUMPDEST DUP4 SSTORE POP JUMPDEST PUSH1 0x1 PUSH1 0x2 DUP9 MUL ADD DUP9 SSTORE POP POP POP JUMPDEST POP POP POP POP POP POP JUMP JUMPDEST PUSH0 PUSH2 0x2B50 DUP3 PUSH2 0x1DE7 JUMP JUMPDEST SWAP2 POP PUSH2 0x2B5B DUP4 PUSH2 0x1DE7 JUMP JUMPDEST SWAP3 POP DUP3 DUP3 SUB SWAP1 POP DUP2 DUP2 GT ISZERO PUSH2 0x2B73 JUMPI PUSH2 0x2B72 PUSH2 0x23FB JUMP JUMPDEST JUMPDEST SWAP3 SWAP2 POP POP JUMP JUMPDEST PUSH0 PUSH1 0x60 DUP3 ADD SWAP1 POP PUSH2 0x2B8C PUSH0 DUP4 ADD DUP7 PUSH2 0x2586 JUMP JUMPDEST DUP2 DUP2 SUB PUSH1 0x20 DUP4 ADD MSTORE PUSH2 0x2B9E DUP2 DUP6 PUSH2 0x1F2B JUMP JUMPDEST SWAP1 POP DUP2 DUP2 SUB PUSH1 0x40 DUP4 ADD MSTORE PUSH2 0x2BB2 DUP2 DUP5 PUSH2 0x1F2B JUMP JUMPDEST SWAP1 POP SWAP5 SWAP4 POP POP POP POP JUMP JUMPDEST PUSH0 DUP2 SLOAD SWAP1 POP SWAP2 SWAP1 POP JUMP JUMPDEST PUSH0 DUP3 DUP3 MSTORE PUSH1 0x20 DUP3 ADD SWAP1 POP SWAP3 SWAP2 POP POP JUMP JUMPDEST PUSH0 DUP2 SWAP1 POP DUP2 PUSH0 MSTORE PUSH1 0x20 PUSH0 KECCAK256 SWAP1 POP SWAP2 SWAP1 POP JUMP JUMPDEST PUSH0 DUP2 SLOAD PUSH2 0x2BF4 DUP2 PUSH2 0x249C JUMP JUMPDEST PUSH2 0x2BFE DUP2 DUP7 PUSH2 0x229B JUMP JUMPDEST SWAP5 POP PUSH1 0x1 DUP3 AND PUSH0 DUP2 EQ PUSH2 0x2C18 JUMPI PUSH1 0x1 DUP2 EQ PUSH2 0x2C2E JUMPI PUSH2 0x2C60 JUMP JUMPDEST PUSH1 0xFF NOT DUP4 AND DUP7 MSTORE DUP2 ISZERO ISZERO PUSH1 0x20 MUL DUP7 ADD SWAP4 POP PUSH2 0x2C60 JUMP JUMPDEST PUSH2 0x2C37 DUP6 PUSH2 0x2750 JUMP JUMPDEST PUSH0 JUMPDEST DUP4 DUP2 LT ISZERO PUSH2 0x2C58 JUMPI DUP2 SLOAD DUP2 DUP10 ADD MSTORE PUSH1 0x1 DUP3 ADD SWAP2 POP PUSH1 0x20 DUP2 ADD SWAP1 POP PUSH2 0x2C39 JUMP JUMPDEST DUP1 DUP9 ADD SWAP6 POP POP POP JUMPDEST POP POP POP SWAP3 SWAP2 POP POP JUMP JUMPDEST PUSH0 DUP2 PUSH0 SHR SWAP1 POP SWAP2 SWAP1 POP JUMP JUMPDEST PUSH0 PUSH1 0xFF DUP3 AND SWAP1 POP SWAP2 SWAP1 POP JUMP JUMPDEST PUSH0 PUSH2 0x2C92 PUSH2 0x2C8D DUP4 PUSH2 0x2C69 JUMP JUMPDEST PUSH2 0x2C74 JUMP JUMPDEST SWAP1 POP SWAP2 SWAP1 POP JUMP JUMPDEST PUSH0 DUP2 PUSH1 0x8 SHR SWAP1 POP SWAP2 SWAP1 POP JUMP JUMPDEST PUSH0 PUSH2 0x2CB7 PUSH2 0x2CB2 DUP4 PUSH2 0x2C99 JUMP JUMPDEST PUSH2 0x2C74 JUMP JUMPDEST SWAP1 POP SWAP2 SWAP1 POP JUMP JUMPDEST PUSH0 DUP2 PUSH1 0x10 SHR SWAP1 POP SWAP2 SWAP1 POP JUMP JUMPDEST PUSH0 PUSH4 0xFFFFFFFF DUP3 AND SWAP1 POP SWAP2 SWAP1 POP JUMP JUMPDEST PUSH0 PUSH2 0x2CEB PUSH2 0x2CE6 DUP4 PUSH2 0x2CBE JUMP JUMPDEST PUSH2 0x2CCA JUMP JUMPDEST SWAP1 POP SWAP2 SWAP1 POP JUMP JUMPDEST PUSH0 DUP2 PUSH1 0x30 SHR SWAP1 POP SWAP2 SWAP1 POP JUMP JUMPDEST PUSH0 PUSH1 0xFF DUP3 AND SWAP1 POP SWAP2 SWAP1 POP JUMP JUMPDEST PUSH0 PUSH2 0x2D1C PUSH2 0x2D17 DUP4 PUSH2 0x2CF2 JUMP JUMPDEST PUSH2 0x2CFE JUMP JUMPDEST SWAP1 POP SWAP2 SWAP1 POP JUMP JUMPDEST PUSH2 0x2D2C DUP2 PUSH2 0x1FF0 JUMP JUMPDEST DUP3 MSTORE POP POP JUMP JUMPDEST PUSH0 DUP2 PUSH1 0x38 SHR SWAP1 POP SWAP2 SWAP1 POP JUMP JUMPDEST PUSH0 PUSH2 0x2D50 PUSH2 0x2D4B DUP4 PUSH2 0x2D32 JUMP JUMPDEST PUSH2 0x2CFE JUMP JUMPDEST SWAP1 POP SWAP2 SWAP1 POP JUMP JUMPDEST PUSH0 PUSH2 0x2D69 PUSH2 0x2D64 DUP4 PUSH2 0x2C69 JUMP JUMPDEST PUSH2 0x2CCA JUMP JUMPDEST SWAP1 POP SWAP2 SWAP1 POP JUMP JUMPDEST PUSH0 DUP2 PUSH1 0x20 SHR SWAP1 POP SWAP2 SWAP1 POP JUMP JUMPDEST PUSH0 PUSH2 0x2D8E PUSH2 0x2D89 DUP4 PUSH2 0x2D70 JUMP JUMPDEST PUSH2 0x2CCA JUMP JUMPDEST SWAP1 POP SWAP2 SWAP1 POP JUMP JUMPDEST PUSH0 DUP2 PUSH1 0x40 SHR SWAP1 POP SWAP2 SWAP1 POP JUMP JUMPDEST PUSH0 PUSH2 0x2DB3 PUSH2 0x2DAE DUP4 PUSH2 0x2D95 JUMP JUMPDEST PUSH2 0x2CCA JUMP JUMPDEST SWAP1 POP SWAP2 SWAP1 POP JUMP JUMPDEST PUSH0 DUP2 PUSH1 0x60 SHR SWAP1 POP SWAP2 SWAP1 POP JUMP JUMPDEST PUSH0 PUSH2 0x2DD8 PUSH2 0x2DD3 DUP4 PUSH2 0x2DBA JUMP JUMPDEST PUSH2 0x2C74 JUMP JUMPDEST SWAP1 POP SWAP2 SWAP1 POP JUMP JUMPDEST PUSH1 0x80 DUP3 ADD PUSH0 DUP1 DUP4 ADD SLOAD SWAP1 POP PUSH2 0x2DF3 DUP2 PUSH2 0x2D57 JUMP JUMPDEST PUSH2 0x2DFF PUSH0 DUP7 ADD DUP3 PUSH2 0x222A JUMP JUMPDEST POP PUSH2 0x2E09 DUP2 PUSH2 0x2D7C JUMP JUMPDEST PUSH2 0x2E16 PUSH1 0x20 DUP7 ADD DUP3 PUSH2 0x222A JUMP JUMPDEST POP PUSH2 0x2E20 DUP2 PUSH2 0x2DA1 JUMP JUMPDEST PUSH2 0x2E2D PUSH1 0x40 DUP7 ADD DUP3 PUSH2 0x222A JUMP JUMPDEST POP PUSH2 0x2E37 DUP2 PUSH2 0x2DC6 JUMP JUMPDEST PUSH2 0x2E44 PUSH1 0x60 DUP7 ADD DUP3 PUSH2 0x2239 JUMP JUMPDEST POP POP POP POP POP JUMP JUMPDEST PUSH0 PUSH2 0x2E5D PUSH2 0x2E58 DUP4 PUSH2 0x2CBE JUMP JUMPDEST PUSH2 0x2C74 JUMP JUMPDEST SWAP1 POP SWAP2 SWAP1 POP JUMP JUMPDEST PUSH0 PUSH1 0x80 DUP4 ADD PUSH0 DUP1 DUP5 ADD DUP6 DUP4 SUB PUSH0 DUP8 ADD MSTORE PUSH2 0x2E7E DUP4 DUP3 PUSH2 0x2BE8 JUMP JUMPDEST SWAP3 POP POP PUSH1 0x1 DUP5 ADD SLOAD SWAP1 POP PUSH2 0x2E91 DUP2 PUSH2 0x2C80 JUMP JUMPDEST PUSH2 0x2E9E PUSH1 0x20 DUP8 ADD DUP3 PUSH2 0x2239 JUMP JUMPDEST POP PUSH2 0x2EA8 DUP2 PUSH2 0x2CA5 JUMP JUMPDEST PUSH2 0x2EB5 PUSH1 0x40 DUP8 ADD DUP3 PUSH2 0x2239 JUMP JUMPDEST POP PUSH2 0x2EBF DUP2 PUSH2 0x2E4B JUMP JUMPDEST PUSH2 0x2ECC PUSH1 0x60 DUP8 ADD DUP3 PUSH2 0x2239 JUMP JUMPDEST POP DUP2 SWAP3 POP POP POP SWAP3 SWAP2 POP POP JUMP JUMPDEST PUSH0 PUSH2 0x160 DUP4 ADD PUSH0 DUP1 DUP5 ADD DUP6 DUP4 SUB PUSH0 DUP8 ADD MSTORE PUSH2 0x2EF3 DUP4 DUP3 PUSH2 0x2BE8 JUMP JUMPDEST SWAP3 POP POP PUSH1 0x1 DUP5 ADD SLOAD SWAP1 POP PUSH2 0x2F06 DUP2 PUSH2 0x2C80 JUMP JUMPDEST PUSH2 0x2F13 PUSH1 0x20 DUP8 ADD DUP3 PUSH2 0x2239 JUMP JUMPDEST POP PUSH2 0x2F1D DUP2 PUSH2 0x2CA5 JUMP JUMPDEST PUSH2 0x2F2A PUSH1 0x40 DUP8 ADD DUP3 PUSH2 0x2239 JUMP JUMPDEST POP PUSH2 0x2F34 DUP2 PUSH2 0x2CD9 JUMP JUMPDEST PUSH2 0x2F41 PUSH1 0x60 DUP8 ADD DUP3 PUSH2 0x222A JUMP JUMPDEST POP PUSH2 0x2F4B DUP2 PUSH2 0x2D0A JUMP JUMPDEST PUSH2 0x2F58 PUSH1 0x80 DUP8 ADD DUP3 PUSH2 0x2D23 JUMP JUMPDEST POP PUSH2 0x2F62 DUP2 PUSH2 0x2D3E JUMP JUMPDEST PUSH2 0x2F6F PUSH1 0xA0 DUP8 ADD DUP3 PUSH2 0x2D23 JUMP JUMPDEST POP PUSH1 0x2 DUP5 ADD PUSH2 0x2F81 PUSH1 0xC0 DUP8 ADD DUP3 PUSH2 0x2DDF JUMP JUMPDEST POP PUSH1 0x3 DUP5 ADD DUP6 DUP4 SUB PUSH2 0x140 DUP8 ADD MSTORE PUSH2 0x2F99 DUP4 DUP3 PUSH2 0x2E64 JUMP JUMPDEST SWAP3 POP POP DUP2 SWAP3 POP POP POP SWAP3 SWAP2 POP POP JUMP JUMPDEST PUSH0 PUSH2 0x2FB2 DUP4 DUP4 PUSH2 0x2ED8 JUMP JUMPDEST SWAP1 POP SWAP3 SWAP2 POP POP JUMP JUMPDEST PUSH0 PUSH1 0x5 DUP3 ADD SWAP1 POP SWAP2 SWAP1 POP JUMP JUMPDEST PUSH0 PUSH2 0x2FD0 DUP3 PUSH2 0x2BBC JUMP JUMPDEST PUSH2 0x2FDA DUP2 DUP6 PUSH2 0x2BC6 JUMP JUMPDEST SWAP4 POP DUP4 PUSH1 0x20 DUP3 MUL DUP6 ADD PUSH2 0x2FEC DUP6 PUSH2 0x2BD6 JUMP JUMPDEST DUP1 PUSH0 JUMPDEST DUP6 DUP2 LT ISZERO PUSH2 0x3026 JUMPI DUP5 DUP5 SUB DUP10 MSTORE DUP2 PUSH2 0x3007 DUP6 DUP3 PUSH2 0x2FA7 JUMP JUMPDEST SWAP5 POP PUSH2 0x3012 DUP4 PUSH2 0x2FBA JUMP JUMPDEST SWAP3 POP PUSH1 0x20 DUP11 ADD SWAP10 POP POP PUSH1 0x1 DUP2 ADD SWAP1 POP PUSH2 0x2FEF JUMP JUMPDEST POP DUP3 SWAP8 POP DUP8 SWAP6 POP POP POP POP POP POP SWAP3 SWAP2 POP POP JUMP JUMPDEST PUSH0 PUSH1 0x20 DUP3 ADD SWAP1 POP DUP2 DUP2 SUB PUSH0 DUP4 ADD MSTORE PUSH2 0x3050 DUP2 DUP5 PUSH2 0x2FC6 JUMP JUMPDEST SWAP1 POP SWAP3 SWAP2 POP POP JUMP JUMPDEST PUSH0 DUP2 SWAP1 POP SWAP2 SWAP1 POP JUMP JUMPDEST PUSH2 0x3072 PUSH2 0x306D DUP3 PUSH2 0x1DE7 JUMP JUMPDEST PUSH2 0x3058 JUMP JUMPDEST DUP3 MSTORE POP POP JUMP JUMPDEST PUSH0 PUSH2 0x3083 DUP3 DUP6 PUSH2 0x3061 JUMP JUMPDEST PUSH1 0x20 DUP3 ADD SWAP2 POP PUSH2 0x3093 DUP3 DUP5 PUSH2 0x3061 JUMP JUMPDEST PUSH1 0x20 DUP3 ADD SWAP2 POP DUP2 SWAP1 POP SWAP4 SWAP3 POP POP POP JUMP JUMPDEST PUSH32 0x4E487B7100000000000000000000000000000000000000000000000000000000 PUSH0 MSTORE PUSH1 0x12 PUSH1 0x4 MSTORE PUSH1 0x24 PUSH0 REVERT JUMPDEST PUSH0 PUSH2 0x30DA DUP3 PUSH2 0x1DE7 JUMP JUMPDEST SWAP2 POP PUSH2 0x30E5 DUP4 PUSH2 0x1DE7 JUMP JUMPDEST SWAP3 POP DUP3 PUSH2 0x30F5 JUMPI PUSH2 0x30F4 PUSH2 0x30A3 JUMP JUMPDEST JUMPDEST DUP3 DUP3 MOD SWAP1 POP SWAP3 SWAP2 POP POP JUMP JUMPDEST PUSH0 PUSH2 0x310A DUP3 PUSH2 0x1DE7 JUMP JUMPDEST SWAP2 POP PUSH2 0x3115 DUP4 PUSH2 0x1DE7 JUMP JUMPDEST SWAP3 POP DUP3 PUSH2 0x3125 JUMPI PUSH2 0x3124 PUSH2 0x30A3 JUMP JUMPDEST JUMPDEST DUP3 DUP3 DIV SWAP1 POP SWAP3 SWAP2 POP POP JUMP JUMPDEST PUSH0 PUSH1 0x60 DUP3 ADD SWAP1 POP PUSH2 0x3143 PUSH0 DUP4 ADD DUP7 PUSH2 0x1FC8 JUMP JUMPDEST DUP2 DUP2 SUB PUSH1 0x20 DUP4 ADD MSTORE PUSH2 0x3155 DUP2 DUP6 PUSH2 0x1F2B JUMP JUMPDEST SWAP1 POP PUSH2 0x3164 PUSH1 0x40 DUP4 ADD DUP5 PUSH2 0x2586 JUMP JUMPDEST SWAP5 SWAP4 POP POP POP POP JUMP JUMPDEST PUSH0 PUSH2 0x3177 DUP3 DUP7 PUSH2 0x3061 JUMP JUMPDEST PUSH1 0x20 DUP3 ADD SWAP2 POP PUSH2 0x3187 DUP3 DUP6 PUSH2 0x3061 JUMP JUMPDEST PUSH1 0x20 DUP3 ADD SWAP2 POP PUSH2 0x3197 DUP3 DUP5 PUSH2 0x2A31 JUMP JUMPDEST SWAP2 POP DUP2 SWAP1 POP SWAP5 SWAP4 POP POP POP POP JUMP INVALID LOG2 PUSH5 0x6970667358 0x22 SLT KECCAK256 0xB6 0xA6 0xE STATICCALL DUP2 0xE5 0xAE 0x28 DUP6 PREVRANDAO JUMPDEST POP 0xDF PUSH26 0x75E08DB09DB5D306B48EC887AC7E98E6960A64736F6C63430008 BYTE STOP CALLER "
				},
				"gasEstimates": {
					"creation": {
						"codeDepositCost": "2552400",
						"executionCost": "35699",
						"totalCost": "2588099"
					},
					"external": {
						"TakeALook()": "infinite",
						"changeWeapon(uint256)": "infinite",
						"createPlayer(string,string)": "infinite",
						"findWeapon(string)": "infinite",
						"getWeaponsByOwner(address)": "infinite",
						"isOwner()": "2512",
						"owner()": "2515",
						"players(uint256)": "infinite",
						"renounceOwnership()": "30354",
						"transferOwnership(address)": "30746",
						"weapons(uint256)": "infinite"
					}
				},
				"methodIdentifiers": {
					"TakeALook()": "5da39b9c",
					"changeWeapon(uint256)": "84577807",
					"createPlayer(string,string)": "933ebf39",
					"findWeapon(string)": "970f7d73",
					"getWeaponsByOwner(address)": "3ef1ee50",
					"isOwner()": "8f32d59b",
					"owner()": "8da5cb5b",
					"players(uint256)": "f71d96cb",
					"renounceOwnership()": "715018a6",
					"transferOwnership(address)": "f2fde38b",
					"weapons(uint256)": "555e73c8"
				}
			},
			"storageLayout": {
				"storage": [
					{
						"astId": 82,
						"contract": "contracts/zombie1.sol:ZombieSurvive",
						"label": "_owner",
						"offset": 0,
						"slot": "0",
						"type": "t_address"
					},
					{
						"astId": 705,
						"contract": "contracts/zombie1.sol:ZombieSurvive",
						"label": "WeaponToOwner",
						"offset": 0,
						"slot": "1",
						"type": "t_mapping(t_uint256,t_address)"
					},
					{
						"astId": 709,
						"contract": "contracts/zombie1.sol:ZombieSurvive",
						"label": "OwnerWeaponCount",
						"offset": 0,
						"slot": "2",
						"type": "t_mapping(t_address,t_uint256)"
					},
					{
						"astId": 713,
						"contract": "contracts/zombie1.sol:ZombieSurvive",
						"label": "weapons",
						"offset": 0,
						"slot": "3",
						"type": "t_array(t_struct(Weapon)701_storage)dyn_storage"
					},
					{
						"astId": 718,
						"contract": "contracts/zombie1.sol:ZombieSurvive",
						"label": "WeaponId",
						"offset": 0,
						"slot": "4",
						"type": "t_mapping(t_uint256,t_struct(Weapon)701_storage)"
					},
					{
						"astId": 729,
						"contract": "contracts/zombie1.sol:ZombieSurvive",
						"label": "RandNonce",
						"offset": 0,
						"slot": "5",
						"type": "t_uint256"
					},
					{
						"astId": 235,
						"contract": "contracts/zombie1.sol:ZombieSurvive",
						"label": "IdToUser",
						"offset": 0,
						"slot": "6",
						"type": "t_mapping(t_uint256,t_address)"
					},
					{
						"astId": 239,
						"contract": "contracts/zombie1.sol:ZombieSurvive",
						"label": "OwnerToId",
						"offset": 0,
						"slot": "7",
						"type": "t_mapping(t_address,t_uint256)"
					},
					{
						"astId": 243,
						"contract": "contracts/zombie1.sol:ZombieSurvive",
						"label": "OwnerIdCount",
						"offset": 0,
						"slot": "8",
						"type": "t_mapping(t_address,t_uint256)"
					},
					{
						"astId": 269,
						"contract": "contracts/zombie1.sol:ZombieSurvive",
						"label": "players",
						"offset": 0,
						"slot": "9",
						"type": "t_array(t_struct(Player)231_storage)dyn_storage"
					}
				],
				"types": {
					"t_address": {
						"encoding": "inplace",
						"label": "address",
						"numberOfBytes": "20"
					},
					"t_array(t_struct(Player)231_storage)dyn_storage": {
						"base": "t_struct(Player)231_storage",
						"encoding": "dynamic_array",
						"label": "struct ZombieSurvive.Player[]",
						"numberOfBytes": "32"
					},
					"t_array(t_struct(Weapon)701_storage)dyn_storage": {
						"base": "t_struct(Weapon)701_storage",
						"encoding": "dynamic_array",
						"label": "struct ZombieWeapons.Weapon[]",
						"numberOfBytes": "32"
					},
					"t_bool": {
						"encoding": "inplace",
						"label": "bool",
						"numberOfBytes": "1"
					},
					"t_mapping(t_address,t_uint256)": {
						"encoding": "mapping",
						"key": "t_address",
						"label": "mapping(address => uint256)",
						"numberOfBytes": "32",
						"value": "t_uint256"
					},
					"t_mapping(t_uint256,t_address)": {
						"encoding": "mapping",
						"key": "t_uint256",
						"label": "mapping(uint256 => address)",
						"numberOfBytes": "32",
						"value": "t_address"
					},
					"t_mapping(t_uint256,t_struct(Weapon)701_storage)": {
						"encoding": "mapping",
						"key": "t_uint256",
						"label": "mapping(uint256 => struct ZombieWeapons.Weapon)",
						"numberOfBytes": "32",
						"value": "t_struct(Weapon)701_storage"
					},
					"t_string_storage": {
						"encoding": "bytes",
						"label": "string",
						"numberOfBytes": "32"
					},
					"t_struct(Class)212_storage": {
						"encoding": "inplace",
						"label": "struct ZombieSurvive.Class",
						"members": [
							{
								"astId": 205,
								"contract": "contracts/zombie1.sol:ZombieSurvive",
								"label": "energy",
								"offset": 0,
								"slot": "0",
								"type": "t_uint32"
							},
							{
								"astId": 207,
								"contract": "contracts/zombie1.sol:ZombieSurvive",
								"label": "weight",
								"offset": 4,
								"slot": "0",
								"type": "t_uint32"
							},
							{
								"astId": 209,
								"contract": "contracts/zombie1.sol:ZombieSurvive",
								"label": "damage",
								"offset": 8,
								"slot": "0",
								"type": "t_uint32"
							},
							{
								"astId": 211,
								"contract": "contracts/zombie1.sol:ZombieSurvive",
								"label": "health",
								"offset": 12,
								"slot": "0",
								"type": "t_uint8"
							}
						],
						"numberOfBytes": "32"
					},
					"t_struct(Player)231_storage": {
						"encoding": "inplace",
						"label": "struct ZombieSurvive.Player",
						"members": [
							{
								"astId": 214,
								"contract": "contracts/zombie1.sol:ZombieSurvive",
								"label": "name",
								"offset": 0,
								"slot": "0",
								"type": "t_string_storage"
							},
							{
								"astId": 216,
								"contract": "contracts/zombie1.sol:ZombieSurvive",
								"label": "hunger",
								"offset": 0,
								"slot": "1",
								"type": "t_uint8"
							},
							{
								"astId": 218,
								"contract": "contracts/zombie1.sol:ZombieSurvive",
								"label": "water",
								"offset": 1,
								"slot": "1",
								"type": "t_uint8"
							},
							{
								"astId": 220,
								"contract": "contracts/zombie1.sol:ZombieSurvive",
								"label": "level",
								"offset": 2,
								"slot": "1",
								"type": "t_uint32"
							},
							{
								"astId": 222,
								"contract": "contracts/zombie1.sol:ZombieSurvive",
								"label": "alive",
								"offset": 6,
								"slot": "1",
								"type": "t_bool"
							},
							{
								"astId": 224,
								"contract": "contracts/zombie1.sol:ZombieSurvive",
								"label": "busy",
								"offset": 7,
								"slot": "1",
								"type": "t_bool"
							},
							{
								"astId": 227,
								"contract": "contracts/zombie1.sol:ZombieSurvive",
								"label": "class",
								"offset": 0,
								"slot": "2",
								"type": "t_struct(Class)212_storage"
							},
							{
								"astId": 230,
								"contract": "contracts/zombie1.sol:ZombieSurvive",
								"label": "weapon",
								"offset": 0,
								"slot": "3",
								"type": "t_struct(Weapon)701_storage"
							}
						],
						"numberOfBytes": "160"
					},
					"t_struct(Weapon)701_storage": {
						"encoding": "inplace",
						"label": "struct ZombieWeapons.Weapon",
						"members": [
							{
								"astId": 694,
								"contract": "contracts/zombie1.sol:ZombieSurvive",
								"label": "name",
								"offset": 0,
								"slot": "0",
								"type": "t_string_storage"
							},
							{
								"astId": 696,
								"contract": "contracts/zombie1.sol:ZombieSurvive",
								"label": "range",
								"offset": 0,
								"slot": "1",
								"type": "t_uint8"
							},
							{
								"astId": 698,
								"contract": "contracts/zombie1.sol:ZombieSurvive",
								"label": "damage",
								"offset": 1,
								"slot": "1",
								"type": "t_uint8"
							},
							{
								"astId": 700,
								"contract": "contracts/zombie1.sol:ZombieSurvive",
								"label": "durability",
								"offset": 2,
								"slot": "1",
								"type": "t_uint8"
							}
						],
						"numberOfBytes": "64"
					},
					"t_uint256": {
						"encoding": "inplace",
						"label": "uint256",
						"numberOfBytes": "32"
					},
					"t_uint32": {
						"encoding": "inplace",
						"label": "uint32",
						"numberOfBytes": "4"
					},
					"t_uint8": {
						"encoding": "inplace",
						"label": "uint8",
						"numberOfBytes": "1"
					}
				}
			},
			"userdoc": {
				"kind": "user",
				"methods": {
					"renounceOwnership()": {
						"notice": "Renouncing to ownership will leave the contract without an owner. It will not be possible to call the functions with the `onlyOwner` modifier anymore."
					}
				},
				"version": 1
			}
		}
	}
}