{
  "contractName": "ZombieSurvive",
  "abi": [
    {
      "anonymous": false,
      "inputs": [
        {
          "indexed": true,
          "internalType": "address",
          "name": "previousOwner",
          "type": "address"
        },
        {
          "indexed": true,
          "internalType": "address",
          "name": "newOwner",
          "type": "address"
        }
      ],
      "name": "OwnershipTransferred",
      "type": "event"
    },
    {
      "inputs": [],
      "name": "isOwner",
      "outputs": [
        {
          "internalType": "bool",
          "name": "",
          "type": "bool"
        }
      ],
      "stateMutability": "view",
      "type": "function"
    },
    {
      "inputs": [],
      "name": "owner",
      "outputs": [
        {
          "internalType": "address",
          "name": "",
          "type": "address"
        }
      ],
      "stateMutability": "view",
      "type": "function"
    },
    {
      "inputs": [
        {
          "internalType": "uint256",
          "name": "",
          "type": "uint256"
        }
      ],
      "name": "players",
      "outputs": [
        {
          "internalType": "string",
          "name": "name",
          "type": "string"
        },
        {
          "internalType": "uint8",
          "name": "hunger",
          "type": "uint8"
        },
        {
          "internalType": "uint8",
          "name": "water",
          "type": "uint8"
        },
        {
          "internalType": "uint32",
          "name": "level",
          "type": "uint32"
        },
        {
          "internalType": "bool",
          "name": "alive",
          "type": "bool"
        },
        {
          "components": [
            {
              "internalType": "uint32",
              "name": "energy",
              "type": "uint32"
            },
            {
              "internalType": "uint32",
              "name": "weight",
              "type": "uint32"
            },
            {
              "internalType": "uint32",
              "name": "damage",
              "type": "uint32"
            },
            {
              "internalType": "uint8",
              "name": "health",
              "type": "uint8"
            }
          ],
          "internalType": "struct ZombieSurvive.Class",
          "name": "class",
          "type": "tuple"
        }
      ],
      "stateMutability": "view",
      "type": "function"
    },
    {
      "inputs": [],
      "name": "renounceOwnership",
      "outputs": [],
      "stateMutability": "nonpayable",
      "type": "function"
    },
    {
      "inputs": [
        {
          "internalType": "address",
          "name": "newOwner",
          "type": "address"
        }
      ],
      "name": "transferOwnership",
      "outputs": [],
      "stateMutability": "nonpayable",
      "type": "function"
    },
    {
      "inputs": [
        {
          "internalType": "uint256",
          "name": "",
          "type": "uint256"
        }
      ],
      "name": "weapons",
      "outputs": [
        {
          "internalType": "uint8",
          "name": "range",
          "type": "uint8"
        },
        {
          "internalType": "uint8",
          "name": "damage",
          "type": "uint8"
        },
        {
          "internalType": "uint8",
          "name": "durability",
          "type": "uint8"
        }
      ],
      "stateMutability": "view",
      "type": "function"
    },
    {
      "inputs": [
        {
          "internalType": "string",
          "name": "_name",
          "type": "string"
        },
        {
          "internalType": "string",
          "name": "_class",
          "type": "string"
        }
      ],
      "name": "createPlayer",
      "outputs": [],
      "stateMutability": "nonpayable",
      "type": "function"
    },
    {
      "inputs": [
        {
          "internalType": "uint256",
          "name": "_playerId",
          "type": "uint256"
        },
        {
          "internalType": "string",
          "name": "_name",
          "type": "string"
        }
      ],
      "name": "findWeapon",
      "outputs": [],
      "stateMutability": "nonpayable",
      "type": "function"
    }
  ],
  "bytecode": "0x60806040525f600455348015610013575f80fd5b50335f806101000a81548173ffffffffffffffffffffffffffffffffffffffff021916908373ffffffffffffffffffffffffffffffffffffffff1602179055505f8054906101000a900473ffffffffffffffffffffffffffffffffffffffff1673ffffffffffffffffffffffffffffffffffffffff165f73ffffffffffffffffffffffffffffffffffffffff167f8be0079c531659141344cd1fd0a4f28419497f9722a3daafe3b4186f6b6457e060405160405180910390a361193a806100d95f395ff3fe608060405234801561000f575f80fd5b5060043610610086575f3560e01c80639053e0d2116100595780639053e0d214610102578063933ebf391461011e578063f2fde38b1461013a578063f71d96cb1461015657610086565b8063555e73c81461008a578063715018a6146100bc5780638da5cb5b146100c65780638f32d59b146100e4575b5f80fd5b6100a4600480360381019061009f9190610f32565b61018b565b6040516100b393929190610f78565b60405180910390f35b6100c46101e0565b005b6100ce6102aa565b6040516100db9190610fec565b60405180910390f35b6100ec6102d1565b6040516100f9919061101f565b60405180910390f35b61011c60048036038101906101179190611174565b610326565b005b610138600480360381019061013391906111ce565b61038b565b005b610154600480360381019061014f919061126e565b610972565b005b610170600480360381019061016b9190610f32565b61098e565b604051610182969594939291906113a2565b60405180910390f35b6003818154811061019a575f80fd5b905f5260205f20015f91509050805f015f9054906101000a900460ff1690805f0160019054906101000a900460ff1690805f0160029054906101000a900460ff16905083565b6101e86102d1565b6101f0575f80fd5b5f73ffffffffffffffffffffffffffffffffffffffff165f8054906101000a900473ffffffffffffffffffffffffffffffffffffffff1673ffffffffffffffffffffffffffffffffffffffff167f8be0079c531659141344cd1fd0a4f28419497f9722a3daafe3b4186f6b6457e060405160405180910390a35f805f6101000a81548173ffffffffffffffffffffffffffffffffffffffff021916908373ffffffffffffffffffffffffffffffffffffffff160217905550565b5f805f9054906101000a900473ffffffffffffffffffffffffffffffffffffffff16905090565b5f805f9054906101000a900473ffffffffffffffffffffffffffffffffffffffff1673ffffffffffffffffffffffffffffffffffffffff163373ffffffffffffffffffffffffffffffffffffffff1614905090565b5f606490505f605090505f61033b8386610b25565b90505f60055f8781526020019081526020015f205f9054906101000a900473ffffffffffffffffffffffffffffffffffffffff169050828211610383576103828186610b64565b5b505050505050565b60405160200161039a9061145d565b60405160208183030381529060405280519060200120816040516020016103c191906114a1565b60405160208183030381529060405280519060200120036106a75760086040518060c00160405280848152602001606460ff168152602001606460ff168152602001600163ffffffff1681526020016001151581526020016040518060800160405280606463ffffffff168152602001606463ffffffff168152602001606463ffffffff168152602001606460ff16815250815250908060018154018082558091505060019003905f5260205f2090600302015f909190919091505f820151815f01908161048f91906116b1565b506020820151816001015f6101000a81548160ff021916908360ff16021790555060408201518160010160016101000a81548160ff021916908360ff16021790555060608201518160010160026101000a81548163ffffffff021916908363ffffffff16021790555060808201518160010160066101000a81548160ff02191690831515021790555060a0820151816002015f820151815f015f6101000a81548163ffffffff021916908363ffffffff1602179055506020820151815f0160046101000a81548163ffffffff021916908363ffffffff1602179055506040820151815f0160086101000a81548163ffffffff021916908363ffffffff1602179055506060820151815f01600c6101000a81548160ff021916908360ff160217905550505050505f60088054905090503360055f8381526020019081526020015f205f6101000a81548173ffffffffffffffffffffffffffffffffffffffff021916908373ffffffffffffffffffffffffffffffffffffffff1602179055508060065f3373ffffffffffffffffffffffffffffffffffffffff1673ffffffffffffffffffffffffffffffffffffffff1681526020019081526020015f208190555060075f3373ffffffffffffffffffffffffffffffffffffffff1673ffffffffffffffffffffffffffffffffffffffff1681526020019081526020015f205f81548092919061069c906117ad565b91905055505061096e565b60086040518060c00160405280848152602001606460ff168152602001606460ff168152602001600163ffffffff1681526020016001151581526020016040518060800160405280605063ffffffff168152602001605063ffffffff168152602001605063ffffffff168152602001605060ff16815250815250908060018154018082558091505060019003905f5260205f2090600302015f909190919091505f820151815f01908161075a91906116b1565b506020820151816001015f6101000a81548160ff021916908360ff16021790555060408201518160010160016101000a81548160ff021916908360ff16021790555060608201518160010160026101000a81548163ffffffff021916908363ffffffff16021790555060808201518160010160066101000a81548160ff02191690831515021790555060a0820151816002015f820151815f015f6101000a81548163ffffffff021916908363ffffffff1602179055506020820151815f0160046101000a81548163ffffffff021916908363ffffffff1602179055506040820151815f0160086101000a81548163ffffffff021916908363ffffffff1602179055506060820151815f01600c6101000a81548160ff021916908360ff160217905550505050505f60088054905090503360055f8381526020019081526020015f205f6101000a81548173ffffffffffffffffffffffffffffffffffffffff021916908373ffffffffffffffffffffffffffffffffffffffff1602179055508060065f3373ffffffffffffffffffffffffffffffffffffffff1673ffffffffffffffffffffffffffffffffffffffff1681526020019081526020015f208190555060075f3373ffffffffffffffffffffffffffffffffffffffff1673ffffffffffffffffffffffffffffffffffffffff1681526020019081526020015f205f815480929190610967906117ad565b9190505550505b5050565b61097a6102d1565b610982575f80fd5b61098b81610d9a565b50565b6008818154811061099d575f80fd5b905f5260205f2090600302015f91509050805f0180546109bc906114e4565b80601f01602080910402602001604051908101604052809291908181526020018280546109e8906114e4565b8015610a335780601f10610a0a57610100808354040283529160200191610a33565b820191905f5260205f20905b815481529060010190602001808311610a1657829003601f168201915b505050505090806001015f9054906101000a900460ff16908060010160019054906101000a900460ff16908060010160029054906101000a900463ffffffff16908060010160069054906101000a900460ff1690806002016040518060800160405290815f82015f9054906101000a900463ffffffff1663ffffffff1663ffffffff1681526020015f820160049054906101000a900463ffffffff1663ffffffff1663ffffffff1681526020015f820160089054906101000a900463ffffffff1663ffffffff1663ffffffff1681526020015f8201600c9054906101000a900460ff1660ff1660ff1681525050905086565b5f824283604051602001610b3a929190611814565b604051602081830303815290604052805190602001205f1c610b5c919061186c565b905092915050565b5f60025f3373ffffffffffffffffffffffffffffffffffffffff1673ffffffffffffffffffffffffffffffffffffffff1681526020019081526020015f20541480610bec5750600160025f3373ffffffffffffffffffffffffffffffffffffffff1673ffffffffffffffffffffffffffffffffffffffff1681526020019081526020015f2054145b610bf4575f80fd5b5f610bfe82610e8c565b90505f620f424082610c10919061189c565b90505f6103e88084610c22919061189c565b610c2c919061186c565b90505f6103e884610c3d919061186c565b9050600360405180606001604052808560ff1681526020018460ff1681526020018360ff16815250908060018154018082558091505060019003905f5260205f20015f909190919091505f820151815f015f6101000a81548160ff021916908360ff1602179055506020820151815f0160016101000a81548160ff021916908360ff1602179055506040820151815f0160026101000a81548160ff021916908360ff16021790555050505f60038054905090508660015f8381526020019081526020015f205f6101000a81548173ffffffffffffffffffffffffffffffffffffffff021916908373ffffffffffffffffffffffffffffffffffffffff16021790555060025f8873ffffffffffffffffffffffffffffffffffffffff1673ffffffffffffffffffffffffffffffffffffffff1681526020019081526020015f205f815480929190610d8c906117ad565b919050555050505050505050565b5f73ffffffffffffffffffffffffffffffffffffffff168173ffffffffffffffffffffffffffffffffffffffff1603610dd1575f80fd5b8073ffffffffffffffffffffffffffffffffffffffff165f8054906101000a900473ffffffffffffffffffffffffffffffffffffffff1673ffffffffffffffffffffffffffffffffffffffff167f8be0079c531659141344cd1fd0a4f28419497f9722a3daafe3b4186f6b6457e060405160405180910390a3805f806101000a81548173ffffffffffffffffffffffffffffffffffffffff021916908373ffffffffffffffffffffffffffffffffffffffff16021790555050565b5f80633b9aca004260045485604051602001610eaa939291906118cc565b604051602081830303815290604052805190602001205f1c610ecc919061186c565b905060045f815480929190610ee0906117ad565b919050555080915050919050565b5f604051905090565b5f80fd5b5f80fd5b5f819050919050565b610f1181610eff565b8114610f1b575f80fd5b50565b5f81359050610f2c81610f08565b92915050565b5f60208284031215610f4757610f46610ef7565b5b5f610f5484828501610f1e565b91505092915050565b5f60ff82169050919050565b610f7281610f5d565b82525050565b5f606082019050610f8b5f830186610f69565b610f986020830185610f69565b610fa56040830184610f69565b949350505050565b5f73ffffffffffffffffffffffffffffffffffffffff82169050919050565b5f610fd682610fad565b9050919050565b610fe681610fcc565b82525050565b5f602082019050610fff5f830184610fdd565b92915050565b5f8115159050919050565b61101981611005565b82525050565b5f6020820190506110325f830184611010565b92915050565b5f80fd5b5f80fd5b5f601f19601f8301169050919050565b7f4e487b71000000000000000000000000000000000000000000000000000000005f52604160045260245ffd5b61108682611040565b810181811067ffffffffffffffff821117156110a5576110a4611050565b5b80604052505050565b5f6110b7610eee565b90506110c3828261107d565b919050565b5f67ffffffffffffffff8211156110e2576110e1611050565b5b6110eb82611040565b9050602081019050919050565b828183375f83830152505050565b5f611118611113846110c8565b6110ae565b9050828152602081018484840111156111345761113361103c565b5b61113f8482856110f8565b509392505050565b5f82601f83011261115b5761115a611038565b5b813561116b848260208601611106565b91505092915050565b5f806040838503121561118a57611189610ef7565b5b5f61119785828601610f1e565b925050602083013567ffffffffffffffff8111156111b8576111b7610efb565b5b6111c485828601611147565b9150509250929050565b5f80604083850312156111e4576111e3610ef7565b5b5f83013567ffffffffffffffff81111561120157611200610efb565b5b61120d85828601611147565b925050602083013567ffffffffffffffff81111561122e5761122d610efb565b5b61123a85828601611147565b9150509250929050565b61124d81610fcc565b8114611257575f80fd5b50565b5f8135905061126881611244565b92915050565b5f6020828403121561128357611282610ef7565b5b5f6112908482850161125a565b91505092915050565b5f81519050919050565b5f82825260208201905092915050565b5f5b838110156112d05780820151818401526020810190506112b5565b5f8484015250505050565b5f6112e582611299565b6112ef81856112a3565b93506112ff8185602086016112b3565b61130881611040565b840191505092915050565b5f63ffffffff82169050919050565b61132b81611313565b82525050565b61133a81611313565b82525050565b61134981610f5d565b82525050565b608082015f8201516113635f850182611331565b5060208201516113766020850182611331565b5060408201516113896040850182611331565b50606082015161139c6060850182611340565b50505050565b5f610120820190508181035f8301526113bb81896112db565b90506113ca6020830188610f69565b6113d76040830187610f69565b6113e46060830186611322565b6113f16080830185611010565b6113fe60a083018461134f565b979650505050505050565b5f81905092915050565b7f6d656c65650000000000000000000000000000000000000000000000000000005f82015250565b5f611447600583611409565b915061145282611413565b600582019050919050565b5f6114678261143b565b9150819050919050565b5f61147b82611299565b6114858185611409565b93506114958185602086016112b3565b80840191505092915050565b5f6114ac8284611471565b915081905092915050565b7f4e487b71000000000000000000000000000000000000000000000000000000005f52602260045260245ffd5b5f60028204905060018216806114fb57607f821691505b60208210810361150e5761150d6114b7565b5b50919050565b5f819050815f5260205f209050919050565b5f6020601f8301049050919050565b5f82821b905092915050565b5f600883026115707fffffffffffffffffffffffffffffffffffffffffffffffffffffffffffffffff82611535565b61157a8683611535565b95508019841693508086168417925050509392505050565b5f819050919050565b5f6115b56115b06115ab84610eff565b611592565b610eff565b9050919050565b5f819050919050565b6115ce8361159b565b6115e26115da826115bc565b848454611541565b825550505050565b5f90565b6115f66115ea565b6116018184846115c5565b505050565b5b81811015611624576116195f826115ee565b600181019050611607565b5050565b601f8211156116695761163a81611514565b61164384611526565b81016020851015611652578190505b61166661165e85611526565b830182611606565b50505b505050565b5f82821c905092915050565b5f6116895f198460080261166e565b1980831691505092915050565b5f6116a1838361167a565b9150826002028217905092915050565b6116ba82611299565b67ffffffffffffffff8111156116d3576116d2611050565b5b6116dd82546114e4565b6116e8828285611628565b5f60209050601f831160018114611719575f8415611707578287015190505b6117118582611696565b865550611778565b601f19841661172786611514565b5f5b8281101561174e57848901518255600182019150602085019450602081019050611729565b8683101561176b5784890151611767601f89168261167a565b8355505b6001600288020188555050505b505050505050565b7f4e487b71000000000000000000000000000000000000000000000000000000005f52601160045260245ffd5b5f6117b782610eff565b91507fffffffffffffffffffffffffffffffffffffffffffffffffffffffffffffffff82036117e9576117e8611780565b5b600182019050919050565b5f819050919050565b61180e61180982610eff565b6117f4565b82525050565b5f61181f82856117fd565b60208201915061182f82846117fd565b6020820191508190509392505050565b7f4e487b71000000000000000000000000000000000000000000000000000000005f52601260045260245ffd5b5f61187682610eff565b915061188183610eff565b9250826118915761189061183f565b5b828206905092915050565b5f6118a682610eff565b91506118b183610eff565b9250826118c1576118c061183f565b5b828204905092915050565b5f6118d782866117fd565b6020820191506118e782856117fd565b6020820191506118f78284611471565b915081905094935050505056fea2646970667358221220592b155f34e55055bf59dea06c72dc2bd86f8d54234e93433c8f09232383b7cb64736f6c63430008150033",
  "immutableReferences": {},
  "source": "// SPDX-License-Identifier: MIT \r\npragma solidity >=0.5.0;\r\nimport \"./zombieWeapons.sol\";\r\n\r\ncontract ZombieSurvive is ZombieWeapons {\r\n    struct Class {\r\n        uint32 energy;\r\n        uint32 weight;\r\n        uint32 damage;\r\n        uint8 health;\r\n    }\r\n    \r\n    struct Player {\r\n        string name;\r\n        uint8 hunger;\r\n        uint8 water;\r\n        uint32 level;\r\n        bool alive;\r\n        Class class;\r\n    }\r\n\r\n    mapping (uint => address) IdToUser;\r\n    mapping (address => uint) OwnerToId;\r\n    mapping (address => uint) OwnerIdCount;\r\n\r\n    \r\n\r\n    Player[] public players;\r\n    function createPlayer(string memory _name, string memory _class) external {\r\n\r\n        if (keccak256(abi.encodePacked(_class)) == keccak256(abi.encodePacked(\"melee\"))) {\r\n            players.push(Player(_name,100,100,1,true,Class(100,100,100,100)));\r\n            uint id = players.length;\r\n            IdToUser[id] = msg.sender;\r\n            OwnerToId[msg.sender] = id;\r\n            OwnerIdCount[msg.sender] ++;\r\n\r\n        } else {\r\n            players.push(Player(_name,100,100,1,true,Class(80,80,80,80)));\r\n            uint id = players.length;\r\n            IdToUser[id] = msg.sender;\r\n            OwnerToId[msg.sender] = id;\r\n            OwnerIdCount[msg.sender] ++;\r\n        }\r\n    }\r\n\r\n    function findWeapon(uint _playerId, string memory _name) external{\r\n        uint modulus = 100;\r\n        uint success = 80;\r\n        uint result = _rolldice(modulus, _playerId);\r\n\r\n        address player = IdToUser[_playerId];\r\n        if(result <= success) {\r\n            _obtainWeapon(player, _name);\r\n        }\r\n    }\r\n\r\n\r\n}\r\n\r\n",
  "sourcePath": "C:\\Users\\nktdm\\Documents\\GitHub\\ZomBo\\contracts\\zombie1.sol",
  "compiler": {
    "name": "solc",
    "version": "0.8.21+commit.d9974bed.Emscripten.clang"
  },
  "schemaVersion": "3.4.16",
  "updatedAt": "2025-06-12T12:55:15.121Z",
  "devdoc": {
    "kind": "dev",
    "methods": {
      "isOwner()": {
        "returns": {
          "_0": "true if `msg.sender` is the owner of the contract."
        }
      },
      "owner()": {
        "returns": {
          "_0": "the address of the owner."
        }
      },
      "renounceOwnership()": {
        "details": "Allows the current owner to relinquish control of the contract."
      },
      "transferOwnership(address)": {
        "details": "Allows the current owner to transfer control of the contract to a newOwner.",
        "params": {
          "newOwner": "The address to transfer ownership to."
        }
      }
    },
    "version": 1
  },
  "userdoc": {
    "kind": "user",
    "methods": {
      "renounceOwnership()": {
        "notice": "Renouncing to ownership will leave the contract without an owner. It will not be possible to call the functions with the `onlyOwner` modifier anymore."
      }
    },
    "version": 1
  }
}