{
  "contractName": "ZombieWeapons",
  "abi": [
    {
      "anonymous": false,
      "inputs": [
        {
          "indexed": true,
          "internalType": "address",
          "name": "previousOwner",
          "type": "address"
        },
        {
          "indexed": true,
          "internalType": "address",
          "name": "newOwner",
          "type": "address"
        }
      ],
      "name": "OwnershipTransferred",
      "type": "event"
    },
    {
      "inputs": [],
      "name": "isOwner",
      "outputs": [
        {
          "internalType": "bool",
          "name": "",
          "type": "bool"
        }
      ],
      "stateMutability": "view",
      "type": "function"
    },
    {
      "inputs": [],
      "name": "owner",
      "outputs": [
        {
          "internalType": "address",
          "name": "",
          "type": "address"
        }
      ],
      "stateMutability": "view",
      "type": "function"
    },
    {
      "inputs": [],
      "name": "renounceOwnership",
      "outputs": [],
      "stateMutability": "nonpayable",
      "type": "function"
    },
    {
      "inputs": [
        {
          "internalType": "address",
          "name": "newOwner",
          "type": "address"
        }
      ],
      "name": "transferOwnership",
      "outputs": [],
      "stateMutability": "nonpayable",
      "type": "function"
    },
    {
      "inputs": [
        {
          "internalType": "uint256",
          "name": "",
          "type": "uint256"
        }
      ],
      "name": "weapons",
      "outputs": [
        {
          "internalType": "uint8",
          "name": "range",
          "type": "uint8"
        },
        {
          "internalType": "uint8",
          "name": "damage",
          "type": "uint8"
        },
        {
          "internalType": "uint8",
          "name": "durability",
          "type": "uint8"
        }
      ],
      "stateMutability": "view",
      "type": "function"
    }
  ],
  "bytecode": "0x60806040525f600455348015610013575f80fd5b50335f806101000a81548173ffffffffffffffffffffffffffffffffffffffff021916908373ffffffffffffffffffffffffffffffffffffffff1602179055505f8054906101000a900473ffffffffffffffffffffffffffffffffffffffff1673ffffffffffffffffffffffffffffffffffffffff165f73ffffffffffffffffffffffffffffffffffffffff167f8be0079c531659141344cd1fd0a4f28419497f9722a3daafe3b4186f6b6457e060405160405180910390a361055e806100d95f395ff3fe608060405234801561000f575f80fd5b5060043610610055575f3560e01c8063555e73c814610059578063715018a61461008b5780638da5cb5b146100955780638f32d59b146100b3578063f2fde38b146100d1575b5f80fd5b610073600480360381019061006e91906103cd565b6100ed565b60405161008293929190610413565b60405180910390f35b610093610142565b005b61009d61020c565b6040516100aa9190610487565b60405180910390f35b6100bb610233565b6040516100c891906104ba565b60405180910390f35b6100eb60048036038101906100e691906104fd565b610288565b005b600381815481106100fc575f80fd5b905f5260205f20015f91509050805f015f9054906101000a900460ff1690805f0160019054906101000a900460ff1690805f0160029054906101000a900460ff16905083565b61014a610233565b610152575f80fd5b5f73ffffffffffffffffffffffffffffffffffffffff165f8054906101000a900473ffffffffffffffffffffffffffffffffffffffff1673ffffffffffffffffffffffffffffffffffffffff167f8be0079c531659141344cd1fd0a4f28419497f9722a3daafe3b4186f6b6457e060405160405180910390a35f805f6101000a81548173ffffffffffffffffffffffffffffffffffffffff021916908373ffffffffffffffffffffffffffffffffffffffff160217905550565b5f805f9054906101000a900473ffffffffffffffffffffffffffffffffffffffff16905090565b5f805f9054906101000a900473ffffffffffffffffffffffffffffffffffffffff1673ffffffffffffffffffffffffffffffffffffffff163373ffffffffffffffffffffffffffffffffffffffff1614905090565b610290610233565b610298575f80fd5b6102a1816102a4565b50565b5f73ffffffffffffffffffffffffffffffffffffffff168173ffffffffffffffffffffffffffffffffffffffff16036102db575f80fd5b8073ffffffffffffffffffffffffffffffffffffffff165f8054906101000a900473ffffffffffffffffffffffffffffffffffffffff1673ffffffffffffffffffffffffffffffffffffffff167f8be0079c531659141344cd1fd0a4f28419497f9722a3daafe3b4186f6b6457e060405160405180910390a3805f806101000a81548173ffffffffffffffffffffffffffffffffffffffff021916908373ffffffffffffffffffffffffffffffffffffffff16021790555050565b5f80fd5b5f819050919050565b6103ac8161039a565b81146103b6575f80fd5b50565b5f813590506103c7816103a3565b92915050565b5f602082840312156103e2576103e1610396565b5b5f6103ef848285016103b9565b91505092915050565b5f60ff82169050919050565b61040d816103f8565b82525050565b5f6060820190506104265f830186610404565b6104336020830185610404565b6104406040830184610404565b949350505050565b5f73ffffffffffffffffffffffffffffffffffffffff82169050919050565b5f61047182610448565b9050919050565b61048181610467565b82525050565b5f60208201905061049a5f830184610478565b92915050565b5f8115159050919050565b6104b4816104a0565b82525050565b5f6020820190506104cd5f8301846104ab565b92915050565b6104dc81610467565b81146104e6575f80fd5b50565b5f813590506104f7816104d3565b92915050565b5f6020828403121561051257610511610396565b5b5f61051f848285016104e9565b9150509291505056fea2646970667358221220a375dfbfc1658de10f84d7dfddd6e5c13869d0ca98210427a894b87ecd6172ae64736f6c63430008150033",
  "immutableReferences": {},
  "source": "// SPDX-License-Identifier: MIT \r\npragma solidity >=0.5.0;\r\nimport \"./zombieRollDice.sol\";\r\n\r\n\r\ncontract ZombieWeapons is ZombieRollDice{\r\n    struct Weapon {\r\n        uint8 range;\r\n        uint8 damage;\r\n        uint8 durability;\r\n    }\r\n    mapping (uint => address) WeaponToOwner;\r\n    mapping (address => uint) OwnerWeaponCount;\r\n\r\n    Weapon[] public weapons;\r\n\r\n    uint RandNonce = 0;\r\n    function _weapongenerator(string memory _name) internal returns(uint) {\r\n        uint weaponProperties = uint(keccak256(abi.encodePacked(block.timestamp, RandNonce, _name))) % (10**9);\r\n        RandNonce++;\r\n        return(weaponProperties);\r\n    }\r\n\r\n    function _obtainWeapon(address _playerId,string memory _name) internal{\r\n        require(OwnerWeaponCount[msg.sender] == 0 || OwnerWeaponCount[msg.sender] == 1);\r\n        uint weaponProperties = _weapongenerator(_name);\r\n        uint range = weaponProperties/1000000;\r\n        uint damage = weaponProperties / 1000 % 1000;\r\n        uint durability = weaponProperties % 1000;\r\n        weapons.push(Weapon(uint8(range), uint8(damage), uint8(durability)));\r\n        uint id = weapons.length;\r\n        WeaponToOwner[id] = _playerId;\r\n        OwnerWeaponCount[_playerId] ++;\r\n\r\n    }\r\n\r\n\r\n}",
  "sourcePath": "C:\\Users\\nktdm\\Documents\\GitHub\\ZomBo\\contracts\\zombieWeapons.sol",
  "compiler": {
    "name": "solc",
    "version": "0.8.21+commit.d9974bed.Emscripten.clang"
  },
  "schemaVersion": "3.4.16",
  "updatedAt": "2025-06-12T12:55:15.128Z",
  "devdoc": {
    "kind": "dev",
    "methods": {
      "isOwner()": {
        "returns": {
          "_0": "true if `msg.sender` is the owner of the contract."
        }
      },
      "owner()": {
        "returns": {
          "_0": "the address of the owner."
        }
      },
      "renounceOwnership()": {
        "details": "Allows the current owner to relinquish control of the contract."
      },
      "transferOwnership(address)": {
        "details": "Allows the current owner to transfer control of the contract to a newOwner.",
        "params": {
          "newOwner": "The address to transfer ownership to."
        }
      }
    },
    "version": 1
  },
  "userdoc": {
    "kind": "user",
    "methods": {
      "renounceOwnership()": {
        "notice": "Renouncing to ownership will leave the contract without an owner. It will not be possible to call the functions with the `onlyOwner` modifier anymore."
      }
    },
    "version": 1
  }
}